:020000040800F2
:10000000E8550120BD28000825780008457800083B
:100010006578000885780008A578000800000000D1
:10002000000000000000000000000000C57800088B
:10003000E578000800000000057900084525000863
:100040002129000821290008212900082129000868
:100050002129000821290008212900082129000858
:100060002129000821290008212900082129000848
:100070002129000821290008212900082129000838
:100080002129000821290008212900082129000828
:100090006168000821290008212900082129000899
:1000A00021290008A9110008212900082129000898
:1000B0000D1200086D120008D9120008212900084D
:1000C00021290008212900082129000821290008E8
:1000D00021290008212900089D62000851630008B9
:1000E0002129000821290008111800081D14000802
:1000F000B11300082129000821290008212900083E
:1001000021290008917D00084513000821290008D5
:100110002129000821290008212900082129000897
:100120002129000821290008212900089D7D0008B7
:100130002129000821290008212900082129000877
:10014000212900082129000821290008FD1700089D
:100150002129000821290008212900082129000857
:100160002129000821290008212900082129000847
:100170002129000821290008212900082129000837
:10018000212900082129000808B540F2F050074B4A
:10019000C2F200001B1A062B00D808BD40F2000373
:1001A000C0F20003002BF8D09847F6E7F3050020D3
:1001B00008B540F2F05040F2F053C2F20000C2F233
:1001C00000031B1A9B1003EBD373591000D108BD19
:1001D00040F20002C0F20002002AF8D09047F6E791
:1001E00010B540F2F054C2F20004237873B9FFF75F
:1001F000CBFF40F20003C0F200032BB141F6D070F8
:10020000C0F60200AFF300800123237010BD00BFD1
:1002100008B540F20003C0F200034BB141F6D070C4
:1002200040F2F451C0F60200C2F20001AFF30080C8
:1002300040F2EC50C2F2000003682BB140F2000320
:10024000C0F2000303B19847BDE80840B0E700BF23
:1002500080B584B000AFF8600B467A60FB72FB7A21
:10026000013B032B52D801A252F823F07D02000873
:10027000A1020008C5020008E9020008FB68DB6A69
:1002800018460CF0F7FF0346184679680DF04AF857
:10029000034618460DF032FA0246FB685A6336E010
:1002A000FB68DB6A18460CF0E5FF034618467968E0
:1002B0000DF038F8034618460DF020FA0246FB68A8
:1002C0009A6324E0FB68DB6A18460CF0D3FF034610
:1002D000184679680DF026F8034618460DF00EFA18
:1002E0000246FB68DA6312E0FB68DB6A18460CF032
:1002F000C1FF0346184679680DF014F80346184606
:100300000DF0FCF90246FB681A6400E000BF1037EC
:10031000BD4680BD80B582B000AF78600B46FB70F3
:10032000FB78012B06D17B685B6B18460CF0A2FFB3
:1003300003461FE0FB78022B06D17B689B6B1846B7
:100340000CF098FF034615E0FB78032B06D17B6881
:10035000DB6B18460CF08EFF03460BE0FB78042B9A
:1003600006D17B681B6C18460CF084FF034601E045
:100370004FF0000318460837BD4680BD90B5ADB0BC
:1003800002AFF860B9603B601346FB800023C7F8FA
:10039000A4300023C7F8A0300023C7F89C30012305
:1003A000C7F898300023A7F8963007F083FE07F1CE
:1003B0004403184606F046FCFB68B3F1804F06D3B1
:1003C000FA684FF4A053C4F200039A420DD9FA68B8
:1003D00041F2FF73C4F200039A4217D9FA684FF44E
:1003E0000053C4F200039A4210D8FA6C4FF46053E1
:1003F000C4F20203D3F88C301B0E03F00103013367
:1004000003FB02F35B00C7F8A4300FE03A6D4FF432
:100410006053C4F20203D3F88C301B0E03F00103C7
:10042000013303FB02F35B00C7F8A4303B68002BE9
:100430000DDDD7F8A42048F21F53C5F2EB1383FB60
:1004400002135911D317CA1A3B689A4201DA0123E1
:10045000F4E01FE0D7F8A0300133C7F8A030D7F898
:10046000A420D7F8A03092FBF3F23B6892FBF3F3A1
:10047000C7F89C30D7F89C30B3F5803F02DA0023F0
:10048000C7F89830D7F8A0204FF6FE739A4201DDE6
:100490000123D3E0D7F89830002BDBD1D7F8A42084
:1004A000D7F8A03092FBF3F2D7F89C3092FBF3F32D
:1004B0003B60F86809F066FDFB880022009202208C
:1004C000B9681A46002300F0B9FDD7F89C30013B0B
:1004D000FB63D7F8A0309BB2013B9BB23B87002364
:1004E000A7F8403000237B87002387F8423007F1CC
:1004F0003803F86819460AF07FFB6023BB840023A9
:100500003B860123FB8404233B8508237B864FF431
:100510008073BB864FF40073FB8607F12403F868F1
:1005200019460AF04DFCF86800210AF039FE07F17F
:100530002403F86819460AF0BDFCF86800210AF0A7
:100540004BFE07F12403F86819460AF03BFDF868F2
:1005500000210AF05FFE07F12403F86819460AF04B
:10056000B7FDF86800210AF071FEFA680023C4F2B2
:1005700001039A4206D0FA684FF48063C4F2010383
:100580009A4211D107F1140318460AF0A5FE4FF460
:1005900080433B8407F11403F86819460AF074FE9F
:1005A000F86801210AF0B6FEFA8807F154031046F4
:1005B000194609F055FB0023A7F8963025E0B7F857
:1005C00096305B0007F1A802134433F8543C012B2A
:1005D00016D1B7F8963010335B0007F1A8010B4431
:1005E00033F8523C184609F0E1FE03461C46F86811
:1005F00009F052FF0346B86821461A4607F0CCFCC2
:10060000B7F896300133A7F89630B7F896300F2B2D
:10061000D5D9FB6800225A63FB6800229A63FB6805
:100620000022DA63FB6800221A64F86801210AF0EC
:1006300087FBF86801210AF0A3FB00231846AC37BA
:10064000BD4690BD80B489B000AFF860B960FA7162
:10065000BB800023FB76FB68DB78002B23D10023D3
:100660007B610023FB61BB880333DA1C002BB8BF1E
:1006700013469B107B61FB79FA6832339B0013446D
:100680009B683B610023FB6109E0BB681A683B691A
:100690001A60FB690133FB61BB680433BB60FA6914
:1006A0007B699A42F1D3FB7E18462437BD465DF83C
:1006B000047B704780B489B000AFF860B96013461E
:1006C000FB800023FB61FB880333DA1C002BB8BFDF
:1006D00013469B10BB61FB68D3F8D0307B610023CD
:1006E000FB6109E07B691A68BB681A60FB6901332A
:1006F000FB61BB680433BB60FA69BB699A42F1D302
:10070000BB6818462437BD465DF8047B704700BFC0
:1007100080B586B000AF786039600023FB74002399
:100720007B610023FB60FB6843F02003FB603B68B8
:10073000DBB203F01F03DAB2FB6862F38A13FB60DB
:100740007B68DB68FA681A617B68DB681B69FB60A1
:100750007B6901337B617A694FF45463C0F2030310
:100760009A4200D905E0FB68C3F34013DBB2012BCA
:10077000EAD0032008F088F8FB7C18461837BD46FD
:1007800080BD00BF80B483B000AF78607B68DB6859
:100790005B6903F0010318460C37BD465DF8047B26
:1007A000704700BF80B582B000AF78607868FFF70F
:1007B000E9FF0346012B0CBF00230123DBB21846DF
:1007C0000837BD4680BD00BF80B485B000AF7860FB
:1007D0000023FB607B68DB685B69FB607B68DB6830
:1007E0009B69FA681340FB60FB6818461437BD46E6
:1007F0005DF8047B704700BF80B485B000AF7860BF
:100800000023FB737B681B699B68BB603B7AC3F367
:100810004103DBB2022B09D0032B04D0012B02D001
:100820000323FB7305E00223FB7302E00123FB7348
:1008300000BFFB7B18461437BD465DF8047B70474C
:1008400080B487B000AF78600023FB750023BB60E5
:100850007B681B699B683B617B689B691B68FB60CD
:100860003B7CC3F34103DBB2022B04D0BB896FF3A3
:100870000A03BB8105E0BB89032262F30A03BB8143
:1008800000BF7B689B69FA681A607B7A43F00103BA
:100890007B727B681B697A6812695168BA68D243B7
:1008A0001140BA680A435A60FB7D18461C37BD46A2
:1008B0005DF8047B704700BF80B487B000AF7860FC
:1008C00039600023FB740023FB600023BB603B689E
:1008D0005B78012B0FD13B681B787A6804339B004F
:1008E00013449B687B613B681B78012202FA03F387
:1008F0009BB23B810EE03B681B787A6814339B0007
:1009000013445B687B613B681B78012202FA03F3A6
:100910009BB27B817B691B68FB607B7BC3F3C0134D
:10092000DBB2002B27D13B689B689BB2C3F30A0361
:100930009AB2BB8962F30A03BB813B68DB7803F0A0
:100940000303DAB2BB7B62F38303BB733B68DB88D0
:10095000DBB203F00F03DAB2FB8962F38913FB8188
:10096000FB7B43F01003FB737B7B43F080037B73C3
:10097000FA687B691A607B681B697A681269D169B9
:10098000BA680A43DA61FB7C18461C37BD465DF83D
:10099000047B704780B588B000AF78603960002371
:1009A000FB770023BB6100237B6100233B613B6835
:1009B0005B78012B40F0AB803B681B787A6804338E
:1009C0009B0013449B681B687B613B681B787A68BB
:1009D00004339B0013449B681B693B613B685B6964
:1009E000002B09D13B696FF312033B617B8A012223
:1009F00062F3CC037B8222E03B685B69C3F31202A3
:100A00003B6962F312033B613B685A693B689B6830
:100A100013445A1E3B689B68B2FBF3F39BB2C3F3CB
:100A200009039AB27B8A62F3CC037B823B68DB7852
:100A3000012B04D1FB7C012262F34613FB743B685B
:100A40001B787A6804339B0013449B683A691A61E7
:100A50007B68DB78012B0AD13B681B787A6804330A
:100A60009B0013449B683A6812695A6115E03B6821
:100A7000DB78012B11D03B685B69002B0DD03B6804
:100A80001B78012202FA03F3BB617B681B697A6859
:100A90001269516BBA690A435A633B68DB78012BD0
:100AA00014D17B681B699B68FB60FB68C3F30D2353
:100AB0009BB203F00103002B04D1FB7D43F0200324
:100AC000FB7503E0FB7D43F01003FB75FB7D43F0FA
:100AD0000403FB75FB7D43F08003FB753B681B78CB
:100AE0007A6804339B0013449B687A691A603B68F8
:100AF000DB78012B40F088803B68D9683B681A7826
:100B00003B685B699BB27868FFF79CFD7CE03B68C3
:100B10001B787A6814339B0013445B681B687B6105
:100B20003B681B787A6814339B0013445B681B692D
:100B30003B613B685B69002B0DD13B689B68C3F34D
:100B400012023B6962F312033B617B8A012262F36A
:100B5000CC037B821FE03B685A693B689B68134467
:100B60005A1E3B689B68B2FBF3F39BB2C3F30903C5
:100B70009AB27B8A62F3CC037B827B8AC3F3C9037C
:100B80009BB23A68926802FB03F3C3F312023B691B
:100B900062F312033B613B681B787A6814339B0055
:100BA00013445B683A691A617B68DB78012B09D1D1
:100BB0003B681B787A6814339B0013445B683A687F
:100BC00012695A613B68DB78012B0CD13B685B7979
:100BD000002B04D0FB7D43F02003FB7503E0FB7D7D
:100BE00043F01003FB75FB7D43F00403FB75FB7DB5
:100BF00043F08003FB753B681B787A6814339B00D5
:100C000013445B687A691A60FB7F18462037BD463B
:100C100080BD00BF80B489B000AF78603960002328
:100C2000FB770023BB6100233B610023BB603B6873
:100C30005B78012B6FD17B689B697B617B691B684B
:100C40003B617B691B69BB603B685B69002B09D119
:100C50003B7A6FF306033B72BB7A012262F3C40353
:100C6000BB7223E03B685A693B689B689A420ED985
:100C70003B689A683B685A613B689B68DBB203F04B
:100C80007F03DAB23B7A62F306033B7209E03B680A
:100C90005B69DBB203F07F03DAB23B7A62F30603EF
:100CA0003B72BB7A012262F3C403BB72BA687B69F0
:100CB0001A617B68DB78012B09D13B681B787A6865
:100CC00004339B0013449B683A6812695A61FB7CA9
:100CD00043F00403FB74FB7C43F08003FB743A692C
:100CE0007B691A607B68DB78002B75D13B685B6998
:100CF000002B71D03B681B78012202FA03F3BA691A
:100D00001343BB617B681B697A681269516BBA69CE
:100D10000A435A6360E03B681B787A6814339B008F
:100D200013445B681B683B613B681B787A6814332B
:100D30009B0013445B681B69BB603B685B69002BCD
:100D40000FD13B689B68DBB203F07F03DAB23B7ADA
:100D500062F306033B72BB7A012262F3C403BB72E7
:100D600012E03B689A683B685A613B689B68DBB25B
:100D700003F07F03DAB23B7A62F306033B72BB7A7D
:100D8000012262F3C403BB723B681B787A68143398
:100D90009B0013445B68BA681A617B68DB78012B9F
:100DA00009D13B681B787A6814339B0013445B6855
:100DB0003A6812695A61FB7C43F00403FB74FB7CC4
:100DC00043F08003FB743B681B787A6814339B0004
:100DD00013445B683A691A60FB7F18462437BD46A6
:100DE0005DF8047B704700BF80B487B000AF7860C7
:100DF00039600023FB750023FB603B685B78012BA7
:100E00001CD13B681B787A6804339B0013449B68B1
:100E10003B613B691B68FB60FB7BC3F3C013DBB228
:100E2000002B03D0FB7B43F04003FB73BB7B43F001
:100E30002003BB73FA683B691A6011E03B681B78BA
:100E40007A6814339B0013445B683B613B691B6801
:100E5000FB60BB7B43F02003BB73FA683B691A60FD
:100E6000FB7D18461C37BD465DF8047B704700BF0C
:100E700080B487B000AF786039600023FB74002332
:100E8000FB603B685B78012B08D13B681B787A6874
:100E900004339B0013449B687B6107E03B681B782D
:100EA0007A6814339B0013445B687B617B691B6821
:100EB000FB60BB7B6FF34513BB733B68DB78032B95
:100EC00003D03B68DB78022B03D1FB7B43F010039C
:100ED000FB73FA687B691A60FB7C18461C37BD46B9
:100EE0005DF8047B704700BF80B485B000AF7860C8
:100EF0007B681B699B69FB607B681B69DB69FA681F
:100F00001340FB60FB681B0C18461437BD465DF8A8
:100F1000047B704780B485B000AF78600B46FB70EF
:100F2000FB787A6814339B0013445B689B68FB6012
:100F30007B681B695B69FA681340FB60FB681846B5
:100F40001437BD465DF8047B704700BF80B485B0A0
:100F500000AF78607B681B699B69FB607B681B69DD
:100F6000DB69FA681340FB60FB689BB218461437D4
:100F7000BD465DF8047B704780B487B000AF7860F1
:100F800000233B61FB7C43F0C003FB74BB7C01226C
:100F900062F3C403BB743B7C182262F306033B7408
:100FA0007B685B6D3A691A617B68DB78012B16D12F
:100FB0000023FB607B685B6D7A6802F5B9625A6159
:100FC0007B685B6D1B68FB60FB7B43F08003FB73FE
:100FD0004FF08023FB607B685B6DFA681A601C37FA
:100FE000BD465DF8047B704780B485B000AF786083
:100FF0007B689B7A002B1BD07B681B699B68FB601E
:101000003B7BC3F30003DBB2012B11D17B6803F5FB
:1010100086731B68BB603B7A6FF341033B723B7A7C
:101020006FF300033B727B68D3F80C31BA681A6027
:101030001437BD465DF8047B704700BF80B584B0AF
:1010400000AF39600146F971BA80BB713A6800237C
:10105000C4F202039A4204D10120012105F0C6FE28
:101060002EE03A684FF48063C4F202039A4204D13E
:101070000220012105F0BAFE22E03A684FF4006335
:10108000C4F202039A4204D10420012105F0AEFE0D
:1010900016E03A684FF44063C4F202039A4204D166
:1010A0000820012105F0A2FE0AE03A684FF48053BF
:1010B000C4F202039A4203D11020012105F096FEEA
:1010C00007F10803184606F0FDFEBB88BB60FB79FC
:1010D0003B733B7EBB73BB79FB7303237B7307F1CD
:1010E00008033868194606F05FFEFB79012B04D12E
:1010F000BB883868194606F041FF1037BD4680BDF1
:1011000080B483B000AF78600B46FB70FB78002B97
:101110000CD04FF43053C4F201034FF43052C4F2F8
:101120000102D16B7A680A43DA630CE04FF4305362
:10113000C4F201034FF43052C4F20102D16B7A6859
:10114000D2430A40DA630C37BD465DF8047B704732
:1011500080B485B000AF78600023FB734FF4305348
:10116000C4F201035A6B7B681340002B02D00123A9
:10117000FB7301E00023FB73FB7B18461437BD466D
:101180005DF8047B704700BF80B483B000AF786027
:101190004FF43053C4F201037A689A630C37BD46AA
:1011A0005DF8047B704700BF80B500AF0023C4F238
:1011B00001031B889BB21B099BB2002B0BD040F292
:1011C0000C63C2F200031B685A1E40F20C63C2F2A9
:1011D00000031A6013E00023C4F201031B889BB2D2
:1011E0001B099BB2002B0AD140F20C63C2F2000330
:1011F0001B685A1C40F20C63C2F200031A60002004
:10120000C4F2010001210AF0CFF880BD80B500AF23
:101210004FF080431B889BB21B099BB2002B0BD065
:1012200040F21063C2F200031B685A1E40F21063C2
:10123000C2F200031A6012E04FF080431B889BB299
:101240001B099BB2002B0AD140F21063C2F20003CB
:101250001B685A1C40F21063C2F200031A604FF080
:10126000804001210AF0A0F880BD00BF80B500AF2A
:101270004FF48063C4F200031B889BB21B099BB22E
:10128000002B0BD040F21463C2F200031B685A1EFD
:1012900040F21463C2F200031A6014E04FF480635A
:1012A000C4F200031B889BB21B099BB2002B0AD11E
:1012B00040F21463C2F200031B685A1C40F214632C
:1012C000C2F200031A604FF48060C4F200000121F2
:1012D0000AF06AF880BD00BF80B500AF4FF400632C
:1012E000C4F200031B889BB21B099BB2002B0BD0DE
:1012F00040F21863C2F200031B685A1E40F21863E2
:10130000C2F200031A6014E04FF40063C4F2000359
:101310001B889BB21B099BB2002B0AD140F21863B9
:10132000C2F200031B685A1C40F21863C2F20003A9
:101330001A604FF40060C4F2000001210AF034F892
:1013400080BD00BF80B500AF4FF44063C4F200031E
:101350001B889BB21B099BB2002B0BD040F21C6375
:10136000C2F200031B685A1E40F21C63C2F2000363
:101370001A6014E04FF44063C4F200031B889BB270
:101380001B099BB2002B0AD140F21C63C2F200037E
:101390001B685A1C40F21C63C2F200031A604FF42F
:1013A0004060C4F20000012109F0FEFF80BD00BFD3
:1013B00080B500AF4FF48063C4F201031B889BB279
:1013C0001B099BB2002B0BD040F22063C2F200033A
:1013D0001B685A1E40F22063C2F200031A6014E038
:1013E0004FF48063C4F201031B889BB21B099BB2BC
:1013F000002B0AD140F22063C2F200031B685A1C82
:1014000040F22063C2F200031A604FF48060C4F21D
:101410000100012109F0C8FF80BD00BF80B500AF09
:101420004FF4C053C4F200031B889BB21B099BB24C
:10143000002B0BD040F22463C2F200031B685A1E3B
:1014400040F22463C2F200031A6014E04FF4C05368
:10145000C4F200031B889BB21B099BB2002B0AD16C
:1014600040F22463C2F200031B685A1C40F224635A
:10147000C2F200031A604FF4C050C4F20000012110
:1014800009F092FF80BD00BF80B500AF0020C4F21C
:10149000010009F049FC024640F20C63C2F200036D
:1014A0001B681B041344184680BD00BF80B500AF05
:1014B0004FF0804009F038FC024640F21063C2F25F
:1014C00000031B681B041344184680BD80B500AFA1
:1014D0004FF48060C4F2000009F026FC024640F29E
:1014E0001463C2F200031B681B041344184680BD3A
:1014F00080B500AF4FF40060C4F2000009F014FCA6
:10150000024640F21863C2F200031B681B04134436
:10151000184680BD80B500AF4FF44060C4F20000B3
:1015200009F002FC024640F21C63C2F200031B6891
:101530001B041344184680BD80B500AF4FF4806093
:10154000C4F2010009F0F0FB024640F22063C2F24F
:1015500000031B681B041344184680BD80B500AF10
:101560004FF4C050C4F2000009F0DEFB024640F226
:101570002463C2F200031B681B041344184680BD99
:1015800090B59DB002AFF860B9601346FB800023B0
:10159000A7F866300023A7F86430F86808F0F2FC7A
:1015A000FB88002200920220B9681A460123FFF747
:1015B00045FDFA8807F120031046194608F050FB54
:1015C0000023A7F8663025E0B7F866305B0007F126
:1015D00068010B4433F8483C012B16D1B7F866304C
:1015E00010335B0007F16802134433F8463C184699
:1015F00008F0DCFE03461C46F86808F04DFF034681
:10160000B86821461A4606F0C7FCB7F866300133C1
:10161000A7F86630B7F866300F2BD5D940F24003F3
:10162000C2F200031A684DF62913C6F24263A3FB07
:1016300002135B0E9BB2013BA7F864304FF6FE73BA
:10164000BB610023BB820023BB830023FB8207F125
:101650001403F868194609F0CFFAB7F86430F8684F
:101660001946012209F03EFBF868032100220023FD
:1016700009F0AAFEF8680121012209F071FEF8685C
:10168000012109F07DFBF86808F02EFC034618469E
:1016900008F076FE00F056F86C37BD4690BD00BFEE
:1016A00080B582B000AF78607A680023C4F201038D
:1016B0009A4203D1FFF7E8FE03463FE07B68B3F1AF
:1016C000804F03D1FFF7F2FE034637E07A684FF40C
:1016D0008063C4F200039A4203D1FFF7F7FE03468A
:1016E0002CE07A684FF40063C4F200039A4203D1FD
:1016F000FFF7FEFE034621E07A684FF44063C4F230
:1017000000039A4203D1FFF705FF034616E07A680B
:101710004FF48063C4F201039A4203D1FFF70CFF38
:1017200003460BE07A684FF4C053C4F200039A42B8
:1017300003D1FFF713FF034600E0002318460837E4
:10174000BD4680BD80B500AF40F20C63C2F200031D
:1017500000221A6040F21063C2F2000300221A60F5
:1017600040F21463C2F2000300221A6040F21863D0
:10177000C2F2000300221A6040F21C63C2F20003AE
:1017800000221A6040F22063C2F2000300221A60B5
:1017900040F22463C2F2000300221A600020C4F267
:1017A0000100002109F0B2FA4FF08040002109F059
:1017B000ADFA4FF48060C4F20000002109F0A6FAEF
:1017C0004FF40060C4F20000002109F09FFA4FF4CA
:1017D0004060C4F20000002109F098FA4FF48060E4
:1017E000C4F20100002109F091FA4FF4C050C4F294
:1017F0000000002109F08AFA80BD00BF80B500AF6B
:1018000040F6F470C2F2000007F0D4FC80BD00BFC7
:1018100080B500AF40F6F473C2F200039B7A002B50
:1018200013D04EF61053CEF200034EF61052CEF205
:101830000002126822F006021A6006F0F3FB40F67E
:10184000F470C2F20000FFF7CFFB4FF4802008F0E5
:10185000F7F980BD80B58AB000AF786039600023A9
:101860007B6200233B620023FB610023BB617B683A
:101870001B8A9BB27B627B6A23F440537B623B688A
:10188000DB887A6A13437B627B6A9AB27B681A822E
:101890007B689B899BB27B627B6A23F4B05323F005
:1018A0000C037B623B689A883B681B8913439AB29E
:1018B0003B685B8913439BB27A6A13437B627B6A02
:1018C0009AB27B689A817B689B8A9BB27B627B6AB7
:1018D00023F440737B623B689B897A6A13437B6283
:1018E0007B6A9AB27B689A8207F10803184605F072
:1018F000A9F97A684FF48053C4F201039A4206D0E2
:101900007A684FF4A053C4F201039A4202D17B6972
:101910003B6201E03B693B627B689B899BB29BB267
:101920001BB2002B0CDA3A6A13469B0013449A0050
:101930001A443B681B685B00B2FBF3F3FB610BE0EE
:101940003A6A13469B0013449A001A443B681B688A
:101950009B00B2FBF3F3FB61FA6948F21F53C5F237
:10196000EB13A3FB02135B091B017B627B6A1B0960
:10197000642202FB03F3FA69D31ABB617B689B897B
:101980009BB29BB21BB2002B10DABB69DB0003F1E8
:10199000320248F21F53C5F2EB13A3FB02135B099B
:1019A00003F007037A6A13437B620FE0BB691B01F4
:1019B00003F1320248F21F53C5F2EB13A3FB0213EB
:1019C0005B0903F00F037A6A13437B627B6A9AB266
:1019D0007B681A812837BD4680BD00BF80B483B0C4
:1019E00000AF78600B46FB70FB78002B08D07B685B
:1019F0009B899BB243F400539AB27B689A8107E0BB
:101A00007B689B899BB223F400539AB27B689A81CE
:101A10000C37BD465DF8047B704700BF80B483B0CF
:101A200000AF78600B467B807B88C3F308039AB2D3
:101A30007B689A800C37BD465DF8047B704700BF19
:101A400080B483B000AF78607B689B889BB2C3F39F
:101A500008039BB218460C37BD465DF8047B7047FF
:101A600080B487B000AF786013460A467A807B70F6
:101A700000233B610023FB600023BB6000237B61EC
:101A80007B687B617B88DBB25B09DBB23B617B8877
:101A900003F01F03FB60FB68012202FA03F3BB6043
:101AA0003B69012B03D17B690C337B6109E03B6906
:101AB000022B03D17B6910337B6102E07B69143315
:101AC0007B617B78002B06D07B697A691168BA68E4
:101AD0000A431A6006E07B697A691168BA68D243E2
:101AE0000A401A601C37BD465DF8047B704700BF92
:101AF00080B485B000AF78600B467B800023FB7319
:101B00007B681B889AB27B8813409BB2002B02D063
:101B10000123FB7301E00023FB73FB7B18461437A2
:101B2000BD465DF8047B704780B582B000AF786039
:101B30007A684FF4C843C4F200039A420AD14FF0C6
:101B40000070012105F0CAF94FF00070002105F086
:101B5000C5F909E04FF08060012105F0BFF94FF0B1
:101B60008060002105F0BAF90837BD4680BD00BF8E
:101B700080B485B000AF786039600023FB73002328
:101B8000BB607B681B6823F002027B681A607B687D
:101B90001B6843F001027B681A6002E0BB680133F6
:101BA000BB607B685B6803F00103002B04D1BA685B
:101BB0004FF6FF739A42F1D17B685B6803F0010333
:101BC000002B02D10023FB739CE03B689B79012B27
:101BD00006D17B681B6843F080027B681A6005E0D1
:101BE0007B681B6823F080027B681A603B68DB79A6
:101BF000012B06D17B681B6843F040027B681A60AA
:101C000005E07B681B6823F040027B681A603B6834
:101C10001B7A012B06D17B681B6843F020027B688E
:101C20001A6005E07B681B6823F020027B681A605D
:101C30003B685B7A012B06D17B681B6843F010027E
:101C40007B681A6005E07B681B6823F010027B68E4
:101C50001A603B689B7A012B06D17B681B6843F0B6
:101C600008027B681A6005E07B681B6823F00802A5
:101C70007B681A603B68DB7A012B06D17B681B68A6
:101C800043F004027B681A6005E07B681B6823F060
:101C900004027B681A603B689B789A073B68DB7894
:101CA0001B061A433B681B791B041A433B685B798C
:101CB0001B051A433B681B88013B1A437B68DA61AA
:101CC0007B681B6823F001027B681A600023BB60FD
:101CD00002E0BB680133BB607B685B6803F0010313
:101CE000002B04D0BA684FF6FF739A42F1D17B689B
:101CF0005B6803F00103002B02D00023FB7301E0BB
:101D00000123FB73FB7B18461437BD465DF8047B4B
:101D1000704700BF80B485B000AF78600023FB60DF
:101D20007B689B7A012202FA03F3FB604FF4C843FD
:101D3000C4F200034FF4C842C4F20002D2F80022F9
:101D400042F00102C3F800224FF4C843C4F200037A
:101D50004FF4C842C4F20002D2F81C12FA68D2430F
:101D60000A40C3F81C227B681B7B002B2DD14FF44B
:101D7000C843C4F200034FF4C842C4F20002D2F8D0
:101D80000C12FA68D2430A40C3F80C224FF4C8433D
:101D9000C4F200037A68927A7968C988080479687D
:101DA00049880143483243F832104FF4C842C4F224
:101DB00000027B689B7A79688988080479680988B9
:101DC00001434833DB00134459607B681B7B012BC4
:101DD0002CD14FF4C843C4F200034FF4C842C4F2FC
:101DE0000002D2F80C12FA680A43C3F80C224FF42E
:101DF000C843C4F200037A68927A796809880804B3
:101E0000796849880143483243F832104FF4C84298
:101E1000C4F200027B689B7A796889880804796833
:101E2000C98801434833DB00134459607B68DB7A7F
:101E3000002B0FD14FF4C843C4F200034FF4C84243
:101E4000C4F20002D2F80412FA68D2430A40C3F87E
:101E500004220DE04FF4C843C4F200034FF4C8421B
:101E6000C4F20002D2F80412FA680A43C3F804224A
:101E70007B681B89002B0ED14FF4C843C4F20003CA
:101E80004FF4C842C4F20002D2F81412FA68D243E6
:101E90000A40C3F814227B681B89012B0DD14FF433
:101EA000C843C4F200034FF4C842C4F20002D2F89F
:101EB0001412FA680A43C3F814227B685B7B012B77
:101EC0000DD14FF4C843C4F200034FF4C842C4F22A
:101ED0000002D2F81C12FA680A43C3F81C224FF41D
:101EE000C843C4F200034FF4C842C4F20002D2F85F
:101EF000002222F00102C3F800221437BD465DF82B
:101F0000047B704780B483B000AF78607B680022A8
:101F10009A717B680022DA717B6800221A727B68F2
:101F200000225A727B6800229A727B680022DA7261
:101F30007B6800229A707B680022DA707B6803223B
:101F40001A717B6802225A717B6801221A800C3751
:101F5000BD465DF8047B704780B485B000AF786003
:101F600039600023FB737B689B6803F08063002B60
:101F700002D00023FB7313E07B689B6803F00063CF
:101F8000002B02D00123FB730AE07B689B6803F0FF
:101F90008053002B02D00223FB7301E00423FB7368
:101FA000FB7B042B00F09880FB7BFA7B796818326E
:101FB00012010A44126802F00102796818331B0109
:101FC0000B441A603B681B7A002B13D1FB7BFA7B16
:101FD0007968183212010A4411683A68126850058B
:101FE0003A68527A02430A43796818331B010B445A
:101FF0001A6015E0FB7BFA7B7968183212010A44FB
:1020000011683A685268D0003A68127A10433A6808
:10201000527A02430A43796818331B010B441A6051
:102020003B689B7A03F00F03DAB23B689A72FB7B42
:10203000FA7B7968183212010A44526822F00F02C2
:10204000796818331B010B445A60FB7BFA7B796873
:10205000183212010A4451683A68927A0A43796840
:1020600018331B010B445A60FB7B3A68927B1106C4
:102070003A68527B120411433A68127B12021143F0
:102080003A68D27A0A4379681B010B4403F5C4739A
:102090001A60FB7B3A68927C11063A68527C120403
:1020A00011433A68127C120211433A68D27B0A4308
:1020B00079681B010B4403F5C4735A60FB7BFA7B00
:1020C0007968183212010A44126842F001027968F4
:1020D00018331B010B441A60FB7B18461437BD46AE
:1020E0005DF8047B704700BF80B485B000AF7860B6
:1020F0000B46FB700023FB60FB78012B0BD0022BFF
:1021000012D0002B18D17B689A680323C0F20043D9
:102110001340FB6013E07B689A684FF44073C0F68D
:1021200000031340FB600AE07B689A680023C1F259
:1021300003031340FB6002E00023FB6000BFFB6869
:102140004FF48072C0F60002934229D04FF480729F
:10215000C0F6000293420CD80122C0F20042934222
:102160001BD00322C0F2004293421FD0002B11D09B
:1021700025E00022C1F20102934214D00022C1F2F4
:102180000302934218D04FF44072C0F6000293420B
:102190000FD014E00223FB6014E00023FB6011E089
:1021A0000023FB600EE00023FB600BE00123FB60DB
:1021B00008E00123FB6005E00123FB6002E000234F
:1021C000FB6000BFFB68DBB218461437BD465DF804
:1021D000047B704780B485B000AFF8600B467A602E
:1021E000FB72FB7AFA681B331B0113441B68DBB2DA
:1021F00003F00403DAB27B681A727B681B7A002B47
:1022000009D1FB7AFA681B331B0113441B685A0D72
:102210007B681A6008E0FB7AFA681B331B011344E1
:102220001B68DA087B685A60FB7AFA681B331B016B
:1022300013441B68DBB203F00203DAB27B685A7204
:10224000FB7AFA681B331B0113445B68DBB203F0B3
:102250000F03DAB27B689A72FB7AFA681B331B01B0
:1022600013445B681B0ADAB27B68DA74FB7AFA689B
:102270001B01134403F5DC731B68DAB27B68DA7266
:10228000FB7AFA681B01134403F5DC731B681B0A15
:10229000DAB27B681A73FB7AFA681B01134403F500
:1022A000DC731B681B0CDAB27B685A73FB7AFA6822
:1022B0001B01134403F5DC731B681B0EDAB27B6849
:1022C0009A73FB7AFA681B01134403F5DC735B68AD
:1022D000DAB27B68DA73FB7AFA681B01134403F500
:1022E000DC735B681B0ADAB27B681A74FB7AFA68E3
:1022F0001B01134403F5DC735B681B0CDAB27B68CB
:102300005A74FB7AFA681B01134403F5DC735B68AB
:102310001B0EDAB27B689A74FB7A002B06D1FB683D
:10232000DB6843F02002FB68DA6005E0FB681B69AC
:1023300043F02002FB681A611437BD465DF8047B48
:10234000704700BF80B485B000AFF860B960134635
:10235000FB71FB79002B06D0FB685A69BB681A43F6
:10236000FB685A6106E0FB685A69BB68DB431A40A8
:10237000FB685A611437BD465DF8047B704700BFA7
:1023800080B584B000AF786039600023FB737B6850
:102390005A693B681340002B00F0B5803B68402B26
:1023A00065D0402B0FD8042B3DD0042B04D8012B33
:1023B00024D0022B2ED0A2E0102B46D0202B4DD0C3
:1023C000082B39D09BE0B3F5006F00F08680B3F5A1
:1023D000006F09D8B3F5007F6DD0B3F5806F73D06F
:1023E000B3F5807F5ED08AE0B3F5803F48D0B3F587
:1023F000003F4ED0B3F5004F78D080E07B689B68FB
:10240000184640F20111C0F2010100F083F80346C2
:10241000FB7377E07B68DB681846032100F07AF8ED
:102420000346FB736EE07B68DB681846082100F00A
:1024300071F80346FB7365E07B68DB681846102182
:1024400000F068F80346FB735CE07B681B69184684
:10245000032100F05FF80346FB7353E07B681B69C0
:102460001846082100F056F80346FB734AE07B68E3
:102470001B691846102100F04DF80346FB7341E03C
:102480007B685B681846082100F044F80346FB733C
:1024900038E07B685B681846102100F03BF8034683
:1024A000FB732FE07B689B691846012100F032F82E
:1024B0000346FB7326E07B689B691846022100F007
:1024C00029F80346FB731DE07B689B6918460421CD
:1024D00000F020F80346FB7314E07B689B69184604
:1024E000702100F017F80346FB730BE07B685B6814
:1024F0001846042100F00EF80346FB7302E00023A7
:10250000FB7300BF01E00023FB73FB7B1846103711
:10251000BD4680BD80B485B000AF786039600023CF
:10252000FB737A683B681340002B02D00123FB73D6
:1025300001E00023FB73FB7B18461437BD465DF8B2
:10254000047B704780B400AF40F22863C2F20003FE
:10255000D3E90023501C43F1000140F22863C2F28A
:102560000003C3E90001BD465DF8047B704700BF6E
:1025700080B500AF00F010F802460B461046194631
:102580004FF47A724FF000030BF0D8F802460B4676
:102590001046194680BD00BF80B400AF40F22863EA
:1025A000C2F20003D3E900230A2101FB03F000215A
:1025B00001FB02F101440A20A2FB002319440B464F
:1025C00010461946BD465DF8047B704780B500AFE4
:1025D0004CF2AC50C3F2277005F0FAF980BD00BF91
:1025E00080B584B000AFC7E900010023FB60FFF7AE
:1025F000BFFF02460B461346FB6000BFFFF7B8FF64
:10260000FB681A464FEAE273821A61EB0303D7E9CB
:102610000001904271EB030CF0DA1037BD4680BD2B
:1026200080B582B000AFC7E90001D7E90001FFF72C
:10263000D7FF0837BD4680BD80B58AB002AFF860CD
:102640007A600A46FA723B8107F114031846FFF7D5
:1026500059FCFB68012B0BD14FF4C840C4F20000B9
:10266000FFF762FA4FF00070012104F0E7FB0DE084
:10267000FB68022B0AD14FF4D040C4F20000FFF7F0
:1026800053FA4FF08060012104F0D8FB3B8900220F
:102690000092022079681A460123FEF7CFFCBB8D19
:1026A000002200920220B96A1A460123FEF7C6FCF6
:1026B000FB68012B14D13B89184607F077FE0346CF
:1026C00078681946092205F067FCBB8D184607F0AB
:1026D0006DFE0346B86A1946092205F05DFC16E056
:1026E000FB68022B13D13B89184607F05FFE0346B7
:1026F00078681946092205F04FFCBB8D184607F093
:1027000055FE0346B86A1946092205F045FC012327
:10271000BB760023FB7600233B7700237B770023E7
:10272000BB770023FB77FB7ABB750023FB75052382
:102730003B7606237B760323BB82FB68012B09D102
:1027400007F114034FF4C840C4F200001946FFF724
:102750000FFA0BE0FB68022B08D107F114034FF4CA
:10276000D040C4F200001946FFF702FA4FF4E060CF
:1027700007F0F4FEFB68012B0BD1142007F000FEDC
:102780004FF4C840C4F2000002210122FFF7DAFD35
:102790000DE0FB68022B0AD1402007F0F1FD4FF459
:1027A000D040C4F2000002210122FFF7CBFD203708
:1027B000BD4680BD80B586B000AF7860F9703A80C4
:1027C000BB700023FB820023FB820EE0FB8ADBB29E
:1027D000BB7400233B8200237B7507F10803184676
:1027E000FFF798FAFB8A0133FB82B7F916300D2BFD
:1027F000ECDD7B68DBB2BB7400233B8201237B757D
:10280000FB78002B02D10023FB7404E0FB78012B42
:1028100001D10123FB7400233B75B7F900305B0144
:102820009AB2BB781B019BB213439BB29BB27B81D4
:10283000B7F920305B019AB297F824301B019BB2A4
:1028400013439BB29BB2FB81B7F928305B019AB26C
:1028500097F82C301B019BB213439BB29BB23B8178
:10286000B7F930305B019AB297F834301B019BB254
:1028700013439BB29BB2BB8107F108031846FFF7D5
:1028800049FA1837BD4680BD80B582B000AF786088
:102890004FF4C840C4F200007968FFF75DFB00BF49
:1028A0004FF4C840C4F200000021FFF71DFC0346AE
:1028B000012BF5D10837BD4680BD00BF80B582B081
:1028C00000AF42F68053C0F602037B6040F2000383
:1028D000C2F200033B6007E03B681A1D3A607A6869
:1028E000111D796012681A603A6840F2F053C2F222
:1028F00000039A42F0D3084808494FF0000288428A
:10290000B8BF40F8042BFADB04F038FB04F0CAF837
:102910000837BD4680BD0000F0050020E815002006
:1029200080B400AFFEE700BF80B584B000AF786030
:1029300007F108037868194606F0D2FB3B7A03F0EA
:102940001F03012B0AD0022B0FD0002B14D107F14B
:1029500008037868194605F0BDFF16E007F1080383
:102960007868194606F006F80FE007F10803786862
:10297000194606F033F808E03B7A23F07F03DBB218
:102980007868194607F02EFF00BF0023184610375D
:10299000BD4680BD80B584B000AF78600B46FB704B
:1029A000FB78002B45D17B6803F55C73FB607B688B
:1029B00093F81131032B4FD1FB68DA69FB689B68F0
:1029C0009A4221D9FB68DA69FB689B68D21AFB68D6
:1029D000DA617B68DB78012B06D1FB68DA68FB687B
:1029E0009B681A44FB68DA60FB68DA68FB689968E0
:1029F000FB68DB69994238BF0B469BB27868114689
:102A00001A4608F045F827E07B68D3F8E0351B69E3
:102A1000002B0AD07B6893F81231032B05D17B6819
:102A2000D3F8E0351B6978689847786808F044F86F
:102A300012E07B68D3F8E0359B69002B0CD07B68F3
:102A400093F81231032B07D17B68D3F8E0359B69EB
:102A5000FA78786811469847002318461037BD4623
:102A600080BD00BF80B584B000AF78600B46FB70BE
:102A7000FB78002B60D17B6803F58C73FB607B686F
:102A800093F81131022B6AD1FB68DA69FB689B6805
:102A90009A421CD9FB68DA69FB689B68D21AFB680A
:102AA000DA617B68DB78012B06D1FB68DA68FB68AA
:102AB0009B681A44FB68DA60FB68DA68FB68DB69CC
:102AC0009BB2786811461A4607F0CEFF47E0FB68D4
:102AD0001B6AFA689268B3FBF2F102FB01F29B1ADF
:102AE000002B14D1FB681A6AFB689B689A420ED3CC
:102AF000FB681A6AFB685B6A9A4208D27868002110
:102B0000002207F0B1FFFB6800225A6227E07B68D1
:102B1000D3F8E035DB68002B0AD07B6893F81231DC
:102B2000032B05D17B68D3F8E035DB6878689847DC
:102B3000786807F0D9FF12E07B68D3F8E0355B696D
:102B4000002B0CD07B6893F81231032B07D17B68E4
:102B5000D3F8E0355B69FA78786811469847002326
:102B600018461037BD4680BD80B582B000AF786092
:102B7000786800214022002307F06AFD78688021F0
:102B80004022002307F064FD7B68012283F81221B4
:102B90007B68D3F8E4355B687A689278104698478A
:102BA000002318460837BD4680BD00BF80B582B0FF
:102BB00000AF78607B68D3F8E4351B6998477B6881
:102BC000032283F81221002318460837BD4680BD32
:102BD00080B582B000AF78607B68042283F8122150
:102BE0007B68D3F8E435DB6898470023184608373C
:102BF000BD4680BD80B582B000AF78607B68D3F8F9
:102C0000E035DB69002B05D07B68D3F8E035DB6964
:102C100078689847002318460837BD4680BD00BF36
:102C200080B582B000AF78600B46FB707B68D3F84C
:102C3000E0351B68FA787868114698477B68D3F8C6
:102C4000E4359B689847002318460837BD4680BD89
:102C500080B582B000AF78600B46FB707B68D3F81C
:102C6000E0355B68FA787868114698470023184683
:102C70000837BD4680BD00BF80B582B000AF786028
:102C80007B68D3F8E0351B6A7868984700231846BC
:102C90000837BD4680BD00BF80B582B000AF786008
:102CA0007B68D3F8E0355B6A78689847002318465C
:102CB0000837BD4680BD00BF80B483B000AF7860E8
:102CC00039607B683A689A607B6800225A6000230A
:102CD00018460C37BD465DF8047B704780B483B05E
:102CE00000AF786039600C37BD465DF8047B7047F3
:102CF00080B582B000AF78607B68064A1A607B6856
:102D00001033184603F0B2FD7B6818460837BD46FD
:102D100080BD00BFF8FA010880B582B000AF7860CE
:102D200039607B681846FFF7E3FF7B68074A1A6043
:102D30007B683A68C3F820217B680022C3F81C2115
:102D40007B6818460837BD4680BD00BF18F90108EA
:102D500080B582B000AF78600B46FB707B6803F1F2
:102D60001002FB781046194603F094FD0346002B31
:102D700014BF00230123DBB2002B0AD0FB780D2BFC
:102D800013D17B68D3F81C315A1C7B68C3F81C2113
:102D90000BE07B68D3F81C31002B06D1FB780D2BA0
:102DA00003D17B680122C3F81C210837BD4680BDD2
:102DB00080B582B000AF78607B681033184603F0AE
:102DC0009BFD0346002B14BF00230123DBB21846F2
:102DD0000837BD4680BD00BF80B483B000AF7860C7
:102DE0007B68D3F81C3118460C37BD465DF8047B70
:102DF000704700BF80B582B000AF78607B68103349
:102E0000184603F08FFD034618460837BD4680BDBF
:102E100090B585B000AF786039607B681033184694
:102E200003F06AFD0346002B0CBF00230123DBB235
:102E3000002B08D03B6800221A707B680022C3F880
:102E40001C21002354E00023FB604DE0FB683A683E
:102E5000D4187B681033184603F064FD03462370D2
:102E6000FB683A6813441B780D2B02D0FB68FE2BDD
:102E70001FDDFB683A68134400221A707B68103328
:102E8000184603F039FD0346002B0CBF0023012335
:102E9000DBB2002B04D07B680022C3F81C2106E0C3
:102EA0007B68D3F81C315A1E7B68C3F81C21FB6871
:102EB0001EE07B681033184603F01EFD0346002B0E
:102EC0000CBF00230123DBB2002B0AD0FB683A6859
:102ED000134400221A707B680022C3F81C21FB688F
:102EE00006E0FB680133FB60FB68FF2BAEDD0023CF
:102EF00018461437BD4690BD80B582B000AF7860EB
:102F00007B689B68012B06D17B685B681846FFF7DE
:102F100063FF034600E0002318460837BD4680BD26
:102F200080B582B000AF786039603B6800221A70CB
:102F30007B689B68012B07D17B685B681846396802
:102F4000FFF766FF034600E0002318460837BD463A
:102F500080BD00BF80B582B000AF78607B689B68A1
:102F6000012B06D17B685B681846FFF721FF0346FB
:102F700000E0002318460837BD4680BD80B582B00A
:102F800000AF78607B689B68012B06D17B685B682B
:102F90001846FFF72FFF034600E0002318460837C6
:102FA000BD4680BD80B584B000AF78603960002335
:102FB000FB600DE07B681B6804331B68FA683968A6
:102FC0000A441278786811469847FB680133FB6021
:102FD000FB683A6813441B78002BEBD11037BD46D1
:102FE00080BD00BF90B587B002AFF860B9607A606D
:102FF0003B60FB6802229A60FB681B681C683B68A8
:103000000093F868B9687A683B6AA0470346184697
:103010001437BD4690BD00BF90B587B002AFF860D1
:10302000B9607A603B60FB6801229A604FF492704D
:1030300014F0A8F904462046F968FFF76DFEFB6816
:103040005C60FB681B681C68FB685B687A680092C0
:10305000F868B9681A463B68A04703461846143713
:10306000BD4690BD80B584B000AF78607B681B68BA
:103070000C331B68786898470346FB60FB68002B9D
:1030800001D0FB6803E07B6801225A6000231846E8
:103090001037BD4680BD00BF80B584B000AF7860FA
:1030A0007B681B6810331B68786898470346FB6091
:1030B000FB68002B01D0FB6803E07B6802225A60AA
:1030C000002318461037BD4680BD00BF80B584B0D0
:1030D00000AF78607B681B6814331B68786898477A
:1030E0000346FB60FB68002B01D0FB6803E07B68B4
:1030F00003225A60002318461037BD4680BD00BF2A
:1031000080B584B000AF78607B681B6818331B689B
:10311000786898470346FB60FB68002B01D0FB688A
:1031200003E07B6804225A60002318461037BD462E
:1031300080BD00BF80B582B000AF786039607B6829
:103140005B68002B00D125E07B685B68022B07D110
:103150007B681B6804331B6878683968984719E0F6
:103160003B68012B06D17B681B6824331B68786899
:1031700098470FE03B68002B06D17B681B6828331B
:103180001B687868984705E07B681B681C331B68E0
:10319000786898470837BD4680BD00BF80B582B0CB
:1031A00000AF78607B685B68002B01D1002319E0D9
:1031B0007B685B68012B07D07B685B68032B03D0BF
:1031C0007B685B68042B07D17B681B6808331B682E
:1031D00078689847034605E07B681B681B68786839
:1031E0009847034618460837BD4680BD80B582B073
:1031F00000AF78607B681B682C331B6878680121FE
:1032000098470837BD4680BD80B582B000AF786072
:103210007B681B682C331B68786800219847083747
:10322000BD4680BD90B583B000AF78607B681B68F9
:103230002C331C687B681B6830331B6878689847A0
:103240000346002B14BF00230123DBB27868194624
:10325000A0470C37BD4690BD80B582B000AF786006
:103260007B681B681B6878689847034618460837D0
:10327000BD4680BD80B582B000AF78607B681B68BA
:1032800004331B6878689847034618460837BD46DC
:1032900080BD00BF80B584B000AFF860B9607A60CF
:1032A000FB681B681B68F868B9687A68984703462A
:1032B00018461037BD4680BD80B582B000AF78603B
:1032C00039607B681B6804331B68786839689847E5
:1032D0000837BD4680BD00BF80B582B000AF7860C2
:1032E0007B681B6808331B68786898470346184654
:1032F0000837BD4680BD00BF80B483B000AF7860A2
:1033000040F6FF7318460C37BD465DF8047B7047E6
:10331000A0F10800F0E700BF80B483B000AF786090
:1033200043F23333C4F2530318460C37BD465DF8FD
:10333000047B7047A0F10800EEE700BF80B483B0C3
:1033400000AF786040F6FF7318460C37BD465DF855
:10335000047B7047A0F10800F0E700BF80B483B0A1
:1033600000AF786043F23333C4F2530318460C378E
:10337000BD465DF8047B7047A0F10800EEE700BF92
:1033800080B483B000AF786040F6FF7318460C3706
:10339000BD465DF8047B7047A0F10800F0E700BF70
:1033A00080B483B000AF786043F23333C4F2530388
:1033B00018460C37BD465DF8047B7047A0F1080045
:1033C000EEE700BF80B483B000AF786040F6FF73D3
:1033D00018460C37BD465DF8047B7047A0F1080025
:1033E000F0E700BF80B483B000AF786043F23333BE
:1033F000C4F2530318460C37BD465DF8047B704792
:10340000A0F10800EEE700BF80B483B000AF7860A1
:1034100040F6FF7318460C37BD465DF8047B7047D5
:10342000A0F10800F0E700BF80B483B000AF78607F
:1034300043F23333C4F2530318460C37BD465DF8EC
:10344000047B7047A0F10800EEE700BF80B582B0B2
:1034500000AF78604FF48060C4F202004FF48051F6
:1034600004F064FD034618460837BD4680BD00BF22
:1034700080B582B000AF786039603B68002B08D11E
:103480004FF48060C4F202004FF4805104F076FDE6
:1034900007E04FF48060C4F202004FF4805104F062
:1034A0005FFD0837BD4680BD80B582B000AF786053
:1034B0004FF48060C4F202004FF4805104F01CFD10
:1034C000034618460837BD4680BD00BF80B584B0AE
:1034D00002AF78600023009300204FF48061C4F2B3
:1034E00002014FF480520023FDF7A8FD0023184687
:1034F0000837BD4680BD00BF80B584B002AF78609C
:103500000023009301204FF48061C4F202014FF4C4
:1035100080520023FDF792FD002318460837BD4670
:1035200080BD00BF80B584B002AF786000230093F7
:1035300000204FF48061C4F202014FF48052012355
:10354000FDF77CFD002318460837BD4680BD00BF4F
:1035500080B584B002AF78600023009300204FF460
:103560008061C4F202014FF480520223FDF766FD30
:10357000002318460837BD4680BD00BF80B582B025
:1035800000AF78604FF48050C4F202004FF4004165
:1035900004F0CCFC034618460837BD4680BD00BF8A
:1035A00080B582B000AF786039603B68002B08D1ED
:1035B0004FF48050C4F202004FF4004104F0DEFCEE
:1035C00007E04FF48050C4F202004FF4004104F0D1
:1035D000C7FC0837BD4680BD80B582B000AF7860BB
:1035E0004FF48050C4F202004FF4004104F084FC18
:1035F000034618460837BD4680BD00BF80B584B07D
:1036000002AF78600023009300204FF48051C4F291
:1036100002014FF400420023FDF710FD012318467C
:103620000837BD4680BD00BF80B584B002AF78606A
:103630000023009301204FF48051C4F202014FF4A3
:1036400000420023FDF7FAFC002318460837BD4668
:1036500080BD00BF80B584B002AF786000230093C6
:1036600000204FF48051C4F202014FF400420123C4
:10367000FDF7E4FC012318460837BD4680BD00BFB6
:1036800080B584B002AF78600023009300204FF42F
:103690008051C4F202014FF400420223FDF7CEFC38
:1036A000002318460837BD4680BD00BF80B582B0F4
:1036B00000AF78604FF48060C4F202004FF48041A4
:1036C00004F034FC034618460837BD4680BD00BFF1
:1036D00080B582B000AF786039603B68002B08D1BC
:1036E0004FF48060C4F202004FF4804104F046FCC5
:1036F00007E04FF48060C4F202004FF4804104F010
:103700002FFC0837BD4680BD80B582B000AF786021
:103710004FF48060C4F202004FF4804104F0ECFBEF
:10372000034618460837BD4680BD00BF80B584B04B
:1037300002AF78600023009300204FF48061C4F250
:1037400002014FF480420023FDF778FC0023184665
:103750000837BD4680BD00BF80B584B002AF786039
:103760000023009301204FF48061C4F202014FF462
:1037700080420023FDF762FC002318460837BD464F
:1037800080BD00BF80B584B002AF78600023009395
:1037900000204FF48061C4F202014FF48042012303
:1037A000FDF74CFC002318460837BD4680BD00BF1E
:1037B00080B584B002AF78600023009300204FF4FE
:1037C0008061C4F202014FF480420223FDF736FC0F
:1037D000002318460837BD4680BD00BF80B582B0C3
:1037E00000AF78604FF48060C4F202004FF40041F3
:1037F00004F09CFB034618460837BD4680BD00BF59
:1038000080B582B000AF786039603B68002B08D18A
:103810004FF48060C4F202004FF4004104F0AEFBAC
:1038200007E04FF48060C4F202004FF4004104F05E
:1038300097FB0837BD4680BD80B582B000AF786089
:103840004FF48060C4F202004FF4004104F054FBD6
:10385000034618460837BD4680BD00BF80B584B01A
:1038600002AF78600023009300204FF48061C4F21F
:1038700002014FF400420023FDF7E0FB002318464D
:103880000837BD4680BD00BF80B584B002AF786008
:103890000023009301204FF48061C4F202014FF431
:1038A00000420023FDF7CAFB002318460837BD4637
:1038B00080BD00BF80B584B002AF78600023009364
:1038C00000204FF48061C4F202014FF40042012352
:1038D000FDF7B4FB002318460837BD4680BD00BF86
:1038E00080B584B002AF78600023009300204FF4CD
:1038F0008061C4F202014FF400420223FDF79EFBF7
:10390000002318460837BD4680BD00BF80B582B091
:1039100000AF78600020C4F202004FF4004104F0D0
:1039200005FB034618460837BD4680BD80B582B00A
:1039300000AF786039603B68002B07D10020C4F2EB
:1039400002004FF4004104F019FB06E00020C4F22D
:1039500002004FF4004104F003FB0837BD4680BD70
:1039600080B582B000AF78600020C4F202004FF44E
:10397000004104F0C1FA034618460837BD4680BD31
:1039800080B584B002AF786000230093002000214E
:10399000C4F202014FF400420023FDF74FFB002365
:1039A00018460837BD4680BD80B483B000AF78604C
:1039B000012318460C37BD465DF8047B704700BFF5
:1039C00080B584B002AF786000230093002000210E
:1039D000C4F202014FF400420123FDF72FFB002344
:1039E00018460837BD4680BD80B584B002AF786008
:1039F0000023009300200021C4F202014FF4004292
:103A00000223FDF71BFB002318460837BD4680BD87
:103A100080B582B000AF78604FF48060C4F20200DD
:103A20004FF4005104F082FA034618460837BD46A9
:103A300080BD00BF80B582B000AF786039603B6860
:103A4000002B08D14FF48060C4F202004FF4005103
:103A500004F094FA07E04FF48060C4F202004FF4DF
:103A6000005104F07DFA0837BD4680BD80B582B0B4
:103A700000AF78604FF48060C4F202004FF4005150
:103A800004F03AFA034618460837BD4680BD00BF29
:103A900080B584B002AF78600023009300204FF41B
:103AA0008061C4F202014FF400520023FDF7C6FA10
:103AB000002318460837BD4680BD00BF80B483B0E0
:103AC00000AF7860012318460C37BD465DF8047BD3
:103AD000704700BF80B584B002AF786000230093C8
:103AE00000204FF48061C4F202014FF40052012320
:103AF000FDF7A4FA002318460837BD4680BD00BF75
:103B000080B584B002AF78600023009300204FF4AA
:103B10008061C4F202014FF400520223FDF78EFAD5
:103B2000002318460837BD4680BD00BF80B582B06F
:103B300000AF78604FF44060C4F202004FF40061BF
:103B400004F0F4F9034618460837BD4680BD00BFAF
:103B500080B582B000AF786039603B68002B08D137
:103B60004FF44060C4F202004FF4006104F006FA22
:103B700007E04FF44060C4F202004FF4006104F02B
:103B8000EFF90837BD4680BD80B582B000AF7860E0
:103B90004FF44060C4F202004FF4006104F0ACF94D
:103BA000034618460837BD4680BD00BF80B584B0C7
:103BB00002AF78600023009300204FF44061C4F20C
:103BC00002014FF400620023FDF738FA0023184683
:103BD0000837BD4680BD00BF80B483B000AF7860B9
:103BE000012318460C37BD465DF8047B704700BFC3
:103BF00080B584B002AF78600023009300204FF4BA
:103C00004061C4F202014FF400620123FDF716FA8D
:103C1000002318460837BD4680BD00BF80B584B07C
:103C200002AF78600023009300204FF44061C4F29B
:103C300002014FF400620223FDF700FA0023184648
:103C40000837BD4680BD00BF80B582B000AF786048
:103C50004FF44060C4F202004FF4806104F066F952
:103C6000034618460837BD4680BD00BF80B582B008
:103C700000AF786039603B68002B08D14FF440609A
:103C8000C4F202004FF4806104F078F907E04FF4C9
:103C90004060C4F202004FF4806104F061F908371B
:103CA000BD4680BD80B582B000AF78604FF4406003
:103CB000C4F202004FF4806104F01EF90346184676
:103CC0000837BD4680BD00BF80B584B002AF7860C4
:103CD0000023009300204FF44061C4F202014FF42E
:103CE00080620023FDF7AAF9002318460837BD4675
:103CF00080BD00BF80B483B000AF78600123184658
:103D00000C37BD465DF8047B704700BF80B584B0BA
:103D100002AF78600023009300204FF44061C4F2AA
:103D200002014FF480620123FDF788F90023184651
:103D30000837BD4680BD00BF80B584B002AF786053
:103D40000023009300204FF44061C4F202014FF4BD
:103D500080620223FDF772F9002318460837BD463A
:103D600080BD00BF80B582B000AF78604FF4806046
:103D7000C4F20200022104F0D9F8034618460837BD
:103D8000BD4680BD80B582B000AF786039603B68C9
:103D9000002B07D14FF48060C4F20200022104F02E
:103DA000EDF806E04FF48060C4F20200022104F056
:103DB000D7F80837BD4680BD80B582B000AF7860C7
:103DC0004FF48060C4F20200022104F095F803462B
:103DD00018460837BD4680BD80B584B002AF786014
:103DE0000023009300204FF48061C4F202010222FC
:103DF0000023FDF723F9002318460837BD4680BD90
:103E000080B584B002AF78600023009301204FF4A6
:103E10008061C4F2020102220023FDF70FF90023A2
:103E200018460837BD4680BD80B584B002AF7860C3
:103E30000023009300204FF48061C4F202010222AB
:103E40000123FDF7FBF8002318460837BD4680BD67
:103E500080B584B002AF78600023009300204FF457
:103E60008061C4F2020102220223FDF7E7F8002379
:103E700018460837BD4680BD80B582B000AF786077
:103E80000020C4F20200102104F050F80346184646
:103E90000837BD4680BD00BF80B582B000AF7860F6
:103EA00039603B68002B06D10020C4F202001021CB
:103EB00004F064F805E00020C4F20200102104F0D0
:103EC0004FF80837BD4680BD80B582B000AF78603E
:103ED0000020C4F20200102104F00EF80346184638
:103EE0000837BD4680BD00BF80B584B002AF7860A2
:103EF0000023009300200021C4F2020110220023BD
:103F0000FDF79CF8002318460837BD4680BD00BF6A
:103F100080B584B002AF78600023009301200021B7
:103F2000C4F2020110220023FDF788F8002318468E
:103F30000837BD4680BD00BF80B584B002AF786051
:103F40000023009300200021C4F20201102201236B
:103F5000FDF774F8002318460837BD4680BD00BF42
:103F600080B584B002AF7860002300930020002168
:103F7000C4F2020110220223FDF760F80023184664
:103F80000837BD4680BD00BF80B582B000AF786005
:103F90004FF40060C4F20200012103F0C7FF0346A2
:103FA00018460837BD4680BD80B582B000AF786046
:103FB00039603B68002B07D14FF40060C4F2020067
:103FC000012103F0DBFF06E04FF40060C4F20200C1
:103FD000012103F0C5FF0837BD4680BD80B582B022
:103FE00000AF78604FF40060C4F20200012103F0DA
:103FF00083FF034618460837BD4680BD80B584B0B0
:1040000002AF78600023009300204FF40061C4F2F7
:10401000020101220023FDF711F80023184608379A
:10402000BD4680BD80B584B002AF786000230093A8
:1040300001204FF40061C4F2020101220023FCF7C9
:10404000FDFF002318460837BD4680BD80B584B00B
:1040500002AF78600023009300204FF40061C4F2A7
:10406000020101220123FCF7E9FF0023184608376B
:10407000BD4680BD80B584B002AF78600023009358
:1040800000204FF40061C4F2020101220223FCF778
:10409000D5FF002318460837BD4680BD80B582B0E5
:1040A00000AF78604FF48050C4F202004FF48051AA
:1040B00003F03CFF034618460837BD4680BD00BFED
:1040C00080B582B000AF786039603B68002B08D1C2
:1040D0004FF48050C4F202004FF4805103F04EFFC1
:1040E00007E04FF48050C4F202004FF4805103F017
:1040F00037FF0837BD4680BD80B582B000AF78601D
:104100004FF48050C4F202004FF4805103F0F4FEEB
:10411000034618460837BD4680BD00BF80B584B051
:1041200002AF78600023009300204FF48051C4F266
:1041300002014FF480520023FCF780FF0023184651
:104140000837BD4680BD00BF80B584B002AF78603F
:104150000023009301204FF48051C4F202014FF478
:1041600080520023FCF76AFF002318460837BD463B
:1041700080BD00BF80B584B002AF7860002300939B
:1041800000204FF48051C4F202014FF48052012309
:10419000FCF754FF002318460837BD4680BD00BF1A
:1041A00080B584B002AF78600023009300204FF404
:1041B0008051C4F202014FF480520223FCF73EFF0B
:1041C000002318460837BD4680BD00BF80B582B0C9
:1041D00000AF78600020C4F20200202103F0A6FEA8
:1041E000034618460837BD4680BD00BF80B582B083
:1041F00000AF786039603B68002B06D10020C4F224
:104200000200202103F0BAFE05E00020C4F2020003
:10421000202103F0A5FE0837BD4680BD80B582B0E1
:1042200000AF78600020C4F20200202103F064FE99
:10423000034618460837BD4680BD00BF80B584B030
:1042400002AF78600023009300200021C4F2020135
:1042500020220023FCF7F2FE002318460837BD4653
:1042600080BD00BF80B584B002AF786000230093AA
:1042700001200021C4F2020120220023FCF7DEFE0F
:10428000002318460837BD4680BD00BF80B584B006
:1042900002AF78600023009300200021C4F20201E5
:1042A00020220123FCF7CAFE002318460837BD462A
:1042B00080BD00BF80B584B002AF7860002300935A
:1042C00000200021C4F2020120220223FCF7B6FEE6
:1042D000002318460837BD4680BD00BF80B582B0B8
:1042E00000AF78604FF48060C4F20200042103F054
:1042F0001DFE034618460837BD4680BD80B582B016
:1043000000AF786039603B68002B07D14FF48060C4
:10431000C4F20200042103F031FE06E04FF4806095
:10432000C4F20200042103F01BFE0837BD4680BD25
:1043300080B582B000AF78604FF48060C4F20200B4
:10434000042103F0D9FD034618460837BD4680BD59
:1043500080B584B002AF78600023009300204FF452
:104360008061C4F2020104220023FCF767FE0023EF
:1043700018460837BD4680BD80B584B002AF78606E
:104380000023009301204FF48061C4F20201042253
:104390000023FCF753FE002318460837BD4680BDB6
:1043A00080B584B002AF78600023009300204FF402
:1043B0008061C4F2020104220123FCF73FFE0023C6
:1043C00018460837BD4680BD80B584B002AF78601E
:1043D0000023009300204FF48061C4F20201042204
:1043E0000223FCF72BFE002318460837BD4680BD8C
:1043F00080B582B000AF78604FF48050C4F2020004
:10440000802103F093FD034618460837BD4680BD62
:1044100080B582B000AF786039603B68002B07D16F
:104420004FF48050C4F20200802103F0A7FD06E0A3
:104430004FF48050C4F20200802103F091FD083750
:10444000BD4680BD80B582B000AF78604FF480502B
:10445000C4F20200802103F04FFD034618460837DE
:10446000BD4680BD80B584B002AF78600023009364
:1044700000204FF48051C4F2020180220023FCF797
:10448000DDFD002318460837BD4680BD80B584B0E9
:1044900002AF78600023009301204FF48051C4F2F2
:1044A000020180220023FCF7C9FD002318460837CB
:1044B000BD4680BD80B584B002AF78600023009314
:1044C00000204FF48051C4F2020180220123FCF746
:1044D000B5FD002318460837BD4680BD80B584B0C1
:1044E00002AF78600023009300204FF48051C4F2A3
:1044F000020180220223FCF7A1FD002318460837A1
:10450000BD4680BD80B582B000AF78604FF480506A
:10451000C4F202004FF4806103F008FD0346184620
:104520000837BD4680BD00BF80B582B000AF78605F
:1045300039603B68002B08D14FF48050C4F2020070
:104540004FF4806103F01AFD07E04FF48050C4F28D
:1045500002004FF4806103F003FD0837BD4680BDC3
:1045600080B582B000AF78604FF48050C4F2020092
:104570004FF4806103F0C0FC034618460837BD467F
:1045800080BD00BF80B584B002AF78600023009387
:1045900000204FF48051C4F202014FF480620023E6
:1045A000FCF74CFD002318460837BD4680BD00BF10
:1045B00080B584B002AF78600023009301204FF4EF
:1045C0008051C4F202014FF480620023FCF736FDF3
:1045D000002318460837BD4680BD00BF80B584B0B3
:1045E00002AF78600023009300204FF48051C4F2A2
:1045F00002014FF480620123FCF720FD00231846DE
:104600000837BD4680BD00BF80B584B002AF78607A
:104610000023009300204FF48051C4F202014FF4B4
:1046200080620223FCF70AFD002318460837BD46C6
:1046300080BD00BF80B582B000AF78604FF480606D
:10464000C4F20200012103F071FC0346184608374A
:10465000BD4680BD80B582B000AF786039603B68F0
:10466000002B07D14FF48060C4F20200012103F057
:1046700085FC06E04FF48060C4F20200012103F0E3
:104680006FFC0837BD4680BD80B582B000AF786052
:104690004FF48060C4F20200012103F02DFC0346B8
:1046A00018460837BD4680BD80B584B002AF78603B
:1046B0000023009300204FF48061C4F20201012224
:1046C0000023FCF7BBFC002318460837BD4680BD1D
:1046D00080B584B002AF78600023009301204FF4CE
:1046E0008061C4F2020101220023FCF7A7FC002331
:1046F00018460837BD4680BD80B584B002AF7860EB
:104700000023009300204FF48061C4F202010122D3
:104710000123FCF793FC002318460837BD4680BDF3
:1047200080B584B002AF78600023009300204FF47E
:104730008061C4F2020101220223FCF77FFC002306
:1047400018460837BD4680BD80B582B000AF78609E
:104750004FF48050C4F20200102103F0E7FB03463F
:1047600018460837BD4680BD80B582B000AF78607E
:1047700039603B68002B07D14FF48050C4F202002F
:10478000102103F0FBFB06E04FF48050C4F202005E
:10479000102103F0E5FB0837BD4680BD80B582B02F
:1047A00000AF78604FF48050C4F20200102103F093
:1047B000A3FB034618460837BD4680BD80B584B0CC
:1047C00002AF78600023009300204FF48051C4F2C0
:1047D000020110220023FCF731FC002318460837A1
:1047E000BD4680BD80B584B002AF786000230093E1
:1047F00001204FF48051C4F2020110220023FCF783
:104800001DFC002318460837BD4680BD80B584B026
:1048100002AF78600023009300204FF48051C4F26F
:10482000020110220123FCF709FC00231846083777
:10483000BD4680BD80B584B002AF78600023009390
:1048400000204FF48051C4F2020110220223FCF731
:10485000F5FB002318460837BD4680BD80B582B001
:1048600000AF78604FF48050C4F20200042103F0DE
:104870005DFB034618460837BD4680BD80B582B053
:1048800000AF786039603B68002B07D14FF480504F
:10489000C4F20200042103F071FB06E04FF48050E3
:1048A000C4F20200042103F05BFB0837BD4680BD63
:1048B00080B582B000AF78604FF48050C4F202003F
:1048C000042103F019FB034618460837BD4680BD96
:1048D00080B584B002AF78600023009300204FF4CD
:1048E0008051C4F2020104220023FCF7A7FB00233D
:1048F00018460837BD4680BD80B584B002AF7860E9
:104900000023009301204FF48051C4F202010422DD
:104910000023FCF793FB002318460837BD4680BDF3
:1049200080B584B002AF78600023009300204FF47C
:104930008051C4F2020104220123FCF77FFB002313
:1049400018460837BD4680BD80B584B002AF786098
:104950000023009300204FF48051C4F2020104228E
:104960000223FCF76BFB002318460837BD4680BDC9
:1049700080B582B000AF78604FF48050C4F202007E
:104980004FF4807103F0D2FA034618460837BD464B
:1049900080BD00BF80B582B000AF786039603B68F1
:1049A000002B08D14FF48050C4F202004FF4807104
:1049B00003F0E4FA07E04FF48050C4F202004FF431
:1049C000807103F0CDFA0837BD4680BD80B582B056
:1049D00000AF78604FF48050C4F202004FF4807151
:1049E00003F08AFA034618460837BD4680BD00BF6B
:1049F00080B584B002AF78600023009300204FF4AC
:104A00008051C4F202014FF480720023FCF716FBC0
:104A1000002318460837BD4680BD00BF80B584B06E
:104A200002AF78600023009301204FF48051C4F25C
:104A300002014FF480720023FCF700FB00231846AC
:104A40000837BD4680BD00BF80B584B002AF786036
:104A50000023009300204FF48051C4F202014FF470
:104A600080720123FCF7EAFA002318460837BD4696
:104A700080BD00BF80B584B002AF78600023009392
:104A800000204FF48051C4F202014FF480720223DF
:104A9000FCF7D4FA002318460837BD4680BD00BF96
:104AA00080B582B000AF78604FF48050C4F202004D
:104AB000082103F03BFA034618460837BD4680BD7F
:104AC00080B582B000AF786039603B68002B07D1B9
:104AD0004FF48050C4F20200082103F04FFA06E0C0
:104AE0004FF48050C4F20200082103F039FA08376D
:104AF000BD4680BD80B582B000AF78604FF4805075
:104B0000C4F20200082103F0F7F9034618460837FB
:104B1000BD4680BD80B584B002AF786000230093AD
:104B200000204FF48051C4F2020108220023FCF758
:104B300085FA002318460837BD4680BD80B584B08D
:104B400002AF78600023009301204FF48051C4F23B
:104B5000020108220023FCF771FA002318460837E7
:104B6000BD4680BD80B584B002AF7860002300935D
:104B700000204FF48051C4F2020108220123FCF707
:104B80005DFA002318460837BD4680BD80B584B065
:104B900002AF78600023009300204FF48051C4F2EC
:104BA000020108220223FCF749FA002318460837BD
:104BB000BD4680BD80B582B000AF78604FF4006024
:104BC000C4F20200202103F0B1F903461846083769
:104BD000BD4680BD80B582B000AF786039603B686B
:104BE000002B07D14FF40060C4F20200202103F033
:104BF000C5F906E04FF40060C4F20200202103F082
:104C0000AFF90837BD4680BD80B582B000AF78608F
:104C10004FF40060C4F20200202103F06DF9034656
:104C200018460837BD4680BD80B584B002AF7860B5
:104C30000023009300204FF40061C4F202012022FF
:104C40000023FCF7FBF9002318460837BD4680BD5A
:104C500080B584B002AF78607B680222DA600023FE
:104C6000009301204FF40061C4F2020120220023CE
:104C7000FCF7E4F9002318460837BD4680BD00BFA5
:104C800080B584B002AF78600023009300204FF419
:104C90000061C4F2020120220123FCF7CFF90023B6
:104CA00018460837BD4680BD80B584B002AF786035
:104CB0000023009300204FF40061C4F2020120227F
:104CC0000223FCF7BBF9002318460837BD4680BD18
:104CD00080B582B000AF78604FF40060C4F202008B
:104CE000022103F023F9034618460837BD4680BD6C
:104CF00080B582B000AF786039603B68002B07D187
:104D00004FF40060C4F20200022103F037F906E01C
:104D10004FF40060C4F20200022103F021F90837C9
:104D2000BD4680BD80B582B000AF78604FF40060B2
:104D3000C4F20200022103F0DFF8034618460837E8
:104D4000BD4680BD80B584B002AF7860002300937B
:104D500000204FF40061C4F2020102220023FCF79C
:104D60006DF9002318460837BD4680BD80B584B074
:104D700002AF78607B680222DA6000230093012092
:104D80004FF40061C4F2020102220023FCF756F93D
:104D9000002318460837BD4680BD00BF80B584B0EB
:104DA00002AF78600023009300204FF40061C4F24A
:104DB000020102220123FCF741F9002318460837BB
:104DC000BD4680BD80B584B002AF786000230093FB
:104DD00000204FF40061C4F2020102220223FCF71A
:104DE0002DF9002318460837BD4680BD80B582B036
:104DF00000AF78604FF40060C4F20200042103F0B9
:104E000095F8034618460837BD4680BD80B582B088
:104E100000AF786039603B68002B07D14FF4006029
:104E2000C4F20200042103F0A9F806E04FF4006088
:104E3000C4F20200042103F093F80837BD4680BD98
:104E400080B582B000AF78604FF40060C4F2020019
:104E5000042103F051F8034618460837BD4680BDCB
:104E600080B584B002AF78600023009300204FF437
:104E70000061C4F2020104220023FCF7DFF80023E2
:104E800018460837BD4680BD80B584B002AF786053
:104E90007B680222DA600023009301204FF4006156
:104EA000C4F2020104220023FCF7C8F800231846CC
:104EB0000837BD4680BD00BF80B584B002AF7860C2
:104EC0000023009300204FF40061C4F20201042289
:104ED0000123FCF7B3F8002318460837BD4680BD10
:104EE00080B584B002AF78600023009300204FF4B7
:104EF0000061C4F2020104220223FCF79FF80023A0
:104F000018460837BD4680BD80B582B000AF7860D6
:104F10004FF40060C4F20200082103F007F80346D2
:104F200018460837BD4680BD80B582B000AF7860B6
:104F300039603B68002B07D14FF40060C4F20200D7
:104F4000082103F01BF806E04FF40060C4F20200F1
:104F5000082103F005F80837BD4680BD80B582B052
:104F600000AF78604FF40060C4F20200082102F044
:104F7000C3FF034618460837BD4680BD80B584B0E0
:104F800002AF78600023009300204FF40061C4F268
:104F9000020108220023FCF751F8002318460837C5
:104FA000BD4680BD80B584B002AF78607B680222C8
:104FB000DA600023009301204FF40061C4F2020183
:104FC00008220023FCF73AF8002318460837BD46AC
:104FD00080BD00BF80B584B002AF7860002300932D
:104FE00000204FF40061C4F2020108220123FCF703
:104FF00025F8002318460837BD4680BD80B584B02B
:1050000002AF78600023009300204FF40061C4F2E7
:10501000020108220223FCF711F800231846083782
:10502000BD4680BD80B582B000AF78604FF40060AF
:10503000C4F20200102102F079FF03461846083737
:10504000BD4680BD80B582B000AF786039603B68F6
:10505000002B07D14FF40060C4F20200102102F0CF
:105060008DFF06E04FF40060C4F20200102102F050
:1050700077FF0837BD4680BD80B582B000AF78604D
:105080004FF40060C4F20200102102F035FF034625
:1050900018460837BD4680BD80B584B002AF786041
:1050A0000023009300204FF40061C4F2020110229B
:1050B0000023FBF7C3FF002318460837BD4680BD19
:1050C00080B584B002AF78607B680222DA6000238A
:1050D000009301204FF40061C4F20201102200236A
:1050E000FBF7ACFF002318460837BD4680BD00BF64
:1050F00080B584B002AF78600023009300204FF4A5
:105100000061C4F2020110220123FBF797FF002384
:1051100018460837BD4680BD80B584B002AF7860C0
:105120000023009300204FF40061C4F2020110221A
:105130000223FBF783FF002318460837BD4680BDD6
:1051400080B582B000AF78604FF48050C4F20200A6
:105150004FF4006102F0EAFE034618460837BD46E8
:1051600080BD00BF80B582B000AF786039603B6819
:10517000002B08D14FF48050C4F202004FF40061BC
:1051800002F0FCFE07E04FF48050C4F202004FF43E
:10519000006102F0E5FE0837BD4680BD80B582B0F3
:1051A00000AF78604FF48050C4F202004FF4006109
:1051B00002F0A2FE034618460837BD4680BD00BF78
:1051C00080B584B002AF78600023009300204FF4D4
:1051D0008051C4F202014FF400620023FBF72EFF5E
:1051E000002318460837BD4680BD00BF80B584B097
:1051F00002AF78607B680222DA600023009301200E
:105200004FF48051C4F202014FF400620023FBF717
:1052100015FF002318460837BD4680BD80B584B011
:1052200002AF78600023009300204FF48051C4F255
:1052300002014FF400620123FBF700FF0023184630
:105240000837BD4680BD00BF80B584B002AF78602E
:105250000023009300204FF48051C4F202014FF468
:1052600000620223FBF7EAFE002318460837BD461A
:1052700080BD00BF80B582B000AF78604FF4805031
:10528000C4F20200402102F051FE034618460837DE
:10529000BD4680BD80B582B000AF786039603B68A4
:1052A000002B07D14FF48050C4F20200402102F0DD
:1052B00065FE06E04FF48050C4F20200402102F087
:1052C0004FFE0837BD4680BD80B582B000AF786024
:1052D0004FF48050C4F20200402102F00DFE03465C
:1052E00018460837BD4680BD80B584B002AF7860EF
:1052F0000023009300204FF48051C4F202014022A9
:105300000023FBF79BFE002318460837BD4680BDEF
:1053100080B584B002AF78607B680222DA60002337
:10532000009301204FF48051C4F202014022002377
:10533000FBF784FE002318460837BD4680BD00BF3A
:1053400080B584B002AF78600023009300204FF452
:105350008051C4F2020140220123FBF76FFE0023BB
:1053600018460837BD4680BD80B584B002AF78606E
:105370000023009300204FF48051C4F20201402228
:105380000223FBF75BFE002318460837BD4680BDAD
:1053900080B582B000AF78604FF48050C4F2020054
:1053A000202102F0C3FD034618460837BD4680BDE4
:1053B00080B582B000AF786039603B68002B07D1C0
:1053C0004FF48050C4F20200202102F0D7FD06E025
:1053D0004FF48050C4F20200202102F0C1FD0837D2
:1053E000BD4680BD80B582B000AF78604FF480507C
:1053F000C4F20200202102F07FFD03461846083760
:10540000BD4680BD80B584B002AF786000230093B4
:1054100000204FF48051C4F2020120220023FBF748
:105420000DFE002318460837BD4680BD80B584B008
:1054300002AF78607B680222DA60002300930120CB
:105440004FF48051C4F2020120220023FBF7F6FD45
:10545000002318460837BD4680BD00BF80B584B024
:1054600002AF78600023009300204FF48051C4F213
:10547000020120220123FBF7E1FD00231846083733
:10548000BD4680BD80B584B002AF78600023009334
:1054900000204FF48051C4F2020120220223FBF7C6
:1054A000CDFD002318460837BD4680BD80B582B0CB
:1054B00000AF78604FF48050C4F202004FF40071E6
:1054C00002F034FD034618460837BD4680BD00BFD4
:1054D00080B582B000AF786039603B68002B08D19E
:1054E0004FF48050C4F202004FF4007102F046FD08
:1054F00007E04FF48050C4F202004FF4007102F054
:105500002FFD0837BD4680BD80B582B000AF786002
:105510004FF48050C4F202004FF4007102F0ECFC32
:10552000034618460837BD4680BD00BF80B584B02D
:1055300002AF78600023009300204FF48051C4F242
:1055400002014FF400720023FBF778FD0023184698
:105550000837BD4680BD00BF80B584B002AF78601B
:105560007B680222DA600023009301204FF480510F
:10557000C4F202014FF400720023FBF75FFD002329
:1055800018460837BD4680BD80B584B002AF78604C
:105590000023009300204FF48051C4F202014FF425
:1055A00000720123FBF74AFD002318460837BD4669
:1055B00080BD00BF80B584B002AF78600023009347
:1055C00000204FF48051C4F202014FF40072022314
:1055D000FBF734FD002318460837BD4680BD00BFE9
:1055E00080B582B000AF78604FF48050C4F2020002
:1055F0004FF4804102F09AFC034618460837BD4636
:1056000080BD00BF80B582B000AF786039603B6874
:10561000002B08D14FF48050C4F202004FF48041B7
:1056200002F0ACFC07E04FF48050C4F202004FF4EB
:10563000804102F095FC0837BD4680BD80B582B040
:1056400000AF78604FF48050C4F202004FF4804104
:1056500002F052FC034618460837BD4680BD00BF25
:1056600080B584B002AF78600023009300204FF42F
:105670008051C4F202014FF480420023FBF7DEFCAC
:10568000002318460837BD4680BD00BF80B584B0F2
:1056900002AF78607B680222DA6000230093012069
:1056A0004FF48051C4F202014FF480420023FBF713
:1056B000C5FC002318460837BD4680BD80B584B0C0
:1056C00002AF78600023009300204FF48051C4F2B1
:1056D00002014FF480420123FBF7B0FC002318467F
:1056E0000837BD4680BD00BF80B584B002AF78608A
:1056F0000023009300204FF48051C4F202014FF4C4
:1057000080420223FBF79AFC002318460837BD4667
:1057100080BD00BF80B582B000AF78604FF480508C
:10572000C4F202004FF4005102F000FC0346184698
:105730000837BD4680BD00BF80B582B000AF78603D
:1057400039603B68002B08D14FF48050C4F202004E
:105750004FF4005102F012FC07E04FF48050C4F205
:1057600002004FF4005102F0FBFB0837BD4680BD3C
:1057700080B582B000AF78604FF48050C4F2020070
:105780004FF4005102F0B8FB034618460837BD46F7
:1057900080BD00BF80B584B002AF78600023009365
:1057A00000204FF48051C4F202014FF40052002354
:1057B000FBF744FC002318460837BD4680BD00BFF8
:1057C00080B584B002AF78607B680222DA60002383
:1057D000009301204FF48051C4F202014FF40052B3
:1057E0000023FBF72BFC002318460837BD4680BD7D
:1057F00080B584B002AF78600023009300204FF49E
:105800008051C4F202014FF400520123FBF716FC51
:10581000002318460837BD4680BD00BF80B584B060
:1058200002AF78600023009300204FF48051C4F24F
:1058300002014FF400520223FBF700FC002318463C
:105840000837BD4680BD00BF80B582B000AF78602C
:105850007B680122DA604FF40060C4F2020020216C
:1058600001F090FE002318460837BD4680BD00BFFA
:10587000A0F10800FFF7E8BF90B583B000AF7860F3
:105880004FF40060C4F20200202101F097FF0446AB
:105890007B681B6848331B6878689847034618463E
:1058A00007F0ECFC03462046194607F0EFFD0346DF
:1058B00018460C37BD4690BDA0F10800FFF7DCBFCD
:1058C00080B582B000AF78607B680122DA604FF467
:1058D0000060C4F20200022101F054FE00231846C9
:1058E0000837BD4680BD00BFA0F10800FFF7E8BF44
:1058F00090B583B000AF78604FF40060C4F202004E
:10590000022101F05BFF04467B681B6848331B687B
:10591000786898470346184607F0B0FC03462046CF
:10592000194607F0B3FD034618460C37BD4690BD37
:10593000A0F10800FFF7DCBF80B582B000AF78604F
:105940007B680122DA604FF40060C4F20200042197
:1059500001F018FE002318460837BD4680BD00BF81
:10596000A0F10800FFF7E8BF90B583B000AF786002
:105970004FF40060C4F20200042101F01FFF04464E
:105980007B681B6848331B6878689847034618464D
:1059900007F074FC03462046194607F077FD0346DE
:1059A00018460C37BD4690BDA0F10800FFF7DCBFDC
:1059B00080B582B000AF78607B680122DA604FF476
:1059C0000060C4F20200082101F0DCFD002318464B
:1059D0000837BD4680BD00BFA0F10800FFF7E8BF53
:1059E00090B583B000AF78604FF40060C4F202005D
:1059F000082101F0E3FE04467B681B6848331B68FE
:105A0000786898470346184607F038FC0346204656
:105A1000194607F03BFD034618460C37BD4690BDBE
:105A2000A0F10800FFF7DCBF80B582B000AF78605E
:105A30007B680122DA604FF40060C4F2020010219A
:105A400001F0A0FD002318460837BD4680BD00BF09
:105A5000A0F10800FFF7E8BF90B583B000AF786011
:105A60004FF40060C4F20200102101F0A7FE0446CA
:105A70007B681B6848331B6878689847034618465C
:105A800007F0FCFB03462046194607F0FFFC0346DF
:105A900018460C37BD4690BDA0F10800FFF7DCBFEB
:105AA00080B582B000AF78604FF40060C4F20000AF
:105AB0004FF44061C4F202014FF44052FBF760FD25
:105AC000002318460837BD4680BD00BF80B582B0B0
:105AD00000AF78607B681B7A002B08D04FF4006021
