:020000040800F2
:10000000B09601206D2E00087D8B00089D8B0008A6
:10001000BD8B0008DD8B0008FD8B00080000000090
:100020000000000000000000000000001D8C00081F
:100030003D8C0008000000005D8C0008F52A0008D7
:10004000D12E0008D12E0008D12E0008D12E000894
:10005000D12E0008D12E0008D12E0008D12E000884
:10006000D12E0008D12E0008D12E0008D12E000874
:10007000D12E0008D12E0008D12E0008D12E000864
:10008000D12E0008D12E0008D12E0008D12E000854
:10009000A96B0008D12E0008D12E0008D12E00082F
:1000A000D12E0008FD160008D12E0008D12E000820
:1000B00061170008C11700082D180008D12E00088C
:1000C000D12E000849720008D12E0008D12E000858
:1000D000D12E0008D12E0008E565000899660008B9
:1000E000D12E0008D12E0008651D000871190008E6
:1000F00005190008D12E0008D12E0008D12E0008C5
:10010000D12E00086D90000899180008D12E000823
:10011000D12E0008D12E0008D12E0008D12E0008C3
:10012000D12E0008D12E0008D12E000879900008A9
:10013000D12E0008D12E0008D12E0008D12E0008A3
:10014000D12E0008D12E0008D12E0008511D000824
:10015000D12E0008D12E0008D12E0008D12E000883
:10016000D12E0008D12E0008D12E0008D12E000873
:10017000D12E0008D12E0008D12E0008D12E000863
:10018000D12E0008D12E000808B540F2F450074BDC
:10019000C2F200001B1A062B00D808BD40F2000373
:1001A000C0F20003002BF8D09847F6E7F7050020CF
:1001B00008B540F2F45040F2F453C2F20000C2F22B
:1001C00000031B1A9B1003EBD373591000D108BD19
:1001D00040F20002C0F20002002AF8D09047F6E791
:1001E00010B540F2F854C2F20004237873B9FFF757
:1001F000CBFF40F20003C0F200032BB144F2241005
:10020000C0F60200AFF300800123237010BD00BFD1
:1002100008B540F20003C0F200034BB144F22410D1
:1002200040F2FC51C0F60200C2F20001AFF30080C0
:1002300040F2F050C2F2000003682BB140F200031C
:10024000C0F2000303B19847BDE80840B0E700BF23
:1002500080B584B000AFF8600B467A60FB72FB7A21
:10026000013B032B52D801A252F823F07D02000873
:10027000A1020008C5020008E9020008FB68DB6A69
:1002800018460EF053FF0346184679680EF0A6FF95
:10029000034618460FF08EF90246FB685A6336E0B3
:1002A000FB68DB6A18460EF041FF03461846796882
:1002B0000EF094FF034618460FF07CF90246FB68E7
:1002C0009A6324E0FB68DB6A18460EF02FFF0346B2
:1002D000184679680EF082FF034618460FF06AF957
:1002E0000246FB68DA6312E0FB68DB6A18460EF030
:1002F0001DFF0346184679680EF070FF0346184646
:100300000FF058F90246FB681A6400E000BF10378E
:10031000BD4680BD80B582B000AF78600B46FB70F3
:10032000FB78012B06D17B685B6B18460EF0FEFE56
:1003300003461FE0FB78022B06D17B689B6B1846B7
:100340000EF0F4FE034615E0FB78032B06D17B6824
:10035000DB6B18460EF0EAFE03460BE0FB78042B3D
:1003600006D17B681B6C18460EF0E0FE034601E0E8
:100370004FF0000318460837BD4680BD90B5ADB0BC
:1003800002AFF860B9603B601346FB800023C7F8FA
:10039000A4300023C7F8A0300023C7F89C30012305
:1003A000C7F898300023A7F8963009F0BFF907F195
:1003B0004403184607F0B4FCFB68B3F1804F06D342
:1003C000FA684FF4A053C4F200039A420DD9FA68B8
:1003D00041F2FF73C4F200039A4217D9FA684FF44E
:1003E0000053C4F200039A4210D8FA6C4FF46053E1
:1003F000C4F20203D3F88C301B0E03F00103013367
:1004000003FB02F35B00C7F8A4300FE03A6D4FF432
:100410006053C4F20203D3F88C301B0E03F00103C7
:10042000013303FB02F35B00C7F8A4303B68002BE9
:100430000DDDD7F8A42048F21F53C5F2EB1383FB60
:1004400002135911D317CA1A3B689A4201DA0123E1
:10045000F4E01FE0D7F8A0300133C7F8A030D7F898
:10046000A420D7F8A03092FBF3F23B6892FBF3F3A1
:10047000C7F89C30D7F89C30B3F5803F02DA0023F0
:10048000C7F89830D7F8A0204FF6FE739A4201DDE6
:100490000123D3E0D7F89830002BDBD1D7F8A42084
:1004A000D7F8A03092FBF3F2D7F89C3092FBF3F32D
:1004B0003B60F8680BF082FBFB8800220092022070
:1004C000B9681A46002300F02DFED7F89C30013B96
:1004D000FB63D7F8A0309BB2013B9BB23B87002364
:1004E000A7F8403000237B87002387F8423007F1CC
:1004F0003803F86819460CF0DBFA6023BB8400234C
:100500003B860123FB8404233B8508237B864FF431
:100510008073BB864FF40073FB8607F12403F868F1
:1005200019460CF0A9FBF86800210CF095FD07F1C5
:100530002403F86819460CF019FCF86800210CF047
:10054000A7FD07F12403F86819460CF097FCF8683A
:1005500000210CF0BBFD07F12403F86819460CF0EC
:1005600013FDF86800210CF0CDFDFA680023C4F2F9
:1005700001039A4206D0FA684FF48063C4F2010383
:100580009A4211D107F1140318460CF001FE4FF402
:1005900080433B8407F11403F86819460CF0D0FD42
:1005A000F86801210CF012FEFA8807F15403104696
:1005B00019460BF071F90023A7F8963025E0B7F83B
:1005C00096305B0007F1A802134433F8543C012B2A
:1005D00016D1B7F8963010335B0007F1A8010B4431
:1005E00033F8523C18460BF0FDFC03461C46F868F5
:1005F0000BF06EFD0346B86821461A4608F03AFE35
:10060000B7F896300133A7F89630B7F896300F2B2D
:10061000D5D9FB6800225A63FB6800229A63FB6805
:100620000022DA63FB6800221A64F86801210CF0EA
:10063000E3FAF86801210CF0FFFA00231846AC3702
:10064000BD4690BD80B485B000AFF860B9607A60F7
:100650003B60FB68BA681A60FB687A685A60FB689E
:100660003A689A60FB68BA69DA60FB68FA691A61ED
:10067000FB6818461437BD465DF8047B704700BF21
:1006800080B489B000AFF860B960FA71BB80002314
:10069000FB76FB68DB78002B23D100237B610023F2
:1006A000FB61BB880333DA1C002BB8BF13469B10D9
:1006B0007B61FB79FA6832339B0013449B683B6192
:1006C0000023FB6109E0BB681A683B691A60FB699B
:1006D0000133FB61BB680433BB60FA697B699A42F2
:1006E000F1D3FB7E18462437BD465DF8047B704786
:1006F00080B489B000AFF860B9601346FB80002376
:10070000FB61FB880333DA1C002BB8BF13469B1038
:10071000BB61FB68D3F8D0307B610023FB6109E04B
:100720007B691A68BB681A60FB690133FB61BB68AF
:100730000433BB60FA69BB699A42F1D3BB681846BF
:100740002437BD465DF8047B704700BF80B586B096
:1007500000AF786039600023FB7400237B610023C5
:10076000FB60FB6843F02003FB603B68DBB203F0F7
:100770001F03DAB2FB6862F38A13FB607B68DB68F5
:10078000FA681A617B68DB681B69FB607B6901336F
:100790007B617A694FF45463C0F203039A4200D933
:1007A00005E0FB68C3F34013DBB2012BEAD0032062
:1007B00009F0A6FBFB7C18461837BD4680BD00BF7C
:1007C00080B483B000AF78607B68DB685B6903F05E
:1007D000010318460C37BD465DF8047B704700BF27
:1007E00080B582B000AF78607868FFF7E9FF034614
:1007F000012B0CBF00230123DBB218460837BD468E
:1008000080BD00BF80B485B000AF78600023FB607E
:100810007B68DB685B69FB607B68DB689B69FA6807
:100820001340FB60FB6818461437BD465DF8047B37
:10083000704700BF80B485B000AF78600023FB73C1
:100840007B681B699B68BB603B7AC3F34103DBB2E7
:10085000022B09D0032B04D0012B02D00323FB73FE
:1008600005E00223FB7302E00123FB7300BFFB7B67
:1008700018461437BD465DF8047B704780B487B0D6
:1008800000AF78600023FB750023BB607B681B69A9
:100890009B683B617B689B691B68FB603B7CC3F387
:1008A0004103DBB2022B04D0BB896FF30A03BB8187
:1008B00005E0BB89032262F30A03BB8100BF7B68AA
:1008C0009B69FA681A607B7A43F001037B727B684C
:1008D0001B697A6812695168BA68D2431140BA68D4
:1008E0000A435A60FB7D18461C37BD465DF8047B01
:1008F000704700BF80B487B000AF786039600023D4
:10090000FB740023FB600023BB603B685B78012B1A
:100910000FD13B681B787A6804339B0013449B68B3
:100920007B613B681B78012202FA03F39BB23B8197
:100930000EE03B681B787A6814339B0013445B68B5
:100940007B613B681B78012202FA03F39BB27B8137
:100950007B691B68FB607B7BC3F3C013DBB2002B9E
:1009600027D13B689B689BB2C3F30A039AB2BB8949
:1009700062F30A03BB813B68DB7803F00303DAB25E
:10098000BB7B62F38303BB733B68DB88DBB203F0A2
:100990000F03DAB2FB8962F38913FB81FB7B43F01F
:1009A0001003FB737B7B43F080037B73FA687B69E6
:1009B0001A607B681B697A681269D169BA680A4350
:1009C000DA61FB7C18461C37BD465DF8047B704736
:1009D00080B588B000AF786039600023FB770023D2
:1009E000BB6100237B6100233B613B685B78012B8B
:1009F00040F0AB803B681B787A6804339B0013445B
:100A00009B681B687B613B681B787A6804339B009A
:100A100013449B681B693B613B685B69002B09D1F0
:100A20003B696FF312033B617B8A012262F3CC03C3
:100A30007B8222E03B685B69C3F312023B6962F38D
:100A400012033B613B685A693B689B6813445A1E1A
:100A50003B689B68B2FBF3F39BB2C3F309039AB202
:100A60007B8A62F3CC037B823B68DB78012B04D169
:100A7000FB7C012262F34613FB743B681B787A68A7
:100A800004339B0013449B683A691A617B68DB78E6
:100A9000012B0AD13B681B787A6804339B0013440E
:100AA0009B683A6812695A6115E03B68DB78012B54
:100AB00011D03B685B69002B0DD03B681B7801228D
:100AC00002FA03F3BB617B681B697A681269516B98
:100AD000BA690A435A633B68DB78012B14D17B68FF
:100AE0001B699B68FB60FB68C3F30D239BB203F09B
:100AF0000103002B04D1FB7D43F02003FB7503E0D1
:100B0000FB7D43F01003FB75FB7D43F00403FB7595
:100B1000FB7D43F08003FB753B681B787A680433E8
:100B20009B0013449B687A691A603B68DB78012B51
:100B300040F088803B68D9683B681A783B685B69FD
:100B40009BB27868FFF79CFD7CE03B681B787A6875
:100B500014339B0013445B681B687B613B681B7804
:100B60007A6814339B0013445B681B693B613B68E4
:100B70005B69002B0DD13B689B68C3F312023B6994
:100B800062F312033B617B8A012262F3CC037B8216
:100B90001FE03B685A693B689B6813445A1E3B68D8
:100BA0009B68B2FBF3F39BB2C3F309039AB27B8A4F
:100BB00062F3CC037B827B8AC3F3C9039BB23A689E
:100BC000926802FB03F3C3F312023B6962F3120360
:100BD0003B613B681B787A6814339B0013445B6865
:100BE0003A691A617B68DB78012B09D13B681B7875
:100BF0007A6814339B0013445B683A6812695A613F
:100C00003B68DB78012B0CD13B685B79002B04D06F
:100C1000FB7D43F02003FB7503E0FB7D43F01003F5
:100C2000FB75FB7D43F00403FB75FB7D43F0800304
:100C3000FB753B681B787A6814339B0013445B6830
:100C40007A691A60FB7F18462037BD4680BD00BF19
:100C500080B489B000AF786039600023FB7700234F
:100C6000BB6100233B610023BB603B685B78012BC9
:100C70006FD17B689B697B617B691B683B617B698A
:100C80001B69BB603B685B69002B09D13B7A6FF342
:100C900006033B72BB7A012262F3C403BB7223E0FA
:100CA0003B685A693B689B689A420ED93B689A68D0
:100CB0003B685A613B689B68DBB203F07F03DAB2A2
:100CC0003B7A62F306033B7209E03B685B69DBB287
:100CD00003F07F03DAB23B7A62F306033B72BB7A1E
:100CE000012262F3C403BB72BA687B691A617B6834
:100CF000DB78012B09D13B681B787A6804339B00B1
:100D000013449B683A6812695A61FB7C43F0040300
:100D1000FB74FB7C43F08003FB743A697B691A60C7
:100D20007B68DB78002B75D13B685B69002B71D049
:100D30003B681B78012202FA03F3BA691343BB61D3
:100D40007B681B697A681269516BBA690A435A63F6
:100D500060E03B681B787A6814339B0013445B683F
:100D60001B683B613B681B787A6814339B00134413
:100D70005B681B69BB603B685B69002B0FD13B68FC
:100D80009B68DBB203F07F03DAB23B7A62F30603BF
:100D90003B72BB7A012262F3C403BB7212E03B6870
:100DA0009A683B685A613B689B68DBB203F07F033B
:100DB000DAB23B7A62F306033B72BB7A012262F33A
:100DC000C403BB723B681B787A6814339B001344DE
:100DD0005B68BA681A617B68DB78012B09D13B68D4
:100DE0001B787A6814339B0013445B683A68126975
:100DF0005A61FB7C43F00403FB74FB7C43F08003EB
:100E0000FB743B681B787A6814339B0013445B685F
:100E10003A691A60FB7F18462437BD465DF8047BAB
:100E2000704700BF80B487B000AF7860396000239E
:100E3000FB750023FB603B685B78012B1CD13B6892
:100E40001B787A6804339B0013449B683B613B69C1
:100E50001B68FB60FB7BC3F3C013DBB2002B03D02A
:100E6000FB7B43F04003FB73BB7B43F02003BB736E
:100E7000FA683B691A6011E03B681B787A681433A2
:100E80009B0013445B683B613B691B68FB60BB7B59
:100E900043F02003BB73FA683B691A60FB7D184678
:100EA0001C37BD465DF8047B704700BF80B487B037
:100EB00000AF786039600023FB740023FB603B685F
:100EC0005B78012B08D13B681B787A6804339B0060
:100ED00013449B687B6107E03B681B787A68143396
:100EE0009B0013445B687B617B691B68FB60BB7B79
:100EF0006FF34513BB733B68DB78032B03D03B6870
:100F0000DB78022B03D1FB7B43F01003FB73FA6801
:100F10007B691A60FB7C18461C37BD465DF8047B74
:100F2000704700BF80B485B000AF78607B681B69F4
:100F30009B69FB607B681B69DB69FA681340FB6097
:100F4000FB681B0C18461437BD465DF8047B7047E0
:100F500080B485B000AF78600B46FB70FB787A6890
:100F600014339B0013445B689B68FB607B681B69C0
:100F70005B69FA681340FB60FB6818461437BD468E
:100F80005DF8047B704700BF80B485B000AF786027
:100F90007B681B699B69FB607B681B69DB69FA687E
:100FA0001340FB60FB689BB218461437BD465DF8E2
:100FB000047B704780B487B000AF786000233B614A
:100FC000FB7C43F0C003FB74BB7C012262F3C403CF
:100FD000BB743B7C182262F306033B747B685B6D39
:100FE0003A691A617B68DB78012B16D10023FB601C
:100FF0007B685B6D7A6802F5B9625A617B685B6DEC
:101000001B68FB60FB7B43F08003FB734FF0802386
:10101000FB607B685B6DFA681A601C37BD465DF843
:10102000047B704780B485B000AF78607B689B7AA2
:10103000002B1BD07B681B699B68FB603B7BC3F369
:101040000003DBB2012B11D17B6803F586731B68AB
:10105000BB603B7A6FF341033B723B7A6FF3000353
:101060003B727B68D3F80C31BA681A601437BD46FE
:101070005DF8047B704700BF80B582B000AF786038
:1010800039607B683A681A607B6800225A607B6826
:1010900000229A607B680022DA607B6800221A6175
:1010A0007B6800225A617B6800229A617B6800227B
:1010B000DA617B6800221A627B6800225A627B68D0
:1010C000002283F82C2001F02BFD02460B467B68A2
:1010D0009A627B6818460837BD4680BD80B584B0EB
:1010E00000AFF8600B467A60FB72FB68FA7A83F80F
:1010F0002C20FB687A685A62FB6893F82C30002B2E
:1011000002D0FB6801229A61FB681B681B682833C8
:101110001B68FA681268104698470346184610374D
:10112000BD4680BD80B584B000AF39600146F9711D
:10113000BA80BB713A680023C4F202039A4204D118
:101140000120012106F0C0FE2EE03A684FF48063D2
:10115000C4F202039A4204D10220012106F0B4FE37
:1011600022E03A684FF40063C4F202039A4204D1C9
:101170000420012106F0A8FE16E03A684FF440630F
:10118000C4F202039A4204D10820012106F09CFE19
:101190000AE03A684FF48053C4F202039A4203D142
:1011A0001020012106F090FE07F10803184607F011
:1011B000F7FFBB88BB60FB793B733B7EBB73BB799E
:1011C000FB7303237B7307F108033868194607F0A4
:1011D00059FFFB79012B04D1BB883868194608F008
:1011E0003BF81037BD4680BD80B483B000AF786057
:1011F0000B46FB70FB78002B0CD04FF43053C4F23D
:1012000001034FF43052C4F20102D16B7A680A43F1
:10121000DA630CE04FF43053C4F201034FF4305260
:10122000C4F20102D16B7A68D2430A40DA630C3708
:10123000BD465DF8047B704780B485B000AF786030
:101240000023FB734FF43053C4F201035A6B7B68E5
:101250001340002B02D00123FB7301E00023FB733A
:10126000FB7B18461437BD465DF8047B704700BF12
:1012700080B483B000AF78604FF43053C4F2010300
:101280007A689A630C37BD465DF8047B704700BFEF
:1012900080B483B000AF786039607B683A685A6088
:1012A000002318460C37BD465DF8047B704700BF2D
:1012B00080B483B000AF786039600C37BD465DF80C
:1012C000047B704780B582B000AF78607B68064AC7
:1012D0001A607B680433184600F008F87B681846EB
:1012E0000837BD4680BD00BF181B020880B483B01C
:1012F00000AF78607B680022C3F804217B6800227D
:10130000C3F808217B6818460C37BD465DF8047B9E
:10131000704700BF0000000080B584B000AF786067
:101320007B68D3F814217B68D3F82831D31A184688
:101330000DF0AEFA02460B461046194654A3D3E907
:1013400000230DF00BFB02460B461046194652A334
:10135000D3E900230DF02CFC02460B46104619463B
:101360000DF0DEFD0346FB60F8680DF0A3FA0246BF
:101370000B461046194646A3D3E900230DF07EFD27
:101380000346002B14D0F8680DF094FA02460B4681
:101390001046194642A3D3E900230DF02BF902466B
:1013A0000B46104619460DF0BBFD0346FB6022E0DC
:1013B000F8680DF07FFA02460B46104619463AA32C
:1013C000D3E900230DF03CFD0346002B13D0F86851
:1013D0000DF070FA02460B461046194630A3D3E9C9
:1013E00000230DF009F902460B46104619460DF090
:1013F00097FD0346FB60F8684FF000010EF0AAF875
:101400000346002B18D040F21463C2F200031B689D
:1014100018464FF000010EF07FF80346002B0BD06A
:101420007B68D3F81831002B06DA7B68D3F8443197
:101430005A1E7B68C3F84421F8684FF000010EF093
:101440006BF80346002B18D040F21463C2F200037D
:101450001B6818464FF000010EF07CF80346002B85
:101460000BD07B68D3F81831002B06DD7B68D3F8EE
:1014700044315A1C7B68C3F8442140F21463C2F221
:101480000003FA681A60FB6818461037BD4680BD35
:10149000182D4454FB210940000000000094D14065
:1014A000182D4454FB211940182D4454FB2109C028
:1014B00080B48BB000AF78600B46FB707B68D3F8CC
:1014C0003C317A681344FA7883F82C217B6893F8CE
:1014D0002C31AA2B03D17B680122C3F840217B6801
:1014E000D3F84031012B40F003817B68D3F83C31C5
:1014F0005A1C7B68C3F83C217B68D3F83C310E2B27
:1015000040F3F6807B680022C3F83C217B68002210
:10151000C3F840217B6893F82E311A467B6893F814
:101520002F311A447B6893F830311A447B6893F862
:1015300031311A447B6893F832311A447B6893F84E
:1015400033311A447B6893F834311A447B6893F83A
:1015500035311A447B6893F836311A447B6893F826
:1015600037311A447B6893F838311A447B6893F812
:10157000393113447B617B69DAB27B6893F83A3185
:101580009A4240F096807B6893F82F311A467B6828
:1015900093F830311B029BB213433B613B69B3F5B7
:1015A000004F05DA3B695A427B68C3F8142105E015
:1015B0003B69C3F580327B68C3F814217B6893F8DC
:1015C00031311A467B6893F832311B029BB21343C8
:1015D000FB60FB68B3F5004F05DAFB685A427B6895
:1015E000C3F8182105E0FB68C3F580327B68C3F8B7
:1015F00018217B6893F833311A467B6893F83431AD
:101600001B029BB213437B627B6A03F40043002BF3
:101610000BD07B6A83F47F4383F0FF037B627B6A9A
:1016200001337B627B6A5B427B627B687A6AC3F8C8
:101630001C217B6893F835311A467B6893F8363164
:101640001B029BB213433B623B6A03F40043002B33
:101650000BD03B6A83F47F4383F0FF033B623B6A1A
:1016600001333B623B6A5B423B627B683A6AC3F888
:1016700020217B6893F837311A467B6893F838311C
:101680001B029BB21343FB61FB6903F40043002B75
:101690000BD0FB6983F47F4383F0FF03FB61FB699D
:1016A0000133FB61FB695B42FB617B68FA69C3F84C
:1016B00024217B68D3F84831002B09D07B68D3F80C
:1016C00014217B68C3F828217B680022C3F84821D5
:1016D0000023BB6109E07A68BB69134403F5947386
:1016E00000221A71BB690133BB61BB690E2BF2DDAD
:1016F0002C37BD465DF8047B704700BF80B500AF56
:101700000023C4F201031B889BB21B099BB2002B70
:101710000BD040F21863C2F200031B685A1E40F25D
:101720001863C2F200031A6013E00023C4F201033D
:101730001B889BB21B099BB2002B0AD140F2186395
:10174000C2F200031B685A1C40F21863C2F2000385
:101750001A600020C4F2010001210BF081FD80BD60
:1017600080B500AF4FF080431B889BB21B099BB232
:10177000002B0BD040F21C63C2F200031B685A1E00
:1017800040F21C63C2F200031A6012E04FF0804383
:101790001B889BB21B099BB2002B0AD140F21C6331
:1017A000C2F200031B685A1C40F21C63C2F2000321
:1017B0001A604FF0804001210BF052FD80BD00BF48
:1017C00080B500AF4FF48063C4F200031B889BB266
:1017D0001B099BB2002B0BD040F22063C2F2000326
:1017E0001B685A1E40F22063C2F200031A6014E024
:1017F0004FF48063C4F200031B889BB21B099BB2A9
:10180000002B0AD140F22063C2F200031B685A1C6D
:1018100040F22063C2F200031A604FF48060C4F209
:10182000000001210BF01CFD80BD00BF80B500AFA2
:101830004FF40063C4F200031B889BB21B099BB2E8
:10184000002B0BD040F22463C2F200031B685A1E27
:1018500040F22463C2F200031A6014E04FF4006304
:10186000C4F200031B889BB21B099BB2002B0AD158
:1018700040F22463C2F200031B685A1C40F2246346
:10188000C2F200031A604FF40060C4F200000121AC
:101890000BF0E6FC80BD00BF80B500AF4FF44063A5
:1018A000C4F200031B889BB21B099BB2002B0BD018
:1018B00040F22863C2F200031B685A1E40F22863FC
:1018C000C2F200031A6014E04FF44063C4F2000354
:1018D0001B889BB21B099BB2002B0AD140F22863E4
:1018E000C2F200031B685A1C40F22863C2F20003D4
:1018F0001A604FF44060C4F2000001210BF0B0FC0C
:1019000080BD00BF80B500AF4FF48063C4F2010317
:101910001B889BB21B099BB2002B0BD040F22C639F
:10192000C2F200031B685A1E40F22C63C2F200038D
:101930001A6014E04FF48063C4F201031B889BB269
:101940001B099BB2002B0AD140F22C63C2F20003A8
:101950001B685A1C40F22C63C2F200031A604FF459
:101960008060C4F2010001210BF07AFC80BD00BF51
:1019700080B500AF4FF4C053C4F200031B889BB284
:101980001B099BB2002B0BD040F23063C2F2000364
:101990001B685A1E40F23063C2F200031A6014E062
:1019A0004FF4C053C4F200031B889BB21B099BB2C7
:1019B000002B0AD140F23063C2F200031B685A1CAC
:1019C00040F23063C2F200031A604FF4C050C4F218
:1019D000000001210BF044FC80BD00BF80B500AFCA
:1019E0000020C4F201000BF0FBF8024640F218633D
:1019F000C2F200031B681B041344184680BD00BFDD
:101A000080B500AF4FF080400BF0EAF8024640F29C
:101A10001C63C2F200031B681B041344184680BDFC
:101A200080B500AF4FF48060C4F200000BF0D8F82E
:101A3000024640F22063C2F200031B681B041344F9
:101A4000184680BD80B500AF4FF40060C4F20000BE
:101A50000BF0C6F8024640F22463C2F200031B6892
:101A60001B041344184680BD80B500AF4FF440609E
:101A7000C4F200000BF0B4F8024640F22863C2F250
:101A800000031B681B041344184680BD80B500AFDB
:101A90004FF48060C4F201000BF0A2F8024640F25D
:101AA0002C63C2F200031B681B041344184680BD5C
:101AB00080B500AF4FF4C050C4F200000BF090F8B6
:101AC000024640F23063C2F200031B681B04134459
:101AD000184680BD90B59DB002AFF860B96013465E
:101AE000FB800023A7F866300023A7F86430F8686D
:101AF0000AF064F8FB88002200920220B9681A46B6
:101B00000123FFF70FFBFA8807F12003104619465F
:101B100009F0C2FE0023A7F8663025E0B7F866306A
:101B20005B0007F168010B4433F8483C012B16D1E8
:101B3000B7F8663010335B0007F16802134433F8DE
:101B4000463C18460AF04EFA03461C46F8680AF06E
:101B5000BFFA0346B86821461A4607F08BFBB7F870
:101B600066300133A7F86630B7F866300F2BD5D949
:101B700040F24003C2F200031A684DF62913C6F280
:101B80004263A3FB02135B0E9BB2013BA7F86430D8
:101B90004FF6FE73BB610023BB820023BB8300238F
:101BA000FB8207F11403F86819460AF081FFB7F8C1
:101BB0006430F868194601220AF0F0FFF868032142
:101BC000002200230BF05CFBF868012101220BF0DE
:101BD00023FBF86801210BF02FF8F86809F0A0FF4B
:101BE000034618460AF0E8F900F056F86C37BD468F
:101BF00090BD00BF80B582B000AF78607A680023E6
:101C0000C4F201039A4203D1FFF7E8FE03463FE026
:101C10007B68B3F1804F03D1FFF7F2FE034637E054
:101C20007A684FF48063C4F200039A4203D1FFF74D
:101C3000F7FE03462CE07A684FF40063C4F2000319
:101C40009A4203D1FFF7FEFE034621E07A684FF483
:101C50004063C4F200039A4203D1FFF705FF034635
:101C600016E07A684FF48063C4F201039A4203D10C
:101C7000FFF70CFF03460BE07A684FF4C053C4F241
:101C800000039A4203D1FFF713FF034600E000234D
:101C900018460837BD4680BD80B500AF40F21863D6
:101CA000C2F2000300221A6040F21C63C2F2000379
:101CB00000221A6040F22063C2F2000300221A6080
:101CC00040F22463C2F2000300221A6040F228634B
:101CD000C2F2000300221A6040F22C63C2F2000339
:101CE00000221A6040F23063C2F2000300221A6040
:101CF0000020C4F2010000210AF064FF4FF0804090
:101D000000210AF05FFF4FF48060C4F20000002160
:101D10000AF058FF4FF40060C4F2000000210AF0FE
:101D200051FF4FF44060C4F2000000210AF04AFF66
:101D30004FF48060C4F2010000210AF043FF4FF429
:101D4000C050C4F2000000210AF03CFF80BD00BF7B
:101D500080B500AF45F2BC00C2F2000008F066FD9D
:101D600080BD00BF80B500AF45F2BC03C2F20003E6
:101D70009B7A002B13D04EF61053CEF200034EF692
:101D80001052CEF20002126822F006021A6007F02A
:101D900085FC45F2BC00C2F20000FFF743F94FF4A6
:101DA000802009F069FD80BD80B58AB000AF786001
:101DB000396000237B6200233B620023FB61002328
:101DC000BB617B681B8A9BB27B627B6A23F44053B6
:101DD0007B623B68DB887A6A13437B627B6A9AB2D8
:101DE0007B681A827B689B899BB27B627B6A23F447
:101DF000B05323F00C037B623B689A883B681B89D5
:101E000013439AB23B685B8913439BB27A6A1343CC
:101E10007B627B6A9AB27B689A817B689B8A9BB261
:101E20007B627B6A23F440737B623B689B897A6A9E
:101E300013437B627B6A9AB27B689A8207F108033C
:101E4000184605F06DFF7A684FF48053C4F2010321
:101E50009A4206D07A684FF4A053C4F201039A4222
:101E600002D17B693B6201E03B693B627B689B89F5
:101E70009BB29BB21BB2002B0CDA3A6A13469B0052
:101E800013449A001A443B681B685B00B2FBF3F3EF
:101E9000FB610BE03A6A13469B0013449A001A4414
:101EA0003B681B689B00B2FBF3F3FB61FA6948F2E5
:101EB0001F53C5F2EB13A3FB02135B091B017B62EB
:101EC0007B6A1B09642202FB03F3FA69D31ABB6124
:101ED0007B689B899BB29BB21BB2002B10DABB695B
:101EE000DB0003F1320248F21F53C5F2EB13A3FBF0
:101EF00002135B0903F007037A6A13437B620FE066
:101F0000BB691B0103F1320248F21F53C5F2EB1308
:101F1000A3FB02135B0903F00F037A6A13437B628E
:101F20007B6A9AB27B681A812837BD4680BD00BFA4
:101F300080B483B000AF78600B46FB70FB78002B59
:101F400008D07B689B899BB243F400539AB27B68AC
:101F50009A8107E07B689B899BB223F400539AB275
:101F60007B689A810C37BD465DF8047B704700BFE3
:101F700080B483B000AF78600B467B807B88C3F36E
:101F800008039AB27B689A800C37BD465DF8047BE3
:101F9000704700BF80B483B000AF78607B689B88D7
:101FA0009BB2C3F308039BB218460C37BD465DF8DD
:101FB000047B704780B487B000AF786013460A4650
:101FC0007A807B7000233B610023FB600023BB60B1
:101FD00000237B617B687B617B88DBB25B09DBB2C2
:101FE0003B617B8803F01F03FB60FB68012202FA60
:101FF00003F3BB603B69012B03D17B690C337B612D
:1020000009E03B69022B03D17B6910337B6102E05D
:102010007B6914337B617B78002B06D07B697A69FE
:102020001168BA680A431A6006E07B697A69116828
:10203000BA68D2430A401A601C37BD465DF8047B7B
:10204000704700BF80B485B000AF78600B467B80DE
:102050000023FB737B681B889AB27B8813409BB27A
:10206000002B02D00123FB7301E00023FB73FB7BF9
:1020700018461437BD465DF8047B70470000000029
:1020800080B582B000AF786078680CF013FC02462F
:102090000B46104619460EA3D3E900230CF05EFC54
:1020A00002460B46104619464FF000024FF400431B
:1020B000C4F276030CF07CFD02460B46104619462E
:1020C0000CF02EFF034618460837BD4680BD00BF02
:1020D000182D4454FB21194080B582B000AF7860C0
:1020E0007A684FF4C843C4F200039A420AD14FF011
:1020F0000070012105F060FF4FF00070002105F035
:102100005BFF09E04FF08060012105F055FF4FF0C3
:102110008060002105F050FF0837BD4680BD00BF3C
:1021200080B485B000AF786039600023FB73002372
:10213000BB607B681B6823F002027B681A607B68C7
:102140001B6843F001027B681A6002E0BB68013340
:10215000BB607B685B6803F00103002B04D1BA68A5
:102160004FF6FF739A42F1D17B685B6803F001037D
:10217000002B02D10023FB739CE03B689B79012B71
:1021800006D17B681B6843F080027B681A6005E01B
:102190007B681B6823F080027B681A603B68DB79F0
:1021A000012B06D17B681B6843F040027B681A60F4
:1021B00005E07B681B6823F040027B681A603B687F
:1021C0001B7A012B06D17B681B6843F020027B68D9
:1021D0001A6005E07B681B6823F020027B681A60A8
:1021E0003B685B7A012B06D17B681B6843F01002C9
:1021F0007B681A6005E07B681B6823F010027B682F
:102200001A603B689B7A012B06D17B681B6843F000
:1022100008027B681A6005E07B681B6823F00802EF
:102220007B681A603B68DB7A012B06D17B681B68F0
:1022300043F004027B681A6005E07B681B6823F0AA
:1022400004027B681A603B689B789A073B68DB78DE
:102250001B061A433B681B791B041A433B685B79D6
:102260001B051A433B681B88013B1A437B68DA61F4
:102270007B681B6823F001027B681A600023BB6047
:1022800002E0BB680133BB607B685B6803F001035D
:10229000002B04D0BA684FF6FF739A42F1D17B68E5
:1022A0005B6803F00103002B02D00023FB7301E005
:1022B0000123FB73FB7B18461437BD465DF8047B96
:1022C000704700BF80B485B000AF78600023FB602A
:1022D0007B689B7A012202FA03F3FB604FF4C84348
:1022E000C4F200034FF4C842C4F20002D2F8002244
:1022F00042F00102C3F800224FF4C843C4F20003C5
:102300004FF4C842C4F20002D2F81C12FA68D24359
:102310000A40C3F81C227B681B7B002B2DD14FF495
:10232000C843C4F200034FF4C842C4F20002D2F81A
:102330000C12FA68D2430A40C3F80C224FF4C84387
:10234000C4F200037A68927A7968C98808047968C7
:1023500049880143483243F832104FF4C842C4F26E
:1023600000027B689B7A7968898808047968098803
:1023700001434833DB00134459607B681B7B012B0E
:102380002CD14FF4C843C4F200034FF4C842C4F246
:102390000002D2F80C12FA680A43C3F80C224FF478
:1023A000C843C4F200037A68927A796809880804FD
:1023B000796849880143483243F832104FF4C842E3
:1023C000C4F200027B689B7A79688988080479687E
:1023D000C98801434833DB00134459607B68DB7ACA
:1023E000002B0FD14FF4C843C4F200034FF4C8428E
:1023F000C4F20002D2F80412FA68D2430A40C3F8C9
:1024000004220DE04FF4C843C4F200034FF4C84265
:10241000C4F20002D2F80412FA680A43C3F8042294
:102420007B681B89002B0ED14FF4C843C4F2000314
:102430004FF4C842C4F20002D2F81412FA68D24330
:102440000A40C3F814227B681B89012B0DD14FF47D
:10245000C843C4F200034FF4C842C4F20002D2F8E9
:102460001412FA680A43C3F814227B685B7B012BC1
:102470000DD14FF4C843C4F200034FF4C842C4F274
:102480000002D2F81C12FA680A43C3F81C224FF467
:10249000C843C4F200034FF4C842C4F20002D2F8A9
:1024A000002222F00102C3F800221437BD465DF875
:1024B000047B704780B483B000AF78607B680022F3
:1024C0009A717B680022DA717B6800221A727B683D
:1024D00000225A727B6800229A727B680022DA72AC
:1024E0007B6800229A707B680022DA707B68032286
:1024F0001A717B6802225A717B6801221A800C379C
:10250000BD465DF8047B704780B485B000AF78604D
:1025100039600023FB737B689B6803F08063002BAA
:1025200002D00023FB7313E07B689B6803F0006319
:10253000002B02D00123FB730AE07B689B6803F049
:102540008053002B02D00223FB7301E00423FB73B2
:10255000FB7B042B00F09880FB7BFA7B79681832B8
:1025600012010A44126802F00102796818331B0153
:102570000B441A603B681B7A002B13D1FB7BFA7B60
:102580007968183212010A4411683A6812685005D5
:102590003A68527A02430A43796818331B010B44A4
:1025A0001A6015E0FB7BFA7B7968183212010A4445
:1025B00011683A685268D0003A68127A10433A6853
:1025C000527A02430A43796818331B010B441A609C
:1025D0003B689B7A03F00F03DAB23B689A72FB7B8D
:1025E000FA7B7968183212010A44526822F00F020D
:1025F000796818331B010B445A60FB7BFA7B7968BE
:10260000183212010A4451683A68927A0A4379688A
:1026100018331B010B445A60FB7B3A68927B11060E
:102620003A68527B120411433A68127B120211433A
:102630003A68D27A0A4379681B010B4403F5C473E4
:102640001A60FB7B3A68927C11063A68527C12044D
:1026500011433A68127C120211433A68D27B0A4352
:1026600079681B010B4403F5C4735A60FB7BFA7B4A
:102670007968183212010A44126842F0010279683E
:1026800018331B010B441A60FB7B18461437BD46F8
:102690005DF8047B704700BF80B485B000AF786000
:1026A0000B46FB700023FB60FB78012B0BD0022B49
:1026B00012D0002B18D17B689A680323C0F2004324
:1026C0001340FB6013E07B689A684FF44073C0F6D8
:1026D00000031340FB600AE07B689A680023C1F2A4
:1026E00003031340FB6002E00023FB6000BFFB68B4
:1026F0004FF48072C0F60002934229D04FF48072EA
:10270000C0F6000293420CD80122C0F2004293426C
:102710001BD00322C0F2004293421FD0002B11D0E5
:1027200025E00022C1F20102934214D00022C1F23E
:102730000302934218D04FF44072C0F60002934255
:102740000FD014E00223FB6014E00023FB6011E0D3
:102750000023FB600EE00023FB600BE00123FB6025
:1027600008E00123FB6005E00123FB6002E0002399
:10277000FB6000BFFB68DBB218461437BD465DF84E
:10278000047B704780B485B000AFF8600B467A6078
:10279000FB72FB7AFA681B331B0113441B68DBB224
:1027A00003F00403DAB27B681A727B681B7A002B91
:1027B00009D1FB7AFA681B331B0113441B685A0DBD
:1027C0007B681A6008E0FB7AFA681B331B0113442C
:1027D0001B68DA087B685A60FB7AFA681B331B01B6
:1027E00013441B68DBB203F00203DAB27B685A724F
:1027F000FB7AFA681B331B0113445B68DBB203F0FE
:102800000F03DAB27B689A72FB7AFA681B331B01FA
:1028100013445B681B0ADAB27B68DA74FB7AFA68E5
:102820001B01134403F5DC731B68DAB27B68DA72B0
:10283000FB7AFA681B01134403F5DC731B681B0A5F
:10284000DAB27B681A73FB7AFA681B01134403F54A
:10285000DC731B681B0CDAB27B685A73FB7AFA686C
:102860001B01134403F5DC731B681B0EDAB27B6893
:102870009A73FB7AFA681B01134403F5DC735B68F7
:10288000DAB27B68DA73FB7AFA681B01134403F54A
:10289000DC735B681B0ADAB27B681A74FB7AFA682D
:1028A0001B01134403F5DC735B681B0CDAB27B6815
:1028B0005A74FB7AFA681B01134403F5DC735B68F6
:1028C0001B0EDAB27B689A74FB7A002B06D1FB6888
:1028D000DB6843F02002FB68DA6005E0FB681B69F7
:1028E00043F02002FB681A611437BD465DF8047B93
:1028F000704700BF80B485B000AFF860B960134680
:10290000FB71FB79002B06D0FB685A69BB681A4340
:10291000FB685A6106E0FB685A69BB68DB431A40F2
:10292000FB685A611437BD465DF8047B704700BFF1
:1029300080B584B000AF786039600023FB737B689A
:102940005A693B681340002B00F0B5803B68402B70
:1029500065D0402B0FD8042B3DD0042B04D8012B7D
:1029600024D0022B2ED0A2E0102B46D0202B4DD00D
:10297000082B39D09BE0B3F5006F00F08680B3F5EB
:10298000006F09D8B3F5007F6DD0B3F5806F73D0B9
:10299000B3F5807F5ED08AE0B3F5803F48D0B3F5D1
:1029A000003F4ED0B3F5004F78D080E07B689B6845
:1029B000184640F20111C0F2010100F083F803460D
:1029C000FB7377E07B68DB681846032100F07AF838
:1029D0000346FB736EE07B68DB681846082100F055
:1029E00071F80346FB7365E07B68DB6818461021CD
:1029F00000F068F80346FB735CE07B681B691846CF
:102A0000032100F05FF80346FB7353E07B681B690A
:102A10001846082100F056F80346FB734AE07B682D
:102A20001B691846102100F04DF80346FB7341E086
:102A30007B685B681846082100F044F80346FB7386
:102A400038E07B685B681846102100F03BF80346CD
:102A5000FB732FE07B689B691846012100F032F878
:102A60000346FB7326E07B689B691846022100F051
:102A700029F80346FB731DE07B689B691846042117
:102A800000F020F80346FB7314E07B689B6918464E
:102A9000702100F017F80346FB730BE07B685B685E
:102AA0001846042100F00EF80346FB7302E00023F1
:102AB000FB7300BF01E00023FB73FB7B184610375C
:102AC000BD4680BD80B485B000AF7860396000231A
:102AD000FB737A683B681340002B02D00123FB7321
:102AE00001E00023FB73FB7B18461437BD465DF8FD
:102AF000047B704780B400AF40F23863C2F2000339
:102B0000D3E90023501C43F1000140F23863C2F2C4
:102B10000003C3E90001BD465DF8047B704700BFB8
:102B200080B500AF00F010F802460B46104619467B
:102B30004FF47A724FF000030CF05CFD02460B4636
:102B40001046194680BD00BF80B400AF40F2386324
:102B5000C2F20003D3E900230A2101FB03F00021A4
:102B600001FB02F101440A20A2FB002319440B4699
:102B700010461946BD465DF8047B704780B500AF2E
:102B80004CF2AC50C3F2277006F0CEF880BD00BF07
:102B900080B584B000AFC7E900010023FB60FFF7F8
:102BA000BFFF02460B461346FB6000BFFFF7B8FFAE
:102BB000FB681A464FEAE273821A61EB0303D7E916
:102BC0000001904271EB030CF0DA1037BD4680BD76
:102BD00080B582B000AFC7E90001D7E90001FFF777
:102BE000D7FF0837BD4680BD80B58AB002AFF86018
:102BF0007A600A46FA723B8107F114031846FFF720
:102C000059FCFB68012B0BD14FF4C840C4F2000003
:102C1000FFF762FA4FF00070012105F07DF90DE039
:102C2000FB68022B0AD14FF4D040C4F20000FFF73A
:102C300053FA4FF08060012105F06EF93B890022C4
:102C40000092022079681A460123FEF76BFABB8DC9
:102C5000002200920220B96A1A460123FEF762FAA6
:102C6000FB68012B14D13B89184609F0BBF90346D8
:102C700078681946092206F0FDFABB8D184609F05E
:102C8000B1F90346B86A1946092206F0F3FA16E0CC
:102C9000FB68022B13D13B89184609F0A3F90346C0
:102CA00078681946092206F0E5FABB8D184609F046
:102CB00099F90346B86A1946092206F0DBFA01239E
:102CC000BB760023FB7600233B7700237B77002332
:102CD000BB770023FB77FB7ABB750023FB750523CD
:102CE0003B7606237B760323BB82FB68012B09D14D
:102CF00007F114034FF4C840C4F200001946FFF76F
:102D00000FFA0BE0FB68022B08D107F114034FF414
:102D1000D040C4F200001946FFF702FA4FF4E06019
:102D200009F038FAFB68012B0BD1142009F044F9A3
:102D30004FF4C840C4F2000002210122FFF7DAFD7F
:102D40000DE0FB68022B0AD1402009F035F94FF461
:102D5000D040C4F2000002210122FFF7CBFD203752
:102D6000BD4680BD80B586B000AF7860F9703A800E
:102D7000BB700023FB820023FB820EE0FB8ADBB2E8
:102D8000BB7400233B8200237B7507F108031846C0
:102D9000FFF798FAFB8A0133FB82B7F916300D2B47
:102DA000ECDD7B68DBB2BB7400233B8201237B75C7
:102DB000FB78002B02D10023FB7404E0FB78012B8D
:102DC00001D10123FB7400233B75B7F900305B018F
:102DD0009AB2BB781B019BB213439BB29BB27B811F
:102DE000B7F920305B019AB297F824301B019BB2EF
:102DF00013439BB29BB2FB81B7F928305B019AB2B7
:102E000097F82C301B019BB213439BB29BB23B81C2
:102E1000B7F930305B019AB297F834301B019BB29E
:102E200013439BB29BB2BB8107F108031846FFF71F
:102E300049FA1837BD4680BD80B582B000AF7860D2
:102E40004FF4C840C4F200007968FFF75DFB00BF93
:102E50004FF4C840C4F200000021FFF71DFC0346F8
:102E6000012BF5D10837BD4680BD00BF80B582B0CB
:102E700000AF44F6B473C0F602037B6040F2000377
:102E8000C2F200033B6007E03B681A1D3A607A68B3
:102E9000111D796012681A603A6840F2F453C2F268
:102EA00000039A42F0D3084808494FF000028842D4
:102EB000B8BF40F8042BFADB05F0CEF804F024FD8F
:102EC0000837BD4680BD0000F8050020B056002040
:102ED00080B400AFFEE700BF80B584B000AF78607B
:102EE00007F108037868194607F036FC3B7A03F0CF
:102EF0001F03012B0AD0022B0FD0002B14D107F196
:102F000008037868194607F021F816E007F108036E
:102F10007868194607F06AF80FE007F10803786847
:102F2000194607F097F808E03B7A23F07F03DBB2FD
:102F30007868194609F072FA00BF00231846103766
:102F4000BD4680BD80B584B000AF78600B46FB7095
:102F5000FB78002B45D17B6803F55C73FB607B68D5
:102F600093F81131032B4FD1FB68DA69FB689B683A
:102F70009A4221D9FB68DA69FB689B68D21AFB6820
:102F8000DA617B68DB78012B06D1FB68DA68FB68C5
:102F90009B681A44FB68DA60FB68DA68FB6899682A
:102FA000FB68DB69994238BF0B469BB278681146D3
:102FB0001A4609F0C9FC27E07B68D3F8E0351B69A5
:102FC000002B0AD07B6893F81231032B05D17B6864
:102FD000D3F8E0351B6978689847786809F0C8FC31
:102FE00012E07B68D3F8E0359B69002B0CD07B683E
:102FF00093F81231032B07D17B68D3F8E0359B6936
:10300000FA78786811469847002318461037BD466D
:1030100080BD00BF80B584B000AF78600B46FB7008
:10302000FB78002B60D17B6803F58C73FB607B68B9
:1030300093F81131022B6AD1FB68DA69FB689B684F
:103040009A421CD9FB68DA69FB689B68D21AFB6854
:10305000DA617B68DB78012B06D1FB68DA68FB68F4
:103060009B681A44FB68DA60FB68DA68FB68DB6916
:103070009BB2786811461A4609F052FC47E0FB689B
:103080001B6AFA689268B3FBF2F102FB01F29B1A29
:10309000002B14D1FB681A6AFB689B689A420ED316
:1030A000FB681A6AFB685B6A9A4208D2786800215A
:1030B000002209F035FCFB6800225A6227E07B6899
:1030C000D3F8E035DB68002B0AD07B6893F8123127
:1030D000032B05D17B68D3F8E035DB687868984727
:1030E000786809F05DFC12E07B68D3F8E0355B6935
:1030F000002B0CD07B6893F81231032B07D17B682F
:10310000D3F8E0355B69FA78786811469847002370
:1031100018461037BD4680BD80B582B000AF7860DC
:10312000786800214022002309F0AEF878688021F9
:103130004022002309F0A8F87B68012283F81221BD
:103140007B68D3F8E4355B687A68927810469847D4
:10315000002318460837BD4680BD00BF80B582B049
:1031600000AF78607B68D3F8E4351B6998477B68CB
:10317000032283F81221002318460837BD4680BD7C
:1031800080B582B000AF78607B68042283F812219A
:103190007B68D3F8E435DB68984700231846083786
:1031A000BD4680BD80B582B000AF78607B68D3F843
:1031B000E035DB69002B05D07B68D3F8E035DB69AF
:1031C00078689847002318460837BD4680BD00BF81
:1031D00080B582B000AF78600B46FB707B68D3F897
:1031E000E0351B68FA787868114698477B68D3F811
:1031F000E4359B689847002318460837BD4680BDD4
:1032000080B582B000AF78600B46FB707B68D3F866
:10321000E0355B68FA7878681146984700231846CD
:103220000837BD4680BD00BF80B582B000AF786072
:103230007B68D3F8E0351B6A786898470023184606
:103240000837BD4680BD00BF80B582B000AF786052
:103250007B68D3F8E0355B6A7868984700231846A6
:103260000837BD4680BD00BF80B582B000AF786032
:1032700039607B681846FEF725F87B68074A1A60B4
:103280007B683A68C3F818217B680022C3F81421D0
:103290007B6818460837BD4680BD00BFB8180208D5
:1032A00080B582B000AF78600B46FB707B681A1D5A
:1032B000FB781046194603F0CDFF0346002B14BFE0
:1032C00000230123DBB2002B0AD0FB780D2B13D196
:1032D0007B68D3F814315A1C7B68C3F814210BE0C7
:1032E0007B68D3F81431002B06D1FB780D2B03D16A
:1032F0007B680122C3F814210837BD4680BD00BF9A
:1033000080B582B000AF78607B680433184603F064
:10331000D3FF0346002B14BF00230123DBB2184662
:103320000837BD4680BD00BF80B483B000AF786071
:103330007B68D3F8143118460C37BD465DF8047B22
:10334000704700BF80B582B000AF78607B680433FF
:10335000184603F0C7FF034618460837BD4680BD30
:1033600090B585B000AF786039607B68043318464B
:1033700003F0A2FF0346002B0CBF00230123DBB2A6
:10338000002B08D03B6800221A707B680022C3F82B
:103390001421002354E00023FB604DE0FB683A68F1
:1033A000D4187B680433184603F09CFF034623704F
:1033B000FB683A6813441B780D2B02D0FB68FE2B88
:1033C0001FDDFB683A68134400221A707B680433DF
:1033D000184603F071FF0346002B0CBF00230123A6
:1033E000DBB2002B04D07B680022C3F8142106E076
:1033F0007B68D3F814315A1E7B68C3F81421FB682C
:103400001EE07B680433184603F056FF0346002B8A
:103410000CBF00230123DBB2002B0AD0FB683A6803
:10342000134400221A707B680022C3F81421FB6841
:1034300006E0FB680133FB60FB68FF2BAEDD002379
:1034400018461437BD4690BD80B582B000AF786095
:103450007B689B68012B06D17B685B681846FFF789
:1034600063FF034600E0002318460837BD4680BDD1
:1034700080B582B000AF786039603B6800221A7076
:103480007B689B68012B07D17B685B6818463968AD
:10349000FFF766FF034600E0002318460837BD46E5
:1034A00080BD00BF80B582B000AF78607B689B684C
:1034B000012B06D17B685B681846FFF721FF0346A6
:1034C00000E0002318460837BD4680BD80B582B0B5
:1034D00000AF78607B689B68012B06D17B685B68D6
:1034E0001846FFF72FFF034600E000231846083771
:1034F000BD4680BD80B584B000AF786039600023E0
:10350000FB600DE07B681B6804331B68FA68396850
:103510000A441278786811469847FB680133FB60CB
:10352000FB683A6813441B78002BEBD11037BD467B
:1035300080BD00BF90B587B002AFF860B9607A6017
:103540003B60FB6802229A60FB681B681C683B6852
:103550000093F868B9687A683B6AA0470346184642
:103560001437BD4690BD00BF90B587B002AFF8607C
:10357000B9607A603B60FB6801229A604FF48E70FC
:1035800015F0D8FE04462046F968FFF76DFEFB688B
:103590005C60FB681B681C68FB685B687A6800926B
:1035A000F868B9681A463B68A047034618461437BE
:1035B000BD4690BD80B582B000AF78607B681B6867
:1035C0001B6878689847034618460837BD4680BD93
:1035D00080B582B000AF78607B681B6804331B68DD
:1035E00078689847034618460837BD4680BD00BF37
:1035F00080B584B000AFF860B9607A60FB681B6882
:103600001B68F868B9687A68984703461846103707
:10361000BD4680BD80B582B000AF786039607B6800
:103620001B6804331B687868396898470837BD46BB
:1036300080BD00BF80B582B000AF78607B681B683A
:1036400008331B6878689847034618460837BD4614
:1036500080BD00BF80B483B000AF786040F6FF73D8
:1036600018460C37BD465DF8047B7047A0F1080092
:10367000F0E700BF80B483B000AF786043F233332B
:10368000C4F2530318460C37BD465DF8047B7047FF
:10369000A0F10800EEE700BF80B483B000AF78600F
:1036A00040F6FF7318460C37BD465DF8047B704743
:1036B000A0F10800F0E700BF80B483B000AF7860ED
:1036C00043F23333C4F2530318460C37BD465DF85A
:1036D000047B7047A0F10800EEE700BF80B483B020
:1036E00000AF786040F6FF7318460C37BD465DF8B2
:1036F000047B7047A0F10800F0E700BF80B483B0FE
:1037000000AF786043F23333C4F2530318460C37EA
:10371000BD465DF8047B7047A0F10800EEE700BFEE
:1037200080B483B000AF786040F6FF7318460C3762
:10373000BD465DF8047B7047A0F10800F0E700BFCC
:1037400080B483B000AF786043F23333C4F25303E4
:1037500018460C37BD465DF8047B7047A0F10800A1
:10376000EEE700BF80B483B000AF786040F6FF732F
:1037700018460C37BD465DF8047B7047A0F1080081
:10378000F0E700BF80B483B000AF786043F233331A
:10379000C4F2530318460C37BD465DF8047B7047EE
:1037A000A0F10800EEE700BF80B582B000AF7860FE
:1037B0004FF48060C4F202004FF4805105F024FD04
:1037C000034618460837BD4680BD00BF80B582B0AD
:1037D00000AF786039603B68002B08D14FF48060FF
:1037E000C4F202004FF4805105F036FD07E04FF4BB
:1037F0008060C4F202004FF4805105F01FFD0837CD
:10380000BD4680BD80B582B000AF78604FF4806067
:10381000C4F202004FF4805105F0DCFC0346184668
:103820000837BD4680BD00BF80B584B002AF786068
:103830000023009300204FF48061C4F202014FF492
:1038400080520023FDF76EFC002318460837BD4662
:1038500080BD00BF80B584B002AF786000230093C4
:1038600001204FF48061C4F202014FF48052002322
:10387000FDF758FC002318460837BD4680BD00BF41
:1038800080B584B002AF78600023009300204FF42D
:103890008061C4F202014FF480520123FDF742FC23
:1038A000002318460837BD4680BD00BF80B584B0F0
:1038B00002AF78600023009300204FF48061C4F2CF
:1038C00002014FF480520223FDF72CFC002318461E
:1038D0000837BD4680BD00BF80B582B000AF7860BC
:1038E0004FF48050C4F202004FF4004105F08CFC0C
:1038F000034618460837BD4680BD00BF80B582B07C
:1039000000AF786039603B68002B08D14FF48050DD
:10391000C4F202004FF4004105F09EFC07E04FF4B2
:103920008050C4F202004FF4004105F087FC0837D4
:10393000BD4680BD80B582B000AF78604FF4805046
:10394000C4F202004FF4004105F044FC034618465F
:103950000837BD4680BD00BF80B584B002AF786037
:103960000023009300204FF48051C4F202014FF471
:1039700000420023FDF7D6FB012318460837BD4659
:1039800080BD00BF80B584B002AF78600023009393
:1039900001204FF48051C4F202014FF40042002391
:1039A000FDF7C0FB002318460837BD4680BD00BFA9
:1039B00080B584B002AF78600023009300204FF4FC
:1039C0008051C4F202014FF400420123FDF7AAFB2B
:1039D000012318460837BD4680BD00BF80B584B0BE
:1039E00002AF78600023009300204FF48051C4F2AE
:1039F00002014FF400420223FDF794FB0023184616
:103A00000837BD4680BD00BF80B582B000AF78608A
:103A10004FF48060C4F202004FF4804105F0F4FBE3
:103A2000034618460837BD4680BD00BF80B582B04A
:103A300000AF786039603B68002B08D14FF480609C
:103A4000C4F202004FF4804105F006FC07E04FF499
:103A50008060C4F202004FF4804105F0EFFB0837AC
:103A6000BD4680BD80B582B000AF78604FF4806005
:103A7000C4F202004FF4804105F0ACFB0346184647
:103A80000837BD4680BD00BF80B584B002AF786006
:103A90000023009300204FF48061C4F202014FF430
:103AA00080420023FDF73EFB002318460837BD4641
:103AB00080BD00BF80B584B002AF78600023009362
:103AC00001204FF48061C4F202014FF480420023D0
:103AD000FDF728FB002318460837BD4680BD00BF10
:103AE00080B584B002AF78600023009300204FF4CB
:103AF0008061C4F202014FF480420123FDF712FB02
:103B0000002318460837BD4680BD00BF80B584B08D
:103B100002AF78600023009300204FF48061C4F26C
:103B200002014FF480420223FDF7FCFA00231846FD
:103B30000837BD4680BD00BF80B582B000AF786059
:103B40004FF48060C4F202004FF4004105F05CFBCA
:103B5000034618460837BD4680BD00BF80B582B019
:103B600000AF786039603B68002B08D14FF480606B
:103B7000C4F202004FF4004105F06EFB07E04FF481
:103B80008060C4F202004FF4004105F057FB083793
:103B9000BD4680BD80B582B000AF78604FF48060D4
:103BA000C4F202004FF4004105F014FB034618462E
:103BB0000837BD4680BD00BF80B584B002AF7860D5
:103BC0000023009300204FF48061C4F202014FF4FF
:103BD00000420023FDF7A6FA002318460837BD4629
:103BE00080BD00BF80B584B002AF78600023009331
:103BF00001204FF48061C4F202014FF4004200231F
:103C0000FDF790FA002318460837BD4680BD00BF77
:103C100080B584B002AF78600023009300204FF499
:103C20008061C4F202014FF400420123FDF77AFAE9
:103C3000002318460837BD4680BD00BF80B584B05C
:103C400002AF78600023009300204FF48061C4F23B
:103C500002014FF400420223FDF764FA00231846E4
:103C60000837BD4680BD00BF80B582B000AF786028
:103C70000020C4F202004FF4004105F0C5FA0346EB
:103C800018460837BD4680BD80B582B000AF786069
:103C900039603B68002B07D10020C4F202004FF4CA
:103CA000004105F0D9FA06E00020C4F202004FF40A
:103CB000004105F0C3FA0837BD4680BD80B582B02B
:103CC00000AF78600020C4F202004FF4004105F01C
:103CD00081FA034618460837BD4680BD80B584B0DA
:103CE00002AF78600023009300200021C4F202019B
:103CF0004FF400420023FDF715FA00231846083759
:103D0000BD4680BD80B483B000AF78600123184603
:103D10000C37BD465DF8047B704700BF80B584B0AA
:103D200002AF78600023009300200021C4F202015A
:103D30004FF400420123FDF7F5F900231846083738
:103D4000BD4680BD80B584B002AF7860002300938B
:103D500000200021C4F202014FF400420223FDF7CB
:103D6000E1F9002318460837BD4680BD80B582B012
:103D700000AF78604FF48060C4F202004FF400514D
:103D800005F042FA034618460837BD4680BD00BF1D
:103D900080B582B000AF786039603B68002B08D1F5
:103DA0004FF48060C4F202004FF4005105F054FA61
:103DB00007E04FF48060C4F202004FF4005105F0B8
:103DC0003DFA0837BD4680BD80B582B000AF78604F
:103DD0004FF48060C4F202004FF4005105F0FAF98C
:103DE000034618460837BD4680BD00BF80B584B085
:103DF00002AF78600023009300204FF48061C4F28A
:103E000002014FF400520023FDF78CF900231846FD
:103E10000837BD4680BD00BF80B483B000AF786076
:103E2000012318460C37BD465DF8047B704700BF80
:103E300080B584B002AF78600023009300204FF477
:103E40008061C4F202014FF400520123FDF76AF9C8
:103E5000002318460837BD4680BD00BF80B584B03A
:103E600002AF78600023009300204FF48061C4F219
:103E700002014FF400520223FDF754F900231846C3
:103E80000837BD4680BD00BF80B582B000AF786006
:103E90004FF44060C4F202004FF4006105F0B4F941
:103EA000034618460837BD4680BD00BF80B582B0C6
:103EB00000AF786039603B68002B08D14FF4406058
:103EC000C4F202004FF4006105F0C6F907E04FF4B8
:103ED0004060C4F202004FF4006105F0AFF908370A
:103EE000BD4680BD80B582B000AF78604FF44060C1
:103EF000C4F202004FF4006105F06CF90346184665
:103F00000837BD4680BD00BF80B584B002AF786081
:103F10000023009300204FF44061C4F202014FF4EB
:103F200000620023FDF7FEF8002318460837BD465F
:103F300080BD00BF80B483B000AF78600123184615
:103F40000C37BD465DF8047B704700BF80B584B078
:103F500002AF78600023009300204FF44061C4F268
:103F600002014FF400620123FDF7DCF8002318463C
:103F70000837BD4680BD00BF80B584B002AF786011
:103F80000023009300204FF44061C4F202014FF47B
:103F900000620223FDF7C6F8002318460837BD4625
:103FA00080BD00BF80B582B000AF78604FF4406044
:103FB000C4F202004FF4806105F026F9034618466A
:103FC0000837BD4680BD00BF80B582B000AF7860C5
:103FD00039603B68002B08D14FF44060C4F2020006
:103FE0004FF4806105F038F907E04FF44060C4F207
:103FF00002004FF4806105F021F90837BD4680BD0D
:1040000080B582B000AF78604FF44060C4F2020027
:104010004FF4806105F0DEF8034618460837BD46C8
:1040200080BD00BF80B584B002AF786000230093EC
:1040300000204FF44061C4F202014FF4806200237B
:10404000FDF770F8002318460837BD4680BD00BF55
:1040500080B483B000AF7860012318460C37BD46AA
:104060005DF8047B704700BF80B584B002AF786014
:104070000023009300204FF44061C4F202014FF48A
:1040800080620123FDF74EF8002318460837BD462D
:1040900080BD00BF80B584B002AF7860002300937C
:1040A00000204FF44061C4F202014FF48062022309
:1040B000FDF738F8002318460837BD4680BD00BF1D
:1040C00080B582B000AF78604FF48060C4F2020027
:1040D000022105F099F8034618460837BD4680BD11
:1040E00080B582B000AF786039603B68002B07D1A3
:1040F0004FF48060C4F20200022105F0ADF806E042
:104100004FF48060C4F20200022105F097F80837EE
:10411000BD4680BD80B582B000AF78604FF480604E
:10412000C4F20200022105F055F80346184608378C
:10413000BD4680BD80B584B002AF78600023009397
:1041400000204FF48061C4F2020102220023FCF738
:10415000E9FF002318460837BD4680BD80B584B00E
:1041600002AF78600023009301204FF48061C4F215
:10417000020102220023FCF7D5FF0023184608376E
:10418000BD4680BD80B584B002AF78600023009347
:1041900000204FF48061C4F2020102220123FCF7E7
:1041A000C1FF002318460837BD4680BD80B584B0E6
:1041B00002AF78600023009300204FF48061C4F2C6
:1041C000020102220223FCF7ADFF00231846083744
:1041D000BD4680BD80B582B000AF78600020C4F2DB
:1041E0000200102105F010F8034618460837BD46B6
:1041F00080BD00BF80B582B000AF786039603B6899
:10420000002B06D10020C4F20200102105F024F892
:1042100005E00020C4F20200102105F00FF8083775
:10422000BD4680BD80B582B000AF78600020C4F28A
:104230000200102104F0CEFF034618460837BD46A1
:1042400080BD00BF80B584B002AF786000230093CA
:1042500000200021C4F2020110220023FCF762FFBB
:10426000002318460837BD4680BD00BF80B584B026
:1042700002AF78600023009301200021C4F2020104
:1042800010220023FCF74EFF002318460837BD46D6
:1042900080BD00BF80B584B002AF7860002300937A
:1042A00000200021C4F2020110220123FCF73AFF92
:1042B000002318460837BD4680BD00BF80B584B0D6
:1042C00002AF78600023009300200021C4F20201B5
:1042D00010220223FCF726FF002318460837BD46AC
:1042E00080BD00BF80B582B000AF78604FF4006041
:1042F000C4F20200012104F087FF03461846083784
:10430000BD4680BD80B582B000AF786039603B6843
:10431000002B07D14FF40060C4F20200012104F029
:104320009BFF06E04FF40060C4F20200012104F09C
:1043300085FF0837BD4680BD80B582B000AF78608C
:104340004FF40060C4F20200012104F043FF034671
:1043500018460837BD4680BD80B584B002AF78608E
:104360000023009300204FF40061C4F202010122F7
:104370000023FCF7D7FE002318460837BD4680BD52
:1043800080B584B002AF78600023009301204FF421
:104390000061C4F2020101220023FCF7C3FE0023E6
:1043A00018460837BD4680BD80B584B002AF78603E
:1043B0000023009300204FF40061C4F202010122A7
:1043C0000123FCF7AFFE002318460837BD4680BD29
:1043D00080B584B002AF78600023009300204FF4D2
:1043E0000061C4F2020101220223FCF79BFE0023BC
:1043F00018460837BD4680BD80B582B000AF7860F2
:104400004FF48050C4F202004FF4805104F0FCFEDF
:10441000034618460837BD4680BD00BF80B582B050
:1044200000AF786039603B68002B08D14FF48050B2
:10443000C4F202004FF4805104F00EFF07E04FF485
:104440008050C4F202004FF4805104F0F7FE0837A8
:10445000BD4680BD80B582B000AF78604FF480501B
:10446000C4F202004FF4805104F0B4FE0346184633
:104470000837BD4680BD00BF80B584B002AF78600C
:104480000023009300204FF48051C4F202014FF446
:1044900080520023FCF746FE002318460837BD462D
:1044A00080BD00BF80B584B002AF78600023009368
:1044B00001204FF48051C4F202014FF480520023D6
:1044C000FCF730FE002318460837BD4680BD00BF0C
:1044D00080B584B002AF78600023009300204FF4D1
:1044E0008051C4F202014FF480520123FCF71AFEFE
:1044F000002318460837BD4680BD00BF80B584B094
:1045000002AF78600023009300204FF48051C4F282
:1045100002014FF480520223FCF704FE00231846E8
:104520000837BD4680BD00BF80B582B000AF78605F
:104530000020C4F20200202104F066FE0346184663
:104540000837BD4680BD00BF80B582B000AF78603F
:1045500039603B68002B06D10020C4F20200202104
:1045600004F07AFE05E00020C4F20200202104F0ED
:1045700065FE0837BD4680BD80B582B000AF78606B
:104580000020C4F20200202104F024FE0346184655
:104590000837BD4680BD00BF80B584B002AF7860EB
:1045A0000023009300200021C4F2020120220023F6
:1045B000FCF7B8FD002318460837BD4680BD00BF94
:1045C00080B584B002AF7860002300930120002101
:1045D000C4F2020120220023FCF7A4FD00231846A8
:1045E0000837BD4680BD00BF80B584B002AF78609B
:1045F0000023009300200021C4F2020120220123A5
:10460000FCF790FD002318460837BD4680BD00BF6B
:1046100080B584B002AF78600023009300200021B1
:10462000C4F2020120220223FCF77CFD002318467D
:104630000837BD4680BD00BF80B582B000AF78604E
:104640004FF48060C4F20200042104F0DDFD034653
:1046500018460837BD4680BD80B582B000AF78608F
:1046600039603B68002B07D14FF48060C4F2020030
:10467000042104F0F1FD06E04FF48060C4F2020072
:10468000042104F0DBFD0837BD4680BD80B582B053
:1046900000AF78604FF48060C4F20200042104F09F
:1046A00099FD034618460837BD4680BD80B584B0E5
:1046B00002AF78600023009300204FF48061C4F2C1
:1046C000020104220023FCF72DFD002318460837C1
:1046D000BD4680BD80B584B002AF786000230093F2
:1046E00001204FF48061C4F2020104220023FCF790
:1046F00019FD002318460837BD4680BD80B584B03B
:1047000002AF78600023009300204FF48061C4F270
:10471000020104220123FCF705FD00231846083797
:10472000BD4680BD80B584B002AF786000230093A1
:1047300000204FF48061C4F2020104220223FCF73E
:10474000F1FC002318460837BD4680BD80B582B015
:1047500000AF78604FF48050C4F20200802104F072
:1047600053FD034618460837BD4680BD80B582B06C
:1047700000AF786039603B68002B07D14FF4805060
:10478000C4F20200802104F067FD06E04FF480507F
:10479000C4F20200802104F051FD0837BD4680BDFF
:1047A00080B582B000AF78604FF48050C4F2020050
:1047B000802104F00FFD034618460837BD4680BD32
:1047C00080B584B002AF78600023009300204FF4DE
:1047D0008051C4F2020180220023FCF7A3FC0023D5
:1047E00018460837BD4680BD80B584B002AF7860FA
:1047F0000023009301204FF48051C4F20201802273
:104800000023FCF78FFC002318460837BD4680BD07
:1048100080B584B002AF78600023009300204FF48D
:104820008051C4F2020180220123FCF77BFC0023AB
:1048300018460837BD4680BD80B584B002AF7860A9
:104840000023009300204FF48051C4F20201802223
:104850000223FCF767FC002318460837BD4680BDDD
:1048600080B582B000AF78604FF48050C4F202008F
:104870004FF4806104F0C8FC034618460837BD4673
:1048800080BD00BF80B582B000AF786039603B6802
:10489000002B08D14FF48050C4F202004FF4806125
:1048A00004F0DAFC07E04FF48050C4F202004FF449
:1048B000806104F0C3FC0837BD4680BD80B582B07E
:1048C00000AF78604FF48050C4F202004FF4806172
:1048D00004F080FC034618460837BD4680BD00BF83
:1048E00080B584B002AF78600023009300204FF4BD
:1048F0008051C4F202014FF480620023FCF712FCE5
:10490000002318460837BD4680BD00BF80B584B07F
:1049100002AF78600023009301204FF48051C4F26D
:1049200002014FF480620023FCF7FCFB00231846D1
:104930000837BD4680BD00BF80B584B002AF786047
:104940000023009300204FF48051C4F202014FF481
:1049500080620123FCF7E6FB002318460837BD46BA
:1049600080BD00BF80B584B002AF786000230093A3
:1049700000204FF48051C4F202014FF48062022300
:10498000FCF7D0FB002318460837BD4680BD00BFAA
:1049900080B582B000AF78604FF48060C4F202004E
:1049A000012104F031FC034618460837BD4680BD9E
:1049B00080B582B000AF786039603B68002B07D1CA
:1049C0004FF48060C4F20200012104F045FC06E0CF
:1049D0004FF48060C4F20200012104F02FFC08377C
:1049E000BD4680BD80B582B000AF78604FF4806076
:1049F000C4F20200012104F0EDFB0346184608371B
:104A0000BD4680BD80B584B002AF786000230093BE
:104A100000204FF48061C4F2020101220023FCF760
:104A200081FB002318460837BD4680BD80B584B0A1
:104A300002AF78600023009301204FF48061C4F23C
:104A4000020101220023FCF76DFB00231846083702
:104A5000BD4680BD80B584B002AF7860002300936E
:104A600000204FF48061C4F2020101220123FCF70F
:104A700059FB002318460837BD4680BD80B584B079
:104A800002AF78600023009300204FF48061C4F2ED
:104A9000020101220223FCF745FB002318460837D8
:104AA000BD4680BD80B582B000AF78604FF48050C5
:104AB000C4F20200102104F0A7FB03461846083791
:104AC000BD4680BD80B582B000AF786039603B687C
:104AD000002B07D14FF48050C4F20200102104F0E3
:104AE000BBFB06E04FF48050C4F20200102104F03A
:104AF000A5FB0837BD4680BD80B582B000AF7860A9
:104B00004FF48050C4F20200102104F063FB03460E
:104B100018460837BD4680BD80B584B002AF7860C6
:104B20000023009300204FF48051C4F202011022B0
:104B30000023FCF7F7FA002318460837BD4680BD6E
:104B400080B584B002AF78600023009301204FF459
:104B50008051C4F2020110220023FCF7E3FA002383
:104B600018460837BD4680BD80B584B002AF786076
:104B70000023009300204FF48051C4F20201102260
:104B80000123FCF7CFFA002318460837BD4680BD45
:104B900080B584B002AF78600023009300204FF40A
:104BA0008051C4F2020110220223FCF7BBFA002359
:104BB00018460837BD4680BD80B582B000AF78602A
:104BC0004FF48050C4F20200042104F01DFB0346A0
:104BD00018460837BD4680BD80B582B000AF78600A
:104BE00039603B68002B07D14FF48050C4F20200BB
:104BF000042104F031FB06E04FF48050C4F20200BF
:104C0000042104F01BFB0837BD4680BD80B582B08F
:104C100000AF78604FF48050C4F20200042104F029
:104C2000D9FA034618460837BD4680BD80B584B022
:104C300002AF78600023009300204FF48051C4F24B
:104C4000020104220023FCF76DFA002318460837FE
:104C5000BD4680BD80B584B002AF7860002300936C
:104C600001204FF48051C4F2020104220023FCF71A
:104C700059FA002318460837BD4680BD80B584B078
:104C800002AF78600023009300204FF48051C4F2FB
:104C9000020104220123FCF745FA002318460837D5
:104CA000BD4680BD80B584B002AF7860002300931C
:104CB00000204FF48051C4F2020104220223FCF7C9
:104CC00031FA002318460837BD4680BD80B582B052
:104CD00000AF78604FF48050C4F202004FF480714E
:104CE00004F092FA034618460837BD4680BD00BF5F
:104CF00080B582B000AF786039603B68002B08D186
:104D00004FF48050C4F202004FF4807104F0A4FA12
:104D100007E04FF48050C4F202004FF4807104F0B9
:104D20008DFA0837BD4680BD80B582B000AF78608F
:104D30004FF48050C4F202004FF4807104F04AFA3C
:104D4000034618460837BD4680BD00BF80B584B015
:104D500002AF78600023009300204FF48051C4F22A
:104D600002014FF480720023FCF7DCF9002318469F
:104D70000837BD4680BD00BF80B584B002AF786003
:104D80000023009301204FF48051C4F202014FF43C
:104D900080720023FCF7C6F9002318460837BD4689
:104DA00080BD00BF80B584B002AF7860002300935F
:104DB00000204FF48051C4F202014FF480720123AD
:104DC000FCF7B0F9002318460837BD4680BD00BF88
:104DD00080B584B002AF78600023009300204FF4C8
:104DE0008051C4F202014FF480720223FCF79AF959
:104DF000002318460837BD4680BD00BF80B582B08D
:104E000000AF78604FF48050C4F20200082104F033
:104E1000FBF9034618460837BD4680BD80B582B011
:104E200000AF786039603B68002B07D14FF48050A9
:104E3000C4F20200082104F00FFA06E04FF480509B
:104E4000C4F20200082104F0F9F90837BD4680BD1C
:104E500080B582B000AF78604FF48050C4F2020099
:104E6000082104F0B7F9034618460837BD4680BD4F
:104E700080B584B002AF78600023009300204FF427
:104E80008051C4F2020108220023FCF74BF90023F1
:104E900018460837BD4680BD80B584B002AF786043
:104EA0000023009301204FF48051C4F20201082234
:104EB0000023FCF737F9002318460837BD4680BDAC
:104EC00080B584B002AF78600023009300204FF4D7
:104ED0008051C4F2020108220123FCF723F90023C8
:104EE00018460837BD4680BD80B584B002AF7860F3
:104EF0000023009300204FF48051C4F202010822E5
:104F00000223FCF70FF9002318460837BD4680BD81
:104F100080B582B000AF78604FF40060C4F2020048
:104F2000202104F071F9034618460837BD4680BDBC
:104F300080B582B000AF786039603B68002B07D144
:104F40004FF40060C4F20200202104F085F906E06D
:104F50004FF40060C4F20200202104F06FF908371A
:104F6000BD4680BD80B582B000AF78604FF4006070
:104F7000C4F20200202104F02DF903461846083738
:104F8000BD4680BD80B584B002AF78600023009339
:104F900000204FF40061C4F2020120220023FCF73C
:104FA000C1F8002318460837BD4680BD80B584B0DF
:104FB00002AF78607B680222DA6000230093012050
:104FC0004FF40061C4F2020120220023FCF7AAF88A
:104FD000002318460837BD4680BD00BF80B584B0A9
:104FE00002AF78600023009300204FF40061C4F208
:104FF000020120220123FCF795F800231846083708
:10500000BD4680BD80B584B002AF786000230093B8
:1050100000204FF40061C4F2020120220223FCF7B9
:1050200081F8002318460837BD4680BD80B582B0A0
:1050300000AF78604FF40060C4F20200022104F077
:10504000E3F8034618460837BD4680BD80B582B0F8
:1050500000AF786039603B68002B07D14FF40060E7
:10506000C4F20200022104F0F7F806E04FF40060F9
:10507000C4F20200022104F0E1F80837BD4680BD09
:1050800080B582B000AF78604FF40060C4F20200D7
:10509000022104F09FF8034618460837BD4680BD3C
:1050A00080B584B002AF78600023009300204FF4F5
:1050B0000061C4F2020102220023FCF733F800234E
:1050C00018460837BD4680BD80B584B002AF786011
:1050D0007B680222DA600023009301204FF4006114
:1050E000C4F2020102220023FCF71CF80023184638
:1050F0000837BD4680BD00BF80B584B002AF786080
:105100000023009300204FF40061C4F20201022248
:105110000123FCF707F8002318460837BD4680BD79
:1051200080B584B002AF78600023009300204FF474
:105130000061C4F2020102220223FBF7F3FF002305
:1051400018460837BD4680BD80B582B000AF786094
:105150004FF40060C4F20200042104F055F8034645
:1051600018460837BD4680BD80B582B000AF786074
:1051700039603B68002B07D14FF40060C4F2020095
:10518000042104F069F806E04FF40060C4F2020064
:10519000042104F053F80837BD4680BD80B582B0C5
:1051A00000AF78604FF40060C4F20200042104F004
:1051B00011F8034618460837BD4680BD80B584B057
:1051C00002AF78600023009300204FF40061C4F226
:1051D000020104220023FBF7A5FF0023184608372D
:1051E000BD4680BD80B584B002AF78607B68022286
:1051F000DA600023009301204FF40061C4F2020141
:1052000004220023FBF78EFF002318460837BD4613
:1052100080BD00BF80B584B002AF786000230093EA
:1052200000204FF40061C4F2020104220123FBF7C5
:1052300079FF002318460837BD4680BD80B584B08D
:1052400002AF78600023009300204FF40061C4F2A5
:10525000020104220223FBF765FF002318460837EA
:10526000BD4680BD80B582B000AF78604FF400606D
:10527000C4F20200082103F0C7FF034618460837AE
:10528000BD4680BD80B582B000AF786039603B68B4
:10529000002B07D14FF40060C4F20200082103F094
:1052A000DBFF06E04FF40060C4F20200082103F0C7
:1052B000C5FF0837BD4680BD80B582B000AF7860BD
:1052C0004FF40060C4F20200082103F083FF03469C
:1052D00018460837BD4680BD80B584B002AF7860FF
:1052E0000023009300204FF40061C4F20201082261
:1052F0000023FBF717FF002318460837BD4680BD83
:1053000080B584B002AF78607B680222DA60002347
:10531000009301204FF40061C4F20201082200232F
:10532000FBF700FF002318460837BD4680BD00BFCD
:1053300080B584B002AF78600023009300204FF462
:105340000061C4F2020108220123FBF7EBFE0023F7
:1053500018460837BD4680BD80B584B002AF78607E
:105360000023009300204FF40061C4F202010822E0
:105370000223FBF7D7FE002318460837BD4680BD41
:1053800080B582B000AF78604FF40060C4F20200D4
:10539000102103F039FF034618460837BD4680BD8B
:1053A00080B582B000AF786039603B68002B07D1D0
:1053B0004FF40060C4F20200102103F04DFF06E03C
:1053C0004FF40060C4F20200102103F037FF0837E9
:1053D000BD4680BD80B582B000AF78604FF40060FC
:1053E000C4F20200102103F0F5FE03461846083708
:1053F000BD4680BD80B584B002AF786000230093C5
:1054000000204FF40061C4F2020110220023FBF7D8
:1054100089FE002318460837BD4680BD80B584B09C
:1054200002AF78607B680222DA60002300930120DB
:105430004FF40061C4F2020110220023FBF772FE58
:10544000002318460837BD4680BD00BF80B584B034
:1054500002AF78600023009300204FF40061C4F293
:10546000020110220123FBF75DFE002318460837D6
:10547000BD4680BD80B584B002AF78600023009344
:1054800000204FF40061C4F2020110220223FBF756
:1054900049FE002318460837BD4680BD80B582B05E
:1054A00000AF78604FF48060C4F20200022103F084
:1054B000ABFE034618460837BD4680BD80B582B0B6
:1054C00000AF786039603B68002B07D14FF48060F3
:1054D000C4F20200022103F0BFFE06E04FF4806038
:1054E000C4F20200022103F0A9FE0837BD4680BDC8
:1054F00080B582B000AF78604FF48060C4F20200E3
:10550000022103F067FE034618460837BD4680BDFA
:1055100080B584B002AF78600023009300204FF480
:105520008061C4F2020102220023FBF7FBFD00238D
:1055300018460837BD4680BD80B584B002AF78609C
:105540007B680222DA600023009301204FF480611F
:10555000C4F2020102220023FBF7E4FD00231846F7
:105560000837BD4680BD00BF80B584B002AF78600B
:105570000023009300204FF48061C4F20201022254
:105580000123FBF7CFFD002318460837BD4680BD39
:1055900080B584B002AF78600023009300204FF400
:1055A0008061C4F2020102220223FBF7BBFD00234B
:1055B00018460837BD4680BD80B582B000AF786020
:1055C0004FF48050C4F20200402103F01DFE034658
:1055D00018460837BD4680BD80B582B000AF786000
:1055E00039603B68002B07D14FF48050C4F20200B1
:1055F000402103F031FE06E04FF48050C4F2020077
:10560000402103F01BFE0837BD4680BD80B582B047
:1056100000AF78604FF48050C4F20200402103F0E4
:10562000D9FD034618460837BD4680BD80B584B015
:1056300002AF78600023009300204FF48051C4F241
:10564000020140220023FBF76DFD002318460837B6
:10565000BD4680BD80B584B002AF78607B68022211
:10566000DA600023009301204FF48051C4F202015C
:1056700040220023FBF756FD002318460837BD469D
:1056800080BD00BF80B584B002AF78600023009376
:1056900000204FF48051C4F2020140220123FBF7A5
:1056A00041FD002318460837BD4680BD80B584B053
:1056B00002AF78600023009300204FF48051C4F2C1
:1056C000020140220223FBF72DFD00231846083774
:1056D000BD4680BD80B582B000AF78604FF4805089
:1056E000C4F20200202103F08FFD0346184608375C
:1056F000BD4680BD80B582B000AF786039603B6840
:10570000002B07D14FF48050C4F20200202103F097
:10571000A3FD06E04FF48050C4F20200202103F004
:105720008DFD0837BD4680BD80B582B000AF786082
:105730004FF48050C4F20200202103F04BFD0346D9
:1057400018460837BD4680BD80B584B002AF78608A
:105750000023009300204FF48051C4F20201202264
:105760000023FBF7DFFC002318460837BD4680BD49
:1057700080B584B002AF78607B680222DA600023D3
:10578000009301204FF48051C4F202012022002333
:10579000FBF7C8FC002318460837BD4680BD00BF94
:1057A00080B584B002AF78600023009300204FF4EE
:1057B0008051C4F2020120220123FBF7B3FC002335
:1057C00018460837BD4680BD80B584B002AF78600A
:1057D0000023009300204FF48051C4F202012022E4
:1057E0000223FBF79FFC002318460837BD4680BD07
:1057F00080B582B000AF78604FF48050C4F20200F0
:105800004FF4007103F000FD034618460837BD460B
:1058100080BD00BF80B582B000AF786039603B6862
:10582000002B08D14FF48050C4F202004FF40071F5
:1058300003F012FD07E04FF48050C4F202004FF471
:10584000007103F0FBFC0837BD4680BD80B582B017
:1058500000AF78604FF48050C4F202004FF4007142
:1058600003F0B8FC034618460837BD4680BD00BFAC
:1058700080B584B002AF78600023009300204FF41D
:105880008051C4F202014FF400720023FBF74AFC7E
:10589000002318460837BD4680BD00BF80B584B0E0
:1058A00002AF78607B680222DA6000230093012057
:1058B0004FF48051C4F202014FF400720023FBF751
:1058C00031FC002318460837BD4680BD80B584B042
:1058D00002AF78600023009300204FF48051C4F29F
:1058E00002014FF400720123FBF71CFC0023184651
:1058F0000837BD4680BD00BF80B584B002AF786078
:105900000023009300204FF48051C4F202014FF4B1
:1059100000720223FBF706FC002318460837BD4639
:1059200080BD00BF80B582B000AF78604FF480507A
:10593000C4F202004FF4804103F066FC03461846AF
:105940000837BD4680BD00BF80B582B000AF78602B
:1059500039603B68002B08D14FF48050C4F202003C
:105960004FF4804103F078FC07E04FF48050C4F21C
:1059700002004FF4804103F061FC0837BD4680BD52
:1059800080B582B000AF78604FF48050C4F202005E
:105990004FF4804103F01EFC034618460837BD460D
:1059A00080BD00BF80B584B002AF78600023009353
:1059B00000204FF48051C4F202014FF480420023D2
:1059C000FBF7B0FB002318460837BD4680BD00BF7B
:1059D00080B584B002AF78607B680222DA60002371
:1059E000009301204FF48051C4F202014FF4804231
:1059F0000023FBF797FB002318460837BD4680BD00
:105A000080B584B002AF78600023009300204FF48B
:105A10008051C4F202014FF480420123FBF782FB64
:105A2000002318460837BD4680BD00BF80B584B04E
:105A300002AF78600023009300204FF48051C4F23D
:105A400002014FF480420223FBF76CFB002318464F
:105A50000837BD4680BD00BF80B582B000AF78601A
:105A60004FF48050C4F202004FF4005103F0CCFB1D
:105A7000034618460837BD4680BD00BF80B582B0DA
:105A800000AF786039603B68002B08D14FF480503C
:105A9000C4F202004FF4005103F0DEFB07E04FF4C4
:105AA0008050C4F202004FF4005103F0C7FB0837E6
:105AB000BD4680BD80B582B000AF78604FF48050A5
:105AC000C4F202004FF4005103F084FB0346184671
:105AD0000837BD4680BD00BF80B584B002AF786096
