:020000040800F2
:1000000008970120CD33000861950008819500080C
:10001000A1950008C1950008E195000800000000C6
:100020000000000000000000000000000196000831
:100030002196000800000000419600086D3000087D
:1000400031340008313400083134000831340008FC
:1000500031340008313400083134000831340008EC
:1000600031340008313400083134000831340008DC
:1000700031340008313400083134000831340008CC
:1000800031340008313400083134000831340008BC
:100090001D71000831340008313400083134000883
:1000A00031340008011C00083134000831340008E4
:1000B000651C0008C51C0008311D0008313400080B
:1000C00031340008BD7700083134000831340008AD
:1000D0003134000831340008596B00080D6C0008F9
:1000E000313400083134000869220008751E000808
:1000F000091E00083134000831340008313400088A
:1001000031340008D59A00089D1D000831340008DC
:10011000313400083134000831340008313400082B
:10012000313400083134000831340008E19A000805
:10013000313400083134000831340008313400080B
:1001400031340008313400083134000855220008E9
:1001500031340008313400083134000831340008EB
:1001600031340008313400083134000831340008DB
:1001700031340008313400083134000831340008CB
:10018000313400083134000808B540F2F450074B10
:10019000C2F200001B1A062B00D808BD40F2000373
:1001A000C0F20003002BF8D09847F6E7F7050020CF
:1001B00008B540F2F45040F2F453C2F20000C2F22B
:1001C00000031B1A9B1003EBD373591000D108BD19
:1001D00040F20002C0F20002002AF8D09047F6E791
:1001E00010B540F2F854C2F20004237873B9FFF757
:1001F000CBFF40F20003C0F200032BB144F65820BD
:10020000C0F60200AFF300800123237010BD00BFD1
:1002100008B540F20003C0F200034BB144F6582089
:1002200040F2FC51C0F60200C2F20001AFF30080C0
:1002300040F2F050C2F2000003682BB140F200031C
:10024000C0F2000303B19847BDE80840B0E700BF23
:1002500080B584B000AFF8600B467A60FB72FB7A21
:10026000013B032B52D801A252F823F07D02000873
:10027000A1020008C5020008E9020008FB68DB6A69
:1002800018460FF073FB0346184679680FF0C6FB5B
:10029000034618460FF0AEFD0246FB685A6336E08F
:1002A000FB68DB6A18460FF061FB03461846796865
:1002B0000FF0B4FB034618460FF09CFD0246FB68A6
:1002C0009A6324E0FB68DB6A18460FF04FFB034695
:1002D000184679680FF0A2FB034618460FF08AFD16
:1002E0000246FB68DA6312E0FB68DB6A18460FF02F
:1002F0003DFB0346184679680FF090FB034618460D
:100300000FF078FD0246FB681A6400E000BF10376A
:10031000BD4680BD80B582B000AF78600B46FB70F3
:10032000FB78012B06D17B685B6B18460FF01EFB38
:1003300003461FE0FB78022B06D17B689B6B1846B7
:100340000FF014FB034615E0FB78032B06D17B6806
:10035000DB6B18460FF00AFB03460BE0FB78042B1F
:1003600006D17B681B6C18460FF000FB034601E0CA
:100370004FF0000318460837BD4680BD90B5ADB0BC
:1003800002AFF860B9603B601346FB800023C7F8FA
:10039000A4300023C7F8A0300023C7F89C30012305
:1003A000C7F898300023A7F8963009F07BFD07F1D5
:1003B0004403184607F0A8FFFB68B3F1804F06D34B
:1003C000FA684FF4A053C4F200039A420DD9FA68B8
:1003D00041F2FF73C4F200039A4217D9FA684FF44E
:1003E0000053C4F200039A4210D8FA6C4FF46053E1
:1003F000C4F20203D3F88C301B0E03F00103013367
:1004000003FB02F35B00C7F8A4300FE03A6D4FF432
:100410006053C4F20203D3F88C301B0E03F00103C7
:10042000013303FB02F35B00C7F8A4303B68002BE9
:100430000DDDD7F8A42048F21F53C5F2EB1383FB60
:1004400002135911D317CA1A3B689A4201DA0123E1
:10045000F4E01FE0D7F8A0300133C7F8A030D7F898
:10046000A420D7F8A03092FBF3F23B6892FBF3F3A1
:10047000C7F89C30D7F89C30B3F5803F02DA0023F0
:10048000C7F89830D7F8A0204FF6FE739A4201DDE6
:100490000123D3E0D7F89830002BDBD1D7F8A42084
:1004A000D7F8A03092FBF3F2D7F89C3092FBF3F32D
:1004B0003B60F8680BF0A2FFFB880022009202204C
:1004C000B9681A46002300F0A3FED7F89C30013B20
:1004D000FB63D7F8A0309BB2013B9BB23B87002364
:1004E000A7F8403000237B87002387F8423007F1CC
:1004F0003803F86819460CF0FBFE6023BB84002328
:100500003B860123FB8404233B8508237B864FF431
:100510008073BB864FF40073FB8607F12403F868F1
:1005200019460CF0C9FFF86800210DF0B5F907F184
:100530002403F86819460DF039F8F86800210DF029
:10054000C7F907F12403F86819460DF0B7F8F86801
:1005500000210DF0DBF907F12403F86819460DF0CE
:1005600033F9F86800210DF0EDF9FA680023C4F2C0
:1005700001039A4206D0FA684FF48063C4F2010383
:100580009A4211D107F1140318460DF021FA4FF4E5
:1005900080433B8407F11403F86819460DF0F0F925
:1005A000F86801210DF032FAFA8807F15403104679
:1005B00019460BF091FD0023A7F8963025E0B7F817
:1005C00096305B0007F1A802134433F8543C012B2A
:1005D00016D1B7F8963010335B0007F1A8010B4431
:1005E00033F8523C18460CF01DF903461C46F868D7
:1005F0000CF08EF90346B86821461A4609F06EFBE6
:10060000B7F896300133A7F89630B7F896300F2B2D
:10061000D5D9FB6800225A63FB6800229A63FB6805
:100620000022DA63FB6800221A64F86801210CF0EA
:1006300003FFF86801210CF01FFF00231846AC37B8
:10064000BD4690BD80B489B000AFF860B960FA7162
:10065000BB800023FB76FB68DB78002B23D10023D3
:100660007B610023FB61BB880333DA1C002BB8BF1E
:1006700013469B107B61FB79FA6832339B0013446D
:100680009B683B610023FB6109E0BB681A683B691A
:100690001A60FB690133FB61BB680433BB60FA6914
:1006A0007B699A42F1D3FB7E18462437BD465DF83C
:1006B000047B704780B489B000AFF860B96013461E
:1006C000FB800023FB61FB880333DA1C002BB8BFDF
:1006D00013469B10BB61FB68D3F8D0307B610023CD
:1006E000FB6109E07B691A68BB681A60FB6901332A
:1006F000FB61BB680433BB60FA69BB699A42F1D302
:10070000BB6818462437BD465DF8047B704700BFC0
:1007100080B586B000AF786039600023FB74002399
:100720007B610023FB60FB6843F02003FB603B68B8
:10073000DBB203F01F03DAB2FB6862F38A13FB60DB
:100740007B68DB68FA681A617B68DB681B69FB60A1
:100750007B6901337B617A694FF45463C0F2030310
:100760009A4200D905E0FB68C3F34013DBB2012BCA
:10077000EAD0032009F080FFFB7C18461837BD46FD
:1007800080BD00BF80B483B000AF78607B68DB6859
:100790005B6903F0010318460C37BD465DF8047B26
:1007A000704700BF80B582B000AF78607868FFF70F
:1007B000E9FF0346012B0CBF00230123DBB21846DF
:1007C0000837BD4680BD00BF80B485B000AF7860FB
:1007D0000023FB607B68DB685B69FB607B68DB6830
:1007E0009B69FA681340FB60FB6818461437BD46E6
:1007F0005DF8047B704700BF80B485B000AF7860BF
:100800000023FB737B681B699B68BB603B7AC3F367
:100810004103DBB2022B09D0032B04D0012B02D001
:100820000323FB7305E00223FB7302E00123FB7348
:1008300000BFFB7B18461437BD465DF8047B70474C
:1008400080B487B000AF78600023FB750023BB60E5
:100850007B681B699B683B617B689B691B68FB60CD
:100860003B7CC3F34103DBB2022B04D0BB896FF3A3
:100870000A03BB8105E0BB89032262F30A03BB8143
:1008800000BF7B689B69FA681A607B7A43F00103BA
:100890007B727B681B697A6812695168BA68D243B7
:1008A0001140BA680A435A60FB7D18461C37BD46A2
:1008B0005DF8047B704700BF80B487B000AF7860FC
:1008C00039600023FB740023FB600023BB603B689E
:1008D0005B78012B0FD13B681B787A6804339B004F
:1008E00013449B687B613B681B78012202FA03F387
:1008F0009BB23B810EE03B681B787A6814339B0007
:1009000013445B687B613B681B78012202FA03F3A6
:100910009BB27B817B691B68FB607B7BC3F3C0134D
:10092000DBB2002B27D13B689B689BB2C3F30A0361
:100930009AB2BB8962F30A03BB813B68DB7803F0A0
:100940000303DAB2BB7B62F38303BB733B68DB88D0
:10095000DBB203F00F03DAB2FB8962F38913FB8188
:10096000FB7B43F01003FB737B7B43F080037B73C3
:10097000FA687B691A607B681B697A681269D169B9
:10098000BA680A43DA61FB7C18461C37BD465DF83D
:10099000047B704780B588B000AF78603960002371
:1009A000FB770023BB6100237B6100233B613B6835
:1009B0005B78012B40F0AB803B681B787A6804338E
:1009C0009B0013449B681B687B613B681B787A68BB
:1009D00004339B0013449B681B693B613B685B6964
:1009E000002B09D13B696FF312033B617B8A012223
:1009F00062F3CC037B8222E03B685B69C3F31202A3
:100A00003B6962F312033B613B685A693B689B6830
:100A100013445A1E3B689B68B2FBF3F39BB2C3F3CB
:100A200009039AB27B8A62F3CC037B823B68DB7852
:100A3000012B04D1FB7C012262F34613FB743B685B
:100A40001B787A6804339B0013449B683A691A61E7
:100A50007B68DB78012B0AD13B681B787A6804330A
:100A60009B0013449B683A6812695A6115E03B6821
:100A7000DB78012B11D03B685B69002B0DD03B6804
:100A80001B78012202FA03F3BB617B681B697A6859
:100A90001269516BBA690A435A633B68DB78012BD0
:100AA00014D17B681B699B68FB60FB68C3F30D2353
:100AB0009BB203F00103002B04D1FB7D43F0200324
:100AC000FB7503E0FB7D43F01003FB75FB7D43F0FA
:100AD0000403FB75FB7D43F08003FB753B681B78CB
:100AE0007A6804339B0013449B687A691A603B68F8
:100AF000DB78012B40F088803B68D9683B681A7826
:100B00003B685B699BB27868FFF79CFD7CE03B68C3
:100B10001B787A6814339B0013445B681B687B6105
:100B20003B681B787A6814339B0013445B681B692D
:100B30003B613B685B69002B0DD13B689B68C3F34D
:100B400012023B6962F312033B617B8A012262F36A
:100B5000CC037B821FE03B685A693B689B68134467
:100B60005A1E3B689B68B2FBF3F39BB2C3F30903C5
:100B70009AB27B8A62F3CC037B827B8AC3F3C9037C
:100B80009BB23A68926802FB03F3C3F312023B691B
:100B900062F312033B613B681B787A6814339B0055
:100BA00013445B683A691A617B68DB78012B09D1D1
:100BB0003B681B787A6814339B0013445B683A687F
:100BC00012695A613B68DB78012B0CD13B685B7979
:100BD000002B04D0FB7D43F02003FB7503E0FB7D7D
:100BE00043F01003FB75FB7D43F00403FB75FB7DB5
:100BF00043F08003FB753B681B787A6814339B00D5
:100C000013445B687A691A60FB7F18462037BD463B
:100C100080BD00BF80B489B000AF78603960002328
:100C2000FB770023BB6100233B610023BB603B6873
:100C30005B78012B6FD17B689B697B617B691B684B
:100C40003B617B691B69BB603B685B69002B09D119
:100C50003B7A6FF306033B72BB7A012262F3C40353
:100C6000BB7223E03B685A693B689B689A420ED985
:100C70003B689A683B685A613B689B68DBB203F04B
:100C80007F03DAB23B7A62F306033B7209E03B680A
:100C90005B69DBB203F07F03DAB23B7A62F30603EF
:100CA0003B72BB7A012262F3C403BB72BA687B69F0
:100CB0001A617B68DB78012B09D13B681B787A6865
:100CC00004339B0013449B683A6812695A61FB7CA9
:100CD00043F00403FB74FB7C43F08003FB743A692C
:100CE0007B691A607B68DB78002B75D13B685B6998
:100CF000002B71D03B681B78012202FA03F3BA691A
:100D00001343BB617B681B697A681269516BBA69CE
:100D10000A435A6360E03B681B787A6814339B008F
:100D200013445B681B683B613B681B787A6814332B
:100D30009B0013445B681B69BB603B685B69002BCD
:100D40000FD13B689B68DBB203F07F03DAB23B7ADA
:100D500062F306033B72BB7A012262F3C403BB72E7
:100D600012E03B689A683B685A613B689B68DBB25B
:100D700003F07F03DAB23B7A62F306033B72BB7A7D
:100D8000012262F3C403BB723B681B787A68143398
:100D90009B0013445B68BA681A617B68DB78012B9F
:100DA00009D13B681B787A6814339B0013445B6855
:100DB0003A6812695A61FB7C43F00403FB74FB7CC4
:100DC00043F08003FB743B681B787A6814339B0004
:100DD00013445B683A691A60FB7F18462437BD46A6
:100DE0005DF8047B704700BF80B487B000AF7860C7
:100DF00039600023FB750023FB603B685B78012BA7
:100E00001CD13B681B787A6804339B0013449B68B1
:100E10003B613B691B68FB60FB7BC3F3C013DBB228
:100E2000002B03D0FB7B43F04003FB73BB7B43F001
:100E30002003BB73FA683B691A6011E03B681B78BA
:100E40007A6814339B0013445B683B613B691B6801
:100E5000FB60BB7B43F02003BB73FA683B691A60FD
:100E6000FB7D18461C37BD465DF8047B704700BF0C
:100E700080B487B000AF786039600023FB74002332
:100E8000FB603B685B78012B08D13B681B787A6874
:100E900004339B0013449B687B6107E03B681B782D
:100EA0007A6814339B0013445B687B617B691B6821
:100EB000FB60BB7B6FF34513BB733B68DB78032B95
:100EC00003D03B68DB78022B03D1FB7B43F010039C
:100ED000FB73FA687B691A60FB7C18461C37BD46B9
:100EE0005DF8047B704700BF80B485B000AF7860C8
:100EF0007B681B699B69FB607B681B69DB69FA681F
:100F00001340FB60FB681B0C18461437BD465DF8A8
:100F1000047B704780B485B000AF78600B46FB70EF
:100F2000FB787A6814339B0013445B689B68FB6012
:100F30007B681B695B69FA681340FB60FB681846B5
:100F40001437BD465DF8047B704700BF80B485B0A0
:100F500000AF78607B681B699B69FB607B681B69DD
:100F6000DB69FA681340FB60FB689BB218461437D4
:100F7000BD465DF8047B704780B487B000AF7860F1
:100F800000233B61FB7C43F0C003FB74BB7C01226C
:100F900062F3C403BB743B7C182262F306033B7408
:100FA0007B685B6D3A691A617B68DB78012B16D12F
:100FB0000023FB607B685B6D7A6802F5B9625A6159
:100FC0007B685B6D1B68FB60FB7B43F08003FB73FE
:100FD0004FF08023FB607B685B6DFA681A601C37FA
:100FE000BD465DF8047B704780B485B000AF786083
:100FF0007B689B7A002B1BD07B681B699B68FB601E
:101000003B7BC3F30003DBB2012B11D17B6803F5FB
:1010100086731B68BB603B7A6FF341033B723B7A7C
:101020006FF300033B727B68D3F80C31BA681A6027
:101030001437BD465DF8047B704700BF80B582B0B1
:1010400000AF786039607B683A681A607B6800227C
:101050005A607B6800229A607B680022DA607B68B5
:1010600000221A617B6800225A617B6800229A6123
:101070007B680022DA617B6800221A627B680022AA
:101080005A627B68002283F82C2002F005F80246A1
:101090000B467B689A627B6818460837BD4680BD60
:1010A00080B584B000AFF8600B467A60FB72FB68D5
:1010B000FA7A83F82C20FB687A685A62FB6893F806
:1010C0002C30002B02D0FB6801229A61FB681B6860
:1010D0001B6828331B68FA68126810469847034655
:1010E00018461037BD4680BD80B582B000AF78602D
:1010F00001F0D2FF7B689B6A1A464FF00003821A08
:1011000061EB0303052A73F10001B4BF002301233F
:10111000DBB2002B79D001F0BFFF02460B467B68A3
:101120009A627B681B681B6830331B687A68126898
:101130001046984702467B685A607B685A687B680D
:101140009B699A4205D07B68DB695A1D7B68DA612E
:1011500002E07B680022DA617B68DA697B685B6A9F
:101160009A4215DB7B680022DA617B689B69002B61
:1011700014BF00230123DBB21A467B689A617B68A7
:101180009B69002B04D07B68DB685A1C7B68DA60A3
:101190007B689A697B689A607B6893F82C30002B97
:1011A0000BD07B689B6803F00103002B14BF002366
:1011B0000123DBB21A467B689A607B689B68012B2F
:1011C0000AD17B681B6A002B06D17B6801221A6159
:1011D0007B6800225A6114E07B689B68002B0AD16F
:1011E0007B681B6A012B06D17B6800221A617B6831
:1011F00001225A6105E07B6800221A617B680022A7
:101200005A617B689A687B681A620837BD4680BD60
:1012100080B584B000AF39600146F971BA80BB7106
:101220003A680023C4F202039A4204D1012001214A
:1012300007F03EF92EE03A684FF48063C4F20203EF
:101240009A4204D10220012107F032F922E03A68E3
:101250004FF40063C4F202039A4204D10420012136
:1012600007F026F916E03A684FF44063C4F202032F
:101270009A4204D10820012107F01AF90AE03A68DD
:101280004FF48053C4F202039A4203D1102001218B
:1012900007F00EF907F10803184608F0B5FCBB8803
:1012A000BB60FB793B733B7EBB73BB79FB73032352
:1012B0007B7307F108033868194608F017FCFB79BF
:1012C000012B04D1BB883868194608F0F9FC1037A7
:1012D000BD4680BD80B483B000AF78600B46FB7024
:1012E000FB78002B0CD04FF43053C4F201034FF4C1
:1012F0003052C4F20102D16B7A680A43DA630CE01F
:101300004FF43053C4F201034FF43052C4F20102DF
:10131000D16B7A68D2430A40DA630C37BD465DF878
:10132000047B704780B485B000AF78600023FB7306
:101330004FF43053C4F201035A6B7B681340002B07
:1013400002D00123FB7301E00023FB73FB7B1846F3
:101350001437BD465DF8047B704700BF80B483B08E
:1013600000AF78604FF43053C4F201037A689A6397
:101370000C37BD465DF8047B704700BF80B483B076
:1013800000AF786039607B683A685A60002318467D
:101390000C37BD465DF8047B704700BF80B584B054
:1013A00000AF786039600023FB607B681B681B68B6
:1013B00020331B687A681268104698470346002B52
:1013C0000CBF00230123DBB2002B02D0FB680133EA
:1013D000FB607B685B681B6820331B687A68526817
:1013E000104698470346002B0CBF00230123DBB2B5
:1013F000002B02D0FB680133FB607B689B681B6895
:101400000C331B687A689268104639684FF07E5238
:1014100098470346002B0CBF00230123DBB2002BAF
:1014200002D0FB680133FB60FB6818461037BD46ED
:1014300080BD00BF80B582B000AF78603960386889
:101440004FF00001CBF680714FF07E5201F0E2F8D0
:1014500002467B68DA600837BD4680BDB0B582B011
:1014600000AF78607B68DB6818464FF000010EF033
:1014700091FC0346002B24D07B681B681B68343327
:101480001B687A681268104698477B685B681B681F
:1014900038331B687A685268104698477B689B68A7
:1014A0001B6810331C687B689D687B68DB684FF0A5
:1014B0007E5019460EF0A8F9034628461946A04763
:1014C0004BE07B68DB6818464FF000010EF044FCEF
:1014D0000346002B24D07B681B681B6838331B68CD
:1014E0007A681268104698477B685B681B683433DB
:1014F0001B687A685268104698477B689B681B682F
:1015000010331C687B689D687B68DB6818464FF069
:101510007E510EF07BF9034628461946A0471CE091
:101520007B681B681B6834331B687A681268104636
:1015300098477B685B681B6834331B687A6852681D
:10154000104698477B689B681B6810331B687A6855
:10155000926810464FF07E5198470837BD46B0BD9F
:1015600080B483B000AF78607B68044A1A607B68FF
:1015700018460C37BD465DF8047B704728230208E7
:1015800080B483B000AF786039600C37BD465DF839
:10159000047B704780B582B000AF78607B68064AF4
:1015A0001A607B680433184600F060F97B681846BF
:1015B0000837BD4680BD00BFE023020880B582B079
:1015C00000AF786039607B681846FFF7C9FF7B6819
:1015D0001C331846FFF7DEFF7B68084A1A607B68F9
:1015E000074ADA617B680022C3F830217B683A68D9
:1015F0005A607B6818460837BD4680BDB80F0208A0
:10160000C40F020880B487B000AFF860B960134619
:10161000FB7100237B61FA79BB6843F080031340C0
:10162000002B08D040F21463C2F20003BA68002114
:1016300043F822105FE040F21463C2F20003BA687C
:1016400053F82230022B56DC40F21463C2F200033E
:10165000BA6853F8220040F22462C2F20002B9686C
:101660000B465B000B4403441344FA791A7040F2B2
:101670001463C2F20003BA6853F82230022B3AD145
:1016800040F22462C2F20002B9680B465B000B44D0
:10169000134401331B78D80140F22462C2F20002E5
:1016A000B9680B465B000B44134402331B780343B9
:1016B0007B61FA68BB684C339B0013445A687B69B2
:1016C0009A4209D140F23063C2F20003BA6853F87B
:1016D00022207B699A4206D1FA68BB6850339B008E
:1016E00013447A695A6040F23063C2F20003BA6868
:1016F000796943F8221040F21463C2F20003BA6819
:1017000053F82230591C40F21463C2F20003BA6845
:1017100043F822101C37BD465DF8047B704700BFBC
:1017200090B587B000AF78607B68D3F83031002B7C
:101730000CD17B685B681B6810331B687A68516842
:101740007A6892690846114698478CE07B68D3F81E
:101750003031012B40F0878000233B610023BB81A7
:101760000023BB7301F098FC02460B461046194655
:101770007B6803F5AC73D3E90023821A61EB0303A2
:10178000002B08BF052A34BF00230123DBB2002B46
:1017900069D001F081FC02460B46796801F5AC7115
:1017A000C1E900237B68D3F860317A684C339B0031
:1017B00013445B683B617B68D3F86031DBB263F054
:1017C0007F03DBB2DBB23B733B69DB11DBB203F0BF
:1017D0007F03DBB27B733B69DBB203F07F03DBB2D9
:1017E000BB7300237B6113E07B68D3F82C311B684B
:1017F00004331B687A68D2F82C1107F10C007A695F
:10180000024412780846114698477B6901337B6190
:101810007B69022BE8DD13E07B68D3F860417B68CD
:10182000D3F82C311B6814331B687A68D2F82C214A
:10183000104698470346786821461A46FFF7E2FEAD
:101840007B68D3F82C311B6810331B687A68D2F898
:101850002C21104698470346002B0CBF0023012380
:10186000DBB2002BD8D11C37BD4690BD80B483B00D
:1018700000AF78607B680022C3F804217B680022F7
:10188000C3F808217B6818460C37BD465DF8047B19
:10189000704700BF80B48BB000AF78600B46FB7020
:1018A0007B68D3F83C317A681344FA7883F82C21AA
:1018B0007B6893F82C31AA2B03D17B680122C3F8F3
:1018C00040217B68D3F84031012B40F003817B68D5
:1018D000D3F83C315A1C7B68C3F83C217B68D3F8B1
:1018E0003C310E2B40F3F6807B680022C3F83C218C
:1018F0007B680022C3F840217B6893F82E311A469A
:101900007B6893F82F311A447B6893F830311A447E
:101910007B6893F831311A447B6893F832311A446A
:101920007B6893F833311A447B6893F834311A4456
:101930007B6893F835311A447B6893F836311A4442
:101940007B6893F837311A447B6893F838311A442E
:101950007B6893F8393113447B617B69DAB27B6829
:1019600093F83A319A4240F096807B6893F82F3191
:101970001A467B6893F830311B029BB213433B61DC
:101980003B69B3F5004F05DA3B695A427B68C3F8FF
:10199000142105E03B69C3F580327B68C3F814214C
:1019A0007B6893F831311A467B6893F832311B0219
:1019B0009BB21343FB60FB68B3F5004F05DAFB688D
:1019C0005A427B68C3F8182105E0FB68C3F58032F2
:1019D0007B68C3F818217B6893F833311A467B681B
:1019E00093F834311B029BB213437B627B6A03F48E
:1019F0000043002B0BD07B6A83F47F4383F0FF030B
:101A00007B627B6A01337B627B6A5B427B627B68C1
:101A10007A6AC3F81C217B6893F835311A467B68D3
:101A200093F836311B029BB213433B623B6A03F4CB
:101A30000043002B0BD03B6A83F47F4383F0FF030A
:101A40003B623B6A01333B623B6A5B423B627B68C1
:101A50003A6AC3F820217B6893F837311A467B68CD
:101A600093F838311B029BB21343FB61FB6903F40B
:101A70000043002B0BD0FB6983F47F4383F0FF030B
:101A8000FB61FB690133FB61FB695B42FB617B68C6
:101A9000FA69C3F824217B68D3F84831002B09D0B8
:101AA0007B68D3F814217B68C3F828217B68002267
:101AB000C3F848210023BB6109E07A68BB6913447D
:101AC00003F5947300221A71BB690133BB61BB69D2
:101AD0000E2BF2DD2C37BD465DF8047B704700BF4E
:101AE00090B585B000AFF860B9607A6040F24063AD
:101AF000C2F20003BA6853F82240F8680DF03AFFCA
:101B00000346204619460EF03BF90346002B0CD045
:101B1000FB68013B18460DF02DFF014640F2406383
:101B2000C2F20003BA6843F8221040F26063C2F2C6
:101B30000003BA6853F8222040F24063C2F2000367
:101B4000B96853F82130104619460DF067FF034677
:101B5000194640F26063C2F20003BA6843F82210EB
:101B600040F26063C2F20003BA6853F822301846AC
:101B700079680DF04BFE0346194640F26063C2F2ED
:101B80000003BA6843F8221040F24063C2F2000337
:101B9000BA6853F8223018464FF07E510DF036FEE9
:101BA0000346194640F24063C2F20003BA6843F8A4
:101BB000221040F26063C2F20003BA6853F8222098
:101BC00040F24063C2F20003B96853F82130104676
:101BD00019460DF0D7FF0346194640F26063C2F282
:101BE0000003BA6843F8221040F26063C2F20003B7
:101BF000BA6853F8223018461437BD4690BD00BF6E
:101C000080B500AF0023C4F201031B889BB21B09FF
:101C10009BB2002B0BD040F28063C2F200031B6822
:101C20005A1E40F28063C2F200031A6013E00023E0
:101C3000C4F201031B889BB21B099BB2002B0AD183
:101C400040F28063C2F200031B685A1C40F28063BA
:101C5000C2F200031A600020C4F2010001210BF05F
:101C60001FFF80BD80B500AF4FF080431B889BB243
:101C70001B099BB2002B0BD040F28463C2F200031D
:101C80001B685A1E40F28463C2F200031A6012E01D
:101C90004FF080431B889BB21B099BB2002B0AD1DB
:101CA00040F28463C2F200031B685A1C40F2846352
:101CB000C2F200031A604FF0804001210BF0F0FEE9
:101CC00080BD00BF80B500AF4FF48063C4F2000355
:101CD0001B889BB21B099BB2002B0BD040F2886380
:101CE000C2F200031B685A1E40F28863C2F200036E
:101CF0001A6014E04FF48063C4F200031B889BB2A7
:101D00001B099BB2002B0AD140F28863C2F2000388
:101D10001B685A1C40F28863C2F200031A604FF439
:101D20008060C4F2000001210BF0BAFE80BD00BF4C
:101D300080B500AF4FF40063C4F200031B889BB270
:101D40001B099BB2002B0BD040F28C63C2F2000344
:101D50001B685A1E40F28C63C2F200031A6014E042
:101D60004FF40063C4F200031B889BB21B099BB2B3
:101D7000002B0AD140F28C63C2F200031B685A1C8C
:101D800040F28C63C2F200031A604FF40060C4F2A8
:101D9000000001210BF084FE80BD00BF80B500AFC4
:101DA0004FF44063C4F200031B889BB21B099BB233
:101DB000002B0BD040F29063C2F200031B685A1E46
:101DC00040F29063C2F200031A6014E04FF44063E3
:101DD000C4F200031B889BB21B099BB2002B0AD1E3
:101DE00040F29063C2F200031B685A1C40F29063F9
:101DF000C2F200031A604FF44060C4F200000121F7
:101E00000BF04EFE80BD00BF80B500AF4FF4806385
:101E1000C4F201031B889BB21B099BB2002B0BD0A1
:101E200040F29463C2F200031B685A1E40F29463AE
:101E3000C2F200031A6014E04FF48063C4F201039D
:101E40001B889BB21B099BB2002B0AD140F2946302
:101E5000C2F200031B685A1C40F29463C2F20003F2
:101E60001A604FF48060C4F2010001210BF018FEEB
:101E700080BD00BF80B500AF4FF4C053C4F2000373
:101E80001B889BB21B099BB2002B0BD040F29863BE
:101E9000C2F200031B685A1E40F29863C2F20003AC
:101EA0001A6014E04FF4C053C4F200031B889BB2C5
:101EB0001B099BB2002B0AD140F29863C2F20003C7
:101EC0001B685A1C40F29863C2F200031A604FF478
:101ED000C050C4F2000001210BF0E2FD80BD00BF44
:101EE00080B500AF0020C4F201000BF099FA024661
:101EF00040F28063C2F200031B681B0413441846BF
:101F000080BD00BF80B500AF4FF080400BF088FA75
:101F1000024640F28463C2F200031B681B041344B0
:101F2000184680BD80B500AF4FF48060C4F2000059
:101F30000BF076FA024640F28863C2F200031B6897
:101F40001B041344184680BD80B500AF4FF40060F9
:101F5000C4F200000BF064FA024640F28C63C2F255
:101F600000031B681B041344184680BD80B500AFF6
:101F70004FF44060C4F200000BF052FA024640F207
:101F80009063C2F200031B681B041344184680BD13
:101F900080B500AF4FF48060C4F201000BF040FA4E
:101FA000024640F29463C2F200031B681B04134410
:101FB000184680BD80B500AF4FF4C050C4F2000099
:101FC0000BF02EFA024640F29863C2F200031B683F
:101FD0001B041344184680BD90B59DB002AFF86055
:101FE000B9601346FB800023A7F866300023A7F8EA
:101FF0006430F8680AF002FAFB880022009202209E
:10200000B9681A460123FFF703F9FA8807F120039C
:10201000104619460AF060F80023A7F8663025E05C
:10202000B7F866305B0007F168010B4433F8483CB1
:10203000012B16D1B7F8663010335B0007F1680248
:10204000134433F8463C18460AF0ECFB03461C46A2
:10205000F8680AF05DFC0346B86821461A4607F0A6
:102060003DFEB7F866300133A7F86630B7F8663042
:102070000F2BD5D940F24003C2F200031A684DF687
:102080002913C6F24263A3FB02135B0E9BB2013B12
:10209000A7F864304FF6FE73BB610023BB820023B8
:1020A000BB830023FB8207F11403F86819460BF089
:1020B0001FF9B7F86430F868194601220BF08EF961
:1020C000F8680321002200230BF0FAFCF8680121D4
:1020D00001220BF0C1FCF86801210BF0CDF9F86882
:1020E0000AF03EF9034618460AF086FB00F056F85F
:1020F0006C37BD4690BD00BF80B582B000AF786040
:102100007A680023C4F201039A4203D1FFF7E8FE84
:1021100003463FE07B68B3F1804F03D1FFF7F2FE47
:10212000034637E07A684FF48063C4F200039A42B2
:1021300003D1FFF7F7FE03462CE07A684FF4006303
:10214000C4F200039A4203D1FFF7FEFE034621E0EA
:102150007A684FF44063C4F200039A4203D1FFF758
:1021600005FF034616E07A684FF48063C4F201036A
:102170009A4203D1FFF70CFF03460BE07A684FF455
:10218000C053C4F200039A4203D1FFF713FF034682
:1021900000E0002318460837BD4680BD80B500AF7B
:1021A00040F28063C2F2000300221A6040F28463AE
:1021B000C2F2000300221A6040F28863C2F20003F8
:1021C00000221A6040F28C63C2F2000300221A60FF
:1021D00040F29063C2F2000300221A6040F294635E
:1021E000C2F2000300221A6040F29863C2F20003B8
:1021F00000221A600020C4F2010000210BF002F955
:102200004FF0804000210BF0FDF84FF48060C4F2E5
:10221000000000210BF0F6F84FF40060C4F200005B
:1022200000210BF0EFF84FF44060C4F200000021F1
:102230000BF0E8F84FF48060C4F2010000210BF0CD
:10224000E1F84FF4C050C4F2000000210BF0DAF8BE
:1022500080BD00BF80B500AF45F21410C2F200008F
:1022600008F0A0FE80BD00BF80B500AF45F214139A
:10227000C2F200039B7A002B13D04EF61053CEF21D
:1022800000034EF61052CEF20002126822F006024F
:102290001A6007F0BFFD45F21410C2F20000FEF70D
:1022A000A3FE4FF4802009F007FF80BD80B58AB0FF
:1022B00000AF7860396000237B6200233B6200231B
:1022C000FB610023BB617B681B8A9BB27B627B6ADC
:1022D00023F440537B623B68DB887A6A13437B625A
:1022E0007B6A9AB27B681A827B689B899BB27B620D
:1022F0007B6A23F4B05323F00C037B623B689A881B
:102300003B681B8913439AB23B685B8913439BB2BA
:102310007A6A13437B627B6A9AB27B689A817B6894
:102320009B8A9BB27B627B6A23F440737B623B682F
:102330009B897A6A13437B627B6A9AB27B689A8232
:1023400007F10803184605F0DFFF7A684FF4805361
:10235000C4F201039A4206D07A684FF4A053C4F243
:1023600001039A4202D17B693B6201E03B693B6217
:102370007B689B899BB29BB21BB2002B0CDA3A6A3A
:1023800013469B0013449A001A443B681B685B0089
:10239000B2FBF3F3FB610BE03A6A13469B00134474
:1023A0009A001A443B681B689B00B2FBF3F3FB6185
:1023B000FA6948F21F53C5F2EB13A3FB02135B0942
:1023C0001B017B627B6A1B09642202FB03F3FA692F
:1023D000D31ABB617B689B899BB29BB21BB2002B5B
:1023E00010DABB69DB0003F1320248F21F53C5F279
:1023F000EB13A3FB02135B0903F007037A6A134391
:102400007B620FE0BB691B0103F1320248F21F53EC
:10241000C5F2EB13A3FB02135B0903F00F037A6A07
:1024200013437B627B6A9AB27B681A812837BD4668
:1024300080BD00BF80B483B000AF78600B46FB70F6
:10244000FB78002B08D07B689B899BB243F4005338
:102450009AB27B689A8107E07B689B899BB223F4E0
:1024600000539AB27B689A810C37BD465DF8047BB5
:10247000704700BF80B483B000AF78600B467B80AC
:102480007B88C3F308039AB27B689A800C37BD46F9
:102490005DF8047B704700BF80B483B000AF786004
:1024A0007B689B889BB2C3F308039BB218460C372A
:1024B000BD465DF8047B704780B487B000AF78609C
:1024C00013460A467A807B7000233B610023FB6041
:1024D0000023BB6000237B617B687B617B88DBB270
:1024E0005B09DBB23B617B8803F01F03FB60FB6889
:1024F000012202FA03F3BB603B69012B03D17B6924
:102500000C337B6109E03B69022B03D17B691033FB
:102510007B6102E07B6914337B617B78002B06D002
:102520007B697A691168BA680A431A6006E07B69B8
:102530007A691168BA68D2430A401A601C37BD46EE
:102540005DF8047B704700BF80B485B000AF786051
:102550000B467B800023FB737B681B889AB27B88C9
:1025600013409BB2002B02D00123FB7301E0002338
:10257000FB73FB7B18461437BD465DF8047B704740
:1025800080B582B000AF786078680CF0B3FD024689
:102590000B46104619460EA3D3E900230CF0FEFDAE
:1025A00002460B46104619464FF000024FF4004316
:1025B000C4F276030CF01CFF02460B461046194687
:1025C0000DF0CEF8034618460837BD4680BD00BF63
:1025D000182D4454FB21194080B584B000AFF86039
:1025E000B9607A60F868B9680DF0CAFB0346002B41
:1025F00001D0FB6809E07868B9680DF0B7FB0346C5
:10260000002B01D07B6800E0BB6818461037BD4640
:1026100080BD00BF80B584B000AFF860B9607A605B
:10262000F868B9680DF098FB0346002B01D0BB6831
:1026300009E07868F9680DF08FFB0346002B01D0A4
:102640007B6800E0FB6818461037BD4680BD00BFC0
:1026500080B582B000AF78607A684FF4C843C4F2A6
:1026600000039A420AD14FF00070012105F098FF53
:102670004FF00070002105F093FF09E04FF08060FB
:10268000012105F08DFF4FF08060002105F088FFEB
:102690000837BD4680BD00BF80B485B000AF78600C
:1026A00039600023FB730023BB607B681B6823F049
:1026B00002027B681A607B681B6843F001027B683A
:1026C0001A6002E0BB680133BB607B685B6803F0A3
:1026D0000103002B04D1BA684FF6FF739A42F1D17F
:1026E0007B685B6803F00103002B02D10023FB73BE
:1026F0009CE03B689B79012B06D17B681B6843F00B
:1027000080027B681A6005E07B681B6823F080020A
:102710007B681A603B68DB79012B06D17B681B68FC
:1027200043F040027B681A6005E07B681B6823F079
:1027300040027B681A603B681B7A012B06D17B68DC
:102740001B6843F020027B681A6005E07B681B6809
:1027500023F020027B681A603B685B7A012B06D16C
:102760007B681B6843F010027B681A6005E07B6899
:102770001B6823F010027B681A603B689B7A012B70
:1027800006D17B681B6843F008027B681A6005E08D
:102790007B681B6823F008027B681A603B68DB7A61
:1027A000012B06D17B681B6843F004027B681A602A
:1027B00005E07B681B6823F004027B681A603B68B5
:1027C0009B789A073B68DB781B061A433B681B79AA
:1027D0001B041A433B685B791B051A433B681B8843
:1027E000013B1A437B68DA617B681B6823F00102B6
:1027F0007B681A600023BB6002E0BB680133BB60EA
:102800007B685B6803F00103002B04D0BA684FF6C5
:10281000FF739A42F1D17B685B6803F00103002BE0
:1028200002D00023FB7301E00123FB73FB7B1846FE
:102830001437BD465DF8047B704700BF80B485B097
:1028400000AF78600023FB607B689B7A012202FA6C
:1028500003F3FB604FF4C843C4F200034FF4C842D3
:10286000C4F20002D2F8002242F00102C3F80022B2
:102870004FF4C843C4F200034FF4C842C4F200024C
:10288000D2F81C12FA68D2430A40C3F81C227B68B3
:102890001B7B002B2DD14FF4C843C4F200034FF42F
:1028A000C842C4F20002D2F80C12FA68D2430A40BD
:1028B000C3F80C224FF4C843C4F200037A68927A3A
:1028C0007968C9880804796849880143483243F81F
:1028D00032104FF4C842C4F200027B689B7A7968D8
:1028E000898808047968098801434833DB00134468
:1028F00059607B681B7B012B2CD14FF4C843C4F279
:1029000000034FF4C842C4F20002D2F80C12FA6875
:102910000A43C3F80C224FF4C843C4F200037A6898
:10292000927A7968098808047968498801434832AD
:1029300043F832104FF4C842C4F200027B689B7A1D
:102940007968898808047968C98801434833DB00BD
:10295000134459607B68DB7A002B0FD14FF4C843D6
:10296000C4F200034FF4C842C4F20002D2F80412C9
:10297000FA68D2430A40C3F804220DE04FF4C8437A
:10298000C4F200034FF4C842C4F20002D2F80412A9
:10299000FA680A43C3F804227B681B89002B0ED116
:1029A0004FF4C843C4F200034FF4C842C4F200021B
:1029B000D2F81412FA68D2430A40C3F814227B6892
:1029C0001B89012B0DD14FF4C843C4F200034FF40F
:1029D000C842C4F20002D2F81412FA680A43C3F8DB
:1029E00014227B685B7B012B0DD14FF4C843C4F2EA
:1029F00000034FF4C842C4F20002D2F81C12FA6875
:102A00000A43C3F81C224FF4C843C4F200034FF436
:102A1000C842C4F20002D2F8002222F00102C3F838
:102A200000221437BD465DF8047B704780B483B044
:102A300000AF78607B6800229A717B680022DA71AF
:102A40007B6800221A727B6800225A727B6800221F
:102A50009A727B680022DA727B6800229A707B6827
:102A60000022DA707B6803221A717B6802225A7195
:102A70007B6801221A800C37BD465DF8047B7047E5
:102A800080B485B000AF786039600023FB737B6849
:102A90009B6803F08063002B02D00023FB7313E0DC
:102AA0007B689B6803F00063002B02D00123FB735B
:102AB0000AE07B689B6803F08053002B02D002235E
:102AC000FB7301E00423FB73FB7B042B00F0988075
:102AD000FB7BFA7B7968183212010A44126802F013
:102AE0000102796818331B010B441A603B681B7A9A
:102AF000002B13D1FB7BFA7B7968183212010A4450
:102B000011683A68126850053A68527A02430A43DB
:102B1000796818331B010B441A6015E0FB7BFA7BC4
:102B20007968183212010A4411683A685268D00074
:102B30003A68127A10433A68527A02430A43796833
:102B400018331B010B441A603B689B7A03F00F0398
:102B5000DAB23B689A72FB7BFA7B79681832120111
:102B60000A44526822F00F02796818331B010B44A3
:102B70005A60FB7BFA7B7968183212010A4451686B
:102B80003A68927A0A43796818331B010B445A60F9
:102B9000FB7B3A68927B11063A68527B1204114320
:102BA0003A68127B120211433A68D27A0A43796872
:102BB0001B010B4403F5C4731A60FB7B3A68927CDB
:102BC00011063A68527C120411433A68127C1202D0
:102BD00011433A68D27B0A4379681B010B4403F521
:102BE000C4735A60FB7BFA7B7968183212010A447D
:102BF000126842F00102796818331B010B441A6015
:102C0000FB7B18461437BD465DF8047B704700BF58
:102C100080B485B000AF78600B46FB700023FB608A
:102C2000FB78012B0BD0022B12D0002B18D17B6824
:102C30009A680323C0F200431340FB6013E07B68F3
:102C40009A684FF44073C0F600031340FB600AE03B
:102C50007B689A680023C1F203031340FB6002E023
:102C60000023FB6000BFFB684FF48072C0F60002D7
:102C7000934229D04FF48072C0F6000293420CD8E0
:102C80000122C0F2004293421BD00322C0F2004254
:102C900093421FD0002B11D025E00022C1F2010287
:102CA000934214D00022C1F20302934218D04FF491
:102CB0004072C0F6000293420FD014E00223FB6082
:102CC00014E00023FB6011E00023FB600EE0002312
:102CD000FB600BE00123FB6008E00123FB6005E0E3
:102CE0000123FB6002E00023FB6000BFFB68DBB256
:102CF00018461437BD465DF8047B704780B485B034
:102D000000AFF8600B467A60FB72FB7AFA681B33FF
:102D10001B0113441B68DBB203F00403DAB27B68C7
:102D20001A727B681B7A002B09D1FB7AFA681B3375
:102D30001B0113441B685A0D7B681A6008E0FB7A7C
:102D4000FA681B331B0113441B68DA087B685A605E
:102D5000FB7AFA681B331B0113441B68DBB203F0D8
:102D60000203DAB27B685A72FB7AFA681B331B01E2
:102D700013445B68DBB203F00F03DAB27B689A722C
:102D8000FB7AFA681B331B0113445B681B0ADAB237
:102D90007B68DA74FB7AFA681B01134403F5DC7371
:102DA0001B68DAB27B68DA72FB7AFA681B0113449B
:102DB00003F5DC731B681B0ADAB27B681A73FB7AB3
:102DC000FA681B01134403F5DC731B681B0CDAB2B1
:102DD0007B685A73FB7AFA681B01134403F5DC73B2
:102DE0001B681B0EDAB27B689A73FB7AFA681B01C8
:102DF000134403F5DC735B68DAB27B68DA73FB7A41
:102E0000FA681B01134403F5DC735B681B0ADAB232
:102E10007B681A74FB7AFA681B01134403F5DC73B0
:102E20005B681B0CDAB27B685A74FB7AFA681B0188
:102E3000134403F5DC735B681B0EDAB27B689A748B
:102E4000FB7A002B06D1FB68DB6843F02002FB68AD
:102E5000DA6005E0FB681B6943F02002FB681A6139
:102E60001437BD465DF8047B704700BF80B485B061
:102E700000AFF860B9601346FB71FB79002B06D0F8
:102E8000FB685A69BB681A43FB685A6106E0FB6835
:102E90005A69BB68DB431A40FB685A611437BD4668
:102EA0005DF8047B704700BF80B584B000AF7860E8
:102EB00039600023FB737B685A693B681340002B21
:102EC00000F0B5803B68402B65D0402B0FD8042B19
:102ED0003DD0042B04D8012B24D0022B2ED0A2E00D
:102EE000102B46D0202B4DD0082B39D09BE0B3F5CA
:102EF000006F00F08680B3F5006F09D8B3F5007F4E
:102F00006DD0B3F5806F73D0B3F5807F5ED08AE06B
:102F1000B3F5803F48D0B3F5003F4ED0B3F5004F36
:102F200078D080E07B689B68184640F20111C0F2BF
:102F3000010100F083F80346FB7377E07B68DB68F0
:102F40001846032100F07AF80346FB736EE07B68B5
:102F5000DB681846082100F071F80346FB7365E052
:102F60007B68DB681846102100F068F80346FB73A5
:102F70005CE07B681B691846032100F05FF803469C
:102F8000FB7353E07B681B691846082100F056F874
:102F90000346FB734AE07B681B691846102100F06A
:102FA0004DF80346FB7341E07B685B6818460821D7
:102FB00000F044F80346FB7338E07B685B68184612
:102FC000102100F03BF80346FB732FE07B689B6900
:102FD0001846012100F032F80346FB7326E07B68B7
:102FE0009B691846022100F029F80346FB731DE097
:102FF0007B689B691846042100F020F80346FB73A8
:1030000014E07B689B691846702100F017F80346AE
:10301000FB730BE07B685B681846042100F00EF838
:103020000346FB7302E00023FB7300BF01E00023B3
:10303000FB73FB7B18461037BD4680BD80B485B05E
:1030400000AF786039600023FB737A683B681340F7
:10305000002B02D00123FB7301E00023FB73FB7BF9
:1030600018461437BD465DF8047B704780B400AF46
:1030700040F2A063C2F20003D3E90023501C43F1E5
:10308000000140F2A063C2F20003C3E90001BD46A3
:103090005DF8047B704700BF80B500AF00F010F80A
:1030A00002460B46104619464FF47A724FF0000361
:1030B0000CF0C0FE02460B461046194680BD00BF0C
:1030C00080B400AF40F2A063C2F20003D3E9002352
:1030D0000A2101FB03F0002101FB02F101440A2057
:1030E000A2FB002319440B4610461946BD465DF865
:1030F000047B704780B500AF4CF2AC50C3F2277030
:1031000006F004FB80BD00BF80B584B000AFC7E906
:1031100000010023FB60FFF7BFFF02460B4613468A
:10312000FB6000BFFFF7B8FFFB681A464FEAE27387
:10313000821A61EB0303D7E90001904271EB030CA3
:10314000F0DA1037BD4680BD80B58AB002AFF860B6
:103150007A600A46FA723B8107F114031846FFF7BA
:1031600065FCFB68012B0BD14FF4C840C4F2000092
:10317000FFF76EFA4FF00070012105F0C1F90DE084
:10318000FB68022B0AD14FF4D040C4F20000FFF7D5
:103190005FFA4FF08060012105F0B2F93B8900220F
:1031A0000092022079681A460123FEF731F8BB8DA0
:1031B000002200920220B96A1A460123FEF728F87D
:1031C000FB68012B14D13B89184609F02BFB034601
:1031D00078681946092206F081FDBB8D184609F072
:1031E00021FB0346B86A1946092206F077FD16E06E
:1031F000FB68022B13D13B89184609F013FB0346E9
:1032000078681946092206F069FDBB8D184609F059
:1032100009FB0346B86A1946092206F05FFD01233F
:10322000BB760023FB7600233B7700237B770023CC
:10323000BB770023FB77FB7ABB750023FB75052367
:103240003B7606237B760323BB82FB68012B09D1E7
:1032500007F114034FF4C840C4F200001946FFF709
:103260001BFA0BE0FB68022B08D107F114034FF4A3
:10327000D040C4F200001946FFF70EFA4FF4E060A8
:1032800009F0A8FBFB68012B0BD1142009F0B4FA5C
:103290004FF4C840C4F2000002210122FFF7E6FD0E
:1032A0000DE0FB68022B0AD1402009F0A5FA4FF48B
:1032B000D040C4F2000002210122FFF7D7FD2037E1
:1032C000BD4680BD80B586B000AF7860F9703A80A9
:1032D000BB700023FB820023FB820EE0FB8ADBB283
:1032E000BB7400233B8200237B7507F1080318465B
:1032F000FFF7A4FAFB8A0133FB82B7F916300D2BD6
:10330000ECDD7B68DBB2BB7400233B8201237B7561
:10331000FB78002B02D10023FB7404E0FB78012B27
:1033200001D10123FB7400233B75B7F900305B0129
:103330009AB2BB781B019BB213439BB29BB27B81B9
:10334000B7F920305B019AB297F824301B019BB289
:1033500013439BB29BB2FB81B7F928305B019AB251
:1033600097F82C301B019BB213439BB29BB23B815D
:10337000B7F930305B019AB297F834301B019BB239
:1033800013439BB29BB2BB8107F108031846FFF7BA
:1033900055FA1837BD4680BD80B582B000AF786061
:1033A0004FF4C840C4F200007968FFF769FB00BF22
:1033B0004FF4C840C4F200000021FFF729FC034687
:1033C000012BF5D10837BD4680BD00BF80B582B066
:1033D00000AF45F61813C0F602037B6040F200030D
:1033E000C2F200033B6007E03B681A1D3A607A684E
:1033F000111D796012681A603A6840F2F453C2F203
:1034000000039A42F0D3084808494FF0000288426E
:10341000B8BF40F8042BFADB05F012F904F080FD88
:103420000837BD4680BD0000F80500200857002081
:1034300080B400AFFEE700BF80B584B000AF786015
:1034400007F108037868194607F042FD3B7A03F05C
:103450001F03012B0AD0022B0FD0002B14D107F130
:1034600008037868194607F02DF916E007F10803FC
:103470007868194607F076F90FE007F108037868D5
:10348000194607F0A3F908E03B7A23F07F03DBB28B
:103490007868194609F0E2FB00BF00231846103790
:1034A000BD4680BD80B584B000AF78600B46FB7030
:1034B000FB78002B45D17B6803F55C73FB607B6870
:1034C00093F81131032B4FD1FB68DA69FB689B68D5
:1034D0009A4221D9FB68DA69FB689B68D21AFB68BB
:1034E000DA617B68DB78012B06D1FB68DA68FB6860
:1034F0009B681A44FB68DA60FB68DA68FB689968C5
:10350000FB68DB69994238BF0B469BB2786811466D
:103510001A4609F039FE27E07B68D3F8E0351B69CD
:10352000002B0AD07B6893F81231032B05D17B68FE
:10353000D3F8E0351B6978689847786809F038FE59
:1035400012E07B68D3F8E0359B69002B0CD07B68D8
:1035500093F81231032B07D17B68D3F8E0359B69D0
:10356000FA78786811469847002318461037BD4608
:1035700080BD00BF80B584B000AF78600B46FB70A3
:10358000FB78002B60D17B6803F58C73FB607B6854
:1035900093F81131022B6AD1FB68DA69FB689B68EA
:1035A0009A421CD9FB68DA69FB689B68D21AFB68EF
:1035B000DA617B68DB78012B06D1FB68DA68FB688F
:1035C0009B681A44FB68DA60FB68DA68FB68DB69B1
:1035D0009BB2786811461A4609F0C2FD47E0FB68C5
:1035E0001B6AFA689268B3FBF2F102FB01F29B1AC4
:1035F000002B14D1FB681A6AFB689B689A420ED3B1
:10360000FB681A6AFB685B6A9A4208D278680021F4
:10361000002209F0A5FDFB6800225A6227E07B68C2
:10362000D3F8E035DB68002B0AD07B6893F81231C1
:10363000032B05D17B68D3F8E035DB6878689847C1
:10364000786809F0CDFD12E07B68D3F8E0355B695E
:10365000002B0CD07B6893F81231032B07D17B68C9
:10366000D3F8E0355B69FA7878681146984700230B
:1036700018461037BD4680BD80B582B000AF786077
:10368000786800214022002309F01EFA7868802122
:103690004022002309F018FA7B68012283F81221E6
:1036A0007B68D3F8E4355B687A689278104698476F
:1036B000002318460837BD4680BD00BF80B582B0E4
:1036C00000AF78607B68D3F8E4351B6998477B6866
:1036D000032283F81221002318460837BD4680BD17
:1036E00080B582B000AF78607B68042283F8122135
:1036F0007B68D3F8E435DB68984700231846083721
:10370000BD4680BD80B582B000AF78607B68D3F8DD
:10371000E035DB69002B05D07B68D3F8E035DB6949
:1037200078689847002318460837BD4680BD00BF1B
:1037300080B582B000AF78600B46FB707B68D3F831
:10374000E0351B68FA787868114698477B68D3F8AB
:10375000E4359B689847002318460837BD4680BD6E
:1037600080B582B000AF78600B46FB707B68D3F801
:10377000E0355B68FA787868114698470023184668
:103780000837BD4680BD00BF80B582B000AF78600D
:103790007B68D3F8E0351B6A7868984700231846A1
:1037A0000837BD4680BD00BF80B582B000AF7860ED
:1037B0007B68D3F8E0355B6A786898470023184641
:1037C0000837BD4680BD00BF80B582B000AF7860CD
:1037D00039607B681846FDF7DDFE7B68074A1A6092
:1037E0007B683A68C3F818217B680022C3F814216B
:1037F0007B6818460837BD4680BD00BF60210208BF
:1038000080B582B000AF78600B46FB707B681A1DF4
:10381000FB781046194603F0D7FF0346002B14BF70
:1038200000230123DBB2002B0AD0FB780D2B13D130
:103830007B68D3F814315A1C7B68C3F814210BE061
:103840007B68D3F81431002B06D1FB780D2B03D104
:103850007B680122C3F814210837BD4680BD00BF34
:1038600080B582B000AF78607B680433184603F0FF
:10387000DDFF0346002B14BF00230123DBB21846F3
:103880000837BD4680BD00BF80B483B000AF78600C
:103890007B68D3F8143118460C37BD465DF8047BBD
:1038A000704700BF80B582B000AF78607B6804339A
:1038B000184603F0D1FF034618460837BD4680BDC1
:1038C00090B585B000AF786039607B6804331846E6
:1038D00003F0ACFF0346002B0CBF00230123DBB237
:1038E000002B08D03B6800221A707B680022C3F8C6
:1038F0001421002354E00023FB604DE0FB683A688C
:10390000D4187B680433184603F0A6FF03462370DF
:10391000FB683A6813441B780D2B02D0FB68FE2B22
:103920001FDDFB683A68134400221A707B68043379
:10393000184603F07BFF0346002B0CBF0023012336
:10394000DBB2002B04D07B680022C3F8142106E010
:103950007B68D3F814315A1E7B68C3F81421FB68C6
:103960001EE07B680433184603F060FF0346002B1B
:103970000CBF00230123DBB2002B0AD0FB683A689E
:10398000134400221A707B680022C3F81421FB68DC
:1039900006E0FB680133FB60FB68FF2BAEDD002314
:1039A00018461437BD4690BD80B582B000AF786030
:1039B0007B689B68012B06D17B685B681846FFF724
:1039C00063FF034600E0002318460837BD4680BD6C
:1039D00080B582B000AF786039603B6800221A7011
:1039E0007B689B68012B07D17B685B681846396848
:1039F000FFF766FF034600E0002318460837BD4680
:103A000080BD00BF80B582B000AF78607B689B68E6
:103A1000012B06D17B685B681846FFF721FF034640
:103A200000E0002318460837BD4680BD80B582B04F
:103A300000AF78607B689B68012B06D17B685B6870
:103A40001846FFF72FFF034600E00023184608370B
:103A5000BD4680BD80B584B000AF7860396000237A
:103A6000FB600DE07B681B6804331B68FA683968EB
:103A70000A441278786811469847FB680133FB6066
:103A8000FB683A6813441B78002BEBD11037BD4616
:103A900080BD00BF90B587B002AFF860B9607A60B2
:103AA0003B60FB6802229A60FB681B681C683B68ED
:103AB0000093F868B9687A683B6AA04703461846DD
:103AC0001437BD4690BD00BF90B587B002AFF86017
:103AD000B9607A603B60FB6801229A604FF48E7097
:103AE00016F048F804462046F968FFF76DFEFB68BB
:103AF0005C60FB681B681C68FB685B687A68009206
:103B0000F868B9681A463B68A04703461846143758
:103B1000BD4690BD80B582B000AF78607B681B6801
:103B20001B6878689847034618460837BD4680BD2D
:103B300080B582B000AF78607B681B6804331B6877
:103B400078689847034618460837BD4680BD00BFD1
:103B500080B584B000AFF860B9607A60FB681B681C
:103B60001B68F868B9687A689847034618461037A2
:103B7000BD4680BD80B582B000AF786039607B689B
:103B80001B6804331B687868396898470837BD4656
:103B900080BD00BF80B582B000AF78607B681B68D5
:103BA00008331B6878689847034618460837BD46AF
:103BB00080BD00BF80B483B000AF786040F6FF7373
:103BC00018460C37BD465DF8047B7047A0F108002D
:103BD000F0E700BF80B483B000AF786043F23333C6
:103BE000C4F2530318460C37BD465DF8047B70479A
:103BF000A0F10800EEE700BF80B483B000AF7860AA
:103C000040F6FF7318460C37BD465DF8047B7047DD
:103C1000A0F10800F0E700BF80B483B000AF786087
:103C200043F23333C4F2530318460C37BD465DF8F4
:103C3000047B7047A0F10800EEE700BF80B483B0BA
:103C400000AF786040F6FF7318460C37BD465DF84C
:103C5000047B7047A0F10800F0E700BF80B483B098
:103C600000AF786043F23333C4F2530318460C3785
:103C7000BD465DF8047B7047A0F10800EEE700BF89
:103C800080B483B000AF786040F6FF7318460C37FD
:103C9000BD465DF8047B7047A0F10800F0E700BF67
:103CA00080B483B000AF786043F23333C4F253037F
:103CB00018460C37BD465DF8047B7047A0F108003C
:103CC000EEE700BF80B483B000AF786040F6FF73CA
:103CD00018460C37BD465DF8047B7047A0F108001C
:103CE000F0E700BF80B483B000AF786043F23333B5
:103CF000C4F2530318460C37BD465DF8047B704789
:103D0000A0F10800EEE700BF80B582B000AF786098
:103D10004FF44060C4F202004FF4805105F0A8FF58
:103D2000034618460837BD4680BD00BF80B582B047
:103D300000AF786039603B68002B08D14FF44060D9
:103D4000C4F202004FF4805105F0BAFF07E04FF4CF
:103D50004060C4F202004FF4805105F0A3FF083721
:103D6000BD4680BD80B582B000AF78604FF4406042
:103D7000C4F202004FF4805105F060FF034618467C
:103D80000837BD4680BD00BF80B584B002AF786003
:103D90000023009300204FF44061C4F202014FF46D
:103DA00080520023FDF734FA002318460837BD4639
:103DB00080BD00BF80B584B002AF7860002300935F
:103DC00001204FF44061C4F202014FF480520023FD
:103DD000FDF71EFA002318460837BD4680BD00BF18
:103DE00080B584B002AF78600023009300204FF4C8
:103DF0004061C4F202014FF480520123FDF708FA3A
:103E0000002318460837BD4680BD00BF80B584B08A
:103E100002AF78600023009300204FF44061C4F2A9
:103E200002014FF480520223FDF7F2F900231846F5
:103E30000837BD4680BD00BF80B582B000AF786056
:103E40004FF48050C4F202004FF4004105F010FF1F
:103E5000034618460837BD4680BD00BF80B582B016
:103E600000AF786039603B68002B08D14FF4805078
:103E7000C4F202004FF4004105F022FF07E04FF4C6
:103E80008050C4F202004FF4004105F00BFF0837E8
:103E9000BD4680BD80B582B000AF78604FF48050E1
:103EA000C4F202004FF4004105F0C8FE0346184674
:103EB0000837BD4680BD00BF80B584B002AF7860D2
:103EC0000023009300204FF48051C4F202014FF40C
:103ED00000420023FDF79CF9012318460837BD4630
:103EE00080BD00BF80B584B002AF7860002300932E
:103EF00001204FF48051C4F202014FF4004200232C
:103F0000FDF786F9002318460837BD4680BD00BF7F
:103F100080B584B002AF78600023009300204FF496
:103F20008051C4F202014FF400420123FDF770F901
:103F3000012318460837BD4680BD00BF80B584B058
:103F400002AF78600023009300204FF48051C4F248
:103F500002014FF400420223FDF75AF900231846EC
:103F60000837BD4680BD00BF80B582B000AF786025
:103F70004FF48060C4F202004FF4804105F078FEF7
:103F8000034618460837BD4680BD00BF80B582B0E5
:103F900000AF786039603B68002B08D14FF4806037
:103FA000C4F202004FF4804105F08AFE07E04FF4AE
:103FB0008060C4F202004FF4804105F073FE0837C0
:103FC000BD4680BD80B582B000AF78604FF48060A0
:103FD000C4F202004FF4804105F030FE034618465B
:103FE0000837BD4680BD00BF80B584B002AF7860A1
:103FF0000023009300204FF48061C4F202014FF4CB
:1040000080420023FDF704F9002318460837BD4617
:1040100080BD00BF80B584B002AF786000230093FC
:1040200001204FF48061C4F202014FF4804200236A
:10403000FDF7EEF8002318460837BD4680BD00BFE7
:1040400080B584B002AF78600023009300204FF465
:104050008061C4F202014FF480420123FDF7D8F8D9
:10406000002318460837BD4680BD00BF80B584B028
:1040700002AF78600023009300204FF48061C4F207
:1040800002014FF480420223FDF7C2F800231846D4
:104090000837BD4680BD00BF80B582B000AF7860F4
:1040A0004FF48060C4F202004FF4004105F0E0FDDF
:1040B000034618460837BD4680BD00BF80B582B0B4
:1040C00000AF786039603B68002B08D14FF4806006
:1040D000C4F202004FF4004105F0F2FD07E04FF496
:1040E0008060C4F202004FF4004105F0DBFD0837A8
:1040F000BD4680BD80B582B000AF78604FF480606F
:10410000C4F202004FF4004105F098FD0346184642
:104110000837BD4680BD00BF80B584B002AF78606F
:104120000023009300204FF48061C4F202014FF499
:1041300000420023FDF76CF8002318460837BD46FF
:1041400080BD00BF80B584B002AF786000230093CB
:1041500001204FF48061C4F202014FF400420023B9
:10416000FDF756F8002318460837BD4680BD00BF4E
:1041700080B584B002AF78600023009300204FF434
:104180008061C4F202014FF400420123FDF740F8C0
:10419000002318460837BD4680BD00BF80B584B0F7
:1041A00002AF78600023009300204FF48061C4F2D6
:1041B00002014FF400420223FDF72AF800231846BB
:1041C0000837BD4680BD00BF80B582B000AF7860C3
:1041D0000020C4F202004FF4004105F049FD0346FF
:1041E00018460837BD4680BD80B582B000AF786004
:1041F00039603B68002B07D10020C4F202004FF465
:10420000004105F05DFD06E00020C4F202004FF41D
:10421000004105F047FD0837BD4680BD80B582B03E
:1042200000AF78600020C4F202004FF4004105F0B6
:1042300005FD034618460837BD4680BD80B584B0ED
:1042400002AF78600023009300200021C4F2020135
:104250004FF400420023FCF7DBFF00231846083729
:10426000BD4680BD80B483B000AF7860012318469E
:104270000C37BD465DF8047B704700BF80B584B045
:1042800002AF78600023009300200021C4F20201F5
:104290004FF400420123FCF7BBFF00231846083708
:1042A000BD4680BD80B584B002AF78600023009326
:1042B00000200021C4F202014FF400420223FCF767
:1042C000A7FF002318460837BD4680BD80B582B0E1
:1042D00000AF78604FF48060C4F202004FF40051E8
:1042E00005F0C6FC034618460837BD4680BD00BF32
:1042F00080B582B000AF786039603B68002B08D190
:104300004FF48060C4F202004FF4005105F0D8FC75
:1043100007E04FF48060C4F202004FF4005105F052
:10432000C1FC0837BD4680BD80B582B000AF786063
:104330004FF48060C4F202004FF4005105F07EFC9F
:10434000034618460837BD4680BD00BF80B584B01F
:1043500002AF78600023009300204FF48061C4F224
:1043600002014FF400520023FCF752FF00231846CD
:104370000837BD4680BD00BF80B483B000AF786011
:10438000012318460C37BD465DF8047B704700BF1B
:1043900080B584B002AF78600023009300204FF412
:1043A0008061C4F202014FF400520123FCF730FF98
:1043B000002318460837BD4680BD00BF80B584B0D5
:1043C00002AF78600023009300204FF48061C4F2B4
:1043D00002014FF400520223FCF71AFF0023184693
:1043E0000837BD4680BD00BF80B582B000AF7860A1
:1043F0004FF44060C4F202004FF4006105F038FC55
:10440000034618460837BD4680BD00BF80B582B060
:1044100000AF786039603B68002B08D14FF44060F2
:10442000C4F202004FF4006105F04AFC07E04FF4CB
:104430004060C4F202004FF4006105F033FC08371D
:10444000BD4680BD80B582B000AF78604FF440605B
:10445000C4F202004FF4006105F0F0FB0346184679
:104460000837BD4680BD00BF80B584B002AF78601C
:104470000023009300204FF44061C4F202014FF486
:1044800000620023FCF7C4FE002318460837BD462F
:1044900080BD00BF80B483B000AF786001231846B0
:1044A0000C37BD465DF8047B704700BF80B584B013
:1044B00002AF78600023009300204FF44061C4F203
:1044C00002014FF400620123FCF7A2FE002318460C
:1044D0000837BD4680BD00BF80B584B002AF7860AC
:1044E0000023009300204FF44061C4F202014FF416
:1044F00000620223FCF78CFE002318460837BD46F5
:1045000080BD00BF80B582B000AF78604FF44060DE
:10451000C4F202004FF4806105F0AAFB034618467E
:104520000837BD4680BD00BF80B582B000AF78605F
:1045300039603B68002B08D14FF44060C4F20200A0
:104540004FF4806105F0BCFB07E04FF44060C4F21B
:1045500002004FF4806105F0A5FB0837BD4680BD21
:1045600080B582B000AF78604FF44060C4F20200C2
:104570004FF4806105F062FB034618460837BD46DC
:1045800080BD00BF80B584B002AF78600023009387
:1045900000204FF44061C4F202014FF48062002316
:1045A000FCF736FE002318460837BD4680BD00BF25
:1045B00080B483B000AF7860012318460C37BD4645
:1045C0005DF8047B704700BF80B584B002AF7860AF
:1045D0000023009300204FF44061C4F202014FF425
:1045E00080620123FCF714FE002318460837BD46FD
:1045F00080BD00BF80B584B002AF78600023009317
:1046000000204FF44061C4F202014FF480620223A3
:10461000FCF7FEFD002318460837BD4680BD00BFED
:1046200080B582B000AF78604FF48060C4F20200C1
:10463000022105F01DFB034618460837BD4680BD24
:1046400080B582B000AF786039603B68002B07D13D
:104650004FF48060C4F20200022105F031FB06E055
:104660004FF48060C4F20200022105F01BFB083702
:10467000BD4680BD80B582B000AF78604FF48060E9
:10468000C4F20200022105F0D9FA034618460837A1
:10469000BD4680BD80B584B002AF78600023009332
:1046A00000204FF48061C4F2020102220023FCF7D3
:1046B000AFFD002318460837BD4680BD80B584B0E5
:1046C00002AF78600023009301204FF48061C4F2B0
:1046D000020102220023FCF79BFD00231846083745
:1046E000BD4680BD80B584B002AF786000230093E2
:1046F00000204FF48061C4F2020102220123FCF782
:1047000087FD002318460837BD4680BD80B584B0BC
:1047100002AF78600023009300204FF48061C4F260
:10472000020102220223FCF773FD0023184608371A
:10473000BD4680BD80B582B000AF78600020C4F275
:104740000200102105F094FA034618460837BD46CA
:1047500080BD00BF80B582B000AF786039603B6833
:10476000002B06D10020C4F20200102105F0A8FAA7
:1047700005E00020C4F20200102105F093FA08378A
:10478000BD4680BD80B582B000AF78600020C4F225
:104790000200102105F052FA034618460837BD46BC
:1047A00080BD00BF80B584B002AF78600023009365
:1047B00000200021C4F2020110220023FCF728FD92
:1047C000002318460837BD4680BD00BF80B584B0C1
:1047D00002AF78600023009301200021C4F202019F
:1047E00010220023FCF714FD002318460837BD46AD
:1047F00080BD00BF80B584B002AF78600023009315
:1048000000200021C4F2020110220123FCF700FD68
:10481000002318460837BD4680BD00BF80B584B070
:1048200002AF78600023009300200021C4F202014F
:1048300010220223FCF7ECFC002318460837BD4683
:1048400080BD00BF80B582B000AF78604FF40060DB
:10485000C4F20200012105F00BFA0346184608379E
:10486000BD4680BD80B582B000AF786039603B68DE
:10487000002B07D14FF40060C4F20200012105F0C3
:104880001FFA06E04FF40060C4F20200012105F0B7
:1048900009FA0837BD4680BD80B582B000AF7860A8
:1048A0004FF40060C4F20200012105F0C7F903468D
:1048B00018460837BD4680BD80B584B002AF786029
:1048C0000023009300204FF40061C4F20201012292
:1048D0000023FCF79DFC002318460837BD4680BD29
:1048E00080B584B002AF78600023009301204FF4BC
:1048F0000061C4F2020101220023FCF789FC0023BD
:1049000018460837BD4680BD80B584B002AF7860D8
:104910000023009300204FF40061C4F20201012241
:104920000123FCF775FC002318460837BD4680BDFF
:1049300080B584B002AF78600023009300204FF46C
:104940000061C4F2020101220223FCF761FC002392
:1049500018460837BD4680BD80B582B000AF78608C
:104960004FF48050C4F202004FF4805105F080F9FA
:10497000034618460837BD4680BD00BF80B582B0EB
:1049800000AF786039603B68002B08D14FF480504D
:10499000C4F202004FF4805105F092F907E04FF4A1
:1049A0008050C4F202004FF4805105F07BF90837C3
:1049B000BD4680BD80B582B000AF78604FF48050B6
:1049C000C4F202004FF4805105F038F9034618464E
:1049D0000837BD4680BD00BF80B584B002AF7860A7
:1049E0000023009300204FF48051C4F202014FF4E1
:1049F00080520023FCF70CFC002318460837BD4604
:104A000080BD00BF80B584B002AF78600023009302
:104A100001204FF48051C4F202014FF48052002370
:104A2000FCF7F6FB002318460837BD4680BD00BFE3
:104A300080B584B002AF78600023009300204FF46B
:104A40008051C4F202014FF480520123FCF7E0FBD5
:104A5000002318460837BD4680BD00BF80B584B02E
:104A600002AF78600023009300204FF48051C4F21D
:104A700002014FF480520223FCF7CAFB00231846C0
:104A80000837BD4680BD00BF80B582B000AF7860FA
:104A90000020C4F20200202105F0EAF8034618467F
:104AA0000837BD4680BD00BF80B582B000AF7860DA
:104AB00039603B68002B06D10020C4F2020020219F
:104AC00005F0FEF805E00020C4F20200202105F008
:104AD000E9F80837BD4680BD80B582B000AF786088
:104AE0000020C4F20200202105F0A8F80346184671
:104AF0000837BD4680BD00BF80B584B002AF786086
:104B00000023009300200021C4F202012022002390
:104B1000FCF77EFB002318460837BD4680BD00BF6A
:104B200080B584B002AF786000230093012000219B
:104B3000C4F2020120220023FCF76AFB002318467E
:104B40000837BD4680BD00BF80B584B002AF786035
:104B50000023009300200021C4F20201202201233F
:104B6000FCF756FB002318460837BD4680BD00BF42
:104B700080B584B002AF786000230093002000214C
:104B8000C4F2020120220223FCF742FB0023184654
:104B90000837BD4680BD00BF80B582B000AF7860E9
:104BA0004FF48060C4F20200042105F061F803466E
:104BB00018460837BD4680BD80B582B000AF78602A
:104BC00039603B68002B07D14FF48060C4F20200CB
:104BD000042105F075F806E04FF48060C4F202008D
:104BE000042105F05FF80837BD4680BD80B582B06E
:104BF00000AF78604FF48060C4F20200042105F039
:104C00001DF8034618460837BD4680BD80B584B000
:104C100002AF78600023009300204FF48061C4F25B
:104C2000020104220023FCF7F3FA00231846083798
:104C3000BD4680BD80B584B002AF7860002300938C
:104C400001204FF48061C4F2020104220023FCF72A
:104C5000DFFA002318460837BD4680BD80B584B012
:104C600002AF78600023009300204FF48061C4F20B
:104C7000020104220123FCF7CBFA0023184608376F
:104C8000BD4680BD80B584B002AF7860002300933C
:104C900000204FF48061C4F2020104220223FCF7D9
:104CA000B7FA002318460837BD4680BD80B582B0EC
:104CB00000AF78604FF48050C4F20200802104F00D
:104CC000D7FF034618460837BD4680BD80B582B081
:104CD00000AF786039603B68002B07D14FF48050FB
:104CE000C4F20200802104F0EBFF06E04FF4805094
:104CF000C4F20200802104F0D5FF0837BD4680BD14
:104D000080B582B000AF78604FF48050C4F20200EA
:104D1000802104F093FF034618460837BD4680BD46
:104D200080B584B002AF78600023009300204FF478
:104D30008051C4F2020180220023FCF769FA0023AB
:104D400018460837BD4680BD80B584B002AF786094
:104D50000023009301204FF48051C4F2020180220D
:104D60000023FCF755FA002318460837BD4680BDDE
:104D700080B584B002AF78600023009300204FF428
:104D80008051C4F2020180220123FCF741FA002382
:104D900018460837BD4680BD80B584B002AF786044
:104DA0000023009300204FF48051C4F202018022BE
:104DB0000223FCF72DFA002318460837BD4680BDB4
:104DC00080B582B000AF78604FF48050C4F202002A
:104DD0004FF4806104F04CFF034618460837BD4687
:104DE00080BD00BF80B582B000AF786039603B689D
:104DF000002B08D14FF48050C4F202004FF48061C0
:104E000004F05EFF07E04FF48050C4F202004FF45C
:104E1000806104F047FF0837BD4680BD80B582B091
:104E200000AF78604FF48050C4F202004FF480610C
:104E300004F004FF034618460837BD4680BD00BF96
:104E400080B584B002AF78600023009300204FF457
:104E50008051C4F202014FF480620023FCF7D8F9BC
:104E6000002318460837BD4680BD00BF80B584B01A
:104E700002AF78600023009301204FF48051C4F208
:104E800002014FF480620023FCF7C2F900231846A8
:104E90000837BD4680BD00BF80B584B002AF7860E2
:104EA0000023009300204FF48051C4F202014FF41C
:104EB00080620123FCF7ACF9002318460837BD4691
:104EC00080BD00BF80B584B002AF7860002300933E
:104ED00000204FF48051C4F202014FF4806202239B
:104EE000FCF796F9002318460837BD4680BD00BF81
:104EF00080B582B000AF78604FF48060C4F20200E9
:104F0000012104F0B5FE034618460837BD4680BDB2
:104F100080B582B000AF786039603B68002B07D164
:104F20004FF48060C4F20200012104F0C9FE06E0E3
:104F30004FF48060C4F20200012104F0B3FE083790
:104F4000BD4680BD80B582B000AF78604FF4806010
:104F5000C4F20200012104F071FE0346184608372E
:104F6000BD4680BD80B584B002AF78600023009359
:104F700000204FF48061C4F2020101220023FCF7FB
:104F800047F9002318460837BD4680BD80B584B078
:104F900002AF78600023009301204FF48061C4F2D7
:104FA000020101220023FCF733F9002318460837D9
:104FB000BD4680BD80B584B002AF78600023009309
:104FC00000204FF48061C4F2020101220123FCF7AA
:104FD0001FF9002318460837BD4680BD80B584B050
:104FE00002AF78600023009300204FF48061C4F288
:104FF000020101220223FCF70BF9002318460837AF
:10500000BD4680BD80B582B000AF78604FF480505F
:10501000C4F20200102104F02BFE034618460837A4
:10502000BD4680BD80B582B000AF786039603B6816
:10503000002B07D14FF48050C4F20200102104F07D
:105040003FFE06E04FF48050C4F20200102104F04D
:1050500029FE0837BD4680BD80B582B000AF7860BC
:105060004FF48050C4F20200102104F0E7FD034623
:1050700018460837BD4680BD80B584B002AF786061
:105080000023009300204FF48051C4F2020110224B
:105090000023FCF7BDF8002318460837BD4680BD45
:1050A00080B584B002AF78600023009301204FF4F4
:1050B0008051C4F2020110220023FCF7A9F800235A
:1050C00018460837BD4680BD80B584B002AF786011
:1050D0000023009300204FF48051C4F202011022FB
:1050E0000123FCF795F8002318460837BD4680BD1C
:1050F00080B584B002AF78600023009300204FF4A5
:105100008051C4F2020110220223FCF781F800232F
:1051100018460837BD4680BD80B582B000AF7860C4
:105120004FF48050C4F20200042104F0A1FD0346B4
:1051300018460837BD4680BD80B582B000AF7860A4
:1051400039603B68002B07D14FF48050C4F2020055
:10515000042104F0B5FD06E04FF48050C4F20200D3
:10516000042104F09FFD0837BD4680BD80B582B0A4
:1051700000AF78604FF48050C4F20200042104F0C4
:105180005DFD034618460837BD4680BD80B584B036
:1051900002AF78600023009300204FF48051C4F2E6
:1051A000020104220023FCF733F8002318460837D5
:1051B000BD4680BD80B584B002AF78600023009307
:1051C00001204FF48051C4F2020104220023FCF7B5
:1051D0001FF8002318460837BD4680BD80B584B04F
:1051E00002AF78600023009300204FF48051C4F296
:1051F000020104220123FCF70BF8002318460837AC
:10520000BD4680BD80B584B002AF786000230093B6
:1052100000204FF48051C4F2020104220223FBF764
:10522000F7FF002318460837BD4680BD80B582B021
:1052300000AF78604FF48050C4F202004FF48071E8
:1052400004F016FD034618460837BD4680BD00BF72
:1052500080B582B000AF786039603B68002B08D120
:105260004FF48050C4F202004FF4807104F028FD26
:1052700007E04FF48050C4F202004FF4807104F054
:1052800011FD0837BD4680BD80B582B000AF7860A3
:105290004FF48050C4F202004FF4807104F0CEFC51
:1052A000034618460837BD4680BD00BF80B584B0B0
:1052B00002AF78600023009300204FF48051C4F2C5
:1052C00002014FF480720023FBF7A2FF002318466F
:1052D0000837BD4680BD00BF80B584B002AF78609E
:1052E0000023009301204FF48051C4F202014FF4D7
:1052F00080720023FBF78CFF002318460837BD4659
:1053000080BD00BF80B584B002AF786000230093F9
:1053100000204FF48051C4F202014FF48072012347
:10532000FBF776FF002318460837BD4680BD00BF57
:1053300080B584B002AF78600023009300204FF462
:105340008051C4F202014FF480720223FBF760FF28
:10535000002318460837BD4680BD00BF80B582B027
:1053600000AF78604FF48050C4F20200082104F0CE
:105370007FFC034618460837BD4680BD80B582B025
:1053800000AF786039603B68002B07D14FF4805044
:10539000C4F20200082104F093FC06E04FF48050B0
:1053A000C4F20200082104F07DFC0837BD4680BD30
:1053B00080B582B000AF78604FF48050C4F2020034
:1053C000082104F03BFC034618460837BD4680BD63
:1053D00080B584B002AF78600023009300204FF4C2
:1053E0008051C4F2020108220023FBF711FF0023C1
:1053F00018460837BD4680BD80B584B002AF7860DE
:105400000023009301204FF48051C4F202010822CE
:105410000023FBF7FDFE002318460837BD4680BD7C
:1054200080B584B002AF78600023009300204FF471
:105430008051C4F2020108220123FBF7E9FE002398
:1054400018460837BD4680BD80B584B002AF78608D
:105450000023009300204FF48051C4F2020108227F
:105460000223FBF7D5FE002318460837BD4680BD52
:1054700080B582B000AF78604FF40060C4F20200E3
:10548000202104F0F5FB034618460837BD4680BDD1
:1054900080B582B000AF786039603B68002B07D1DF
:1054A0004FF40060C4F20200202104F009FC06E081
:1054B0004FF40060C4F20200202104F0F3FB08372F
:1054C000BD4680BD80B582B000AF78604FF400600B
:1054D000C4F20200202104F0B1FB0346184608374D
:1054E000BD4680BD80B584B002AF786000230093D4
:1054F00000204FF40061C4F2020120220023FBF7D8
:1055000087FE002318460837BD4680BD80B584B0AD
:1055100002AF78607B680222DA60002300930120EA
:105520004FF40061C4F2020120220023FBF770FE59
:10553000002318460837BD4680BD00BF80B584B043
:1055400002AF78600023009300204FF40061C4F2A2
:10555000020120220123FBF75BFE002318460837D7
:10556000BD4680BD80B584B002AF78600023009353
:1055700000204FF40061C4F2020120220223FBF755
:1055800047FE002318460837BD4680BD80B582B06F
:1055900000AF78604FF40060C4F20200022104F012
:1055A00067FB034618460837BD4680BD80B582B00C
:1055B00000AF786039603B68002B07D14FF4006082
:1055C000C4F20200022104F07BFB06E04FF400600D
:1055D000C4F20200022104F065FB0837BD4680BD1D
:1055E00080B582B000AF78604FF40060C4F2020072
:1055F000022104F023FB034618460837BD4680BD50
:1056000080B584B002AF78600023009300204FF48F
:105610000061C4F2020102220023FBF7F9FD00231E
:1056200018460837BD4680BD80B584B002AF7860AB
:105630007B680222DA600023009301204FF40061AE
:10564000C4F2020102220023FBF7E2FD0023184608
:105650000837BD4680BD00BF80B584B002AF78601A
:105660000023009300204FF40061C4F202010222E3
:105670000123FBF7CDFD002318460837BD4680BD4A
:1056800080B584B002AF78600023009300204FF40F
:105690000061C4F2020102220223FBF7B9FD0023DC
:1056A00018460837BD4680BD80B582B000AF78602F
:1056B0004FF40060C4F20200042104F0D9FA03465A
:1056C00018460837BD4680BD80B582B000AF78600F
:1056D00039603B68002B07D14FF40060C4F2020030
:1056E000042104F0EDFA06E04FF40060C4F2020079
:1056F000042104F0D7FA0837BD4680BD80B582B0DA
:1057000000AF78604FF40060C4F20200042104F09E
:1057100095FA034618460837BD4680BD80B584B06B
:1057200002AF78600023009300204FF40061C4F2C0
:10573000020104220023FBF76BFD00231846083703
:10574000BD4680BD80B584B002AF78607B68022220
:10575000DA600023009301204FF40061C4F20201DB
:1057600004220023FBF754FD002318460837BD46EA
:1057700080BD00BF80B584B002AF78600023009385
:1057800000204FF40061C4F2020104220123FBF760
:105790003FFD002318460837BD4680BD80B584B064
:1057A00002AF78600023009300204FF40061C4F240
:1057B000020104220223FBF72BFD002318460837C1
:1057C000BD4680BD80B582B000AF78604FF4006008
:1057D000C4F20200082104F04BFA034618460837C9
:1057E000BD4680BD80B582B000AF786039603B684F
:1057F000002B07D14FF40060C4F20200082104F02E
:105800005FFA06E04FF40060C4F20200082104F0E1
:1058100049FA0837BD4680BD80B582B000AF7860D8
:105820004FF40060C4F20200082104F007FA0346B6
:1058300018460837BD4680BD80B584B002AF786099
:105840000023009300204FF40061C4F202010822FB
:105850000023FBF7DDFC002318460837BD4680BD5A
:1058600080B584B002AF78607B680222DA600023E2
:10587000009301204FF40061C4F2020108220023CA
:10588000FBF7C6FC002318460837BD4680BD00BFA5
:1058900080B584B002AF78600023009300204FF4FD
:1058A0000061C4F2020108220123FBF7B1FC0023CE
:1058B00018460837BD4680BD80B584B002AF786019
:1058C0000023009300204FF40061C4F2020108227B
:1058D0000223FBF79DFC002318460837BD4680BD18
:1058E00080B582B000AF78604FF40060C4F202006F
:1058F000102104F0BDF9034618460837BD4680BDA7
:1059000080B582B000AF786039603B68002B07D16A
:105910004FF40060C4F20200102104F0D1F906E057
:105920004FF40060C4F20200102104F0BBF9083704
:10593000BD4680BD80B582B000AF78604FF4006096
:10594000C4F20200102104F079F903461846083722
:10595000BD4680BD80B584B002AF7860002300935F
:1059600000204FF40061C4F2020110220023FBF773
:105970004FFC002318460837BD4680BD80B584B073
:1059800002AF78607B680222DA6000230093012076
:105990004FF40061C4F2020110220023FBF738FC2F
:1059A000002318460837BD4680BD00BF80B584B0CF
:1059B00002AF78600023009300204FF40061C4F22E
:1059C000020110220123FBF723FC002318460837AD
:1059D000BD4680BD80B584B002AF786000230093DF
:1059E00000204FF40061C4F2020110220223FBF7F1
:1059F0000FFC002318460837BD4680BD80B582B035
:105A000000AF78604FF48050C4F202004FF40061A0
:105A100004F02EF9034618460837BD4680BD00BF86
:105A200080B582B000AF786039603B68002B08D148
:105A30004FF48050C4F202004FF4006104F040F9CA
:105A400007E04FF48050C4F202004FF4006104F00C
:105A500029F90837BD4680BD80B582B000AF7860B7
:105A60004FF48050C4F202004FF4006104F0E6F8F5
:105A7000034618460837BD4680BD00BF80B584B0D8
:105A800002AF78600023009300204FF48051C4F2ED
:105A900002014FF400620023FBF7BAFB0023184613
:105AA0000837BD4680BD00BF80B584B002AF7860C6
:105AB0007B680222DA600023009301204FF48051BA
:105AC000C4F202014FF400620023FBF7A1FB0023A4
:105AD00018460837BD4680BD80B584B002AF7860F7
