:020000040800F2
:1000000068760120392900084186000861860008C9
:1000100081860008A1860008C18600080000000053
:10002000000000000000000000000000E186000861
:10003000018700080000000021870008D92500087A
:100040009D2900089D2900089D2900089D29000878
:100050009D2900089D2900089D2900089D29000868
:100060009D2900089D2900089D2900089D29000858
:100070009D2900089D2900089D2900089D29000848
:100080009D2900089D2900089D2900089D29000838
:100090000D6A00089D2900089D2900089D29000877
:1000A0009D2900083D1200089D2900089D2900088F
:1000B000A1120008011300086D13000831BE0008EA
:1000C0009D290008397100089D2900089D29000814
:1000D0009D2900089D29000849640008FD64000866
:1000E0009D2900089D290008A5180008B1140008E2
:1000F000451400089D2900089D2900089D29000835
:100100009D29000859890008D91300089D29000875
:100110009D2900089D2900089D2900089D290008A7
:100120009D2900089D2900089D290008658900086F
:100130009D2900089D2900089D2900089D29000887
:100140009D2900089D2900089D2900089118000894
:100150009D2900089D2900089D2900089D29000867
:100160009D2900089D2900089D2900089D29000857
:100170009D2900089D2900089D2900089D29000847
:100180009D2900089D29000808B540F2F450074B4E
:10019000C2F200001B1A062B00D808BD40F2000373
:1001A000C0F20003002BF8D09847F6E7F7050020CF
:1001B00008B540F2F45040F2F453C2F20000C2F22B
:1001C00000031B1A9B1003EBD373591000D108BD19
:1001D00040F20002C0F20002002AF8D09047F6E791
:1001E00010B540F2F854C2F20004237873B9FFF757
:1001F000CBFF40F20003C0F200032BB143F2844076
:10020000C0F60200AFF300800123237010BD00BFD1
:1002100008B540F20003C0F200034BB143F2844042
:1002200040F2FC51C0F60200C2F20001AFF30080C0
:1002300040F2F050C2F2000003682BB140F200031C
:10024000C0F2000303B19847BDE80840B0E700BF23
:1002500080B584B000AFF8600B467A60FB72FB7A21
:10026000013B032B52D801A252F823F07D02000873
:10027000A1020008C5020008E9020008FB68DB6A69
:1002800018460EF0AFF90346184679680EF002FAE8
:10029000034618460EF074FB0246FB685A6336E0CC
:1002A000FB68DB6A18460EF09DF90346184679682C
:1002B0000EF0F0F9034618460EF062FB0246FB68AA
:1002C0009A6324E0FB68DB6A18460EF08BF903465C
:1002D000184679680EF0DEF9034618460EF050FB1A
:1002E0000246FB68DA6312E0FB68DB6A18460EF030
:1002F00079F90346184679680EF0CCF9034618469A
:100300000EF03EFB0246FB681A6400E000BF1037A7
:10031000BD4680BD80B582B000AF78600B46FB70F3
:10032000FB78012B06D17B685B6B18460EF05AF9FF
:1003300003461FE0FB78022B06D17B689B6B1846B7
:100340000EF050F9034615E0FB78032B06D17B68CD
:10035000DB6B18460EF046F903460BE0FB78042BE6
:1003600006D17B681B6C18460EF03CF9034601E091
:100370004FF0000318460837BD4680BD90B5ADB0BC
:1003800002AFF860B9603B601346FB800023C7F8FA
:10039000A4300023C7F8A0300023C7F89C30012305
:1003A000C7F898300023A7F8963008F067FC07F1EB
:1003B0004403184607F004FAFB68B3F1804F06D3F4
:1003C000FA684FF4A053C4F200039A420DD9FA68B8
:1003D00041F2FF73C4F200039A4217D9FA684FF44E
:1003E0000053C4F200039A4210D8FA6C4FF46053E1
:1003F000C4F20203D3F88C301B0E03F00103013367
:1004000003FB02F35B00C7F8A4300FE03A6D4FF432
:100410006053C4F20203D3F88C301B0E03F00103C7
:10042000013303FB02F35B00C7F8A4303B68002BE9
:100430000DDDD7F8A42048F21F53C5F2EB1383FB60
:1004400002135911D317CA1A3B689A4201DA0123E1
:10045000F4E01FE0D7F8A0300133C7F8A030D7F898
:10046000A420D7F8A03092FBF3F23B6892FBF3F3A1
:10047000C7F89C30D7F89C30B3F5803F02DA0023F0
:10048000C7F89830D7F8A0204FF6FE739A4201DDE6
:100490000123D3E0D7F89830002BDBD1D7F8A42084
:1004A000D7F8A03092FBF3F2D7F89C3092FBF3F32D
:1004B0003B60F8680AF02AFEFB88002200920220C6
:1004C000B9681A46002300F0B9FDD7F89C30013B0B
:1004D000FB63D7F8A0309BB2013B9BB23B87002364
:1004E000A7F8403000237B87002387F8423007F1CC
:1004F0003803F86819460BF089FD6023BB8400239C
:100500003B860123FB8404233B8508237B864FF431
:100510008073BB864FF40073FB8607F12403F868F1
:1005200019460BF057FEF86800210CF043F807F16C
:100530002403F86819460BF0C7FEF86800210CF098
:1005400055F807F12403F86819460BF045FFF868E1
:1005500000210CF069F807F12403F86819460BF044
:10056000C1FFF86800210CF07BF8FA680023C4F2A0
:1005700001039A4206D0FA684FF48063C4F2010383
:100580009A4211D107F1140318460CF0AFF84FF45A
:1005900080433B8407F11403F86819460CF07EF899
:1005A000F86801210CF0C0F8FA8807F154031046EE
:1005B00019460AF019FC0023A7F8963025E0B7F891
:1005C00096305B0007F1A802134433F8543C012B2A
:1005D00016D1B7F8963010335B0007F1A8010B4431
:1005E00033F8523C18460AF0A5FF03461C46F8684B
:1005F0000BF016F80346B86821461A4608F0B0FA20
:10060000B7F896300133A7F89630B7F896300F2B2D
:10061000D5D9FB6800225A63FB6800229A63FB6805
:100620000022DA63FB6800221A64F86801210BF0EB
:1006300091FDF86801210BF0ADFD00231846AC37A1
:10064000BD4690BD80B489B000AFF860B960FA7162
:10065000BB800023FB76FB68DB78002B23D10023D3
:100660007B610023FB61BB880333DA1C002BB8BF1E
:1006700013469B107B61FB79FA6832339B0013446D
:100680009B683B610023FB6109E0BB681A683B691A
:100690001A60FB690133FB61BB680433BB60FA6914
:1006A0007B699A42F1D3FB7E18462437BD465DF83C
:1006B000047B704780B489B000AFF860B96013461E
:1006C000FB800023FB61FB880333DA1C002BB8BFDF
:1006D00013469B10BB61FB68D3F8D0307B610023CD
:1006E000FB6109E07B691A68BB681A60FB6901332A
:1006F000FB61BB680433BB60FA69BB699A42F1D302
:10070000BB6818462437BD465DF8047B704700BFC0
:1007100080B586B000AF786039600023FB74002399
:100720007B610023FB60FB6843F02003FB603B68B8
:10073000DBB203F01F03DAB2FB6862F38A13FB60DB
:100740007B68DB68FA681A617B68DB681B69FB60A1
:100750007B6901337B617A694FF45463C0F2030310
:100760009A4200D905E0FB68C3F34013DBB2012BCA
:10077000EAD0032008F06CFEFB7C18461837BD4613
:1007800080BD00BF80B483B000AF78607B68DB6859
:100790005B6903F0010318460C37BD465DF8047B26
:1007A000704700BF80B582B000AF78607868FFF70F
:1007B000E9FF0346012B0CBF00230123DBB21846DF
:1007C0000837BD4680BD00BF80B485B000AF7860FB
:1007D0000023FB607B68DB685B69FB607B68DB6830
:1007E0009B69FA681340FB60FB6818461437BD46E6
:1007F0005DF8047B704700BF80B485B000AF7860BF
:100800000023FB737B681B699B68BB603B7AC3F367
:100810004103DBB2022B09D0032B04D0012B02D001
:100820000323FB7305E00223FB7302E00123FB7348
:1008300000BFFB7B18461437BD465DF8047B70474C
:1008400080B487B000AF78600023FB750023BB60E5
:100850007B681B699B683B617B689B691B68FB60CD
:100860003B7CC3F34103DBB2022B04D0BB896FF3A3
:100870000A03BB8105E0BB89032262F30A03BB8143
:1008800000BF7B689B69FA681A607B7A43F00103BA
:100890007B727B681B697A6812695168BA68D243B7
:1008A0001140BA680A435A60FB7D18461C37BD46A2
:1008B0005DF8047B704700BF80B487B000AF7860FC
:1008C00039600023FB740023FB600023BB603B689E
:1008D0005B78012B0FD13B681B787A6804339B004F
:1008E00013449B687B613B681B78012202FA03F387
:1008F0009BB23B810EE03B681B787A6814339B0007
:1009000013445B687B613B681B78012202FA03F3A6
:100910009BB27B817B691B68FB607B7BC3F3C0134D
:10092000DBB2002B27D13B689B689BB2C3F30A0361
:100930009AB2BB8962F30A03BB813B68DB7803F0A0
:100940000303DAB2BB7B62F38303BB733B68DB88D0
:10095000DBB203F00F03DAB2FB8962F38913FB8188
:10096000FB7B43F01003FB737B7B43F080037B73C3
:10097000FA687B691A607B681B697A681269D169B9
:10098000BA680A43DA61FB7C18461C37BD465DF83D
:10099000047B704780B588B000AF78603960002371
:1009A000FB770023BB6100237B6100233B613B6835
:1009B0005B78012B40F0AB803B681B787A6804338E
:1009C0009B0013449B681B687B613B681B787A68BB
:1009D00004339B0013449B681B693B613B685B6964
:1009E000002B09D13B696FF312033B617B8A012223
:1009F00062F3CC037B8222E03B685B69C3F31202A3
:100A00003B6962F312033B613B685A693B689B6830
:100A100013445A1E3B689B68B2FBF3F39BB2C3F3CB
:100A200009039AB27B8A62F3CC037B823B68DB7852
:100A3000012B04D1FB7C012262F34613FB743B685B
:100A40001B787A6804339B0013449B683A691A61E7
:100A50007B68DB78012B0AD13B681B787A6804330A
:100A60009B0013449B683A6812695A6115E03B6821
:100A7000DB78012B11D03B685B69002B0DD03B6804
:100A80001B78012202FA03F3BB617B681B697A6859
:100A90001269516BBA690A435A633B68DB78012BD0
:100AA00014D17B681B699B68FB60FB68C3F30D2353
:100AB0009BB203F00103002B04D1FB7D43F0200324
:100AC000FB7503E0FB7D43F01003FB75FB7D43F0FA
:100AD0000403FB75FB7D43F08003FB753B681B78CB
:100AE0007A6804339B0013449B687A691A603B68F8
:100AF000DB78012B40F088803B68D9683B681A7826
:100B00003B685B699BB27868FFF79CFD7CE03B68C3
:100B10001B787A6814339B0013445B681B687B6105
:100B20003B681B787A6814339B0013445B681B692D
:100B30003B613B685B69002B0DD13B689B68C3F34D
:100B400012023B6962F312033B617B8A012262F36A
:100B5000CC037B821FE03B685A693B689B68134467
:100B60005A1E3B689B68B2FBF3F39BB2C3F30903C5
:100B70009AB27B8A62F3CC037B827B8AC3F3C9037C
:100B80009BB23A68926802FB03F3C3F312023B691B
:100B900062F312033B613B681B787A6814339B0055
:100BA00013445B683A691A617B68DB78012B09D1D1
:100BB0003B681B787A6814339B0013445B683A687F
:100BC00012695A613B68DB78012B0CD13B685B7979
:100BD000002B04D0FB7D43F02003FB7503E0FB7D7D
:100BE00043F01003FB75FB7D43F00403FB75FB7DB5
:100BF00043F08003FB753B681B787A6814339B00D5
:100C000013445B687A691A60FB7F18462037BD463B
:100C100080BD00BF80B489B000AF78603960002328
:100C2000FB770023BB6100233B610023BB603B6873
:100C30005B78012B6FD17B689B697B617B691B684B
:100C40003B617B691B69BB603B685B69002B09D119
:100C50003B7A6FF306033B72BB7A012262F3C40353
:100C6000BB7223E03B685A693B689B689A420ED985
:100C70003B689A683B685A613B689B68DBB203F04B
:100C80007F03DAB23B7A62F306033B7209E03B680A
:100C90005B69DBB203F07F03DAB23B7A62F30603EF
:100CA0003B72BB7A012262F3C403BB72BA687B69F0
:100CB0001A617B68DB78012B09D13B681B787A6865
:100CC00004339B0013449B683A6812695A61FB7CA9
:100CD00043F00403FB74FB7C43F08003FB743A692C
:100CE0007B691A607B68DB78002B75D13B685B6998
:100CF000002B71D03B681B78012202FA03F3BA691A
:100D00001343BB617B681B697A681269516BBA69CE
:100D10000A435A6360E03B681B787A6814339B008F
:100D200013445B681B683B613B681B787A6814332B
:100D30009B0013445B681B69BB603B685B69002BCD
:100D40000FD13B689B68DBB203F07F03DAB23B7ADA
:100D500062F306033B72BB7A012262F3C403BB72E7
:100D600012E03B689A683B685A613B689B68DBB25B
:100D700003F07F03DAB23B7A62F306033B72BB7A7D
:100D8000012262F3C403BB723B681B787A68143398
:100D90009B0013445B68BA681A617B68DB78012B9F
:100DA00009D13B681B787A6814339B0013445B6855
:100DB0003A6812695A61FB7C43F00403FB74FB7CC4
:100DC00043F08003FB743B681B787A6814339B0004
:100DD00013445B683A691A60FB7F18462437BD46A6
:100DE0005DF8047B704700BF80B487B000AF7860C7
:100DF00039600023FB750023FB603B685B78012BA7
:100E00001CD13B681B787A6804339B0013449B68B1
:100E10003B613B691B68FB60FB7BC3F3C013DBB228
:100E2000002B03D0FB7B43F04003FB73BB7B43F001
:100E30002003BB73FA683B691A6011E03B681B78BA
:100E40007A6814339B0013445B683B613B691B6801
:100E5000FB60BB7B43F02003BB73FA683B691A60FD
:100E6000FB7D18461C37BD465DF8047B704700BF0C
:100E700080B487B000AF786039600023FB74002332
:100E8000FB603B685B78012B08D13B681B787A6874
:100E900004339B0013449B687B6107E03B681B782D
:100EA0007A6814339B0013445B687B617B691B6821
:100EB000FB60BB7B6FF34513BB733B68DB78032B95
:100EC00003D03B68DB78022B03D1FB7B43F010039C
:100ED000FB73FA687B691A60FB7C18461C37BD46B9
:100EE0005DF8047B704700BF80B485B000AF7860C8
:100EF0007B681B699B69FB607B681B69DB69FA681F
:100F00001340FB60FB681B0C18461437BD465DF8A8
:100F1000047B704780B485B000AF78600B46FB70EF
:100F2000FB787A6814339B0013445B689B68FB6012
:100F30007B681B695B69FA681340FB60FB681846B5
:100F40001437BD465DF8047B704700BF80B485B0A0
:100F500000AF78607B681B699B69FB607B681B69DD
:100F6000DB69FA681340FB60FB689BB218461437D4
:100F7000BD465DF8047B704780B487B000AF7860F1
:100F800000233B61FB7C43F0C003FB74BB7C01226C
:100F900062F3C403BB743B7C182262F306033B7408
:100FA0007B685B6D3A691A617B68DB78012B16D12F
:100FB0000023FB607B685B6D7A6802F5B9625A6159
:100FC0007B685B6D1B68FB60FB7B43F08003FB73FE
:100FD0004FF08023FB607B685B6DFA681A601C37FA
:100FE000BD465DF8047B704780B485B000AF786083
:100FF0007B689B7A002B1BD07B681B699B68FB601E
:101000003B7BC3F30003DBB2012B11D17B6803F5FB
:1010100086731B68BB603B7A6FF341033B723B7A7C
:101020006FF300033B727B68D3F80C31BA681A6027
:101030001437BD465DF8047B704700BF80B584B0AF
:1010400000AF39600146F971BA80BB713A6800237C
:10105000C4F202039A4204D10120012106F084FC6B
:101060002EE03A684FF48063C4F202039A4204D13E
:101070000220012106F078FC22E03A684FF4006378
:10108000C4F202039A4204D10420012106F06CFC50
:1010900016E03A684FF44063C4F202039A4204D166
:1010A0000820012106F060FC0AE03A684FF4805302
:1010B000C4F202039A4203D11020012106F054FC2D
:1010C00007F10803184607F0E1FCBB88BB60FB7919
:1010D0003B733B7EBB73BB79FB7303237B7307F1CD
:1010E00008033868194607F043FCFB79012B04D14B
:1010F000BB883868194607F025FD1037BD4680BD0E
:1011000080B483B000AF78600B46FB70FB78002B97
:101110000CD04FF43053C4F201034FF43052C4F2F8
:101120000102D16B7A680A43DA630CE04FF4305362
:10113000C4F201034FF43052C4F20102D16B7A6859
:10114000D2430A40DA630C37BD465DF8047B704732
:1011500080B485B000AF78600023FB734FF4305348
:10116000C4F201035A6B7B681340002B02D00123A9
:10117000FB7301E00023FB73FB7B18461437BD466D
:101180005DF8047B704700BF80B483B000AF786027
:101190004FF43053C4F201037A689A630C37BD46AA
:1011A0005DF8047B704700BF80B483B000AF786007
:1011B00039607B683A685A60002318460C37BD4690
:1011C0005DF8047B704700BF80B582B000AF7860E7
:1011D0007B685B681B681B687A6852681046984792
:1011E000034618460837BD4680BD00BF90B587B09E
:1011F00002AFF8607A600A46FA72BB72FB685B68FD
:101200001B6804331C68FB685968FA7ABB7A97F844
:1012100020000090084611467A68A0470346184609
:101220001437BD4690BD00BF80B483B000AF786076
:1012300039600C37BD465DF8047B704780B500AF60
:101240000023C4F201031B889BB21B099BB2002B35
:101250000BD040F21463C2F200031B685A1E40F226
:101260001463C2F200031A6013E00023C4F2010306
:101270001B889BB21B099BB2002B0AD140F214635E
:10128000C2F200031B685A1C40F21463C2F200034E
:101290001A600020C4F2010001210BF08FFA80BD1A
:1012A00080B500AF4FF080431B889BB21B099BB2F7
:1012B000002B0BD040F21863C2F200031B685A1EC9
:1012C00040F21863C2F200031A6012E04FF080434C
:1012D0001B889BB21B099BB2002B0AD140F21863FA
:1012E000C2F200031B685A1C40F21863C2F20003EA
:1012F0001A604FF0804001210BF060FA80BD00BF02
:1013000080B500AF4FF48063C4F200031B889BB22A
:101310001B099BB2002B0BD040F21C63C2F20003EE
:101320001B685A1E40F21C63C2F200031A6014E0EC
:101330004FF48063C4F200031B889BB21B099BB26D
:10134000002B0AD140F21C63C2F200031B685A1C36
:1013500040F21C63C2F200031A604FF48060C4F2D2
:10136000000001210BF02AFA80BD00BF80B500AF5C
:101370004FF40063C4F200031B889BB21B099BB2AD
:10138000002B0BD040F22063C2F200031B685A1EF0
:1013900040F22063C2F200031A6014E04FF40063CD
:1013A000C4F200031B889BB21B099BB2002B0AD11D
:1013B00040F22063C2F200031B685A1C40F2206313
:1013C000C2F200031A604FF40060C4F20000012171
:1013D0000BF0F4F980BD00BF80B500AF4FF440635F
:1013E000C4F200031B889BB21B099BB2002B0BD0DD
:1013F00040F22463C2F200031B685A1E40F22463C9
:10140000C2F200031A6014E04FF44063C4F2000318
:101410001B889BB21B099BB2002B0AD140F22463AC
:10142000C2F200031B685A1C40F22463C2F200039C
:101430001A604FF44060C4F2000001210BF0BEF9C5
:1014400080BD00BF80B500AF4FF48063C4F20103DC
:101450001B889BB21B099BB2002B0BD040F2286368
:10146000C2F200031B685A1E40F22863C2F2000356
:101470001A6014E04FF48063C4F201031B889BB22E
:101480001B099BB2002B0AD140F22863C2F2000371
:101490001B685A1C40F22863C2F200031A604FF422
:1014A0008060C4F2010001210BF088F980BD00BF0B
:1014B00080B500AF4FF4C053C4F200031B889BB249
:1014C0001B099BB2002B0BD040F22C63C2F200032D
:1014D0001B685A1E40F22C63C2F200031A6014E02B
:1014E0004FF4C053C4F200031B889BB21B099BB28C
:1014F000002B0AD140F22C63C2F200031B685A1C75
:1015000040F22C63C2F200031A604FF4C050C4F2E0
:10151000000001210BF052F980BD00BF80B500AF83
:101520000020C4F201000AF009FE024640F21463F2
:10153000C2F200031B681B041344184680BD00BFA1
:1015400080B500AF4FF080400AF0F8FD024640F24F
:101550001863C2F200031B681B041344184680BDC5
:1015600080B500AF4FF48060C4F200000AF0E6FDE1
:10157000024640F21C63C2F200031B681B041344C2
:10158000184680BD80B500AF4FF40060C4F2000083
:101590000AF0D4FD024640F22063C2F200031B6849
:1015A0001B041344184680BD80B500AF4FF4406063
:1015B000C4F200000AF0C2FD024640F22463C2F207
:1015C00000031B681B041344184680BD80B500AFA0
:1015D0004FF48060C4F201000AF0B0FD024640F210
:1015E0002863C2F200031B681B041344184680BD25
:1015F00080B500AF4FF4C050C4F200000AF09EFD69
:10160000024640F22C63C2F200031B681B04134421
:10161000184680BD90B59DB002AFF860B960134622
:10162000FB800023A7F866300023A7F86430F86831
:1016300009F06CFDFB88002200920220B9681A466E
:101640000123FFF7FBFCFA8807F120031046194637
:1016500009F0CAFB0023A7F8663025E0B7F866302A
:101660005B0007F168010B4433F8483C012B16D1AD
:10167000B7F8663010335B0007F16802134433F8A3
:10168000463C184609F056FF03461C46F86809F028
:10169000C7FF0346B86821461A4607F061FAB7F853
:1016A00066300133A7F86630B7F866300F2BD5D90E
:1016B00040F24003C2F200031A684DF62913C6F245
:1016C0004263A3FB02135B0E9BB2013BA7F864309D
:1016D0004FF6FE73BB610023BB820023BB83002354
:1016E000FB8207F11403F86819460AF08FFCB7F87B
:1016F0006430F868194601220AF0FEFCF8680321FC
:10170000002200230BF06AF8F868012101220BF097
:1017100031F8F86801210AF03DFDF86809F0A8FCED
:101720000346184609F0F0FE00F056F86C37BD4647
:1017300090BD00BF80B582B000AF78607A680023AA
:10174000C4F201039A4203D1FFF7E8FE03463FE0EB
:101750007B68B3F1804F03D1FFF7F2FE034637E019
:101760007A684FF48063C4F200039A4203D1FFF712
:10177000F7FE03462CE07A684FF40063C4F20003DE
:101780009A4203D1FFF7FEFE034621E07A684FF448
:101790004063C4F200039A4203D1FFF705FF0346FA
:1017A00016E07A684FF48063C4F201039A4203D1D1
:1017B000FFF70CFF03460BE07A684FF4C053C4F206
:1017C00000039A4203D1FFF713FF034600E0002312
:1017D00018460837BD4680BD80B500AF40F214639F
:1017E000C2F2000300221A6040F21863C2F2000342
:1017F00000221A6040F21C63C2F2000300221A6049
:1018000040F22063C2F2000300221A6040F2246317
:10181000C2F2000300221A6040F22863C2F2000301
:1018200000221A6040F22C63C2F2000300221A6008
:101830000020C4F2010000210AF072FC4FF0804049
:1018400000210AF06DFC4FF48060C4F2000000211A
:101850000AF066FC4FF40060C4F2000000210AF0B8
:101860005FFC4FF44060C4F2000000210AF058FC15
:101870004FF48060C4F2010000210AF051FC4FF4E3
:10188000C050C4F2000000210AF04AFC80BD00BF35
:1018900080B500AF43F27400C2F2000008F06EFAA7
:1018A00080BD00BF80B500AF43F27403C2F20003F5
:1018B0009B7A002B13D04EF61053CEF200034EF657
:1018C0001052CEF20002126822F006021A6007F0EF
:1018D0008DF943F27400C2F20000FFF785FB4FF46C
:1018E000802009F071FA80BD80B58AB000AF7860C1
:1018F000396000237B6200233B620023FB610023ED
:10190000BB617B681B8A9BB27B627B6A23F440537A
:101910007B623B68DB887A6A13437B627B6A9AB29C
:101920007B681A827B689B899BB27B627B6A23F40B
:10193000B05323F00C037B623B689A883B681B8999
:1019400013439AB23B685B8913439BB27A6A134391
:101950007B627B6A9AB27B689A817B689B8A9BB226
:101960007B627B6A23F440737B623B689B897A6A63
:1019700013437B627B6A9AB27B689A8207F1080301
:10198000184605F01DFF7A684FF48053C4F2010336
:101990009A4206D07A684FF4A053C4F201039A42E7
:1019A00002D17B693B6201E03B693B627B689B89BA
:1019B0009BB29BB21BB2002B0CDA3A6A13469B0017
:1019C00013449A001A443B681B685B00B2FBF3F3B4
:1019D000FB610BE03A6A13469B0013449A001A44D9
:1019E0003B681B689B00B2FBF3F3FB61FA6948F2AA
:1019F0001F53C5F2EB13A3FB02135B091B017B62B0
:101A00007B6A1B09642202FB03F3FA69D31ABB61E8
:101A10007B689B899BB29BB21BB2002B10DABB691F
:101A2000DB0003F1320248F21F53C5F2EB13A3FBB4
:101A300002135B0903F007037A6A13437B620FE02A
:101A4000BB691B0103F1320248F21F53C5F2EB13CD
:101A5000A3FB02135B0903F00F037A6A13437B6253
:101A60007B6A9AB27B681A812837BD4680BD00BF69
:101A700080B483B000AF78600B46FB70FB78002B1E
:101A800008D07B689B899BB243F400539AB27B6871
:101A90009A8107E07B689B899BB223F400539AB23A
:101AA0007B689A810C37BD465DF8047B704700BFA8
:101AB00080B483B000AF78600B467B807B88C3F333
:101AC00008039AB27B689A800C37BD465DF8047BA8
:101AD000704700BF80B483B000AF78607B689B889C
:101AE0009BB2C3F308039BB218460C37BD465DF8A2
:101AF000047B704780B487B000AF786013460A4615
:101B00007A807B7000233B610023FB600023BB6075
:101B100000237B617B687B617B88DBB25B09DBB286
:101B20003B617B8803F01F03FB60FB68012202FA24
:101B300003F3BB603B69012B03D17B690C337B61F1
:101B400009E03B69022B03D17B6910337B6102E022
:101B50007B6914337B617B78002B06D07B697A69C3
:101B60001168BA680A431A6006E07B697A691168ED
:101B7000BA68D2430A401A601C37BD465DF8047B40
:101B8000704700BF80B485B000AF78600B467B80A3
:101B90000023FB737B681B889AB27B8813409BB23F
:101BA000002B02D00123FB7301E00023FB73FB7BBE
:101BB00018461437BD465DF8047B704780B582B087
:101BC00000AF78607A684FF4C843C4F200039A42C9
:101BD0000AD14FF00070012105F03EFF4FF0007078
:101BE000002105F039FF09E04FF08060012105F088
:101BF00033FF4FF08060002105F02EFF0837BD460F
:101C000080BD00BF80B485B000AF7860396000232C
:101C1000FB730023BB607B681B6823F002027B68B8
:101C20001A607B681B6843F001027B681A6002E05F
:101C3000BB680133BB607B685B6803F00103002B6A
:101C400004D1BA684FF6FF739A42F1D17B685B68A2
:101C500003F00103002B02D10023FB739CE03B68DF
:101C60009B79012B06D17B681B6843F080027B685F
:101C70001A6005E07B681B6823F080027B681A60AD
:101C80003B68DB79012B06D17B681B6843F040027F
:101C90007B681A6005E07B681B6823F040027B6864
:101CA0001A603B681B7A012B06D17B681B6843F0E6
:101CB00020027B681A6005E07B681B6823F0200225
:101CC0007B681A603B685B7A012B06D17B681B68D6
:101CD00043F010027B681A6005E07B681B6823F004
:101CE00010027B681A603B689B7A012B06D17B68E7
:101CF0001B6843F008027B681A6005E07B681B687C
:101D000023F008027B681A603B68DB7A012B06D15E
:101D10007B681B6843F004027B681A6005E07B68FF
:101D20001B6823F004027B681A603B689B789A0763
:101D30003B68DB781B061A433B681B791B041A437C
:101D40003B685B791B051A433B681B88013B1A43C0
:101D50007B68DA617B681B6823F001027B681A608C
:101D60000023BB6002E0BB680133BB607B685B683B
:101D700003F00103002B04D0BA684FF6FF739A42B8
:101D8000F1D17B685B6803F00103002B02D00023D4
:101D9000FB7301E00123FB73FB7B18461437BD4640
:101DA0005DF8047B704700BF80B485B000AF7860F9
:101DB0000023FB607B689B7A012202FA03F3FB603D
:101DC0004FF4C843C4F200034FF4C842C4F2000207
:101DD000D2F8002242F00102C3F800224FF4C843B7
:101DE000C4F200034FF4C842C4F20002D2F81C123D
:101DF000FA68D2430A40C3F81C227B681B7B002B85
:101E00002DD14FF4C843C4F200034FF4C842C4F2CA
:101E10000002D2F80C12FA68D2430A40C3F80C222E
:101E20004FF4C843C4F200037A68927A7968C9888B
:101E30000804796849880143483243F832104FF466
:101E4000C842C4F200027B689B7A796889880804DA
:101E50007968098801434833DB00134459607B6883
:101E60001B7B012B2CD14FF4C843C4F200034FF469
:101E7000C842C4F20002D2F80C12FA680A43C3F84E
:101E80000C224FF4C843C4F200037A68927A79684E
:101E900009880804796849880143483243F83210B8
:101EA0004FF4C842C4F200027B689B7A7968898843
:101EB00008047968C98801434833DB00134459603A
:101EC0007B68DB7A002B0FD14FF4C843C4F20003C8
:101ED0004FF4C842C4F20002D2F80412FA68D243A6
:101EE0000A40C3F804220DE04FF4C843C4F20003D3
:101EF0004FF4C842C4F20002D2F80412FA680A434E
:101F0000C3F804227B681B89002B0ED14FF4C84311
:101F1000C4F200034FF4C842C4F20002D2F8141213
:101F2000FA68D2430A40C3F814227B681B89012B4C
:101F30000DD14FF4C843C4F200034FF4C842C4F2B9
:101F40000002D2F81412FA680A43C3F814227B681C
:101F50005B7B012B0DD14FF4C843C4F200034FF457
:101F6000C842C4F20002D2F81C12FA680A43C3F84D
:101F70001C224FF4C843C4F200034FF4C842C4F219
:101F80000002D2F8002222F00102C3F80022143726
:101F9000BD465DF8047B704780B483B000AF7860C5
:101FA0007B6800229A717B680022DA717B680022CC
:101FB0001A727B6800225A727B6800229A727B68D0
:101FC0000022DA727B6800229A707B680022DA7045
:101FD0007B6803221A717B6802225A717B68012296
:101FE0001A800C37BD465DF8047B704780B485B01D
:101FF00000AF786039600023FB737B689B6803F057
:102000008063002B02D00023FB7313E07B689B6886
:1020100003F00063002B02D00123FB730AE07B680E
:102020009B6803F08053002B02D00223FB7301E076
:102030000423FB73FB7B042B00F09880FB7BFA7B73
:102040007968183212010A44126802F001027968B4
:1020500018331B010B441A603B681B7A002B13D109
:10206000FB7BFA7B7968183212010A4411683A68DE
:10207000126850053A68527A02430A437968183365
:102080001B010B441A6015E0FB7BFA7B7968183260
:1020900012010A4411683A685268D0003A68127A0C
:1020A00010433A68527A02430A43796818331B0195
:1020B0000B441A603B689B7A03F00F03DAB23B686B
:1020C0009A72FB7BFA7B7968183212010A445268D3
:1020D00022F00F02796818331B010B445A60FB7B16
:1020E000FA7B7968183212010A4451683A68927A88
:1020F0000A43796818331B010B445A60FB7B3A682A
:10210000927B11063A68527B120411433A68127BA3
:10211000120211433A68D27A0A4379681B010B44D0
:1021200003F5C4731A60FB7B3A68927C11063A6827
:10213000527C120411433A68127C120211433A682D
:10214000D27B0A4379681B010B4403F5C4735A60C0
:10215000FB7BFA7B7968183212010A44126842F05C
:102160000102796818331B010B441A60FB7B184687
:102170001437BD465DF8047B704700BF80B485B05E
:1021800000AF78600B46FB700023FB60FB78012BEF
:102190000BD0022B12D0002B18D17B689A68032336
:1021A000C0F200431340FB6013E07B689A684FF471
:1021B0004073C0F600031340FB600AE07B689A6836
:1021C0000023C1F203031340FB6002E00023FB6025
:1021D00000BFFB684FF48072C0F60002934229D022
:1021E0004FF48072C0F6000293420CD80122C0F274
:1021F000004293421BD00322C0F2004293421FD000
:10220000002B11D025E00022C1F20102934214D02C
:102210000022C1F20302934218D04FF44072C0F67C
:10222000000293420FD014E00223FB6014E000236D
:10223000FB6011E00023FB600EE00023FB600BE07D
:102240000123FB6008E00123FB6005E00123FB6044
:1022500002E00023FB6000BFFB68DBB218461437C6
:10226000BD465DF8047B704780B485B000AFF86070
:102270000B467A60FB72FB7AFA681B331B0113442E
:102280001B68DBB203F00403DAB27B681A727B6866
:102290001B7A002B09D1FB7AFA681B331B0113440C
:1022A0001B685A0D7B681A6008E0FB7AFA681B33DA
:1022B0001B0113441B68DA087B685A60FB7AFA68D2
:1022C0001B331B0113441B68DBB203F00203DAB2B9
:1022D0007B685A72FB7AFA681B331B0113445B68F4
:1022E000DBB203F00F03DAB27B689A72FB7AFA680A
:1022F0001B331B0113445B681B0ADAB27B68DA7478
:10230000FB7AFA681B01134403F5DC731B68DAB22D
:102310007B68DA72FB7AFA681B01134403F5DC73FD
:102320001B681B0ADAB27B681A73FB7AFA681B0116
:10233000134403F5DC731B681B0CDAB27B685A7319
:10234000FB7AFA681B01134403F5DC731B681B0E50
:10235000DAB27B689A73FB7AFA681B01134403F5BF
:10236000DC735B68DAB27B68DA73FB7AFA681B01AC
:10237000134403F5DC735B681B0ADAB27B681A74DA
:10238000FB7AFA681B01134403F5DC735B681B0CD2
:10239000DAB27B685A74FB7AFA681B01134403F5BE
:1023A000DC735B681B0EDAB27B689A74FB7A002BD5
:1023B00006D1FB68DB6843F02002FB68DA6005E0C9
:1023C000FB681B6943F02002FB681A611437BD46A5
:1023D0005DF8047B704700BF80B485B000AFF86043
:1023E000B9601346FB71FB79002B06D0FB685A6974
:1023F000BB681A43FB685A6106E0FB685A69BB6810
:10240000DB431A40FB685A611437BD465DF8047B14
:10241000704700BF80B584B000AF7860396000239A
:10242000FB737B685A693B681340002B00F0B58052
:102430003B68402B65D0402B0FD8042B3DD0042B9C
:1024400004D8012B24D0022B2ED0A2E0102B46D092
:10245000202B4DD0082B39D09BE0B3F5006F00F056
:102460008680B3F5006F09D8B3F5007F6DD0B3F562
:10247000806F73D0B3F5807F5ED08AE0B3F5803F84
:1024800048D0B3F5003F4ED0B3F5004F78D080E090
:102490007B689B68184640F20111C0F2010100F010
:1024A00083F80346FB7377E07B68DB6818460321FB
:1024B00000F07AF80346FB736EE07B68DB68184631
:1024C000082100F071F80346FB7365E07B68DB6868
:1024D0001846102100F068F80346FB735CE07B6847
:1024E0001B691846032100F05FF80346FB7353E0B5
:1024F0007B681B691846082100F056F80346FB73F9
:102500004AE07B681B691846102100F04DF803462D
:10251000FB7341E07B685B681846082100F044F8D3
:102520000346FB7338E07B685B681846102100F0B7
:102530003BF80346FB732FE07B689B69184601213B
:1025400000F032F80346FB7326E07B689B6918466F
:10255000022100F029F80346FB731DE07B689B69AC
:102560001846042100F020F80346FB7314E07B6852
:102570009B691846702100F017F80346FB730BE0C7
:102580007B685B681846042100F00EF80346FB7375
:1025900002E00023FB7300BF01E00023FB73FB7B21
:1025A00018461037BD4680BD80B485B000AF786056
:1025B00039600023FB737A683B681340002B02D01C
:1025C0000123FB7301E00023FB73FB7B18461437E8
:1025D000BD465DF8047B704780B400AF40F23063C5
:1025E000C2F20003D3E90023501C43F1000140F282
:1025F0003063C2F20003C3E90001BD465DF8047B0D
:10260000704700BF80B500AF00F010F802460B46DF
:10261000104619464FF47A724FF000030CF0D0F9CF
:1026200002460B461046194680BD00BF80B400AF7D
:1026300040F23063C2F20003D3E900230A2101FB18
:1026400003F0002101FB02F101440A20A2FB002358
:1026500019440B4610461946BD465DF8047B704789
:1026600080B500AF4CF2AC50C3F2277006F0BEF854
:1026700080BD00BF80B584B000AFC7E90001002372
:10268000FB60FFF7BFFF02460B461346FB6000BF2F
:10269000FFF7B8FFFB681A464FEAE273821A61EB54
:1026A0000303D7E90001904271EB030CF0DA103715
:1026B000BD4680BD80B58AB002AFF8607A600A4638
:1026C000FA723B8107F114031846FFF765FCFB68BB
:1026D000012B0BD14FF4C840C4F20000FFF76EFA93
:1026E0004FF00070012105F067F90DE0FB68022B47
:1026F0000AD14FF4D040C4F20000FFF75FFA4FF068
:102700008060012105F058F93B89002200920220E7
:1027100079681A460123FEF791FCBB8D00220092D6
:102720000220B96A1A460123FEF788FCFB68012BD8
:1027300014D13B89184608F0FDFE03467868194617
:10274000092206F00DFABB8D184608F0F3FE034689
:10275000B86A1946092206F003FA16E0FB68022B54
:1027600013D13B89184608F0E5FE03467868194600
:10277000092206F0F5F9BB8D184608F0DBFE03468A
:10278000B86A1946092206F0EBF90123BB7600234B
:10279000FB7600233B7700237B770023BB77002366
:1027A000FB77FB7ABB750023FB7505233B7606237D
:1027B0007B760323BB82FB68012B09D107F114034D
:1027C0004FF4C840C4F200001946FFF71BFA0BE0B3
:1027D000FB68022B08D107F114034FF4D040C4F278
:1027E00000001946FFF70EFA4FF4E06008F07AFF98
:1027F000FB68012B0BD1142008F086FE4FF4C84073
:10280000C4F2000002210122FFF7E6FD0DE0FB68A3
:10281000022B0AD1402008F077FE4FF4D040C4F2DA
:10282000000002210122FFF7D7FD2037BD4680BD01
:1028300080B586B000AF7860F9703A80BB70002335
:10284000FB820023FB820EE0FB8ADBB2BB74002319
:102850003B8200237B7507F108031846FFF7A4FAB3
:10286000FB8A0133FB82B7F916300D2BECDD7B6858
:10287000DBB2BB7400233B8201237B75FB78002B0A
:1028800002D10023FB7404E0FB78012B01D101236A
:10289000FB7400233B75B7F900305B019AB2BB783B
:1028A0001B019BB213439BB29BB27B81B7F92030D3
:1028B0005B019AB297F824301B019BB213439BB281
:1028C0009BB2FB81B7F928305B019AB297F82C30A4
:1028D0001B019BB213439BB29BB23B81B7F93030D3
:1028E0005B019AB297F834301B019BB213439BB241
:1028F0009BB2BB8107F108031846FFF755FA18375A
:10290000BD4680BD80B582B000AF78604FF4C8404E
:10291000C4F200007968FFF769FB00BF4FF4C840BC
:10292000C4F200000021FFF729FC0346012BF5D17A
:102930000837BD4680BD00BF80B582B000AF44F20D
:102940000C33C0F602037B6040F20003C2F20003C6
:102950003B6007E03B681A1D3A607A68111D796098
:1029600012681A603A6840F2F453C2F200039A42C5
:10297000F0D3084808494FF000028842B8BF40F839
:10298000042BFADB05F0B8F804F0E6FD0837BD4685
:1029900080BD0000F80500206836002080B400AF3C
:1029A000FEE700BF80B483B000AF786039600023D9
:1029B00018460C37BD465DF8047B704780B582B081
:1029C00000AF786039607B681B6808331B687868E3
:1029D00039689847034618460837BD4680BD00BF92
:1029E00080B483B000AF78607B68044A1A607B686B
:1029F00018460C37BD465DF8047B7047F8FA0108AD
:102A000080B582B000AF786039607B681846FFF708
:102A1000E7FF7B68104A1A607B6855221A737B684F
:102A200054225A737B6800221A627B683868194600
:102A3000FFF7C4FF7B6800221A617B6800225A619D
:102A40007B6800229A617B680022DA617B68184605
:102A50000837BD4680BD00BFD0FA010880B582B0FE
:102A600000AF7860FFF7CEFD02460B467B689A60A8
:102A70007B681846FEF7A8FB034618460837BD4694
:102A800080BD00BF80B483B000AF786039603B6820
:102A90001B781A023B6801331B781A437B681A6162
:102AA0003B6802331B781A023B6803331B781A43D6
:102AB0007B685A613B6804331B781A023B68053314
:102AC0001B781A437B689A613B6806331B781A02AD
:102AD0003B6807331B781A437B68DA610C37BD46C5
:102AE0005DF8047B704700BF80B586B002AF7860A8
:102AF0000023BB810023BB73FFF784FD7B689B68C9
:102B00001A464FF00003821A61EB03030A2A73F19D
:102B10000001B4BF00230123DBB2002B00F0A08032
:102B2000FFF770FD02460B467B689A6040F23863FF
:102B3000C2F200031B68002B33D17B681B6A012B98
:102B400015D100233B7384237B737A6807F10C0350
:102B500001210091104654211A460223FEF746FB3C
:102B600040F23863C2F2000301221A6078E07B6809
:102B70001B6A002B74D100233B7389237B737A6813
:102B800007F10C0301210091104654211A4602233B
:102B9000FEF72CFB40F23863C2F2000301221A60F8
:102BA0005EE040F23863C2F200031B68012B33D1B0
:102BB0007B681B6A012B15D100233B7304237B73B5
:102BC0007A6807F10C0301210091104654211A463E
:102BD0000223FEF70BFB40F23863C2F2000302222D
:102BE0001A603DE07B681B6A002B39D100233B73E0
:102BF00009237B737A6807F10C03012100911046C9
:102C000054211A460223FEF7F1FA40F23863C2F269
:102C1000000302221A6023E040F23863C2F200038C
:102C20001B68022B06D140F23863C2F20003032274
:102C30001A6015E040F23863C2F200031B68032BF0
:102C40000ED103233B7300237B737A6807F10C03D7
:102C500001210091104654211A460123FEF7C6FABD
:102C60001037BD4680BD00BF80B483B000AF786030
:102C7000396040F2D463C2F200031B68002B09D113
:102C80007B681B7B1A463B689A4214BF00230123D2
:102C9000DBB208E07B685B7B1A463B689A4214BF54
:102CA00000230123DBB218460C37BD465DF8047BD8
:102CB000704700BF80B582B000AF78600B46FB70F4
:102CC000FB78032B18D140F2E463C2F20003082220
:102CD0001A6040F2D863C2F2000355221A6040F233
:102CE000D463C2F2000300221A604FF4B040C4F271
:102CF0000000012107F086FF0837BD4680BD00BFF8
:102D000080B584B000AF786007F108037868194691
:102D100006F0CAFF3B7A03F01F03012B0AD0022BF7
:102D20000FD0002B14D107F108037868194606F07C
:102D3000B5FB16E007F108037868194606F0FEFBBC
:102D40000FE007F108037868194606F02BFC08E04D
:102D50003B7A23F07F03DBB27868194608F006FE61
:102D600000BF002318461037BD4680BD80B584B033
:102D700000AF78600B46FB70FB78002B45D17B6879
:102D800003F55C73FB607B6893F81131032B4FD123
:102D9000FB68DA69FB689B689A4221D9FB68DA69AB
:102DA000FB689B68D21AFB68DA617B68DB78012BD1
:102DB00006D1FB68DA68FB689B681A44FB68DA6036
:102DC000FB68DA68FB689968FB68DB69994238BF81
:102DD0000B469BB2786811461A4609F063F827E063
:102DE0007B68D3F8E0351B69002B0AD07B6893F829
:102DF0001231032B05D17B68D3F8E0351B69786865
:102E00009847786809F062F812E07B68D3F8E035FB
:102E10009B69002B0CD07B6893F81231032B07D1F0
:102E20007B68D3F8E0359B69FA7878681146984753
:102E3000002318461037BD4680BD00BF80B584B062
:102E400000AF78600B46FB70FB78002B60D17B688D
:102E500003F58C73FB607B6893F81131022B6AD108
:102E6000FB68DA69FB689B689A421CD9FB68DA69DF
:102E7000FB689B68D21AFB68DA617B68DB78012B00
:102E800006D1FB68DA68FB689B681A44FB68DA6065
:102E9000FB68DA68FB68DB699BB2786811461A4602
:102EA00008F0ECFF47E0FB681B6AFA689268B3FB26
:102EB000F2F102FB01F29B1A002B14D1FB681A6A93
:102EC000FB689B689A420ED3FB681A6AFB685B6AD0
:102ED0009A4208D278680021002208F0CFFFFB68F0
:102EE00000225A6227E07B68D3F8E035DB68002BCC
:102EF0000AD07B6893F81231032B05D17B68D3F895
:102F0000E035DB6878689847786808F0F7FF12E0EA
:102F10007B68D3F8E0355B69002B0CD07B6893F8B5
:102F20001231032B07D17B68D3F8E0355B69FA785F
:102F3000786811469847002318461037BD4680BD73
:102F400080B582B000AF786078680021402200230D
:102F500008F042FC786880214022002308F03CFC05
:102F60007B68012283F812217B68D3F8E4355B6823
:102F70007A68927810469847002318460837BD466D
:102F800080BD00BF80B582B000AF78607B68D3F8A9
:102F9000E4351B6998477B68032283F812210023DC
:102FA00018460837BD4680BD80B582B000AF786056
:102FB0007B68042283F812217B68D3F8E435DB6850
:102FC0009847002318460837BD4680BD80B582B0BB
:102FD00000AF78607B68D3F8E035DB69002B05D063
:102FE0007B68D3F8E035DB6978689847002318469A
:102FF0000837BD4680BD00BF80B582B000AF7860A5
:103000000B46FB707B68D3F8E0351B68FA7878686C
:10301000114698477B68D3F8E4359B6898470023AE
:1030200018460837BD4680BD80B582B000AF7860D5
:103030000B46FB707B68D3F8E0355B68FA787868FC
:1030400011469847002318460837BD4680BD00BF8B
:1030500080B582B000AF78607B68D3F8E0351B6A3A
:1030600078689847002318460837BD4680BD00BFE2
:1030700080B582B000AF78607B68D3F8E0355B6ADA
:1030800078689847002318460837BD4680BD00BFC2
:1030900080B582B000AF78607B68064A1A607B68B2
:1030A0000433184604F04EF87B6818460837BD46CE
:1030B00080BD00BFB80E020880B582B000AF786056
:1030C00039607B681846FFF7E3FF7B68074A1A60A0
:1030D0007B683A68C3F818217B680022C3F8142182
:1030E0007B6818460837BD4680BD00BF580C0208F3
:1030F00080B582B000AF78600B46FB707B681A1D0C
:10310000FB781046194604F031F80346002B14BF33
:1031100000230123DBB2002B0AD0FB780D2B13D147
:103120007B68D3F814315A1C7B68C3F814210BE078
:103130007B68D3F81431002B06D1FB780D2B03D11B
:103140007B680122C3F814210837BD4680BD00BF4B
:1031500080B582B000AF78607B680433184604F015
:1031600037F80346002B14BF00230123DBB21846B7
:103170000837BD4680BD00BF80B483B000AF786023
:103180007B68D3F8143118460C37BD465DF8047BD4
:10319000704700BF80B582B000AF78607B680433B1
:1031A000184604F02BF8034618460837BD4680BD84
:1031B00090B585B000AF786039607B6804331846FD
:1031C00004F006F80346002B0CBF00230123DBB2FA
:1031D000002B08D03B6800221A707B680022C3F8DD
:1031E0001421002354E00023FB604DE0FB683A68A3
:1031F000D4187B680433184604F000F803462370A3
:10320000FB683A6813441B780D2B02D0FB68FE2B39
:103210001FDDFB683A68134400221A707B68043390
:10322000184603F0D5FF0346002B0CBF00230123F3
:10323000DBB2002B04D07B680022C3F8142106E027
:103240007B68D3F814315A1E7B68C3F81421FB68DD
:103250001EE07B680433184603F0BAFF0346002BD8
:103260000CBF00230123DBB2002B0AD0FB683A68B5
:10327000134400221A707B680022C3F81421FB68F3
:1032800006E0FB680133FB60FB68FF2BAEDD00232B
:1032900018461437BD4690BD80B582B000AF786047
:1032A0007B689B68012B06D17B685B681846FFF73B
:1032B00063FF034600E0002318460837BD4680BD83
:1032C00080B582B000AF786039603B6800221A7028
:1032D0007B689B68012B07D17B685B68184639685F
:1032E000FFF766FF034600E0002318460837BD4697
:1032F00080BD00BF80B582B000AF78607B689B68FE
:10330000012B06D17B685B681846FFF721FF034657
:1033100000E0002318460837BD4680BD80B582B066
:1033200000AF78607B689B68012B06D17B685B6887
:103330001846FFF72FFF034600E000231846083722
:10334000BD4680BD80B584B000AF78603960002391
:10335000FB600DE07B681B6804331B68FA68396802
:103360000A441278786811469847FB680133FB607D
:10337000FB683A6813441B78002BEBD11037BD462D
:1033800080BD00BF90B587B002AFF860B9607A60C9
:103390003B60FB6802229A60FB681B681C683B6804
:1033A0000093F868B9687A683B6AA04703461846F4
:1033B0001437BD4690BD00BF90B587B002AFF8602E
:1033C000B9607A603B60FB6801229A604FF48E70AE
:1033D00015F098F904462046F968FFF76DFEFB6882
:1033E0005C60FB681B681C68FB685B687A6800921D
:1033F000F868B9681A463B68A04703461846143770
:10340000BD4690BD80B582B000AF78607B681B6818
:103410001B6878689847034618460837BD4680BD44
:1034200080B582B000AF78607B681B6804331B688E
:1034300078689847034618460837BD4680BD00BFE8
:1034400080B584B000AFF860B9607A60FB681B6833
:103450001B68F868B9687A689847034618461037B9
:10346000BD4680BD80B582B000AF786039607B68B2
:103470001B6804331B687868396898470837BD466D
:1034800080BD00BF80B582B000AF78607B681B68EC
:1034900008331B6878689847034618460837BD46C6
:1034A00080BD00BF80B483B000AF786040F6FF738A
:1034B00018460C37BD465DF8047B7047A0F1080044
:1034C000F0E700BF80B483B000AF786043F23333DD
:1034D000C4F2530318460C37BD465DF8047B7047B1
:1034E000A0F10800EEE700BF80B483B000AF7860C1
:1034F00040F6FF7318460C37BD465DF8047B7047F5
:10350000A0F10800F0E700BF80B483B000AF78609E
:1035100043F23333C4F2530318460C37BD465DF80B
:10352000047B7047A0F10800EEE700BF80B483B0D1
:1035300000AF786040F6FF7318460C37BD465DF863
:10354000047B7047A0F10800F0E700BF80B483B0AF
:1035500000AF786043F23333C4F2530318460C379C
:10356000BD465DF8047B7047A0F10800EEE700BFA0
:1035700080B483B000AF786040F6FF7318460C3714
:10358000BD465DF8047B7047A0F10800F0E700BF7E
:1035900080B483B000AF786043F23333C4F2530396
:1035A00018460C37BD465DF8047B7047A0F1080053
:1035B000EEE700BF80B483B000AF786040F6FF73E1
:1035C00018460C37BD465DF8047B7047A0F1080033
:1035D000F0E700BF80B483B000AF786043F23333CC
:1035E000C4F2530318460C37BD465DF8047B7047A0
:1035F000A0F10800EEE700BF80B582B000AF7860B0
:103600004FF44060C4F202004FF4805105F072FAAA
:10361000034618460837BD4680BD00BF80B582B05E
:1036200000AF786039603B68002B08D14FF44060F0
:10363000C4F202004FF4805105F084FA07E04FF421
:103640004060C4F202004FF4805105F06DFA083773
:10365000BD4680BD80B582B000AF78604FF4406059
:10366000C4F202004FF4805105F02AFA03461846CE
:103670000837BD4680BD00BF80B584B002AF78601A
:103680000023009300204FF44061C4F202014FF484
:1036900080520023FDF7D2FC002318460837BD46B0
:1036A00080BD00BF80B584B002AF78600023009376
:1036B00001204FF44061C4F202014FF48052002314
:1036C000FDF7BCFC002318460837BD4680BD00BF8F
:1036D00080B584B002AF78600023009300204FF4DF
:1036E0004061C4F202014FF480520123FDF7A6FCB1
:1036F000002318460837BD4680BD00BF80B584B0A2
:1037000002AF78600023009300204FF44061C4F2C0
:1037100002014FF480520223FDF790FC002318466B
:103720000837BD4680BD00BF80B582B000AF78606D
:103730004FF48050C4F202004FF4004105F0DAF972
:10374000034618460837BD4680BD00BF80B582B02D
:1037500000AF786039603B68002B08D14FF480508F
:10376000C4F202004FF4004105F0ECF907E04FF419
:103770008050C4F202004FF4004105F0D5F908373B
:10378000BD4680BD80B582B000AF78604FF48050F8
:10379000C4F202004FF4004105F092F903461846C6
:1037A0000837BD4680BD00BF80B584B002AF7860E9
:1037B0000023009300204FF48051C4F202014FF423
:1037C00000420023FDF73AFC012318460837BD46A6
:1037D00080BD00BF80B584B002AF78600023009345
:1037E00001204FF48051C4F202014FF40042002343
:1037F000FDF724FC002318460837BD4680BD00BFF6
:1038000080B584B002AF78600023009300204FF4AD
:103810008051C4F202014FF400420123FDF70EFC77
:10382000012318460837BD4680BD00BF80B584B06F
:1038300002AF78600023009300204FF48051C4F25F
:1038400002014FF400420223FDF7F8FB0023184663
:103850000837BD4680BD00BF80B582B000AF78603C
:103860004FF48060C4F202004FF4804105F042F949
:10387000034618460837BD4680BD00BF80B582B0FC
:1038800000AF786039603B68002B08D14FF480604E
:10389000C4F202004FF4804105F054F907E04FF400
:1038A0008060C4F202004FF4804105F03DF9083712
:1038B000BD4680BD80B582B000AF78604FF48060B7
:1038C000C4F202004FF4804105F0FAF803461846AE
:1038D0000837BD4680BD00BF80B584B002AF7860B8
:1038E0000023009300204FF48061C4F202014FF4E2
:1038F00080420023FDF7A2FB002318460837BD468F
:1039000080BD00BF80B584B002AF78600023009313
:1039100001204FF48061C4F202014FF48042002381
:10392000FDF78CFB002318460837BD4680BD00BF5D
:1039300080B584B002AF78600023009300204FF47C
:103940008061C4F202014FF480420123FDF776FB4F
:10395000002318460837BD4680BD00BF80B584B03F
:1039600002AF78600023009300204FF48061C4F21E
:1039700002014FF480420223FDF760FB002318464A
:103980000837BD4680BD00BF80B582B000AF78600B
:103990004FF48060C4F202004FF4004105F0AAF831
:1039A000034618460837BD4680BD00BF80B582B0CB
:1039B00000AF786039603B68002B08D14FF480601D
:1039C000C4F202004FF4004105F0BCF807E04FF4E8
:1039D0008060C4F202004FF4004105F0A5F80837FA
:1039E000BD4680BD80B582B000AF78604FF4806086
:1039F000C4F202004FF4004105F062F80346184695
:103A00000837BD4680BD00BF80B584B002AF786086
:103A10000023009300204FF48061C4F202014FF4B0
:103A200000420023FDF70AFB002318460837BD4675
:103A300080BD00BF80B584B002AF786000230093E2
:103A400001204FF48061C4F202014FF400420023D0
:103A5000FDF7F4FA002318460837BD4680BD00BFC5
:103A600080B584B002AF78600023009300204FF44B
:103A70008061C4F202014FF400420123FDF7DEFA37
:103A8000002318460837BD4680BD00BF80B584B00E
:103A900002AF78600023009300204FF48061C4F2ED
:103AA00002014FF400420223FDF7C8FA0023184632
:103AB0000837BD4680BD00BF80B582B000AF7860DA
:103AC0000020C4F202004FF4004105F013F8034651
:103AD00018460837BD4680BD80B582B000AF78601B
:103AE00039603B68002B07D10020C4F202004FF47C
:103AF000004105F027F806E00020C4F202004FF470
:103B0000004105F011F80837BD4680BD80B582B090
:103B100000AF78600020C4F202004FF4004104F0CE
:103B2000CFFF034618460837BD4680BD80B584B038
:103B300002AF78600023009300200021C4F202014C
:103B40004FF400420023FDF779FA002318460837A6
:103B5000BD4680BD80B483B000AF786001231846B5
:103B60000C37BD465DF8047B704700BF80B584B05C
:103B700002AF78600023009300200021C4F202010C
:103B80004FF400420123FDF759FA00231846083785
:103B9000BD4680BD80B584B002AF7860002300933D
:103BA00000200021C4F202014FF400420223FDF77D
:103BB00045FA002318460837BD4680BD80B582B05F
:103BC00000AF78604FF48060C4F202004FF40051FF
:103BD00004F090FF034618460837BD4680BD00BF7D
:103BE00080B582B000AF786039603B68002B08D1A7
:103BF0004FF48060C4F202004FF4005104F0A2FFC1
:103C000007E04FF48060C4F202004FF4005104F06A
:103C10008BFF0837BD4680BD80B582B000AF7860AD
:103C20004FF48060C4F202004FF4005104F048FFEA
:103C3000034618460837BD4680BD00BF80B584B036
:103C400002AF78600023009300204FF48061C4F23B
:103C500002014FF400520023FDF7F0F9002318464B
:103C60000837BD4680BD00BF80B483B000AF786028
:103C7000012318460C37BD465DF8047B704700BF32
:103C800080B584B002AF78600023009300204FF429
:103C90008061C4F202014FF400520123FDF7CEF916
:103CA000002318460837BD4680BD00BF80B584B0EC
:103CB00002AF78600023009300204FF48061C4F2CB
:103CC00002014FF400520223FDF7B8F90023184611
:103CD0000837BD4680BD00BF80B582B000AF7860B8
:103CE0004FF44060C4F202004FF4006104F002FFA0
:103CF000034618460837BD4680BD00BF80B582B078
:103D000000AF786039603B68002B08D14FF4406009
:103D1000C4F202004FF4006104F014FF07E04FF416
:103D20004060C4F202004FF4006104F0FDFE083769
:103D3000BD4680BD80B582B000AF78604FF4406072
:103D4000C4F202004FF4006104F0BAFE03461846C4
:103D50000837BD4680BD00BF80B584B002AF786033
:103D60000023009300204FF44061C4F202014FF49D
:103D700000620023FDF762F9002318460837BD46AC
:103D800080BD00BF80B483B000AF786001231846C7
:103D90000C37BD465DF8047B704700BF80B584B02A
:103DA00002AF78600023009300204FF44061C4F21A
:103DB00002014FF400620123FDF740F90023184689
:103DC0000837BD4680BD00BF80B584B002AF7860C3
:103DD0000023009300204FF44061C4F202014FF42D
:103DE00000620223FDF72AF9002318460837BD4672
:103DF00080BD00BF80B582B000AF78604FF44060F6
:103E0000C4F202004FF4806104F074FE03461846C9
:103E10000837BD4680BD00BF80B582B000AF786076
:103E200039603B68002B08D14FF44060C4F20200B7
:103E30004FF4806104F086FE07E04FF44060C4F266
:103E400002004FF4806104F06FFE0837BD4680BD6C
:103E500080B582B000AF78604FF44060C4F20200D9
:103E60004FF4806104F02CFE034618460837BD4627
:103E700080BD00BF80B584B002AF7860002300939E
:103E800000204FF44061C4F202014FF4806200232D
:103E9000FDF7D4F8002318460837BD4680BD00BFA3
:103EA00080B483B000AF7860012318460C37BD465C
:103EB0005DF8047B704700BF80B584B002AF7860C6
:103EC0000023009300204FF44061C4F202014FF43C
:103ED00080620123FDF7B2F8002318460837BD467B
:103EE00080BD00BF80B584B002AF7860002300932E
:103EF00000204FF44061C4F202014FF480620223BB
:103F0000FDF79CF8002318460837BD4680BD00BF6A
:103F100080B582B000AF78604FF48060C4F20200D8
:103F2000022104F0E7FD034618460837BD4680BD70
:103F300080B582B000AF786039603B68002B07D154
:103F40004FF48060C4F20200022104F0FBFD06E0A1
:103F50004FF48060C4F20200022104F0E5FD08374E
:103F6000BD4680BD80B582B000AF78604FF4806000
:103F7000C4F20200022104F0A3FD034618460837EC
:103F8000BD4680BD80B584B002AF78600023009349
:103F900000204FF48061C4F2020102220023FDF7E9
:103FA0004DF8002318460837BD4680BD80B584B063
:103FB00002AF78600023009301204FF48061C4F2C7
:103FC000020102220023FDF739F8002318460837C2
:103FD000BD4680BD80B584B002AF786000230093F9
:103FE00000204FF48061C4F2020102220123FDF798
:103FF00025F8002318460837BD4680BD80B584B03B
:1040000002AF78600023009300204FF48061C4F277
:10401000020102220223FDF711F800231846083797
:10402000BD4680BD80B582B000AF78600020C4F28C
:104030000200102104F05EFD034618460837BD4615
:1040400080BD00BF80B582B000AF786039603B684A
:10405000002B06D10020C4F20200102104F072FDF2
:1040600005E00020C4F20200102104F05DFD0837D5
:10407000BD4680BD80B582B000AF78600020C4F23C
:104080000200102104F01CFD034618460837BD4607
:1040900080BD00BF80B584B002AF7860002300937C
:1040A00000200021C4F2020110220023FCF7C6FF09
:1040B000002318460837BD4680BD00BF80B584B0D8
:1040C00002AF78600023009301200021C4F20201B6
:1040D00010220023FCF7B2FF002318460837BD4624
:1040E00080BD00BF80B584B002AF7860002300932C
:1040F00000200021C4F2020110220123FCF79EFFE0
:10410000002318460837BD4680BD00BF80B584B087
:1041100002AF78600023009300200021C4F2020166
:1041200010220223FCF78AFF002318460837BD46F9
:1041300080BD00BF80B582B000AF78604FF40060F2
:10414000C4F20200012104F0D5FC034618460837EA
:10415000BD4680BD80B582B000AF786039603B68F5
:10416000002B07D14FF40060C4F20200012104F0DB
:10417000E9FC06E04FF40060C4F20200012104F003
:10418000D3FC0837BD4680BD80B582B000AF7860F3
:104190004FF40060C4F20200012104F091FC0346D8
:1041A00018460837BD4680BD80B584B002AF786040
:1041B0000023009300204FF40061C4F202010122A9
:1041C0000023FCF73BFF002318460837BD4680BD9F
:1041D00080B584B002AF78600023009301204FF4D3
:1041E0000061C4F2020101220023FCF727FF002333
:1041F00018460837BD4680BD80B584B002AF7860F0
:104200000023009300204FF40061C4F20201012258
:104210000123FCF713FF002318460837BD4680BD75
:1042200080B584B002AF78600023009300204FF483
:104230000061C4F2020101220223FCF7FFFE002309
:1042400018460837BD4680BD80B582B000AF7860A3
:104250004FF48050C4F202004FF4805104F04AFC45
:10426000034618460837BD4680BD00BF80B582B002
:1042700000AF786039603B68002B08D14FF4805064
:10428000C4F202004FF4805104F05CFC07E04FF4EC
:104290008050C4F202004FF4805104F045FC08370E
:1042A000BD4680BD80B582B000AF78604FF48050CD
:1042B000C4F202004FF4805104F002FC0346184699
:1042C0000837BD4680BD00BF80B584B002AF7860BE
:1042D0000023009300204FF48051C4F202014FF4F8
:1042E00080520023FCF7AAFE002318460837BD467B
:1042F00080BD00BF80B584B002AF7860002300931A
:1043000001204FF48051C4F202014FF48052002387
:10431000FCF794FE002318460837BD4680BD00BF59
:1043200080B584B002AF78600023009300204FF482
:104330008051C4F202014FF480520123FCF77EFE4B
:10434000002318460837BD4680BD00BF80B584B045
:1043500002AF78600023009300204FF48051C4F234
:1043600002014FF480520223FCF768FE0023184636
:104370000837BD4680BD00BF80B582B000AF786011
:104380000020C4F20200202104F0B4FB03461846CA
:104390000837BD4680BD00BF80B582B000AF7860F1
:1043A00039603B68002B06D10020C4F202002021B6
:1043B00004F0C8FB05E00020C4F20200202104F054
:1043C000B3FB0837BD4680BD80B582B000AF7860D2
:1043D0000020C4F20200202104F072FB03461846BC
:1043E0000837BD4680BD00BF80B584B002AF78609D
:1043F0000023009300200021C4F2020120220023A8
:10440000FCF71CFE002318460837BD4680BD00BFE0
:1044100080B584B002AF78600023009301200021B2
:10442000C4F2020120220023FCF708FE00231846F4
:104430000837BD4680BD00BF80B584B002AF78604C
:104440000023009300200021C4F202012022012356
:10445000FCF7F4FD002318460837BD4680BD00BFB9
:1044600080B584B002AF7860002300930020002163
:10447000C4F2020120220223FCF7E0FD00231846CB
:104480000837BD4680BD00BF80B582B000AF786000
:104490004FF48060C4F20200042104F02BFB0346B9
:1044A00018460837BD4680BD80B582B000AF786041
:1044B00039603B68002B07D14FF48060C4F20200E2
:1044C000042104F03FFB06E04FF48060C4F20200D8
:1044D000042104F029FB0837BD4680BD80B582B0B9
:1044E00000AF78604FF48060C4F20200042104F051
:1044F000E7FA034618460837BD4680BD80B584B04C
:1045000002AF78600023009300204FF48061C4F272
:10451000020104220023FCF791FD0023184608370E
:10452000BD4680BD80B584B002AF786000230093A3
:1045300001204FF48061C4F2020104220023FCF741
:104540007DFD002318460837BD4680BD80B584B088
:1045500002AF78600023009300204FF48061C4F222
:10456000020104220123FCF769FD002318460837E5
:10457000BD4680BD80B584B002AF78600023009353
:1045800000204FF48061C4F2020104220223FCF7F0
:1045900055FD002318460837BD4680BD80B582B062
:1045A00000AF78604FF48050C4F20200802104F024
:1045B000A1FA034618460837BD4680BD80B582B0D3
:1045C00000AF786039603B68002B07D14FF4805012
:1045D000C4F20200802104F0B5FA06E04FF48050E6
:1045E000C4F20200802104F09FFA0837BD4680BD66
:1045F00080B582B000AF78604FF48050C4F2020002
:10460000802104F05DFA034618460837BD4680BD98
:1046100080B584B002AF78600023009300204FF48F
:104620008051C4F2020180220023FCF707FD002321
:1046300018460837BD4680BD80B584B002AF7860AB
:104640000023009301204FF48051C4F20201802224
:104650000023FCF7F3FC002318460837BD4680BD55
:1046600080B584B002AF78600023009300204FF43F
:104670008051C4F2020180220123FCF7DFFC0023F9
:1046800018460837BD4680BD80B584B002AF78605B
:104690000023009300204FF48051C4F202018022D5
:1046A0000223FCF7CBFC002318460837BD4680BD2B
:1046B00080B582B000AF78604FF48050C4F2020041
:1046C0004FF4806104F016FA034618460837BD46D9
:1046D00080BD00BF80B582B000AF786039603B68B4
:1046E000002B08D14FF48050C4F202004FF48061D7
:1046F00004F028FA07E04FF48050C4F202004FF4AF
:10470000806104F011FA0837BD4680BD80B582B0E3
:1047100000AF78604FF48050C4F202004FF4806123
:1047200004F0CEF9034618460837BD4680BD00BFE9
:1047300080B584B002AF78600023009300204FF46E
:104740008051C4F202014FF480620023FCF776FC32
:10475000002318460837BD4680BD00BF80B584B031
:1047600002AF78600023009301204FF48051C4F21F
:1047700002014FF480620023FCF760FC002318461E
:104780000837BD4680BD00BF80B584B002AF7860F9
:104790000023009300204FF48051C4F202014FF433
:1047A00080620123FCF74AFC002318460837BD4607
:1047B00080BD00BF80B584B002AF78600023009355
:1047C00000204FF48051C4F202014FF480620223B2
:1047D000FCF734FC002318460837BD4680BD00BFF7
:1047E00080B582B000AF78604FF48060C4F2020000
:1047F000012104F07FF9034618460837BD4680BD05
:1048000080B582B000AF786039603B68002B07D17B
:104810004FF48060C4F20200012104F093F906E035
:104820004FF48060C4F20200012104F07DF90837E2
:10483000BD4680BD80B582B000AF78604FF4806027
:10484000C4F20200012104F03BF903461846083780
:10485000BD4680BD80B584B002AF78600023009370
:1048600000204FF48061C4F2020101220023FCF712
:10487000E5FB002318460837BD4680BD80B584B0EF
:1048800002AF78600023009301204FF48061C4F2EE
:10489000020101220023FCF7D1FB00231846083750
:1048A000BD4680BD80B584B002AF78600023009320
:1048B00000204FF48061C4F2020101220123FCF7C1
:1048C000BDFB002318460837BD4680BD80B584B0C7
:1048D00002AF78600023009300204FF48061C4F29F
:1048E000020101220223FCF7A9FB00231846083726
:1048F000BD4680BD80B582B000AF78604FF4805077
:10490000C4F20200102104F0F5F8034618460837F7
:10491000BD4680BD80B582B000AF786039603B682D
:10492000002B07D14FF48050C4F20200102104F094
:1049300009F906E04FF48050C4F20200102104F09F
:10494000F3F80837BD4680BD80B582B000AF78600F
:104950004FF48050C4F20200102104F0B1F8034675
:1049600018460837BD4680BD80B584B002AF786078
:104970000023009300204FF48051C4F20201102262
:104980000023FCF75BFB002318460837BD4680BDBB
:1049900080B584B002AF78600023009301204FF40B
:1049A0008051C4F2020110220023FCF747FB0023D0
:1049B00018460837BD4680BD80B584B002AF786028
:1049C0000023009300204FF48051C4F20201102212
:1049D0000123FCF733FB002318460837BD4680BD92
:1049E00080B584B002AF78600023009300204FF4BC
:1049F0008051C4F2020110220223FCF71FFB0023A6
:104A000018460837BD4680BD80B582B000AF7860DB
:104A10004FF48050C4F20200042104F06BF8034606
:104A200018460837BD4680BD80B582B000AF7860BB
:104A300039603B68002B07D14FF48050C4F202006C
:104A4000042104F07FF806E04FF48050C4F2020025
:104A5000042104F069F80837BD4680BD80B582B0F6
:104A600000AF78604FF48050C4F20200042104F0DB
:104A700027F8034618460837BD4680BD80B584B088
:104A800002AF78600023009300204FF48051C4F2FD
:104A9000020104220023FCF7D1FA0023184608374C
:104AA000BD4680BD80B584B002AF7860002300931E
:104AB00001204FF48051C4F2020104220023FCF7CC
:104AC000BDFA002318460837BD4680BD80B584B0C6
:104AD00002AF78600023009300204FF48051C4F2AD
:104AE000020104220123FCF7A9FA00231846083723
:104AF000BD4680BD80B584B002AF786000230093CE
:104B000000204FF48051C4F2020104220223FCF77A
:104B100095FA002318460837BD4680BD80B582B09F
:104B200000AF78604FF48050C4F202004FF48071FF
:104B300003F0E0FF034618460837BD4680BD00BFBE
:104B400080B582B000AF786039603B68002B08D137
:104B50004FF48050C4F202004FF4807103F0F2FF72
:104B600007E04FF48050C4F202004FF4807103F06C
:104B7000DBFF0837BD4680BD80B582B000AF7860EE
:104B80004FF48050C4F202004FF4807103F098FF9C
:104B9000034618460837BD4680BD00BF80B584B0C7
:104BA00002AF78600023009300204FF48051C4F2DC
:104BB00002014FF480720023FCF740FA00231846EC
:104BC0000837BD4680BD00BF80B584B002AF7860B5
:104BD0000023009301204FF48051C4F202014FF4EE
:104BE00080720023FCF72AFA002318460837BD46D6
:104BF00080BD00BF80B584B002AF78600023009311
:104C000000204FF48051C4F202014FF4807201235E
:104C1000FCF714FA002318460837BD4680BD00BFD4
:104C200080B584B002AF78600023009300204FF479
:104C30008051C4F202014FF480720223FCF7FEF9A6
:104C4000002318460837BD4680BD00BF80B582B03E
:104C500000AF78604FF48050C4F20200082103F0E6
:104C600049FF034618460837BD4680BD80B582B06F
:104C700000AF786039603B68002B07D14FF480505B
:104C8000C4F20200082103F05DFF06E04FF48050FB
:104C9000C4F20200082103F047FF0837BD4680BD7B
:104CA00080B582B000AF78604FF48050C4F202004B
:104CB000082103F005FF034618460837BD4680BDAE
:104CC00080B584B002AF78600023009300204FF4D9
:104CD0008051C4F2020108220023FCF7AFF900233F
:104CE00018460837BD4680BD80B584B002AF7860F5
:104CF0000023009301204FF48051C4F202010822E6
:104D00000023FCF79BF9002318460837BD4680BDF9
:104D100080B584B002AF78600023009300204FF488
:104D20008051C4F2020108220123FCF787F9002315
:104D300018460837BD4680BD80B584B002AF7860A4
:104D40000023009300204FF48051C4F20201082296
:104D50000223FCF773F9002318460837BD4680BDCF
:104D600080B582B000AF78604FF40060C4F20200FA
:104D7000202103F0BFFE034618460837BD4680BD1C
:104D800080B582B000AF786039603B68002B07D1F6
:104D90004FF40060C4F20200202103F0D3FE06E0CD
:104DA0004FF40060C4F20200202103F0BDFE08377A
:104DB000BD4680BD80B582B000AF78604FF4006022
:104DC000C4F20200202103F07BFE03461846083798
:104DD000BD4680BD80B584B002AF786000230093EB
:104DE00000204FF40061C4F2020120220023FCF7EE
:104DF00025F9002318460837BD4680BD80B584B02C
:104E000002AF78607B680222DA6000230093012001
:104E10004FF40061C4F2020120220023FCF70EF9D6
:104E2000002318460837BD4680BD00BF80B584B05A
:104E300002AF78600023009300204FF40061C4F2B9
:104E4000020120220123FCF7F9F800231846083755
:104E5000BD4680BD80B584B002AF7860002300936A
:104E600000204FF40061C4F2020120220223FCF76B
:104E7000E5F8002318460837BD4680BD80B582B0EE
:104E800000AF78604FF40060C4F20200022103F02A
:104E900031FE034618460837BD4680BD80B582B056
:104EA00000AF786039603B68002B07D14FF4006099
:104EB000C4F20200022103F045FE06E04FF4006058
:104EC000C4F20200022103F02FFE0837BD4680BD68
:104ED00080B582B000AF78604FF40060C4F2020089
:104EE000022103F0EDFD034618460837BD4680BD9C
:104EF00080B584B002AF78600023009300204FF4A7
:104F00000061C4F2020102220023FCF797F800239B
:104F100018460837BD4680BD80B584B002AF7860C2
:104F20007B680222DA600023009301204FF40061C5
:104F3000C4F2020102220023FCF780F80023184685
:104F40000837BD4680BD00BF80B584B002AF786031
:104F50000023009300204FF40061C4F202010222FA
:104F60000123FCF76BF8002318460837BD4680BDC7
:104F700080B584B002AF78600023009300204FF426
:104F80000061C4F2020102220223FCF757F8002359
:104F900018460837BD4680BD80B582B000AF786046
:104FA0004FF40060C4F20200042103F0A3FD0346A5
:104FB00018460837BD4680BD80B582B000AF786026
:104FC00039603B68002B07D14FF40060C4F2020047
:104FD000042103F0B7FD06E04FF40060C4F20200C4
:104FE000042103F0A1FD0837BD4680BD80B582B025
:104FF00000AF78604FF40060C4F20200042103F0B7
:105000005FFD034618460837BD4680BD80B584B0B5
:1050100002AF78600023009300204FF40061C4F2D7
:10502000020104220023FCF709F800231846083780
:10503000BD4680BD80B584B002AF78607B68022237
:10504000DA600023009301204FF40061C4F20201F2
:1050500004220023FBF7F2FF002318460837BD4661
:1050600080BD00BF80B584B002AF7860002300939C
:1050700000204FF40061C4F2020104220123FBF777
:10508000DDFF002318460837BD4680BD80B584B0DB
:1050900002AF78600023009300204FF40061C4F257
:1050A000020104220223FBF7C9FF00231846083738
:1050B000BD4680BD80B582B000AF78604FF400601F
:1050C000C4F20200082103F015FD03461846083714
:1050D000BD4680BD80B582B000AF786039603B6866
:1050E000002B07D14FF40060C4F20200082103F046
:1050F00029FD06E04FF40060C4F20200082103F02D
:1051000013FD0837BD4680BD80B582B000AF786022
:105110004FF40060C4F20200082103F0D1FC034602
:1051200018460837BD4680BD80B584B002AF7860B0
:105130000023009300204FF40061C4F20201082212
:105140000023FBF77BFF002318460837BD4680BDD0
:1051500080B584B002AF78607B680222DA600023F9
:10516000009301204FF40061C4F2020108220023E1
:10517000FBF764FF002318460837BD4680BD00BF1B
:1051800080B584B002AF78600023009300204FF414
:105190000061C4F2020108220123FBF74FFF002344
:1051A00018460837BD4680BD80B584B002AF786030
:1051B0000023009300204FF40061C4F20201082292
:1051C0000223FBF73BFF002318460837BD4680BD8E
:1051D00080B582B000AF78604FF40060C4F2020086
:1051E000102103F087FC034618460837BD4680BDF2
:1051F00080B582B000AF786039603B68002B07D182
:105200004FF40060C4F20200102103F09BFC06E0A2
:105210004FF40060C4F20200102103F085FC08374F
:10522000BD4680BD80B582B000AF78604FF40060AD
:10523000C4F20200102103F043FC0346184608376D
:10524000BD4680BD80B584B002AF78600023009376
:1052500000204FF40061C4F2020110220023FBF78A
:10526000EDFE002318460837BD4680BD80B584B0EA
:1052700002AF78607B680222DA600023009301208D
:105280004FF40061C4F2020110220023FBF7D6FEA6
:10529000002318460837BD4680BD00BF80B584B0E6
:1052A00002AF78600023009300204FF40061C4F245
:1052B000020110220123FBF7C1FE00231846083724
:1052C000BD4680BD80B584B002AF786000230093F6
:1052D00000204FF40061C4F2020110220223FBF708
:1052E000ADFE002318460837BD4680BD80B582B0AC
:1052F00000AF78604FF48050C4F202004FF40061B8
:1053000003F0F8FB034618460837BD4680BD00BFD2
:1053100080B582B000AF786039603B68002B08D15F
:105320004FF48050C4F202004FF4006103F00AFC15
:1053300007E04FF48050C4F202004FF4006103F024
:10534000F3FB0837BD4680BD80B582B000AF786002
:105350004FF48050C4F202004FF4006103F0B0FB40
:10536000034618460837BD4680BD00BF80B584B0EF
:1053700002AF78600023009300204FF48051C4F204
:1053800002014FF400620023FBF758FE0023184689
:105390000837BD4680BD00BF80B584B002AF7860DD
:1053A0007B680222DA600023009301204FF48051D1
:1053B000C4F202014FF400620023FBF73FFE00231A
:1053C00018460837BD4680BD80B584B002AF78600E
:1053D0000023009300204FF48051C4F202014FF4E7
:1053E00000620123FBF72AFE002318460837BD465A
:1053F00080BD00BF80B584B002AF78600023009309
:1054000000204FF48051C4F202014FF400620223E5
:10541000FBF714FE002318460837BD4680BD00BFC9
:1054200080B582B000AF78604FF48050C4F20200C3
:10543000402103F05FFB034618460837BD4680BD98
:1054400080B582B000AF786039603B68002B07D12F
:105450004FF48050C4F20200402103F073FB06E0D9
:105460004FF48050C4F20200402103F05DFB083786
:10547000BD4680BD80B582B000AF78604FF48050EB
:10548000C4F20200402103F01BFB03461846083714
:10549000BD4680BD80B584B002AF78600023009324
:1054A00000204FF48051C4F2020140220023FBF798
:1054B000C5FD002318460837BD4680BD80B584B0C1
:1054C00002AF78607B680222DA600023009301203B
:1054D0004FF48051C4F2020140220023FBF7AEFDDD
:1054E000002318460837BD4680BD00BF80B584B094
:1054F00002AF78600023009300204FF48051C4F283
:10550000020140220123FBF799FD002318460837CA
:10551000BD4680BD80B584B002AF786000230093A3
:1055200000204FF48051C4F2020140220223FBF715
:1055300085FD002318460837BD4680BD80B582B082
:1055400000AF78604FF48050C4F20200202103F0D5
:10555000D1FA034618460837BD4680BD80B582B0F3
:1055600000AF786039603B68002B07D14FF4805062
:10557000C4F20200202103F0E5FA06E04FF4805067
:10558000C4F20200202103F0CFFA0837BD4680BDE7
:1055900080B582B000AF78604FF48050C4F2020052
:1055A000202103F08DFA034618460837BD4680BD1A
:1055B00080B584B002AF78600023009300204FF4E0
:1055C0008051C4F2020120220023FBF737FD0023A3
:1055D00018460837BD4680BD80B584B002AF7860FC
:1055E0007B680222DA600023009301204FF480518F
:1055F000C4F2020120220023FBF720FD00231846FD
:105600000837BD4680BD00BF80B584B002AF78606A
:105610000023009300204FF48051C4F202012022A5
:105620000123FBF70BFD002318460837BD4680BD5C
:1056300080B584B002AF78600023009300204FF45F
:105640008051C4F2020120220223FBF7F7FC002361
:1056500018460837BD4680BD80B582B000AF78607F
:105660004FF48050C4F202004FF4007103F042FA8C
:10567000034618460837BD4680BD00BF80B582B0DE
:1056800000AF786039603B68002B08D14FF4805040
:10569000C4F202004FF4007103F054FA07E04FF433
:1056A0008050C4F202004FF4007103F03DFA083755
:1056B000BD4680BD80B582B000AF78604FF48050A9
:1056C000C4F202004FF4007103F0FAF903461846E1
:1056D0000837BD4680BD00BF80B584B002AF78609A
:1056E0000023009300204FF48051C4F202014FF4D4
:1056F00000720023FBF7A2FC002318460837BD46C2
:1057000080BD00BF80B584B002AF78607B680222A4
:10571000DA600023009301204FF48051C4F20201AB
:105720004FF400720023FBF789FC0023184608376A
:10573000BD4680BD80B584B002AF78600023009381
:1057400000204FF48051C4F202014FF40072012393
:10575000FBF774FC002318460837BD4680BD00BF28
:1057600080B584B002AF78600023009300204FF42E
:105770008051C4F202014FF400720223FBF75EFC79
:10578000002318460837BD4680BD00BF80B582B0F3
:1057900000AF78604FF48050C4F202004FF48041B3
:1057A00003F0A8F9034618460837BD4680BD00BF80
:1057B00080B582B000AF786039603B68002B08D1BB
:1057C0004FF48050C4F202004FF4804103F0BAF964
:1057D00007E04FF48050C4F202004FF4804103F020
:1057E000A3F90837BD4680BD80B582B000AF7860B0
:1057F0004FF48050C4F202004FF4804103F060F98E
:10580000034618460837BD4680BD00BF80B584B04A
:1058100002AF78600023009300204FF48051C4F25F
:1058200002014FF480420023FBF708FC00231846D6
:105830000837BD4680BD00BF80B584B002AF786038
:105840007B680222DA600023009301204FF480512C
:10585000C4F202014FF480420023FBF7EFFB002368
:1058600018460837BD4680BD80B584B002AF786069
:105870000023009300204FF48051C4F202014FF442
:1058800080420123FBF7DAFB002318460837BD46A8
:1058900080BD00BF80B584B002AF78600023009364
:1058A00000204FF48051C4F202014FF480420223E1
:1058B000FBF7C4FB002318460837BD4680BD00BF78
:1058C00080B582B000AF78604FF48050C4F202001F
:1058D0004FF4005103F00EF9034618460837BD4651
:1058E00080BD00BF80B582B000AF786039603B6892
:1058F000002B08D14FF48050C4F202004FF4005145
:1059000003F020F907E04FF48050C4F202004FF496
:10591000005103F009F90837BD4680BD80B582B05B
:1059200000AF78604FF48050C4F202004FF4005191
:1059300003F0C6F8034618460837BD4680BD00BFD1
:1059400080B584B002AF78600023009300204FF44C
:105950008051C4F202014FF400520023FBF76EFBAA
:10596000002318460837BD4680BD00BF80B584B00F
:1059700002AF78607B680222DA6000230093012086
:105980004FF48051C4F202014FF400520023FBF7A0
:1059900055FB002318460837BD4680BD80B584B04E
:1059A00002AF78600023009300204FF48051C4F2CE
:1059B00002014FF400520123FBF740FB002318467D
:1059C0000837BD4680BD00BF80B584B002AF7860A7
:1059D0000023009300204FF48051C4F202014FF4E1
:1059E00000520223FBF72AFB002318460837BD4666
:1059F00080BD00BF80B582B000AF78607B680122B7
:105A0000DA604FF40060C4F20200202102F078FB5B
:105A1000002318460837BD4680BD00BFA0F108002E
:105A2000FFF7E8BF90B583B000AF78604FF4006037
:105A3000C4F20200202102F07FFC04467B681B6850
:105A400048331B68786898470346184608F0CEFD2F
:105A500003462046194608F0D1FE034618460C3787
:105A6000BD4690BDA0F10800FFF7DCBF80B582B055
:105A700000AF78607B680122DA604FF40060C4F206
:105A80000200022102F03CFB002318460837BD4605
:105A900080BD00BFA0F10800FFF7E8BF90B583B05C
:105AA00000AF78604FF40060C4F20200022102F0FF
:105AB00043FC04467B681B6848331B68786898473A
:105AC0000346184608F092FD03462046194608F0A2
:105AD00095FE034618460C37BD4690BDA0F1080060
