:020000040800F2
:10000000F8550120A52F0008A5850008C585000822
:10001000E585000805860008258600080000000028
:1000200000000000000000000000000045860008FD
:10003000658600080000000085860008452C000841
:1000400009300008093000080930000809300008AC
:10005000093000080930000809300008093000089C
:10006000093000080930000809300008093000088C
:10007000093000080930000809300008093000087C
:10008000093000080930000809300008093000086C
:100090001D6D00080930000809300008093000080B
:1000A000093000083118000809300008093000083C
:1000B00095180008F51800086119000809300008B3
:1000C000093000080930000809300008093000082C
:1000D0000930000809300008596700080D68000859
:1000E0000930000809300008991E0008A51A000808
:1000F000391A0008093000080930000809300008E2
:1001000009300008BD880008CD1900080930000832
:1001100009300008093000080930000809300008DB
:10012000093000080930000809300008C9880008B3
:1001300009300008093000080930000809300008BB
:10014000093000080930000809300008851E000841
:10015000093000080930000809300008093000089B
:10016000093000080930000809300008093000088B
:10017000093000080930000809300008093000087B
:10018000093000080930000808B540F2F050074B6C
:10019000C2F200001B1A062B00D808BD40F2000373
:1001A000C0F20003002BF8D09847F6E7F3050020D3
:1001B00008B540F2F05040F2F053C2F20000C2F233
:1001C00000031B1A9B1003EBD373591000D108BD19
:1001D00040F20002C0F20002002AF8D09047F6E791
:1001E00010B540F2F054C2F20004237873B9FFF75F
:1001F000CBFF40F20003C0F200032BB143F27400C6
:10020000C0F60200AFF300800123237010BD00BFD1
:1002100008B540F20003C0F200034BB143F2740092
:1002200040F2F451C0F60200C2F20001AFF30080C8
:1002300040F2EC50C2F2000003682BB140F2000320
:10024000C0F2000303B19847BDE80840B0E700BF23
:1002500080B584B000AFF8600B467A60FB72FB7A21
:10026000013B032B52D801A252F823F07D02000873
:10027000A1020008C5020008E9020008FB68DB6A69
:1002800018460DF027FF0346184679680DF07AFFEF
:10029000034618460EF062F90246FB685A6336E0E0
:1002A000FB68DB6A18460DF015FF034618467968AF
:1002B0000DF068FF034618460EF050F90246FB6841
:1002C0009A6324E0FB68DB6A18460DF003FF0346DF
:1002D000184679680DF056FF034618460EF03EF9B1
:1002E0000246FB68DA6312E0FB68DB6A18460DF031
:1002F000F1FE0346184679680DF044FF03461846A0
:100300000EF02CF90246FB681A6400E000BF1037BB
:10031000BD4680BD80B582B000AF78600B46FB70F3
:10032000FB78012B06D17B685B6B18460DF0D2FE83
:1003300003461FE0FB78022B06D17B689B6B1846B7
:100340000DF0C8FE034615E0FB78032B06D17B6851
:10035000DB6B18460DF0BEFE03460BE0FB78042B6A
:1003600006D17B681B6C18460DF0B4FE034601E015
:100370004FF0000318460837BD4680BD90B5ADB0BC
:1003800002AFF860B9603B601346FB800023C7F8FA
:10039000A4300023C7F8A0300023C7F89C30012305
:1003A000C7F898300023A7F8963008F019FC07F139
:1003B0004403184607F02EF8FB68B3F1804F06D3CC
:1003C000FA684FF4A053C4F200039A420DD9FA68B8
:1003D00041F2FF73C4F200039A4217D9FA684FF44E
:1003E0000053C4F200039A4210D8FA6C4FF46053E1
:1003F000C4F20203D3F88C301B0E03F00103013367
:1004000003FB02F35B00C7F8A4300FE03A6D4FF432
:100410006053C4F20203D3F88C301B0E03F00103C7
:10042000013303FB02F35B00C7F8A4303B68002BE9
:100430000DDDD7F8A42048F21F53C5F2EB1383FB60
:1004400002135911D317CA1A3B689A4201DA0123E1
:10045000F4E01FE0D7F8A0300133C7F8A030D7F898
:10046000A420D7F8A03092FBF3F23B6892FBF3F3A1
:10047000C7F89C30D7F89C30B3F5803F02DA0023F0
:10048000C7F89830D7F8A0204FF6FE739A4201DDE6
:100490000123D3E0D7F89830002BDBD1D7F8A42084
:1004A000D7F8A03092FBF3F2D7F89C3092FBF3F32D
:1004B0003B60F8680AF06CFCFB8800220092022086
:1004C000B9681A46002300F09BFED7F89C30013B28
:1004D000FB63D7F8A0309BB2013B9BB23B87002364
:1004E000A7F8403000237B87002387F8423007F1CC
:1004F0003803F86819460BF001FB6023BB84002326
:100500003B860123FB8404233B8508237B864FF431
:100510008073BB864FF40073FB8607F12403F868F1
:1005200019460BF0CFFBF86800210BF0BBFD07F17B
:100530002403F86819460BF03FFCF86800210BF023
:10054000CDFD07F12403F86819460BF0BDFCF868EF
:1005500000210BF0E1FD07F12403F86819460BF0C8
:1005600039FDF86800210BF0F3FDFA680023C4F2AE
:1005700001039A4206D0FA684FF48063C4F2010383
:100580009A4211D107F1140318460BF027FE4FF4DD
:1005900080433B8407F11403F86819460BF0F6FD1D
:1005A000F86801210BF038FEFA8807F15403104671
:1005B00019460AF05BFA0023A7F8963025E0B7F851
:1005C00096305B0007F1A802134433F8543C012B2A
:1005D00016D1B7F8963010335B0007F1A8010B4431
:1005E00033F8523C18460AF0E7FD03461C46F8680B
:1005F0000AF058FE0346B86821461A4608F062FA27
:10060000B7F896300133A7F89630B7F896300F2B2D
:10061000D5D9FB6800225A63FB6800229A63FB6805
:100620000022DA63FB6800221A64F86801210BF0EB
:1006300009FBF86801210BF025FB00231846AC37B5
:10064000BD4690BD80B489B000AFF860B960FA7162
:10065000BB800023FB76FB68DB78002B23D10023D3
:100660007B610023FB61BB880333DA1C002BB8BF1E
:1006700013469B107B61FB79FA6832339B0013446D
:100680009B683B610023FB6109E0BB681A683B691A
:100690001A60FB690133FB61BB680433BB60FA6914
:1006A0007B699A42F1D3FB7E18462437BD465DF83C
:1006B000047B704780B489B000AFF860B96013461E
:1006C000FB800023FB61FB880333DA1C002BB8BFDF
:1006D00013469B10BB61FB68D3F8D0307B610023CD
:1006E000FB6109E07B691A68BB681A60FB6901332A
:1006F000FB61BB680433BB60FA69BB699A42F1D302
:10070000BB6818462437BD465DF8047B704700BFC0
:1007100080B586B000AF786039600023FB74002399
:100720007B610023FB60FB6843F02003FB603B68B8
:10073000DBB203F01F03DAB2FB6862F38A13FB60DB
:100740007B68DB68FA681A617B68DB681B69FB60A1
:100750007B6901337B617A694FF45463C0F2030310
:100760009A4200D905E0FB68C3F34013DBB2012BCA
:10077000EAD0032008F01EFEFB7C18461837BD4661
:1007800080BD00BF80B483B000AF78607B68DB6859
:100790005B6903F0010318460C37BD465DF8047B26
:1007A000704700BF80B582B000AF78607868FFF70F
:1007B000E9FF0346012B0CBF00230123DBB21846DF
:1007C0000837BD4680BD00BF80B485B000AF7860FB
:1007D0000023FB607B68DB685B69FB607B68DB6830
:1007E0009B69FA681340FB60FB6818461437BD46E6
:1007F0005DF8047B704700BF80B485B000AF7860BF
:100800000023FB737B681B699B68BB603B7AC3F367
:100810004103DBB2022B09D0032B04D0012B02D001
:100820000323FB7305E00223FB7302E00123FB7348
:1008300000BFFB7B18461437BD465DF8047B70474C
:1008400080B487B000AF78600023FB750023BB60E5
:100850007B681B699B683B617B689B691B68FB60CD
:100860003B7CC3F34103DBB2022B04D0BB896FF3A3
:100870000A03BB8105E0BB89032262F30A03BB8143
:1008800000BF7B689B69FA681A607B7A43F00103BA
:100890007B727B681B697A6812695168BA68D243B7
:1008A0001140BA680A435A60FB7D18461C37BD46A2
:1008B0005DF8047B704700BF80B487B000AF7860FC
:1008C00039600023FB740023FB600023BB603B689E
:1008D0005B78012B0FD13B681B787A6804339B004F
:1008E00013449B687B613B681B78012202FA03F387
:1008F0009BB23B810EE03B681B787A6814339B0007
:1009000013445B687B613B681B78012202FA03F3A6
:100910009BB27B817B691B68FB607B7BC3F3C0134D
:10092000DBB2002B27D13B689B689BB2C3F30A0361
:100930009AB2BB8962F30A03BB813B68DB7803F0A0
:100940000303DAB2BB7B62F38303BB733B68DB88D0
:10095000DBB203F00F03DAB2FB8962F38913FB8188
:10096000FB7B43F01003FB737B7B43F080037B73C3
:10097000FA687B691A607B681B697A681269D169B9
:10098000BA680A43DA61FB7C18461C37BD465DF83D
:10099000047B704780B588B000AF78603960002371
:1009A000FB770023BB6100237B6100233B613B6835
:1009B0005B78012B40F0AB803B681B787A6804338E
:1009C0009B0013449B681B687B613B681B787A68BB
:1009D00004339B0013449B681B693B613B685B6964
:1009E000002B09D13B696FF312033B617B8A012223
:1009F00062F3CC037B8222E03B685B69C3F31202A3
:100A00003B6962F312033B613B685A693B689B6830
:100A100013445A1E3B689B68B2FBF3F39BB2C3F3CB
:100A200009039AB27B8A62F3CC037B823B68DB7852
:100A3000012B04D1FB7C012262F34613FB743B685B
:100A40001B787A6804339B0013449B683A691A61E7
:100A50007B68DB78012B0AD13B681B787A6804330A
:100A60009B0013449B683A6812695A6115E03B6821
:100A7000DB78012B11D03B685B69002B0DD03B6804
:100A80001B78012202FA03F3BB617B681B697A6859
:100A90001269516BBA690A435A633B68DB78012BD0
:100AA00014D17B681B699B68FB60FB68C3F30D2353
:100AB0009BB203F00103002B04D1FB7D43F0200324
:100AC000FB7503E0FB7D43F01003FB75FB7D43F0FA
:100AD0000403FB75FB7D43F08003FB753B681B78CB
:100AE0007A6804339B0013449B687A691A603B68F8
:100AF000DB78012B40F088803B68D9683B681A7826
:100B00003B685B699BB27868FFF79CFD7CE03B68C3
:100B10001B787A6814339B0013445B681B687B6105
:100B20003B681B787A6814339B0013445B681B692D
:100B30003B613B685B69002B0DD13B689B68C3F34D
:100B400012023B6962F312033B617B8A012262F36A
:100B5000CC037B821FE03B685A693B689B68134467
:100B60005A1E3B689B68B2FBF3F39BB2C3F30903C5
:100B70009AB27B8A62F3CC037B827B8AC3F3C9037C
:100B80009BB23A68926802FB03F3C3F312023B691B
:100B900062F312033B613B681B787A6814339B0055
:100BA00013445B683A691A617B68DB78012B09D1D1
:100BB0003B681B787A6814339B0013445B683A687F
:100BC00012695A613B68DB78012B0CD13B685B7979
:100BD000002B04D0FB7D43F02003FB7503E0FB7D7D
:100BE00043F01003FB75FB7D43F00403FB75FB7DB5
:100BF00043F08003FB753B681B787A6814339B00D5
:100C000013445B687A691A60FB7F18462037BD463B
:100C100080BD00BF80B489B000AF78603960002328
:100C2000FB770023BB6100233B610023BB603B6873
:100C30005B78012B6FD17B689B697B617B691B684B
:100C40003B617B691B69BB603B685B69002B09D119
:100C50003B7A6FF306033B72BB7A012262F3C40353
:100C6000BB7223E03B685A693B689B689A420ED985
:100C70003B689A683B685A613B689B68DBB203F04B
:100C80007F03DAB23B7A62F306033B7209E03B680A
:100C90005B69DBB203F07F03DAB23B7A62F30603EF
:100CA0003B72BB7A012262F3C403BB72BA687B69F0
:100CB0001A617B68DB78012B09D13B681B787A6865
:100CC00004339B0013449B683A6812695A61FB7CA9
:100CD00043F00403FB74FB7C43F08003FB743A692C
:100CE0007B691A607B68DB78002B75D13B685B6998
:100CF000002B71D03B681B78012202FA03F3BA691A
:100D00001343BB617B681B697A681269516BBA69CE
:100D10000A435A6360E03B681B787A6814339B008F
:100D200013445B681B683B613B681B787A6814332B
:100D30009B0013445B681B69BB603B685B69002BCD
:100D40000FD13B689B68DBB203F07F03DAB23B7ADA
:100D500062F306033B72BB7A012262F3C403BB72E7
:100D600012E03B689A683B685A613B689B68DBB25B
:100D700003F07F03DAB23B7A62F306033B72BB7A7D
:100D8000012262F3C403BB723B681B787A68143398
:100D90009B0013445B68BA681A617B68DB78012B9F
:100DA00009D13B681B787A6814339B0013445B6855
:100DB0003A6812695A61FB7C43F00403FB74FB7CC4
:100DC00043F08003FB743B681B787A6814339B0004
:100DD00013445B683A691A60FB7F18462437BD46A6
:100DE0005DF8047B704700BF80B487B000AF7860C7
:100DF00039600023FB750023FB603B685B78012BA7
:100E00001CD13B681B787A6804339B0013449B68B1
:100E10003B613B691B68FB60FB7BC3F3C013DBB228
:100E2000002B03D0FB7B43F04003FB73BB7B43F001
:100E30002003BB73FA683B691A6011E03B681B78BA
:100E40007A6814339B0013445B683B613B691B6801
:100E5000FB60BB7B43F02003BB73FA683B691A60FD
:100E6000FB7D18461C37BD465DF8047B704700BF0C
:100E700080B487B000AF786039600023FB74002332
:100E8000FB603B685B78012B08D13B681B787A6874
:100E900004339B0013449B687B6107E03B681B782D
:100EA0007A6814339B0013445B687B617B691B6821
:100EB000FB60BB7B6FF34513BB733B68DB78032B95
:100EC00003D03B68DB78022B03D1FB7B43F010039C
:100ED000FB73FA687B691A60FB7C18461C37BD46B9
:100EE0005DF8047B704700BF80B485B000AF7860C8
:100EF0007B681B699B69FB607B681B69DB69FA681F
:100F00001340FB60FB681B0C18461437BD465DF8A8
:100F1000047B704780B485B000AF78600B46FB70EF
:100F2000FB787A6814339B0013445B689B68FB6012
:100F30007B681B695B69FA681340FB60FB681846B5
:100F40001437BD465DF8047B704700BF80B485B0A0
:100F500000AF78607B681B699B69FB607B681B69DD
:100F6000DB69FA681340FB60FB689BB218461437D4
:100F7000BD465DF8047B704780B487B000AF7860F1
:100F800000233B61FB7C43F0C003FB74BB7C01226C
:100F900062F3C403BB743B7C182262F306033B7408
:100FA0007B685B6D3A691A617B68DB78012B16D12F
:100FB0000023FB607B685B6D7A6802F5B9625A6159
:100FC0007B685B6D1B68FB60FB7B43F08003FB73FE
:100FD0004FF08023FB607B685B6DFA681A601C37FA
:100FE000BD465DF8047B704780B485B000AF786083
:100FF0007B689B7A002B1BD07B681B699B68FB601E
:101000003B7BC3F30003DBB2012B11D17B6803F5FB
:1010100086731B68BB603B7A6FF341033B723B7A7C
:101020006FF300033B727B68D3F80C31BA681A6027
:101030001437BD465DF8047B704700BF80B582B0B1
:1010400000AF786039607B683A681A607B6800227C
:101050005A607B6800229A607B680022DA607B68B5
:1010600000221A617B6800225A617B6800229A6123
:101070007B680022DA617B6800221A627B680022AA
:101080005A627B68002283F82C2001F0F1FD0246B1
:101090000B467B689A627B6818460837BD4680BD60
:1010A00080B584B000AFF8600B467A60FB72FB68D5
:1010B000FA7A83F82C20FB687A685A62FB681B680E
:1010C0001B6828331B68FA68126810469847034665
:1010D00018461037BD4680BD80B582B000AF78603D
:1010E00001F0C6FD7B689B6A1A464FF00003821A26
:1010F00061EB0303052A73F10001B4BF0023012350
:10110000DBB2002B79D001F0B3FD02460B467B68C1
:101110009A627B681B681B6830331B687A681268A8
:101120001046984702467B685A607B685A687B681D
:101130009B699A4205D07B68DB695A1D7B68DA613E
:1011400002E07B680022DA617B68DA697B685B6AAF
:101150009A4215DB7B680022DA617B689B69002B71
:1011600014BF00230123DBB21A467B689A617B68B7
:101170009B69002B04D07B68DB685A1C7B68DA60B3
:101180007B689A697B689A607B6893F82C30002BA7
:101190000BD07B689B6803F00103002B14BF002376
:1011A0000123DBB21A467B689A607B689B68012B3F
:1011B0000AD17B681B6A002B06D17B6801221A6169
:1011C0007B6800225A6114E07B689B68002B0AD17F
:1011D0007B681B6A012B06D17B6800221A617B6841
:1011E00001225A6105E07B6800221A617B680022B7
:1011F0005A617B689A687B681A620837BD4680BD71
:1012000080B584B000AF39600146F971BA80BB7116
:101210003A680023C4F202039A4204D1012001215A
:1012200006F0CCF92EE03A684FF48063C4F2020372
:101230009A4204D10220012106F0C0F922E03A6866
:101240004FF40063C4F202039A4204D10420012146
:1012500006F0B4F916E03A684FF44063C4F20203B2
:101260009A4204D10820012106F0A8F90AE03A6860
:101270004FF48053C4F202039A4203D1102001219B
:1012800006F09CF907F10803184607F0B1FBBB888C
:10129000BB60FB793B733B7EBB73BB79FB73032362
:1012A0007B7307F108033868194607F013FBFB79D5
:1012B000012B04D1BB883868194607F0F5FB1037BD
:1012C000BD4680BD80B483B000AF78600B46FB7034
:1012D000FB78002B0CD04FF43053C4F201034FF4D1
:1012E0003052C4F20102D16B7A680A43DA630CE02F
:1012F0004FF43053C4F201034FF43052C4F20102F0
:10130000D16B7A68D2430A40DA630C37BD465DF888
:10131000047B704780B485B000AF78600023FB7316
:101320004FF43053C4F201035A6B7B681340002B17
:1013300002D00123FB7301E00023FB73FB7B184603
:101340001437BD465DF8047B704700BF80B483B09E
:1013500000AF78604FF43053C4F201037A689A63A7
:101360000C37BD465DF8047B704700BF80B485B084
:1013700000AFF860B9607A603B60FB68BA681A60D9
:10138000FB687A685A60FB683A689A60FB6818469E
:101390001437BD465DF8047B704700BF80B584B04C
:1013A00000AF786039600023FB607B681B681B68B6
:1013B00020331B687A681268104698470346002B52
:1013C0000CBF00230123DBB2002B02D0FB680133EA
:1013D000FB607B685B681B6820331B687A68526817
:1013E000104698470346002B0CBF00230123DBB2B5
:1013F000002B02D0FB680133FB607B689B681B6895
:101400000C331B687A689268104639684FF07E5238
:1014100098470346002B0CBF00230123DBB2002BAF
:1014200002D0FB680133FB60FB6818461037BD46ED
:1014300080BD00BF80B582B000AF78603960386889
:101440004FF00001CBF680714FF07E5200F0CEFEDF
:1014500002467B68DA600837BD4680BDB0B582B011
:1014600000AF78607B68DB6818464FF000010DF034
:1014700045F80346002B24D07B681B681B68343377
:101480001B687A681268104698477B685B681B681F
:1014900038331B687A685268104698477B689B68A7
:1014A0001B6810331C687B689D687B68DB684FF0A5
:1014B0007E5019460CF05CFD034628461946A047AD
:1014C0004BE07B68DB6818464FF000010CF0F8FF3A
:1014D0000346002B24D07B681B681B6838331B68CD
:1014E0007A681268104698477B685B681B683433DB
:1014F0001B687A685268104698477B689B681B682F
:1015000010331C687B689D687B68DB6818464FF069
:101510007E510CF02FFD034628461946A0471CE0DB
:101520007B681B681B6834331B687A681268104636
:1015300098477B685B681B6834331B687A6852681D
:10154000104698477B689B681B6810331B687A6855
:10155000926810464FF07E5198470837BD46B0BD9F
:1015600080B483B000AF786039600C37BD465DF859
:10157000047B704780B489B000AF78600B46FB7085
:101580007B68D3F83C317A681344FA7883F82C21CD
:101590007B6893F82C31AA2B03D17B680122C3F816
:1015A00040217B68D3F84031012B40F0AB807B6851
:1015B000D3F83C315A1C7B68C3F83C217B68D3F8D4
:1015C0003C310E2B40F39E807B680022C3F83C2107
:1015D0007B680022C3F840217B6893F82F311A46BC
:1015E0007B6893F830311B029BB21343FB61FB69AC
:1015F000B3F5004F05DAFB695A427B68C3F8142142
:1016000005E0FB69C3F580327B68C3F814217B6871
:1016100093F831311A467B6893F832311B029BB242
:101620001343BB61BB69B3F5004F05DABB695A428E
:101630007B68C3F8182105E0BB69C3F580327B687D
:10164000C3F818217B6893F833311A467B6893F806
:1016500034311B029BB213437B617B69B3F5004FAE
:1016600005DA7B695A427B68C3F81C2105E07B6977
:10167000C3F580327B68C3F81C217B6893F8353151
:101680001A467B6893F836319B029BB213433B6149
:101690003B69B3F5004F05DA3B695A427B68C3F8F2
:1016A000202105E03B69C3F580327B68C3F8202127
:1016B0007B6893F837311A467B6893F838319B0280
:1016C0009BB21343FB60FB68B3F5004F05DAFB6880
:1016D0005A427B68C3F8242105E0FB68C3F58032D9
:1016E0007B68C3F824217B68D3F84831002B09D0EC
:1016F0007B68D3F814217B68C3F828217B6800221B
:10170000C3F848212437BD465DF8047B704700BF0D
:1017100090B585B000AFF860B9607A6040F20C63B4
:10172000C2F20003BA6853F82240F8680CF0D6FC05
:101730000346204619460CF0D7FE0346002B0CD07A
:10174000FB68013B18460CF0C9FC014640F20C63F3
:10175000C2F20003BA6843F8221040F22C63C2F2CE
:101760000003BA6853F8222040F20C63C2F200036F
:10177000B96853F82130104619460CF003FD0346B2
:10178000194640F22C63C2F20003BA6843F82210F3
:1017900040F22C63C2F20003BA6853F822301846B4
:1017A00079680CF0E7FB0346194640F22C63C2F25D
:1017B0000003BA6843F8221040F20C63C2F200033F
:1017C000BA6853F8223018464FF07E510CF0D2FB25
:1017D0000346194640F20C63C2F20003BA6843F8AC
:1017E000221040F22C63C2F20003BA6853F82220A0
:1017F00040F20C63C2F20003B96853F8213010467E
:1018000019460CF073FD0346194640F22C63C2F2F0
:101810000003BA6843F8221040F22C63C2F20003BE
:10182000BA6853F8223018461437BD4690BD00BF41
:1018300080B500AF0023C4F201031B889BB21B09D3
:101840009BB2002B0BD040F24C63C2F200031B682A
:101850005A1E40F24C63C2F200031A6013E00023E8
:10186000C4F201031B889BB21B099BB2002B0AD157
:1018700040F24C63C2F200031B685A1C40F24C63F6
:10188000C2F200031A600020C4F2010001210AF034
:101890000DFD80BD80B500AF4FF080431B889BB22B
:1018A0001B099BB2002B0BD040F25063C2F2000325
:1018B0001B685A1E40F25063C2F200031A6012E025
:1018C0004FF080431B889BB21B099BB2002B0AD1AF
:1018D00040F25063C2F200031B685A1C40F250638E
:1018E000C2F200031A604FF0804001210AF0DEFCD2
:1018F00080BD00BF80B500AF4FF48063C4F2000329
:101900001B889BB21B099BB2002B0BD040F2546387
:10191000C2F200031B685A1E40F25463C2F2000375
:101920001A6014E04FF48063C4F200031B889BB27A
:101930001B099BB2002B0AD140F25463C2F2000390
:101940001B685A1C40F25463C2F200031A604FF441
:101950008060C4F2000001210AF0A8FC80BD00BF35
:1019600080B500AF4FF40063C4F200031B889BB244
:101970001B099BB2002B0BD040F25863C2F200034C
:101980001B685A1E40F25863C2F200031A6014E04A
:101990004FF40063C4F200031B889BB21B099BB287
:1019A000002B0AD140F25863C2F200031B685A1C94
:1019B00040F25863C2F200031A604FF40060C4F2B0
:1019C000000001210AF072FC80BD00BF80B500AFAD
:1019D0004FF44063C4F200031B889BB21B099BB207
:1019E000002B0BD040F25C63C2F200031B685A1E4E
:1019F00040F25C63C2F200031A6014E04FF44063EB
:101A0000C4F200031B889BB21B099BB2002B0AD1B6
:101A100040F25C63C2F200031B685A1C40F25C6334
:101A2000C2F200031A604FF44060C4F200000121CA
:101A30000AF03CFC80BD00BF80B500AF4FF480636E
:101A4000C4F201031B889BB21B099BB2002B0BD075
:101A500040F26063C2F200031B685A1E40F26063EA
:101A6000C2F200031A6014E04FF48063C4F2010371
:101A70001B889BB21B099BB2002B0AD140F260630A
:101A8000C2F200031B685A1C40F26063C2F20003FA
:101A90001A604FF48060C4F2010001210AF006FCD4
:101AA00080BD00BF80B500AF4FF4C053C4F2000347
:101AB0001B889BB21B099BB2002B0BD040F26463C6
:101AC000C2F200031B685A1E40F26463C2F20003B4
:101AD0001A6014E04FF4C053C4F200031B889BB299
:101AE0001B099BB2002B0AD140F26463C2F20003CF
:101AF0001B685A1C40F26463C2F200031A604FF480
:101B0000C050C4F2000001210AF0D0FB80BD00BF2C
:101B100080B500AF0020C4F201000AF087F8024649
:101B200040F24C63C2F200031B681B0413441846C6
:101B300080BD00BF80B500AF4FF080400AF076F85E
:101B4000024640F25063C2F200031B681B041344B8
:101B5000184680BD80B500AF4FF48060C4F200002D
:101B60000AF064F8024640F25463C2F200031B68B4
:101B70001B041344184680BD80B500AF4FF40060CD
:101B8000C4F200000AF052F8024640F25863C2F272
:101B900000031B681B041344184680BD80B500AFCA
:101BA0004FF44060C4F200000AF040F8024640F2F0
:101BB0005C63C2F200031B681B041344184680BD1B
:101BC00080B500AF4FF48060C4F201000AF02EF837
:101BD000024640F26063C2F200031B681B04134418
:101BE000184680BD80B500AF4FF4C050C4F200006D
:101BF0000AF01CF8024640F26463C2F200031B685C
:101C00001B041344184680BD90B59DB002AFF86028
:101C1000B9601346FB800023A7F866300023A7F8BD
:101C20006430F86809F0B4F8FB88002200920220C2
:101C3000B9681A460123FFF7E3FAFA8807F120038F
:101C40001046194608F012FF0023A7F8663025E079
:101C5000B7F866305B0007F168010B4433F8483C85
:101C6000012B16D1B7F8663010335B0007F168021C
:101C7000134433F8463C184609F09EFA03461C46C6
:101C8000F86809F00FFB0346B86821461A4606F0CB
:101C900019FFB7F866300133A7F86630B7F8663039
:101CA0000F2BD5D940F24003C2F200031A684DF65B
:101CB0002913C6F24263A3FB02135B0E9BB2013BE6
:101CC000A7F864304FF6FE73BB610023BB8200238C
:101CD000BB830023FB8207F11403F868194609F05F
:101CE0000DFFB7F86430F8681946012209F07CFF4F
:101CF000F8680321002200230AF0E8FAF8680121BD
:101D000001220AF0AFFAF868012109F0BBFFF86878
:101D100008F0F0FF0346184609F038FA00F056F8CC
:101D20006C37BD4690BD00BF80B582B000AF786013
:101D30007A680023C4F201039A4203D1FFF7E8FE58
:101D400003463FE07B68B3F1804F03D1FFF7F2FE1B
:101D5000034637E07A684FF48063C4F200039A4286
:101D600003D1FFF7F7FE03462CE07A684FF40063D7
:101D7000C4F200039A4203D1FFF7FEFE034621E0BE
:101D80007A684FF44063C4F200039A4203D1FFF72C
:101D900005FF034616E07A684FF48063C4F201033E
:101DA0009A4203D1FFF70CFF03460BE07A684FF429
:101DB000C053C4F200039A4203D1FFF713FF034656
:101DC00000E0002318460837BD4680BD80B500AF4F
:101DD00040F24C63C2F2000300221A6040F25063EA
:101DE000C2F2000300221A6040F25463C2F2000300
:101DF00000221A6040F25863C2F2000300221A6007
:101E000040F25C63C2F2000300221A6040F2606399
:101E1000C2F2000300221A6040F26463C2F20003BF
:101E200000221A600020C4F20100002109F0F0FE37
:101E30004FF08040002109F0EBFE4FF48060C4F2C7
:101E40000000002109F0E4FE4FF40060C4F200003D
:101E5000002109F0DDFE4FF44060C4F200000021D3
:101E600009F0D6FE4FF48060C4F20100002109F0B1
:101E7000CFFE4FF4C050C4F20000002109F0C8FEAC
:101E800080BD00BF80B500AF41F20400C2F2000087
:101E900007F026FF80BD00BF80B500AF41F204030C
:101EA000C2F200039B7A002B13D04EF61053CEF2F1
:101EB00000034EF61052CEF20002126822F0060223
:101EC0001A6006F045FE41F20400C2F20000FFF77E
:101ED0008BF84FF4802008F0B9FD80BD80B58AB042
:101EE00000AF7860396000237B6200233B620023EF
:101EF000FB610023BB617B681B8A9BB27B627B6AB0
:101F000023F440537B623B68DB887A6A13437B622D
:101F10007B6A9AB27B681A827B689B899BB27B62E0
:101F20007B6A23F4B05323F00C037B623B689A88EE
:101F30003B681B8913439AB23B685B8913439BB28E
:101F40007A6A13437B627B6A9AB27B689A817B6868
:101F50009B8A9BB27B627B6A23F440737B623B6803
:101F60009B897A6A13437B627B6A9AB27B689A8206
:101F700007F10803184605F04DFA7A684FF48053CC
:101F8000C4F201039A4206D07A684FF4A053C4F217
:101F900001039A4202D17B693B6201E03B693B62EB
:101FA0007B689B899BB29BB21BB2002B0CDA3A6A0E
:101FB00013469B0013449A001A443B681B685B005D
:101FC000B2FBF3F3FB610BE03A6A13469B00134448
:101FD0009A001A443B681B689B00B2FBF3F3FB6159
:101FE000FA6948F21F53C5F2EB13A3FB02135B0916
:101FF0001B017B627B6A1B09642202FB03F3FA6903
:10200000D31ABB617B689B899BB29BB21BB2002B2E
:1020100010DABB69DB0003F1320248F21F53C5F24C
:10202000EB13A3FB02135B0903F007037A6A134364
:102030007B620FE0BB691B0103F1320248F21F53C0
:10204000C5F2EB13A3FB02135B0903F00F037A6ADB
:1020500013437B627B6A9AB27B681A812837BD463C
:1020600080BD00BF80B483B000AF78600B46FB70CA
:10207000FB78002B08D07B689B899BB243F400530C
:102080009AB27B689A8107E07B689B899BB223F4B4
:1020900000539AB27B689A810C37BD465DF8047B89
:1020A000704700BF80B483B000AF78600B467B8080
:1020B0007B88C3F308039AB27B689A800C37BD46CD
:1020C0005DF8047B704700BF80B483B000AF7860D8
:1020D0007B689B889BB2C3F308039BB218460C37FE
:1020E000BD465DF8047B704780B487B000AF786070
:1020F00013460A467A807B7000233B610023FB6015
:102100000023BB6000237B617B687B617B88DBB243
:102110005B09DBB23B617B8803F01F03FB60FB685C
:10212000012202FA03F3BB603B69012B03D17B69F7
:102130000C337B6109E03B69022B03D17B691033CF
:102140007B6102E07B6914337B617B78002B06D0D6
:102150007B697A691168BA680A431A6006E07B698C
:102160007A691168BA68D2430A401A601C37BD46C2
:102170005DF8047B704700BF80B485B000AF786025
:102180000B467B800023FB737B681B889AB27B889D
:1021900013409BB2002B02D00123FB7301E000230C
:1021A000FB73FB7B18461437BD465DF8047B704714
:1021B00080B584B000AFF860B9607A60F868B9683B
:1021C0000CF092F90346002B01D0FB6809E0786817
:1021D000B9680CF07FF90346002B01D07B6800E062
:1021E000BB6818461037BD4680BD00BF80B584B0BF
:1021F00000AFF860B9607A60F868B9680CF060F90F
:102200000346002B01D0BB6809E07868F9680CF040
:1022100057F90346002B01D07B6800E0FB681846A5
:102220001037BD4680BD00BF80B582B000AF78607A
:102230007A684FF4C843C4F200039A420AD14FF0BF
:102240000070012105F032FA4FF00070002105F016
:102250002DFA09E04FF08060012105F027FA4FF0D8
:102260008060002105F022FA0837BD4680BD00BF1E
:1022700080B485B000AF786039600023FB73002321
:10228000BB607B681B6823F002027B681A607B6876
:102290001B6843F001027B681A6002E0BB680133EF
:1022A000BB607B685B6803F00103002B04D1BA6854
:1022B0004FF6FF739A42F1D17B685B6803F001032C
:1022C000002B02D10023FB739CE03B689B79012B20
:1022D00006D17B681B6843F080027B681A6005E0CA
:1022E0007B681B6823F080027B681A603B68DB799F
:1022F000012B06D17B681B6843F040027B681A60A3
:1023000005E07B681B6823F040027B681A603B682D
:102310001B7A012B06D17B681B6843F020027B6887
:102320001A6005E07B681B6823F020027B681A6056
:102330003B685B7A012B06D17B681B6843F0100277
:102340007B681A6005E07B681B6823F010027B68DD
:102350001A603B689B7A012B06D17B681B6843F0AF
:1023600008027B681A6005E07B681B6823F008029E
:102370007B681A603B68DB7A012B06D17B681B689F
:1023800043F004027B681A6005E07B681B6823F059
:1023900004027B681A603B689B789A073B68DB788D
:1023A0001B061A433B681B791B041A433B685B7985
:1023B0001B051A433B681B88013B1A437B68DA61A3
:1023C0007B681B6823F001027B681A600023BB60F6
:1023D00002E0BB680133BB607B685B6803F001030C
:1023E000002B04D0BA684FF6FF739A42F1D17B6894
:1023F0005B6803F00103002B02D00023FB7301E0B4
:102400000123FB73FB7B18461437BD465DF8047B44
:10241000704700BF80B485B000AF78600023FB60D8
:102420007B689B7A012202FA03F3FB604FF4C843F6
:10243000C4F200034FF4C842C4F20002D2F80022F2
:1024400042F00102C3F800224FF4C843C4F2000373
:102450004FF4C842C4F20002D2F81C12FA68D24308
:102460000A40C3F81C227B681B7B002B2DD14FF444
:10247000C843C4F200034FF4C842C4F20002D2F8C9
:102480000C12FA68D2430A40C3F80C224FF4C84336
:10249000C4F200037A68927A7968C9880804796876
:1024A00049880143483243F832104FF4C842C4F21D
:1024B00000027B689B7A79688988080479680988B2
:1024C00001434833DB00134459607B681B7B012BBD
:1024D0002CD14FF4C843C4F200034FF4C842C4F2F5
:1024E0000002D2F80C12FA680A43C3F80C224FF427
:1024F000C843C4F200037A68927A796809880804AC
:10250000796849880143483243F832104FF4C84291
:10251000C4F200027B689B7A79688988080479682C
:10252000C98801434833DB00134459607B68DB7A78
:10253000002B0FD14FF4C843C4F200034FF4C8423C
:10254000C4F20002D2F80412FA68D2430A40C3F877
:1025500004220DE04FF4C843C4F200034FF4C84214
:10256000C4F20002D2F80412FA680A43C3F8042243
:102570007B681B89002B0ED14FF4C843C4F20003C3
:102580004FF4C842C4F20002D2F81412FA68D243DF
:102590000A40C3F814227B681B89012B0DD14FF42C
:1025A000C843C4F200034FF4C842C4F20002D2F898
:1025B0001412FA680A43C3F814227B685B7B012B70
:1025C0000DD14FF4C843C4F200034FF4C842C4F223
:1025D0000002D2F81C12FA680A43C3F81C224FF416
:1025E000C843C4F200034FF4C842C4F20002D2F858
:1025F000002222F00102C3F800221437BD465DF824
:10260000047B704780B483B000AF78607B680022A1
:102610009A717B680022DA717B6800221A727B68EB
:1026200000225A727B6800229A727B680022DA725A
:102630007B6800229A707B680022DA707B68032234
:102640001A717B6802225A717B6801221A800C374A
:10265000BD465DF8047B704780B485B000AF7860FC
:1026600039600023FB737B689B6803F08063002B59
:1026700002D00023FB7313E07B689B6803F00063C8
:10268000002B02D00123FB730AE07B689B6803F0F8
:102690008053002B02D00223FB7301E00423FB7361
:1026A000FB7B042B00F09880FB7BFA7B7968183267
:1026B00012010A44126802F00102796818331B0102
:1026C0000B441A603B681B7A002B13D1FB7BFA7B0F
:1026D0007968183212010A4411683A681268500584
:1026E0003A68527A02430A43796818331B010B4453
:1026F0001A6015E0FB7BFA7B7968183212010A44F4
:1027000011683A685268D0003A68127A10433A6801
:10271000527A02430A43796818331B010B441A604A
:102720003B689B7A03F00F03DAB23B689A72FB7B3B
:10273000FA7B7968183212010A44526822F00F02BB
:10274000796818331B010B445A60FB7BFA7B79686C
:10275000183212010A4451683A68927A0A43796839
:1027600018331B010B445A60FB7B3A68927B1106BD
:102770003A68527B120411433A68127B12021143E9
:102780003A68D27A0A4379681B010B4403F5C47393
:102790001A60FB7B3A68927C11063A68527C1204FC
:1027A00011433A68127C120211433A68D27B0A4301
:1027B00079681B010B4403F5C4735A60FB7BFA7BF9
:1027C0007968183212010A44126842F001027968ED
:1027D00018331B010B441A60FB7B18461437BD46A7
:1027E0005DF8047B704700BF80B485B000AF7860AF
:1027F0000B46FB700023FB60FB78012B0BD0022BF8
:1028000012D0002B18D17B689A680323C0F20043D2
:102810001340FB6013E07B689A684FF44073C0F686
:1028200000031340FB600AE07B689A680023C1F252
:1028300003031340FB6002E00023FB6000BFFB6862
:102840004FF48072C0F60002934229D04FF4807298
:10285000C0F6000293420CD80122C0F2004293421B
:102860001BD00322C0F2004293421FD0002B11D094
:1028700025E00022C1F20102934214D00022C1F2ED
:102880000302934218D04FF44072C0F60002934204
:102890000FD014E00223FB6014E00023FB6011E082
:1028A0000023FB600EE00023FB600BE00123FB60D4
:1028B00008E00123FB6005E00123FB6002E0002348
:1028C000FB6000BFFB68DBB218461437BD465DF8FD
:1028D000047B704780B485B000AFF8600B467A6027
:1028E000FB72FB7AFA681B331B0113441B68DBB2D3
:1028F00003F00403DAB27B681A727B681B7A002B40
:1029000009D1FB7AFA681B331B0113441B685A0D6B
:102910007B681A6008E0FB7AFA681B331B011344DA
:102920001B68DA087B685A60FB7AFA681B331B0164
:1029300013441B68DBB203F00203DAB27B685A72FD
:10294000FB7AFA681B331B0113445B68DBB203F0AC
:102950000F03DAB27B689A72FB7AFA681B331B01A9
:1029600013445B681B0ADAB27B68DA74FB7AFA6894
:102970001B01134403F5DC731B68DAB27B68DA725F
:10298000FB7AFA681B01134403F5DC731B681B0A0E
:10299000DAB27B681A73FB7AFA681B01134403F5F9
:1029A000DC731B681B0CDAB27B685A73FB7AFA681B
:1029B0001B01134403F5DC731B681B0EDAB27B6842
:1029C0009A73FB7AFA681B01134403F5DC735B68A6
:1029D000DAB27B68DA73FB7AFA681B01134403F5F9
:1029E000DC735B681B0ADAB27B681A74FB7AFA68DC
:1029F0001B01134403F5DC735B681B0CDAB27B68C4
:102A00005A74FB7AFA681B01134403F5DC735B68A4
:102A10001B0EDAB27B689A74FB7A002B06D1FB6836
:102A2000DB6843F02002FB68DA6005E0FB681B69A5
:102A300043F02002FB681A611437BD465DF8047B41
:102A4000704700BF80B485B000AFF860B96013462E
:102A5000FB71FB79002B06D0FB685A69BB681A43EF
:102A6000FB685A6106E0FB685A69BB68DB431A40A1
:102A7000FB685A611437BD465DF8047B704700BFA0
:102A800080B584B000AF786039600023FB737B6849
:102A90005A693B681340002B00F0B5803B68402B1F
:102AA00065D0402B0FD8042B3DD0042B04D8012B2C
:102AB00024D0022B2ED0A2E0102B46D0202B4DD0BC
:102AC000082B39D09BE0B3F5006F00F08680B3F59A
:102AD000006F09D8B3F5007F6DD0B3F5806F73D068
:102AE000B3F5807F5ED08AE0B3F5803F48D0B3F580
:102AF000003F4ED0B3F5004F78D080E07B689B68F4
:102B0000184640F20111C0F2010100F083F80346BB
:102B1000FB7377E07B68DB681846032100F07AF8E6
:102B20000346FB736EE07B68DB681846082100F003
:102B300071F80346FB7365E07B68DB68184610217B
:102B400000F068F80346FB735CE07B681B6918467D
:102B5000032100F05FF80346FB7353E07B681B69B9
:102B60001846082100F056F80346FB734AE07B68DC
:102B70001B691846102100F04DF80346FB7341E035
:102B80007B685B681846082100F044F80346FB7335
:102B900038E07B685B681846102100F03BF803467C
:102BA000FB732FE07B689B691846012100F032F827
:102BB0000346FB7326E07B689B691846022100F000
:102BC00029F80346FB731DE07B689B6918460421C6
:102BD00000F020F80346FB7314E07B689B691846FD
:102BE000702100F017F80346FB730BE07B685B680D
:102BF0001846042100F00EF80346FB7302E00023A0
:102C0000FB7300BF01E00023FB73FB7B184610370A
:102C1000BD4680BD80B485B000AF786039600023C8
:102C2000FB737A683B681340002B02D00123FB73CF
:102C300001E00023FB73FB7B18461437BD465DF8AB
:102C4000047B704780B400AF40F26863C2F20003B7
:102C5000D3E90023501C43F1000140F26863C2F243
:102C60000003C3E90001BD465DF8047B704700BF67
:102C700080B500AF00F010F802460B46104619462A
:102C80004FF47A724FF000030BF088FC02460B46BB
:102C90001046194680BD00BF80B400AF40F26863A3
:102CA000C2F20003D3E900230A2101FB03F0002153
:102CB00001FB02F101440A20A2FB002319440B4648
:102CC00010461946BD465DF8047B704780B500AFDD
:102CD0004CF2AC50C3F2277005F03AFD80BD00BF46
:102CE00080B584B000AFC7E900010023FB60FFF7A7
:102CF000BFFF02460B461346FB6000BFFFF7B8FF5D
:102D0000FB681A464FEAE273821A61EB0303D7E9C4
:102D10000001904271EB030CF0DA1037BD4680BD24
:102D200080B58AB002AFF8607A600A46FA723B81D9
:102D300007F114031846FFF765FCFB68012B0BD164
:102D40004FF4C840C4F20000FFF76EFA4FF0007075
:102D5000012104F05BFC0DE0FB68022B0AD14FF46B
:102D6000D040C4F20000FFF75FFA4FF0806001210D
:102D700004F04CFC3B8900220092022079681A463C
:102D80000123FEF73DFABB8D002200920220B96AB2
:102D90001A460123FEF734FAFB68012B14D13B8954
:102DA000184608F009FA034678681946092205F022
:102DB00089FEBB8D184608F0FFF90346B86A19462C
:102DC000092205F07FFE16E0FB68022B13D13B8938
:102DD000184608F0F1F9034678681946092205F00B
:102DE00071FEBB8D184608F0E7F90346B86A19462C
:102DF000092205F067FE0123BB760023FB76002342
:102E00003B7700237B770023BB770023FB77FB7A9C
:102E1000BB750023FB7505233B7606237B760323D6
:102E2000BB82FB68012B09D107F114034FF4C840A2
:102E3000C4F200001946FFF71BFA0BE0FB68022BF7
:102E400008D107F114034FF4D040C4F20000194632
:102E5000FFF70EFA4FF4E06008F086FAFB68012BEA
:102E60000BD1142008F092F94FF4C840C4F20000CE
:102E700002210122FFF7E6FD0DE0FB68022B0AD1DB
:102E8000402008F083F94FF4D040C4F20000022142
:102E90000122FFF7D7FD2037BD4680BD80B586B043
:102EA00000AF7860F9703A80BB700023FB8200238A
:102EB000FB820EE0FB8ADBB2BB7400233B82002363
:102EC0007B7507F108031846FFF7A4FAFB8A013364
:102ED000FB82B7F916300D2BECDD7B68DBB2BB74DF
:102EE00000233B8201237B75FB78002B02D100235A
:102EF000FB7404E0FB78012B01D10123FB74002358
:102F00003B75B7F900305B019AB2BB781B019BB2ED
:102F100013439BB29BB27B81B7F920305B019AB21D
:102F200097F824301B019BB213439BB29BB2FB81E9
:102F3000B7F928305B019AB297F82C301B019BB28D
:102F400013439BB29BB23B81B7F930305B019AB21D
:102F500097F834301B019BB213439BB29BB2BB81E9
:102F600007F108031846FFF755FA1837BD4680BD2C
:102F700080B582B000AF78604FF4C840C4F2000062
:102F80007968FFF769FB00BF4FF4C840C4F2000046
:102F90000021FFF729FC0346012BF5D10837BD4678
:102FA00080BD00BF80B582B000AF43F6CC63C0F6F1
:102FB00002037B6040F20003C2F200033B6007E0C3
:102FC0003B681A1D3A607A68111D796012681A60B0
:102FD0003A6840F2F053C2F200039A42F0D3084834
:102FE00008494FF000028842B8BF40F8042BFADBD2
:102FF00004F0ACFB04F020F90837BD4680BD0000AA
:10300000F0050020F815002080B400AFFEE700BFF7
:1030100080B584B000AF786007F10803786819467E
:1030200006F0F4FD3B7A03F01F03012B0AD0022BBC
:103030000FD0002B14D107F108037868194606F069
:10304000DFF916E007F108037868194606F028FA58
:103050000FE007F108037868194606F055FA08E012
:103060003B7A23F07F03DBB27868194608F0C0FA98
:1030700000BF002318461037BD4680BD80B584B020
:1030800000AF78600B46FB70FB78002B45D17B6866
:1030900003F55C73FB607B6893F81131032B4FD110
:1030A000FB68DA69FB689B689A4221D9FB68DA6998
:1030B000FB689B68D21AFB68DA617B68DB78012BBE
:1030C00006D1FB68DA68FB689B681A44FB68DA6023
:1030D000FB68DA68FB689968FB68DB69994238BF6E
:1030E0000B469BB2786811461A4608F053FC27E05D
:1030F0007B68D3F8E0351B69002B0AD07B6893F816
:103100001231032B05D17B68D3F8E0351B69786851
:103110009847786808F052FC12E07B68D3F8E035F5
:103120009B69002B0CD07B6893F81231032B07D1DD
:103130007B68D3F8E0359B69FA7878681146984740
:10314000002318461037BD4680BD00BF80B584B04F
:1031500000AF78600B46FB70FB78002B60D17B687A
:1031600003F58C73FB607B6893F81131022B6AD1F5
:10317000FB68DA69FB689B689A421CD9FB68DA69CC
:10318000FB689B68D21AFB68DA617B68DB78012BED
:1031900006D1FB68DA68FB689B681A44FB68DA6052
:1031A000FB68DA68FB68DB699BB2786811461A46EF
:1031B00008F0DCFB47E0FB681B6AFA689268B3FB27
:1031C000F2F102FB01F29B1A002B14D1FB681A6A80
:1031D000FB689B689A420ED3FB681A6AFB685B6ABD
:1031E0009A4208D278680021002208F0BFFBFB68F1
:1031F00000225A6227E07B68D3F8E035DB68002BB9
:103200000AD07B6893F81231032B05D17B68D3F881
:10321000E035DB6878689847786808F0E7FB12E0EB
:103220007B68D3F8E0355B69002B0CD07B6893F8A2
:103230001231032B07D17B68D3F8E0355B69FA784C
:10324000786811469847002318461037BD4680BD60
:1032500080B582B000AF78607868002140220023FA
:1032600008F0FCF8786880214022002308F0F6F886
:103270007B68012283F812217B68D3F8E4355B6810
:103280007A68927810469847002318460837BD465A
:1032900080BD00BF80B582B000AF78607B68D3F896
:1032A000E4351B6998477B68032283F812210023C9
:1032B00018460837BD4680BD80B582B000AF786043
:1032C0007B68042283F812217B68D3F8E435DB683D
:1032D0009847002318460837BD4680BD80B582B0A8
:1032E00000AF78607B68D3F8E035DB69002B05D050
:1032F0007B68D3F8E035DB69786898470023184687
:103300000837BD4680BD00BF80B582B000AF786091
:103310000B46FB707B68D3F8E0351B68FA78786859
:10332000114698477B68D3F8E4359B68984700239B
:1033300018460837BD4680BD80B582B000AF7860C2
:103340000B46FB707B68D3F8E0355B68FA787868E9
:1033500011469847002318460837BD4680BD00BF78
:1033600080B582B000AF78607B68D3F8E0351B6A27
:1033700078689847002318460837BD4680BD00BFCF
:1033800080B582B000AF78607B68D3F8E0355B6AC7
:1033900078689847002318460837BD4680BD00BFAF
:1033A00080B582B000AF78607B68064A1A607B689F
:1033B0000433184603F0B8FC7B6818460837BD464E
:1033C00080BD00BF600A020880B582B000AF78609F
:1033D00039607B681846FFF7E3FF7B68074A1A608D
:1033E0007B683A68C3F818217B680022C3F814216F
:1033F0007B6818460837BD4680BD00BF40080208FC
:1034000080B582B000AF78600B46FB707B681A1DF8
:10341000FB781046194603F09BFC0346002B14BFB3
:1034200000230123DBB2002B0AD0FB780D2B13D134
:103430007B68D3F814315A1C7B68C3F814210BE065
:103440007B68D3F81431002B06D1FB780D2B03D108
:103450007B680122C3F814210837BD4680BD00BF38
:1034600080B582B000AF78607B680433184603F003
:10347000A1FC0346002B14BF00230123DBB2184636
:103480000837BD4680BD00BF80B483B000AF786010
:103490007B68D3F8143118460C37BD465DF8047BC1
:1034A000704700BF80B582B000AF78607B6804339E
:1034B000184603F095FC034618460837BD4680BD04
:1034C00090B585B000AF786039607B6804331846EA
:1034D00003F070FC0346002B0CBF00230123DBB27A
:1034E000002B08D03B6800221A707B680022C3F8CA
:1034F0001421002354E00023FB604DE0FB683A6890
:10350000D4187B680433184603F06AFC0346237022
:10351000FB683A6813441B780D2B02D0FB68FE2B26
:103520001FDDFB683A68134400221A707B6804337D
:10353000184603F03FFC0346002B0CBF0023012379
:10354000DBB2002B04D07B680022C3F8142106E014
:103550007B68D3F814315A1E7B68C3F81421FB68CA
:103560001EE07B680433184603F024FC0346002B5E
:103570000CBF00230123DBB2002B0AD0FB683A68A2
:10358000134400221A707B680022C3F81421FB68E0
:1035900006E0FB680133FB60FB68FF2BAEDD002318
:1035A00018461437BD4690BD80B582B000AF786034
:1035B0007B689B68012B06D17B685B681846FFF728
:1035C00063FF034600E0002318460837BD4680BD70
:1035D00080B582B000AF786039603B6800221A7015
:1035E0007B689B68012B07D17B685B68184639684C
:1035F000FFF766FF034600E0002318460837BD4684
:1036000080BD00BF80B582B000AF78607B689B68EA
:10361000012B06D17B685B681846FFF721FF034644
:1036200000E0002318460837BD4680BD80B582B053
:1036300000AF78607B689B68012B06D17B685B6874
:103640001846FFF72FFF034600E00023184608370F
:10365000BD4680BD80B584B000AF7860396000237E
:10366000FB600DE07B681B6804331B68FA683968EF
:103670000A441278786811469847FB680133FB606A
:10368000FB683A6813441B78002BEBD11037BD461A
:1036900080BD00BF90B587B002AFF860B9607A60B6
:1036A0003B60FB6802229A60FB681B681C683B68F1
:1036B0000093F868B9687A683B6AA04703461846E1
:1036C0001437BD4690BD00BF90B587B002AFF8601B
:1036D000B9607A603B60FB6801229A604FF48E709B
:1036E00014F0FCFD04462046F968FFF76DFEFB6808
:1036F0005C60FB681B681C68FB685B687A6800920A
:10370000F868B9681A463B68A0470346184614375C
:10371000BD4690BD80B582B000AF78607B681B6805
:103720001B6878689847034618460837BD4680BD31
:1037300080B582B000AF78607B681B6804331B687B
:1037400078689847034618460837BD4680BD00BFD5
:1037500080B584B000AFF860B9607A60FB681B6820
:103760001B68F868B9687A689847034618461037A6
:10377000BD4680BD80B582B000AF786039607B689F
:103780001B6804331B687868396898470837BD465A
:1037900080BD00BF80B582B000AF78607B681B68D9
:1037A00008331B6878689847034618460837BD46B3
:1037B00080BD00BF80B483B000AF786040F6FF7377
:1037C00018460C37BD465DF8047B7047A0F1080031
:1037D000F0E700BF80B483B000AF786043F23333CA
:1037E000C4F2530318460C37BD465DF8047B70479E
:1037F000A0F10800EEE700BF80B483B000AF7860AE
:1038000040F6FF7318460C37BD465DF8047B7047E1
:10381000A0F10800F0E700BF80B483B000AF78608B
:1038200043F23333C4F2530318460C37BD465DF8F8
:10383000047B7047A0F10800EEE700BF80B483B0BE
:1038400000AF786040F6FF7318460C37BD465DF850
:10385000047B7047A0F10800F0E700BF80B483B09C
:1038600000AF786043F23333C4F2530318460C3789
:10387000BD465DF8047B7047A0F10800EEE700BF8D
:1038800080B483B000AF786040F6FF7318460C3701
:10389000BD465DF8047B7047A0F10800F0E700BF6B
:1038A00080B483B000AF786043F23333C4F2530383
:1038B00018460C37BD465DF8047B7047A0F1080040
:1038C000EEE700BF80B483B000AF786040F6FF73CE
:1038D00018460C37BD465DF8047B7047A0F1080020
:1038E000F0E700BF80B483B000AF786043F23333B9
:1038F000C4F2530318460C37BD465DF8047B70478D
:10390000A0F10800EEE700BF80B582B000AF78609C
:103910004FF48060C4F202004FF4805105F09CF82F
:10392000034618460837BD4680BD00BF80B582B04B
:1039300000AF786039603B68002B08D14FF480609D
:10394000C4F202004FF4805105F0AEF807E04FF4E6
:103950008060C4F202004FF4805105F097F80837F8
:10396000BD4680BD80B582B000AF78604FF4806006
:10397000C4F202004FF4805105F054F80346184693
:103980000837BD4680BD00BF80B584B002AF786007
:103990000023009300204FF48061C4F202014FF431
:1039A00080520023FDF72CFC002318460837BD4643
:1039B00080BD00BF80B584B002AF78600023009363
:1039C00001204FF48061C4F202014FF480520023C1
:1039D000FDF716FC002318460837BD4680BD00BF22
:1039E00080B584B002AF78600023009300204FF4CC
:1039F0008061C4F202014FF480520123FDF700FC04
:103A0000002318460837BD4680BD00BF80B584B08E
:103A100002AF78600023009300204FF48061C4F26D
:103A200002014FF480520223FDF7EAFB00231846FF
:103A30000837BD4680BD00BF80B582B000AF78605A
:103A40004FF48050C4F202004FF4004105F004F836
:103A5000034618460837BD4680BD00BF80B582B01A
:103A600000AF786039603B68002B08D14FF480507C
:103A7000C4F202004FF4004105F016F807E04FF4DD
:103A80008050C4F202004FF4004104F0FFFF0837F9
:103A9000BD4680BD80B582B000AF78604FF48050E5
:103AA000C4F202004FF4004104F0BCFF0346184684
:103AB0000837BD4680BD00BF80B584B002AF7860D6
:103AC0000023009300204FF48051C4F202014FF410
:103AD00000420023FDF794FB012318460837BD463A
:103AE00080BD00BF80B584B002AF78600023009332
:103AF00001204FF48051C4F202014FF40042002330
:103B0000FDF77EFB002318460837BD4680BD00BF89
:103B100080B584B002AF78600023009300204FF49A
:103B20008051C4F202014FF400420123FDF768FB0B
:103B3000012318460837BD4680BD00BF80B584B05C
:103B400002AF78600023009300204FF48051C4F24C
:103B500002014FF400420223FDF752FB00231846F6
:103B60000837BD4680BD00BF80B582B000AF786029
:103B70004FF48060C4F202004FF4804104F06CFF07
:103B8000034618460837BD4680BD00BF80B582B0E9
:103B900000AF786039603B68002B08D14FF480603B
:103BA000C4F202004FF4804104F07EFF07E04FF4BE
:103BB0008060C4F202004FF4804104F067FF0837D0
:103BC000BD4680BD80B582B000AF78604FF48060A4
:103BD000C4F202004FF4804104F024FF034618466B
:103BE0000837BD4680BD00BF80B584B002AF7860A5
:103BF0000023009300204FF48061C4F202014FF4CF
:103C000080420023FDF7FCFA002318460837BD4622
:103C100080BD00BF80B584B002AF78600023009300
:103C200001204FF48061C4F202014FF4804200236E
:103C3000FDF7E6FA002318460837BD4680BD00BFF1
:103C400080B584B002AF78600023009300204FF469
:103C50008061C4F202014FF480420123FDF7D0FAE3
:103C6000002318460837BD4680BD00BF80B584B02C
:103C700002AF78600023009300204FF48061C4F20B
:103C800002014FF480420223FDF7BAFA00231846DE
:103C90000837BD4680BD00BF80B582B000AF7860F8
:103CA0004FF48060C4F202004FF4004104F0D4FEEF
:103CB000034618460837BD4680BD00BF80B582B0B8
:103CC00000AF786039603B68002B08D14FF480600A
:103CD000C4F202004FF4004104F0E6FE07E04FF4A6
:103CE0008060C4F202004FF4004104F0CFFE0837B8
:103CF000BD4680BD80B582B000AF78604FF4806073
:103D0000C4F202004FF4004104F08CFE0346184652
:103D10000837BD4680BD00BF80B584B002AF786073
:103D20000023009300204FF48061C4F202014FF49D
:103D300000420023FDF764FA002318460837BD4609
:103D400080BD00BF80B584B002AF786000230093CF
:103D500001204FF48061C4F202014FF400420023BD
:103D6000FDF74EFA002318460837BD4680BD00BF58
:103D700080B584B002AF78600023009300204FF438
:103D80008061C4F202014FF400420123FDF738FACA
:103D9000002318460837BD4680BD00BF80B584B0FB
:103DA00002AF78600023009300204FF48061C4F2DA
:103DB00002014FF400420223FDF722FA00231846C5
:103DC0000837BD4680BD00BF80B582B000AF7860C7
:103DD0000020C4F202004FF4004104F03DFE03460F
:103DE00018460837BD4680BD80B582B000AF786008
:103DF00039603B68002B07D10020C4F202004FF469
:103E0000004104F051FE06E00020C4F202004FF42D
:103E1000004104F03BFE0837BD4680BD80B582B04E
:103E200000AF78600020C4F202004FF4004104F0BB
:103E3000F9FD034618460837BD4680BD80B584B0FD
:103E400002AF78600023009300200021C4F2020139
:103E50004FF400420023FDF7D3F90023184608373A
:103E6000BD4680BD80B483B000AF786001231846A2
:103E70000C37BD465DF8047B704700BF80B584B049
:103E800002AF78600023009300200021C4F20201F9
:103E90004FF400420123FDF7B3F900231846083719
:103EA000BD4680BD80B584B002AF7860002300932A
:103EB00000200021C4F202014FF400420223FDF76A
:103EC0009FF9002318460837BD4680BD80B582B0F3
:103ED00000AF78604FF48060C4F202004FF40051EC
:103EE00004F0BAFD034618460837BD4680BD00BF42
:103EF00080B582B000AF786039603B68002B08D194
:103F00004FF48060C4F202004FF4005104F0CCFD85
:103F100007E04FF48060C4F202004FF4005104F057
:103F2000B5FD0837BD4680BD80B582B000AF786072
:103F30004FF48060C4F202004FF4005104F072FDAF
:103F4000034618460837BD4680BD00BF80B584B023
:103F500002AF78600023009300204FF48061C4F228
:103F600002014FF400520023FDF74AF900231846DE
:103F70000837BD4680BD00BF80B483B000AF786015
:103F8000012318460C37BD465DF8047B704700BF1F
:103F900080B584B002AF78600023009300204FF416
:103FA0008061C4F202014FF400520123FDF728F9A9
:103FB000002318460837BD4680BD00BF80B584B0D9
:103FC00002AF78600023009300204FF48061C4F2B8
:103FD00002014FF400520223FDF712F900231846A4
:103FE0000837BD4680BD00BF80B582B000AF7860A5
:103FF0004FF44060C4F202004FF4006104F02CFD65
:10400000034618460837BD4680BD00BF80B582B064
:1040100000AF786039603B68002B08D14FF44060F6
:10402000C4F202004FF4006104F03EFD07E04FF4DB
:104030004060C4F202004FF4006104F027FD08372D
:10404000BD4680BD80B582B000AF78604FF440605F
:10405000C4F202004FF4006104F0E4FC0346184689
:104060000837BD4680BD00BF80B584B002AF786020
:104070000023009300204FF44061C4F202014FF48A
:1040800000620023FDF7BCF8002318460837BD4640
:1040900080BD00BF80B483B000AF786001231846B4
:1040A0000C37BD465DF8047B704700BF80B584B017
:1040B00002AF78600023009300204FF44061C4F207
:1040C00002014FF400620123FDF79AF8002318461D
:1040D0000837BD4680BD00BF80B584B002AF7860B0
:1040E0000023009300204FF44061C4F202014FF41A
:1040F00000620223FDF784F8002318460837BD4606
:1041000080BD00BF80B582B000AF78604FF44060E2
:10411000C4F202004FF4806104F09EFC034618468E
:104120000837BD4680BD00BF80B582B000AF786063
:1041300039603B68002B08D14FF44060C4F20200A4
:104140004FF4806104F0B0FC07E04FF44060C4F22B
:1041500002004FF4806104F099FC0837BD4680BD31
:1041600080B582B000AF78604FF44060C4F20200C6
:104170004FF4806104F056FC034618460837BD46EC
:1041800080BD00BF80B584B002AF7860002300938B
:1041900000204FF44061C4F202014FF4806200231A
:1041A000FDF72EF8002318460837BD4680BD00BF36
:1041B00080B483B000AF7860012318460C37BD4649
:1041C0005DF8047B704700BF80B584B002AF7860B3
:1041D0000023009300204FF44061C4F202014FF429
:1041E00080620123FDF70CF8002318460837BD460E
:1041F00080BD00BF80B584B002AF7860002300931B
:1042000000204FF44061C4F202014FF480620223A7
:10421000FCF7F6FF002318460837BD4680BD00BFF7
:1042200080B582B000AF78604FF48060C4F20200C5
:10423000022104F011FC034618460837BD4680BD34
:1042400080B582B000AF786039603B68002B07D141
:104250004FF48060C4F20200022104F025FC06E065
:104260004FF48060C4F20200022104F00FFC083712
:10427000BD4680BD80B582B000AF78604FF48060ED
:10428000C4F20200022104F0CDFB034618460837B1
:10429000BD4680BD80B584B002AF78600023009336
:1042A00000204FF48061C4F2020102220023FCF7D7
:1042B000A7FF002318460837BD4680BD80B584B0EF
:1042C00002AF78600023009301204FF48061C4F2B4
:1042D000020102220023FCF793FF0023184608374F
:1042E000BD4680BD80B584B002AF786000230093E6
:1042F00000204FF48061C4F2020102220123FCF786
:104300007FFF002318460837BD4680BD80B584B0C6
:1043100002AF78600023009300204FF48061C4F264
:10432000020102220223FCF76BFF00231846083724
:10433000BD4680BD80B582B000AF78600020C4F279
:104340000200102104F088FB034618460837BD46DA
:1043500080BD00BF80B582B000AF786039603B6837
:10436000002B06D10020C4F20200102104F09CFBB7
:1043700005E00020C4F20200102104F087FB08379A
:10438000BD4680BD80B582B000AF78600020C4F229
:104390000200102104F046FB034618460837BD46CC
:1043A00080BD00BF80B584B002AF78600023009369
:1043B00000200021C4F2020110220023FCF720FF9C
:1043C000002318460837BD4680BD00BF80B584B0C5
:1043D00002AF78600023009301200021C4F20201A3
:1043E00010220023FCF70CFF002318460837BD46B7
:1043F00080BD00BF80B584B002AF78600023009319
:1044000000200021C4F2020110220123FCF7F8FE73
:10441000002318460837BD4680BD00BF80B584B074
:1044200002AF78600023009300200021C4F2020153
:1044300010220223FCF7E4FE002318460837BD468D
:1044400080BD00BF80B582B000AF78604FF40060DF
:10445000C4F20200012104F0FFFA034618460837AF
:10446000BD4680BD80B582B000AF786039603B68E2
:10447000002B07D14FF40060C4F20200012104F0C8
:1044800013FB06E04FF40060C4F20200012104F0C7
:10449000FDFA0837BD4680BD80B582B000AF7860B8
:1044A0004FF40060C4F20200012104F0BBFA03469D
:1044B00018460837BD4680BD80B584B002AF78602D
:1044C0000023009300204FF40061C4F20201012296
:1044D0000023FCF795FE002318460837BD4680BD33
:1044E00080B584B002AF78600023009301204FF4C0
:1044F0000061C4F2020101220023FCF781FE0023C7
:1045000018460837BD4680BD80B584B002AF7860DC
:104510000023009300204FF40061C4F20201012245
:104520000123FCF76DFE002318460837BD4680BD09
:1045300080B584B002AF78600023009300204FF470
:104540000061C4F2020101220223FCF759FE00239C
:1045500018460837BD4680BD80B582B000AF786090
:104560004FF48050C4F202004FF4805104F074FA0A
:10457000034618460837BD4680BD00BF80B582B0EF
:1045800000AF786039603B68002B08D14FF4805051
:10459000C4F202004FF4805104F086FA07E04FF4B1
:1045A0008050C4F202004FF4805104F06FFA0837D3
:1045B000BD4680BD80B582B000AF78604FF48050BA
:1045C000C4F202004FF4805104F02CFA034618465E
:1045D0000837BD4680BD00BF80B584B002AF7860AB
:1045E0000023009300204FF48051C4F202014FF4E5
:1045F00080520023FCF704FE002318460837BD460E
:1046000080BD00BF80B584B002AF78600023009306
:1046100001204FF48051C4F202014FF48052002374
:10462000FCF7EEFD002318460837BD4680BD00BFED
:1046300080B584B002AF78600023009300204FF46F
:104640008051C4F202014FF480520123FCF7D8FDDF
:10465000002318460837BD4680BD00BF80B584B032
:1046600002AF78600023009300204FF48051C4F221
:1046700002014FF480520223FCF7C2FD00231846CA
:104680000837BD4680BD00BF80B582B000AF7860FE
:104690000020C4F20200202104F0DEF9034618468F
:1046A0000837BD4680BD00BF80B582B000AF7860DE
:1046B00039603B68002B06D10020C4F202002021A3
:1046C00004F0F2F905E00020C4F20200202104F019
:1046D000DDF90837BD4680BD80B582B000AF786097
:1046E0000020C4F20200202104F09CF90346184681
:1046F0000837BD4680BD00BF80B584B002AF78608A
:104700000023009300200021C4F202012022002394
:10471000FCF776FD002318460837BD4680BD00BF74
:1047200080B584B002AF786000230093012000219F
:10473000C4F2020120220023FCF762FD0023184688
:104740000837BD4680BD00BF80B584B002AF786039
:104750000023009300200021C4F202012022012343
:10476000FCF74EFD002318460837BD4680BD00BF4C
:1047700080B584B002AF7860002300930020002150
:10478000C4F2020120220223FCF73AFD002318465E
:104790000837BD4680BD00BF80B582B000AF7860ED
:1047A0004FF48060C4F20200042104F055F903467E
:1047B00018460837BD4680BD80B582B000AF78602E
:1047C00039603B68002B07D14FF48060C4F20200CF
:1047D000042104F069F906E04FF48060C4F202009D
:1047E000042104F053F90837BD4680BD80B582B07E
:1047F00000AF78604FF48060C4F20200042104F03E
:1048000011F9034618460837BD4680BD80B584B00F
:1048100002AF78600023009300204FF48061C4F25F
:10482000020104220023FCF7EBFC002318460837A2
:10483000BD4680BD80B584B002AF78600023009390
:1048400001204FF48061C4F2020104220023FCF72E
:10485000D7FC002318460837BD4680BD80B584B01C
:1048600002AF78600023009300204FF48061C4F20F
:10487000020104220123FCF7C3FC00231846083779
:10488000BD4680BD80B584B002AF78600023009340
:1048900000204FF48061C4F2020104220223FCF7DD
:1048A000AFFC002318460837BD4680BD80B582B0F6
:1048B00000AF78604FF48050C4F20200802104F011
:1048C000CBF8034618460837BD4680BD80B582B098
:1048D00000AF786039603B68002B07D14FF48050FF
:1048E000C4F20200802104F0DFF806E04FF48050AB
:1048F000C4F20200802104F0C9F80837BD4680BD2B
:1049000080B582B000AF78604FF48050C4F20200EE
:10491000802104F087F8034618460837BD4680BD5D
:1049200080B584B002AF78600023009300204FF47C
:104930008051C4F2020180220023FCF761FC0023B5
:1049400018460837BD4680BD80B584B002AF786098
:104950000023009301204FF48051C4F20201802211
:104960000023FCF74DFC002318460837BD4680BDE8
:1049700080B584B002AF78600023009300204FF42C
:104980008051C4F2020180220123FCF739FC00238C
:1049900018460837BD4680BD80B584B002AF786048
:1049A0000023009300204FF48051C4F202018022C2
:1049B0000223FCF725FC002318460837BD4680BDBE
:1049C00080B582B000AF78604FF48050C4F202002E
:1049D0004FF4806104F040F8034618460837BD469E
:1049E00080BD00BF80B582B000AF786039603B68A1
:1049F000002B08D14FF48050C4F202004FF48061C4
:104A000004F052F807E04FF48050C4F202004FF473
:104A1000806104F03BF80837BD4680BD80B582B0A8
:104A200000AF78604FF48050C4F202004FF4806110
:104A300003F0F8FF034618460837BD4680BD00BFA7
:104A400080B584B002AF78600023009300204FF45B
:104A50008051C4F202014FF480620023FCF7D0FBC6
:104A6000002318460837BD4680BD00BF80B584B01E
:104A700002AF78600023009301204FF48051C4F20C
:104A800002014FF480620023FCF7BAFB00231846B2
:104A90000837BD4680BD00BF80B584B002AF7860E6
:104AA0000023009300204FF48051C4F202014FF420
:104AB00080620123FCF7A4FB002318460837BD469B
:104AC00080BD00BF80B584B002AF78600023009342
:104AD00000204FF48051C4F202014FF4806202239F
:104AE000FCF78EFB002318460837BD4680BD00BF8B
:104AF00080B582B000AF78604FF48060C4F20200ED
:104B0000012103F0A9FF034618460837BD4680BDC2
:104B100080B582B000AF786039603B68002B07D168
:104B20004FF48060C4F20200012103F0BDFF06E0F3
:104B30004FF48060C4F20200012103F0A7FF0837A0
:104B4000BD4680BD80B582B000AF78604FF4806014
:104B5000C4F20200012103F065FF0346184608373E
:104B6000BD4680BD80B584B002AF7860002300935D
:104B700000204FF48061C4F2020101220023FCF7FF
:104B80003FFB002318460837BD4680BD80B584B082
:104B900002AF78600023009301204FF48061C4F2DB
:104BA000020101220023FCF72BFB002318460837E3
:104BB000BD4680BD80B584B002AF7860002300930D
:104BC00000204FF48061C4F2020101220123FCF7AE
:104BD00017FB002318460837BD4680BD80B584B05A
:104BE00002AF78600023009300204FF48061C4F28C
:104BF000020101220223FCF703FB002318460837B9
:104C0000BD4680BD80B582B000AF78604FF4805063
:104C1000C4F20200102103F01FFF034618460837B4
:104C2000BD4680BD80B582B000AF786039603B681A
:104C3000002B07D14FF48050C4F20200102103F082
:104C400033FF06E04FF48050C4F20200102103F05D
:104C50001DFF0837BD4680BD80B582B000AF7860CB
:104C60004FF48050C4F20200102103F0DBFE034633
:104C700018460837BD4680BD80B584B002AF786065
:104C80000023009300204FF48051C4F2020110224F
:104C90000023FCF7B5FA002318460837BD4680BD4F
:104CA00080B584B002AF78600023009301204FF4F8
:104CB0008051C4F2020110220023FCF7A1FA002364
:104CC00018460837BD4680BD80B584B002AF786015
:104CD0000023009300204FF48051C4F202011022FF
:104CE0000123FCF78DFA002318460837BD4680BD26
:104CF00080B584B002AF78600023009300204FF4A9
:104D00008051C4F2020110220223FCF779FA002339
:104D100018460837BD4680BD80B582B000AF7860C8
:104D20004FF48050C4F20200042103F095FE0346C4
:104D300018460837BD4680BD80B582B000AF7860A8
:104D400039603B68002B07D14FF48050C4F2020059
:104D5000042103F0A9FE06E04FF48050C4F20200E3
:104D6000042103F093FE0837BD4680BD80B582B0B4
:104D700000AF78604FF48050C4F20200042103F0C9
:104D800051FE034618460837BD4680BD80B584B045
:104D900002AF78600023009300204FF48051C4F2EA
:104DA000020104220023FCF72BFA002318460837DF
:104DB000BD4680BD80B584B002AF7860002300930B
:104DC00001204FF48051C4F2020104220023FCF7B9
:104DD00017FA002318460837BD4680BD80B584B059
:104DE00002AF78600023009300204FF48051C4F29A
:104DF000020104220123FCF703FA002318460837B6
:104E0000BD4680BD80B584B002AF786000230093BA
:104E100000204FF48051C4F2020104220223FCF767
:104E2000EFF9002318460837BD4680BD80B582B033
:104E300000AF78604FF48050C4F202004FF48071EC
:104E400003F00AFE034618460837BD4680BD00BF82
:104E500080B582B000AF786039603B68002B08D124
:104E60004FF48050C4F202004FF4807103F01CFE36
:104E700007E04FF48050C4F202004FF4807103F059
:104E800005FE0837BD4680BD80B582B000AF7860B2
:104E90004FF48050C4F202004FF4807103F0C2FD61
:104EA000034618460837BD4680BD00BF80B584B0B4
:104EB00002AF78600023009300204FF48051C4F2C9
:104EC00002014FF480720023FCF79AF90023184680
:104ED0000837BD4680BD00BF80B584B002AF7860A2
:104EE0000023009301204FF48051C4F202014FF4DB
:104EF00080720023FCF784F9002318460837BD466A
:104F000080BD00BF80B584B002AF786000230093FD
:104F100000204FF48051C4F202014FF4807201234B
:104F2000FCF76EF9002318460837BD4680BD00BF68
:104F300080B584B002AF78600023009300204FF466
:104F40008051C4F202014FF480720223FCF758F939
:104F5000002318460837BD4680BD00BF80B582B02B
:104F600000AF78604FF48050C4F20200082103F0D3
:104F700073FD034618460837BD4680BD80B582B034
:104F800000AF786039603B68002B07D14FF4805048
:104F9000C4F20200082103F087FD06E04FF48050C0
:104FA000C4F20200082103F071FD0837BD4680BD40
:104FB00080B582B000AF78604FF48050C4F2020038
:104FC000082103F02FFD034618460837BD4680BD73
:104FD00080B584B002AF78600023009300204FF4C6
:104FE0008051C4F2020108220023FCF709F90023D2
:104FF00018460837BD4680BD80B584B002AF7860E2
:105000000023009301204FF48051C4F202010822D2
:105010000023FCF7F5F8002318460837BD4680BD8D
:1050200080B584B002AF78600023009300204FF475
:105030008051C4F2020108220123FCF7E1F80023A9
:1050400018460837BD4680BD80B584B002AF786091
:105050000023009300204FF48051C4F20201082283
:105060000223FCF7CDF8002318460837BD4680BD63
:1050700080B582B000AF78604FF40060C4F20200E7
:10508000202103F0E9FC034618460837BD4680BDE1
:1050900080B582B000AF786039603B68002B07D1E3
:1050A0004FF40060C4F20200202103F0FDFC06E092
:1050B0004FF40060C4F20200202103F0E7FC08373F
:1050C000BD4680BD80B582B000AF78604FF400600F
:1050D000C4F20200202103F0A5FC0346184608375D
:1050E000BD4680BD80B584B002AF786000230093D8
:1050F00000204FF40061C4F2020120220023FCF7DB
:105100007FF8002318460837BD4680BD80B584B0BF
:1051100002AF78607B680222DA60002300930120EE
:105120004FF40061C4F2020120220023FCF768F86A
:10513000002318460837BD4680BD00BF80B584B047
:1051400002AF78600023009300204FF40061C4F2A6
:10515000020120220123FCF753F8002318460837E8
:10516000BD4680BD80B584B002AF78600023009357
:1051700000204FF40061C4F2020120220223FCF758
:105180003FF8002318460837BD4680BD80B582B081
:1051900000AF78604FF40060C4F20200022103F017
:1051A0005BFC034618460837BD4680BD80B582B01B
:1051B00000AF786039603B68002B07D14FF4006086
:1051C000C4F20200022103F06FFC06E04FF400601D
:1051D000C4F20200022103F059FC0837BD4680BD2D
:1051E00080B582B000AF78604FF40060C4F2020076
:1051F000022103F017FC034618460837BD4680BD60
:1052000080B584B002AF78600023009300204FF493
:105210000061C4F2020102220023FBF7F1FF002328
:1052200018460837BD4680BD80B584B002AF7860AF
:105230007B680222DA600023009301204FF40061B2
:10524000C4F2020102220023FBF7DAFF0023184612
:105250000837BD4680BD00BF80B584B002AF78601E
:105260000023009300204FF40061C4F202010222E7
:105270000123FBF7C5FF002318460837BD4680BD54
:1052800080B584B002AF78600023009300204FF413
:105290000061C4F2020102220223FBF7B1FF0023E6
:1052A00018460837BD4680BD80B582B000AF786033
:1052B0004FF40060C4F20200042103F0CDFB03466A
:1052C00018460837BD4680BD80B582B000AF786013
:1052D00039603B68002B07D14FF40060C4F2020034
:1052E000042103F0E1FB06E04FF40060C4F2020089
:1052F000042103F0CBFB0837BD4680BD80B582B0EA
:1053000000AF78604FF40060C4F20200042103F0A3
:1053100089FB034618460837BD4680BD80B584B07A
:1053200002AF78600023009300204FF40061C4F2C4
:10533000020104220023FBF763FF0023184608370D
:10534000BD4680BD80B584B002AF78607B68022224
:10535000DA600023009301204FF40061C4F20201DF
:1053600004220023FBF74CFF002318460837BD46F4
:1053700080BD00BF80B584B002AF78600023009389
:1053800000204FF40061C4F2020104220123FBF764
:1053900037FF002318460837BD4680BD80B584B06E
:1053A00002AF78600023009300204FF40061C4F244
:1053B000020104220223FBF723FF002318460837CB
:1053C000BD4680BD80B582B000AF78604FF400600C
:1053D000C4F20200082103F03FFB034618460837D9
:1053E000BD4680BD80B582B000AF786039603B6853
:1053F000002B07D14FF40060C4F20200082103F033
:1054000053FB06E04FF40060C4F20200082103F0F1
:105410003DFB0837BD4680BD80B582B000AF7860E7
:105420004FF40060C4F20200082103F0FBFA0346C7
:1054300018460837BD4680BD80B584B002AF78609D
:105440000023009300204FF40061C4F202010822FF
:105450000023FBF7D5FE002318460837BD4680BD64
:1054600080B584B002AF78607B680222DA600023E6
:10547000009301204FF40061C4F2020108220023CE
:10548000FBF7BEFE002318460837BD4680BD00BFAF
:1054900080B584B002AF78600023009300204FF401
:1054A0000061C4F2020108220123FBF7A9FE0023D8
:1054B00018460837BD4680BD80B584B002AF78601D
:1054C0000023009300204FF40061C4F2020108227F
:1054D0000223FBF795FE002318460837BD4680BD22
:1054E00080B582B000AF78604FF40060C4F2020073
:1054F000102103F0B1FA034618460837BD4680BDB7
:1055000080B582B000AF786039603B68002B07D16E
:105510004FF40060C4F20200102103F0C5FA06E067
:105520004FF40060C4F20200102103F0AFFA083714
:10553000BD4680BD80B582B000AF78604FF400609A
:10554000C4F20200102103F06DFA03461846083732
:10555000BD4680BD80B584B002AF78600023009363
:1055600000204FF40061C4F2020110220023FBF777
:1055700047FE002318460837BD4680BD80B584B07D
:1055800002AF78607B680222DA600023009301207A
:105590004FF40061C4F2020110220023FBF730FE39
:1055A000002318460837BD4680BD00BF80B584B0D3
:1055B00002AF78600023009300204FF40061C4F232
:1055C000020110220123FBF71BFE002318460837B7
:1055D000BD4680BD80B584B002AF786000230093E3
:1055E00000204FF40061C4F2020110220223FBF7F5
:1055F00007FE002318460837BD4680BD80B582B03F
:1056000000AF78604FF48050C4F202004FF40061A4
:1056100003F022FA034618460837BD4680BD00BF96
:1056200080B582B000AF786039603B68002B08D14C
:105630004FF48050C4F202004FF4006103F034FADA
:1056400007E04FF48050C4F202004FF4006103F011
:105650001DFA0837BD4680BD80B582B000AF7860C6
:105660004FF48050C4F202004FF4006103F0DAF905
:10567000034618460837BD4680BD00BF80B584B0DC
:1056800002AF78600023009300204FF48051C4F2F1
:1056900002014FF400620023FBF7B2FD002318461D
:1056A0000837BD4680BD00BF80B584B002AF7860CA
:1056B0007B680222DA600023009301204FF48051BE
:1056C000C4F202014FF400620023FBF799FD0023AE
:1056D00018460837BD4680BD80B584B002AF7860FB
:1056E0000023009300204FF48051C4F202014FF4D4
:1056F00000620123FBF784FD002318460837BD46EE
:1057000080BD00BF80B584B002AF786000230093F5
:1057100000204FF48051C4F202014FF400620223D2
:10572000FBF76EFD002318460837BD4680BD00BF5D
:1057300080B582B000AF78604FF48050C4F20200B0
:10574000402103F089F9034618460837BD4680BD5D
:1057500080B582B000AF786039603B68002B07D11C
:105760004FF48050C4F20200402103F09DF906E09E
:105770004FF48050C4F20200402103F087F908374B
:10578000BD4680BD80B582B000AF78604FF48050D8
:10579000C4F20200402103F045F9034618460837D9
:1057A000BD4680BD80B584B002AF78600023009311
:1057B00000204FF48051C4F2020140220023FBF785
:1057C0001FFD002318460837BD4680BD80B584B054
:1057D00002AF78607B680222DA6000230093012028
:1057E0004FF48051C4F2020140220023FBF708FD70
:1057F000002318460837BD4680BD00BF80B584B081
:1058000002AF78600023009300204FF48051C4F26F
:10581000020140220123FBF7F3FC0023184608375E
:10582000BD4680BD80B584B002AF78600023009390
:1058300000204FF48051C4F2020140220223FBF702
:10584000DFFC002318460837BD4680BD80B582B016
:1058500000AF78604FF48050C4F20200202103F0C2
:10586000FBF8034618460837BD4680BD80B582B0B8
:1058700000AF786039603B68002B07D14FF480504F
:10588000C4F20200202103F00FF906E04FF480502B
:10589000C4F20200202103F0F9F80837BD4680BDAC
:1058A00080B582B000AF78604FF48050C4F202003F
:1058B000202103F0B7F8034618460837BD4680BDDF
:1058C00080B584B002AF78600023009300204FF4CD
:1058D0008051C4F2020120220023FBF791FC002337
:1058E00018460837BD4680BD80B584B002AF7860E9
:1058F0007B680222DA600023009301204FF480517C
:10590000C4F2020120220023FBF77AFC0023184690
:105910000837BD4680BD00BF80B584B002AF786057
:105920000023009300204FF48051C4F20201202292
:105930000123FBF765FC002318460837BD4680BDF0
:1059400080B584B002AF78600023009300204FF44C
:105950008051C4F2020120220223FBF751FC0023F4
:1059600018460837BD4680BD80B582B000AF78606C
:105970004FF48050C4F202004FF4007103F06CF851
:10598000034618460837BD4680BD00BF80B582B0CB
:1059900000AF786039603B68002B08D14FF480502D
:1059A000C4F202004FF4007103F07EF807E04FF4F8
:1059B0008050C4F202004FF4007103F067F808371A
:1059C000BD4680BD80B582B000AF78604FF4805096
:1059D000C4F202004FF4007103F024F803461846A5
:1059E0000837BD4680BD00BF80B584B002AF786087
:1059F0000023009300204FF48051C4F202014FF4C1
:105A000000720023FBF7FCFB002318460837BD4655
:105A100080BD00BF80B584B002AF78607B68022291
:105A2000DA600023009301204FF48051C4F2020198
:105A30004FF400720023FBF7E3FB002318460837FE
:105A4000BD4680BD80B584B002AF7860002300936E
:105A500000204FF48051C4F202014FF40072012380
:105A6000FBF7CEFB002318460837BD4680BD00BFBC
:105A700080B584B002AF78600023009300204FF41B
:105A80008051C4F202014FF400720223FBF7B8FB0D
:105A9000002318460837BD4680BD00BF80B582B0E0
:105AA00000AF78604FF48050C4F202004FF48041A0
:105AB00002F0D2FF034618460837BD4680BD00BF3E
:105AC00080B582B000AF786039603B68002B08D1A8
:105AD0004FF48050C4F202004FF4804102F0E4FF22
