:020000040800F2
:10000000E8760120B92800086D7500088D75000894
:10001000AD750008CD750008ED7500080000000002
:100020000000000000000000000000000D76000845
:100030002D760008000000004D76000859250008C4
:100040001D2900081D2900081D2900081D29000878
:100050001D2900081D2900081D2900081D29000868
:100060001D2900081D2900081D2900081D29000858
:100070001D2900081D2900081D2900081D29000848
:100080001D2900081D2900081D2900081D29000838
:10009000316600081D2900081D2900081D290008D7
:1000A0001D290008BD1100081D2900081D29000890
:1000B0002112000881120008ED120008D5AD0008D9
:1000C000E1AD000815AE00081DB100081D290008AB
:1000D0001D2900081D2900086D6000082161000825
:1000E0001D2900081D2900082518000831140008E2
:1000F000C51300081D2900081D2900081D29000836
:100100001D29000885780008591300081D290008DA
:100110001D2900081D2900081D2900081D290008A7
:100120001D2900081D2900081D29000891780008D4
:100130001D2900081D2900081D2900081D29000887
:100140001D2900081D2900081D2900081118000894
:100150001D2900081D2900081D2900081D29000867
:100160001D2900081D2900081D2900081D29000857
:100170001D2900081D2900081D2900081D29000847
:100180001D2900081D29000808B540F2F850074B4A
:10019000C2F200001B1A062B00D808BD40F2000373
:1001A000C0F20003002BF8D09847F6E7FB050020CB
:1001B00008B540F2F85040F2F853C2F20000C2F223
:1001C00000031B1A9B1003EBD373591000D108BD19
:1001D00040F20002C0F20002002AF8D09047F6E791
:1001E00010B540F2F854C2F20004237873B9FFF757
:1001F000CBFF40F20003C0F200032BB142F63820DF
:10020000C0F60200AFF300800123237010BD00BFD1
:1002100008B540F20003C0F200034BB142F63820AB
:1002200040F2FC51C0F60200C2F20001AFF30080C0
:1002300040F2F450C2F2000003682BB140F2000318
:10024000C0F2000303B19847BDE80840B0E700BF23
:1002500080B584B000AFF8600B467A60FB72FB7A21
:10026000013B032B52D801A252F823F07D02000873
:10027000A1020008C5020008E9020008FB68DB6A69
:1002800018460DF067FD0346184679680DF0BAFD73
:10029000034618460DF02CFF0246FB685A6336E011
:1002A000FB68DB6A18460DF055FD03461846796871
:1002B0000DF0A8FD034618460DF01AFF0246FB6834
:1002C0009A6324E0FB68DB6A18460DF043FD0346A1
:1002D000184679680DF096FD034618460DF008FFA4
:1002E0000246FB68DA6312E0FB68DB6A18460DF031
:1002F00031FD0346184679680DF084FD0346184623
:100300000DF0F6FE0246FB681A6400E000BF1037ED
:10031000BD4680BD80B582B000AF78600B46FB70F3
:10032000FB78012B06D17B685B6B18460DF012FD44
:1003300003461FE0FB78022B06D17B689B6B1846B7
:100340000DF008FD034615E0FB78032B06D17B6812
:10035000DB6B18460DF0FEFC03460BE0FB78042B2C
:1003600006D17B681B6C18460DF0F4FC034601E0D7
:100370004FF0000318460837BD4680BD90B5ADB0BC
:1003800002AFF860B9603B601346FB800023C7F8FA
:10039000A4300023C7F8A0300023C7F89C30012305
:1003A000C7F898300023A7F8963007F0FDFB07F157
:1003B0004403184606F0EAFAFB68B3F1804F06D30F
:1003C000FA684FF4A053C4F200039A420DD9FA68B8
:1003D00041F2FF73C4F200039A4217D9FA684FF44E
:1003E0000053C4F200039A4210D8FA6C4FF46053E1
:1003F000C4F20203D3F88C301B0E03F00103013367
:1004000003FB02F35B00C7F8A4300FE03A6D4FF432
:100410006053C4F20203D3F88C301B0E03F00103C7
:10042000013303FB02F35B00C7F8A4303B68002BE9
:100430000DDDD7F8A42048F21F53C5F2EB1383FB60
:1004400002135911D317CA1A3B689A4201DA0123E1
:10045000F4E01FE0D7F8A0300133C7F8A030D7F898
:10046000A420D7F8A03092FBF3F23B6892FBF3F3A1
:10047000C7F89C30D7F89C30B3F5803F02DA0023F0
:10048000C7F89830D7F8A0204FF6FE739A4201DDE6
:100490000123D3E0D7F89830002BDBD1D7F8A42084
:1004A000D7F8A03092FBF3F2D7F89C3092FBF3F32D
:1004B0003B60F86809F004FEFB88002200920220ED
:1004C000B9681A46002300F0B9FDD7F89C30013B0B
:1004D000FB63D7F8A0309BB2013B9BB23B87002364
:1004E000A7F8403000237B87002387F8423007F1CC
:1004F0003803F86819460BF03FF96023BB840023EA
:100500003B860123FB8404233B8508237B864FF431
:100510008073BB864FF40073FB8607F12403F868F1
:1005200019460BF00DFAF86800210BF0F9FB07F102
:100530002403F86819460BF07DFAF86800210BF0E7
:100540000BFC07F12403F86819460BF0FBFAF86876
:1005500000210BF01FFC07F12403F86819460BF08B
:1005600077FBF86800210BF031FCFA680023C4F235
:1005700001039A4206D0FA684FF48063C4F2010383
:100580009A4211D107F1140318460BF065FC4FF4A1
:1005900080433B8407F11403F86819460BF034FCE0
:1005A000F86801210BF076FCFA8807F15403104635
:1005B000194609F0F3FB0023A7F8963025E0B7F8B9
:1005C00096305B0007F1A802134433F8543C012B2A
:1005D00016D1B7F8963010335B0007F1A8010B4431
:1005E00033F8523C184609F07FFF03461C46F86872
:1005F00009F0F0FF0346B86821461A4607F046FAAC
:10060000B7F896300133A7F89630B7F896300F2B2D
:10061000D5D9FB6800225A63FB6800229A63FB6805
:100620000022DA63FB6800221A64F86801210BF0EB
:1006300047F9F86801210BF063F900231846AC373D
:10064000BD4690BD80B489B000AFF860B960FA7162
:10065000BB800023FB76FB68DB78002B23D10023D3
:100660007B610023FB61BB880333DA1C002BB8BF1E
:1006700013469B107B61FB79FA6832339B0013446D
:100680009B683B610023FB6109E0BB681A683B691A
:100690001A60FB690133FB61BB680433BB60FA6914
:1006A0007B699A42F1D3FB7E18462437BD465DF83C
:1006B000047B704780B489B000AFF860B96013461E
:1006C000FB800023FB61FB880333DA1C002BB8BFDF
:1006D00013469B10BB61FB68D3F8D0307B610023CD
:1006E000FB6109E07B691A68BB681A60FB6901332A
:1006F000FB61BB680433BB60FA69BB699A42F1D302
:10070000BB6818462437BD465DF8047B704700BFC0
:1007100080B586B000AF786039600023FB74002399
:100720007B610023FB60FB6843F02003FB603B68B8
:10073000DBB203F01F03DAB2FB6862F38A13FB60DB
:100740007B68DB68FA681A617B68DB681B69FB60A1
:100750007B6901337B617A694FF45463C0F2030310
:100760009A4200D905E0FB68C3F34013DBB2012BCA
:10077000EAD0032007F002FEFB7C18461837BD467E
:1007800080BD00BF80B483B000AF78607B68DB6859
:100790005B6903F0010318460C37BD465DF8047B26
:1007A000704700BF80B582B000AF78607868FFF70F
:1007B000E9FF0346012B0CBF00230123DBB21846DF
:1007C0000837BD4680BD00BF80B485B000AF7860FB
:1007D0000023FB607B68DB685B69FB607B68DB6830
:1007E0009B69FA681340FB60FB6818461437BD46E6
:1007F0005DF8047B704700BF80B485B000AF7860BF
:100800000023FB737B681B699B68BB603B7AC3F367
:100810004103DBB2022B09D0032B04D0012B02D001
:100820000323FB7305E00223FB7302E00123FB7348
:1008300000BFFB7B18461437BD465DF8047B70474C
:1008400080B487B000AF78600023FB750023BB60E5
:100850007B681B699B683B617B689B691B68FB60CD
:100860003B7CC3F34103DBB2022B04D0BB896FF3A3
:100870000A03BB8105E0BB89032262F30A03BB8143
:1008800000BF7B689B69FA681A607B7A43F00103BA
:100890007B727B681B697A6812695168BA68D243B7
:1008A0001140BA680A435A60FB7D18461C37BD46A2
:1008B0005DF8047B704700BF80B487B000AF7860FC
:1008C00039600023FB740023FB600023BB603B689E
:1008D0005B78012B0FD13B681B787A6804339B004F
:1008E00013449B687B613B681B78012202FA03F387
:1008F0009BB23B810EE03B681B787A6814339B0007
:1009000013445B687B613B681B78012202FA03F3A6
:100910009BB27B817B691B68FB607B7BC3F3C0134D
:10092000DBB2002B27D13B689B689BB2C3F30A0361
:100930009AB2BB8962F30A03BB813B68DB7803F0A0
:100940000303DAB2BB7B62F38303BB733B68DB88D0
:10095000DBB203F00F03DAB2FB8962F38913FB8188
:10096000FB7B43F01003FB737B7B43F080037B73C3
:10097000FA687B691A607B681B697A681269D169B9
:10098000BA680A43DA61FB7C18461C37BD465DF83D
:10099000047B704780B588B000AF78603960002371
:1009A000FB770023BB6100237B6100233B613B6835
:1009B0005B78012B40F0AB803B681B787A6804338E
:1009C0009B0013449B681B687B613B681B787A68BB
:1009D00004339B0013449B681B693B613B685B6964
:1009E000002B09D13B696FF312033B617B8A012223
:1009F00062F3CC037B8222E03B685B69C3F31202A3
:100A00003B6962F312033B613B685A693B689B6830
:100A100013445A1E3B689B68B2FBF3F39BB2C3F3CB
:100A200009039AB27B8A62F3CC037B823B68DB7852
:100A3000012B04D1FB7C012262F34613FB743B685B
:100A40001B787A6804339B0013449B683A691A61E7
:100A50007B68DB78012B0AD13B681B787A6804330A
:100A60009B0013449B683A6812695A6115E03B6821
:100A7000DB78012B11D03B685B69002B0DD03B6804
:100A80001B78012202FA03F3BB617B681B697A6859
:100A90001269516BBA690A435A633B68DB78012BD0
:100AA00014D17B681B699B68FB60FB68C3F30D2353
:100AB0009BB203F00103002B04D1FB7D43F0200324
:100AC000FB7503E0FB7D43F01003FB75FB7D43F0FA
:100AD0000403FB75FB7D43F08003FB753B681B78CB
:100AE0007A6804339B0013449B687A691A603B68F8
:100AF000DB78012B40F088803B68D9683B681A7826
:100B00003B685B699BB27868FFF79CFD7CE03B68C3
:100B10001B787A6814339B0013445B681B687B6105
:100B20003B681B787A6814339B0013445B681B692D
:100B30003B613B685B69002B0DD13B689B68C3F34D
:100B400012023B6962F312033B617B8A012262F36A
:100B5000CC037B821FE03B685A693B689B68134467
:100B60005A1E3B689B68B2FBF3F39BB2C3F30903C5
:100B70009AB27B8A62F3CC037B827B8AC3F3C9037C
:100B80009BB23A68926802FB03F3C3F312023B691B
:100B900062F312033B613B681B787A6814339B0055
:100BA00013445B683A691A617B68DB78012B09D1D1
:100BB0003B681B787A6814339B0013445B683A687F
:100BC00012695A613B68DB78012B0CD13B685B7979
:100BD000002B04D0FB7D43F02003FB7503E0FB7D7D
:100BE00043F01003FB75FB7D43F00403FB75FB7DB5
:100BF00043F08003FB753B681B787A6814339B00D5
:100C000013445B687A691A60FB7F18462037BD463B
:100C100080BD00BF80B489B000AF78603960002328
:100C2000FB770023BB6100233B610023BB603B6873
:100C30005B78012B6FD17B689B697B617B691B684B
:100C40003B617B691B69BB603B685B69002B09D119
:100C50003B7A6FF306033B72BB7A012262F3C40353
:100C6000BB7223E03B685A693B689B689A420ED985
:100C70003B689A683B685A613B689B68DBB203F04B
:100C80007F03DAB23B7A62F306033B7209E03B680A
:100C90005B69DBB203F07F03DAB23B7A62F30603EF
:100CA0003B72BB7A012262F3C403BB72BA687B69F0
:100CB0001A617B68DB78012B09D13B681B787A6865
:100CC00004339B0013449B683A6812695A61FB7CA9
:100CD00043F00403FB74FB7C43F08003FB743A692C
:100CE0007B691A607B68DB78002B75D13B685B6998
:100CF000002B71D03B681B78012202FA03F3BA691A
:100D00001343BB617B681B697A681269516BBA69CE
:100D10000A435A6360E03B681B787A6814339B008F
:100D200013445B681B683B613B681B787A6814332B
:100D30009B0013445B681B69BB603B685B69002BCD
:100D40000FD13B689B68DBB203F07F03DAB23B7ADA
:100D500062F306033B72BB7A012262F3C403BB72E7
:100D600012E03B689A683B685A613B689B68DBB25B
:100D700003F07F03DAB23B7A62F306033B72BB7A7D
:100D8000012262F3C403BB723B681B787A68143398
:100D90009B0013445B68BA681A617B68DB78012B9F
:100DA00009D13B681B787A6814339B0013445B6855
:100DB0003A6812695A61FB7C43F00403FB74FB7CC4
:100DC00043F08003FB743B681B787A6814339B0004
:100DD00013445B683A691A60FB7F18462437BD46A6
:100DE0005DF8047B704700BF80B487B000AF7860C7
:100DF00039600023FB750023FB603B685B78012BA7
:100E00001CD13B681B787A6804339B0013449B68B1
:100E10003B613B691B68FB60FB7BC3F3C013DBB228
:100E2000002B03D0FB7B43F04003FB73BB7B43F001
:100E30002003BB73FA683B691A6011E03B681B78BA
:100E40007A6814339B0013445B683B613B691B6801
:100E5000FB60BB7B43F02003BB73FA683B691A60FD
:100E6000FB7D18461C37BD465DF8047B704700BF0C
:100E700080B487B000AF786039600023FB74002332
:100E8000FB603B685B78012B08D13B681B787A6874
:100E900004339B0013449B687B6107E03B681B782D
:100EA0007A6814339B0013445B687B617B691B6821
:100EB000FB60BB7B6FF34513BB733B68DB78032B95
:100EC00003D03B68DB78022B03D1FB7B43F010039C
:100ED000FB73FA687B691A60FB7C18461C37BD46B9
:100EE0005DF8047B704700BF80B485B000AF7860C8
:100EF0007B681B699B69FB607B681B69DB69FA681F
:100F00001340FB60FB681B0C18461437BD465DF8A8
:100F1000047B704780B485B000AF78600B46FB70EF
:100F2000FB787A6814339B0013445B689B68FB6012
:100F30007B681B695B69FA681340FB60FB681846B5
:100F40001437BD465DF8047B704700BF80B485B0A0
:100F500000AF78607B681B699B69FB607B681B69DD
:100F6000DB69FA681340FB60FB689BB218461437D4
:100F7000BD465DF8047B704780B487B000AF7860F1
:100F800000233B61FB7C43F0C003FB74BB7C01226C
:100F900062F3C403BB743B7C182262F306033B7408
:100FA0007B685B6D3A691A617B68DB78012B16D12F
:100FB0000023FB607B685B6D7A6802F5B9625A6159
:100FC0007B685B6D1B68FB60FB7B43F08003FB73FE
:100FD0004FF08023FB607B685B6DFA681A601C37FA
:100FE000BD465DF8047B704780B485B000AF786083
:100FF0007B689B7A002B1BD07B681B699B68FB601E
:101000003B7BC3F30003DBB2012B11D17B6803F5FB
:1010100086731B68BB603B7A6FF341033B723B7A7C
:101020006FF300033B727B68D3F80C31BA681A6027
:101030001437BD465DF8047B704700BF80B584B0AF
:1010400000AF39600146F971BA80BB713A6800237C
:10105000C4F202039A4204D10120012105F06AFD85
:101060002EE03A684FF48063C4F202039A4204D13E
:101070000220012105F05EFD22E03A684FF4006392
:10108000C4F202039A4204D10420012105F052FD6A
:1010900016E03A684FF44063C4F202039A4204D166
:1010A0000820012105F046FD0AE03A684FF480531C
:1010B000C4F202039A4203D11020012105F03AFD47
:1010C00007F10803184606F077FCBB88BB60FB7984
:1010D0003B733B7EBB73BB79FB7303237B7307F1CD
:1010E00008033868194606F0D9FBFB79012B04D1B7
:1010F000BB883868194606F0BBFC1037BD4680BD7A
:1011000080B483B000AF78600B46FB70FB78002B97
:101110000CD04FF43053C4F201034FF43052C4F2F8
:101120000102D16B7A680A43DA630CE04FF4305362
:10113000C4F201034FF43052C4F20102D16B7A6859
:10114000D2430A40DA630C37BD465DF8047B704732
:1011500080B485B000AF78600023FB734FF4305348
:10116000C4F201035A6B7B681340002B02D00123A9
:10117000FB7301E00023FB73FB7B18461437BD466D
:101180005DF8047B704700BF80B483B000AF786027
:101190004FF43053C4F201037A689A630C37BD46AA
:1011A0005DF8047B704700BF80B483B000AF786007
:1011B00039600C37BD465DF8047B704780B500AFE1
:1011C0000023C4F201031B889BB21B099BB2002BB6
:1011D0000BD040F21463C2F200031B685A1E40F2A7
:1011E0001463C2F200031A6013E00023C4F2010387
:1011F0001B889BB21B099BB2002B0AD140F21463DF
:10120000C2F200031B685A1C40F21463C2F20003CE
:101210001A600020C4F2010001210AF085FE80BDA1
:1012200080B500AF4FF080431B889BB21B099BB277
:10123000002B0BD040F21863C2F200031B685A1E49
:1012400040F21863C2F200031A6012E04FF08043CC
:101250001B889BB21B099BB2002B0AD140F218637A
:10126000C2F200031B685A1C40F21863C2F200036A
:101270001A604FF0804001210AF056FE80BD00BF89
:1012800080B500AF4FF48063C4F200031B889BB2AB
:101290001B099BB2002B0BD040F21C63C2F200036F
:1012A0001B685A1E40F21C63C2F200031A6014E06D
:1012B0004FF48063C4F200031B889BB21B099BB2EE
:1012C000002B0AD140F21C63C2F200031B685A1CB7
:1012D00040F21C63C2F200031A604FF48060C4F253
:1012E000000001210AF020FE80BD00BF80B500AFE4
:1012F0004FF40063C4F200031B889BB21B099BB22E
:10130000002B0BD040F22063C2F200031B685A1E70
:1013100040F22063C2F200031A6014E04FF400634D
:10132000C4F200031B889BB21B099BB2002B0AD19D
:1013300040F22063C2F200031B685A1C40F2206393
:10134000C2F200031A604FF40060C4F200000121F1
:101350000AF0EAFD80BD00BF80B500AF4FF44063E6
:10136000C4F200031B889BB21B099BB2002B0BD05D
:1013700040F22463C2F200031B685A1E40F2246349
:10138000C2F200031A6014E04FF44063C4F2000399
:101390001B889BB21B099BB2002B0AD140F224632D
:1013A000C2F200031B685A1C40F22463C2F200031D
:1013B0001A604FF44060C4F2000001210AF0B4FD4D
:1013C00080BD00BF80B500AF4FF48063C4F201035D
:1013D0001B889BB21B099BB2002B0BD040F22863E9
:1013E000C2F200031B685A1E40F22863C2F20003D7
:1013F0001A6014E04FF48063C4F201031B889BB2AF
:101400001B099BB2002B0AD140F22863C2F20003F1
:101410001B685A1C40F22863C2F200031A604FF4A2
:101420008060C4F2010001210AF07EFD80BD00BF92
:1014300080B500AF4FF4C053C4F200031B889BB2C9
:101440001B099BB2002B0BD040F22C63C2F20003AD
:101450001B685A1E40F22C63C2F200031A6014E0AB
:101460004FF4C053C4F200031B889BB21B099BB20C
:10147000002B0AD140F22C63C2F200031B685A1CF5
:1014800040F22C63C2F200031A604FF4C050C4F261
:10149000000001210AF048FD80BD00BF80B500AF0B
:1014A0000020C4F201000AF0FFF9024640F2146382
:1014B000C2F200031B681B041344184680BD00BF22
:1014C00080B500AF4FF080400AF0EEF9024640F2DE
:1014D0001863C2F200031B681B041344184680BD46
:1014E00080B500AF4FF48060C4F200000AF0DCF970
:1014F000024640F21C63C2F200031B681B04134443
:10150000184680BD80B500AF4FF40060C4F2000003
:101510000AF0CAF9024640F22063C2F200031B68D7
:101520001B041344184680BD80B500AF4FF44060E3
:10153000C4F200000AF0B8F9024640F22463C2F295
:1015400000031B681B041344184680BD80B500AF20
:101550004FF48060C4F201000AF0A6F9024640F29E
:101560002863C2F200031B681B041344184680BDA5
:1015700080B500AF4FF4C050C4F200000AF094F9F7
:10158000024640F22C63C2F200031B681B041344A2
:10159000184680BD90B59DB002AFF860B9601346A3
:1015A000FB800023A7F866300023A7F86430F868B2
:1015B00008F086FDFB88002200920220B9681A46D6
:1015C0000123FFF73BFDFA8807F120031046194677
:1015D00008F0E4FB0023A7F8663025E0B7F8663092
:1015E0005B0007F168010B4433F8483C012B16D12E
:1015F000B7F8663010335B0007F16802134433F824
:10160000463C184608F070FF03461C46F86808F090
:10161000E1FF0346B86821461A4606F037FAB7F8E4
:1016200066300133A7F86630B7F866300F2BD5D98E
:1016300040F24003C2F200031A684DF62913C6F2C5
:101640004263A3FB02135B0E9BB2013BA7F864301D
:101650004FF6FE73BB610023BB820023BB830023D4
:10166000FB8207F11403F86819460AF085F8B7F809
:101670006430F868194601220AF0F4F8F86803218A
:10168000002200230AF060FCF868012101220AF020
:1016900027FCF86801210AF033F9F86808F0C2FC69
:1016A0000346184608F00AFF00F056F86C37BD46AE
:1016B00090BD00BF80B582B000AF78607A6800232B
:1016C000C4F201039A4203D1FFF7E8FE03463FE06C
:1016D0007B68B3F1804F03D1FFF7F2FE034637E09A
:1016E0007A684FF48063C4F200039A4203D1FFF793
:1016F000F7FE03462CE07A684FF40063C4F200035F
:101700009A4203D1FFF7FEFE034621E07A684FF4C8
:101710004063C4F200039A4203D1FFF705FF03467A
:1017200016E07A684FF48063C4F201039A4203D151
:10173000FFF70CFF03460BE07A684FF4C053C4F286
:1017400000039A4203D1FFF713FF034600E0002392
:1017500018460837BD4680BD80B500AF40F214631F
:10176000C2F2000300221A6040F21863C2F20003C2
:1017700000221A6040F21C63C2F2000300221A60C9
:1017800040F22063C2F2000300221A6040F2246398
:10179000C2F2000300221A6040F22863C2F2000382
:1017A00000221A6040F22C63C2F2000300221A6089
:1017B0000020C4F2010000210AF068F84FF08040D8
:1017C00000210AF063F84FF48060C4F200000021A9
:1017D0000AF05CF84FF40060C4F2000000210AF047
:1017E00055F84FF44060C4F2000000210AF04EF8B2
:1017F0004FF48060C4F2010000210AF047F84FF472
:10180000C050C4F2000000210AF040F880BD00BFC3
:1018100080B500AF41F2E400C2F2000007F044FAE4
:1018200080BD00BF80B500AF41F2E403C2F2000307
:101830009B7A002B13D04EF61053CEF200034EF6D7
:101840001052CEF20002126822F006021A6006F070
:1018500063F941F2E400C2F20000FFF7C5FB4FF468
:10186000802008F08BFA80BD80B58AB000AF786028
:10187000396000237B6200233B620023FB6100236D
:10188000BB617B681B8A9BB27B627B6A23F44053FB
:101890007B623B68DB887A6A13437B627B6A9AB21D
:1018A0007B681A827B689B899BB27B627B6A23F48C
:1018B000B05323F00C037B623B689A883B681B891A
:1018C00013439AB23B685B8913439BB27A6A134312
:1018D0007B627B6A9AB27B689A817B689B8A9BB2A7
:1018E0007B627B6A23F440737B623B689B897A6AE4
:1018F00013437B627B6A9AB27B689A8207F1080382
:10190000184605F043F87A684FF48053C4F2010397
:101910009A4206D07A684FF4A053C4F201039A4267
:1019200002D17B693B6201E03B693B627B689B893A
:101930009BB29BB21BB2002B0CDA3A6A13469B0097
:1019400013449A001A443B681B685B00B2FBF3F334
:10195000FB610BE03A6A13469B0013449A001A4459
:101960003B681B689B00B2FBF3F3FB61FA6948F22A
:101970001F53C5F2EB13A3FB02135B091B017B6230
:101980007B6A1B09642202FB03F3FA69D31ABB6169
:101990007B689B899BB29BB21BB2002B10DABB69A0
:1019A000DB0003F1320248F21F53C5F2EB13A3FB35
:1019B00002135B0903F007037A6A13437B620FE0AB
:1019C000BB691B0103F1320248F21F53C5F2EB134E
:1019D000A3FB02135B0903F00F037A6A13437B62D4
:1019E0007B6A9AB27B681A812837BD4680BD00BFEA
:1019F00080B483B000AF78600B46FB70FB78002B9F
:101A000008D07B689B899BB243F400539AB27B68F1
:101A10009A8107E07B689B899BB223F400539AB2BA
:101A20007B689A810C37BD465DF8047B704700BF28
:101A300080B483B000AF78600B467B807B88C3F3B3
:101A400008039AB27B689A800C37BD465DF8047B28
:101A5000704700BF80B483B000AF78607B689B881C
:101A60009BB2C3F308039BB218460C37BD465DF822
:101A7000047B704780B487B000AF786013460A4695
:101A80007A807B7000233B610023FB600023BB60F6
:101A900000237B617B687B617B88DBB25B09DBB207
:101AA0003B617B8803F01F03FB60FB68012202FAA5
:101AB00003F3BB603B69012B03D17B690C337B6172
:101AC00009E03B69022B03D17B6910337B6102E0A3
:101AD0007B6914337B617B78002B06D07B697A6944
:101AE0001168BA680A431A6006E07B697A6911686E
:101AF000BA68D2430A401A601C37BD465DF8047BC1
:101B0000704700BF80B485B000AF78600B467B8023
:101B10000023FB737B681B889AB27B8813409BB2BF
:101B2000002B02D00123FB7301E00023FB73FB7B3E
:101B300018461437BD465DF8047B704780B582B007
:101B400000AF78607A684FF4C843C4F200039A4249
:101B50000AD14FF00070012105F064F84FF00070D9
:101B6000002105F05FF809E04FF08060012105F0E9
:101B700059F84FF08060002105F054F80837BD4651
:101B800080BD00BF80B485B000AF786039600023AD
:101B9000FB730023BB607B681B6823F002027B6839
:101BA0001A607B681B6843F001027B681A6002E0E0
:101BB000BB680133BB607B685B6803F00103002BEB
:101BC00004D1BA684FF6FF739A42F1D17B685B6823
:101BD00003F00103002B02D10023FB739CE03B6860
:101BE0009B79012B06D17B681B6843F080027B68E0
:101BF0001A6005E07B681B6823F080027B681A602E
:101C00003B68DB79012B06D17B681B6843F04002FF
:101C10007B681A6005E07B681B6823F040027B68E4
:101C20001A603B681B7A012B06D17B681B6843F066
:101C300020027B681A6005E07B681B6823F02002A5
:101C40007B681A603B685B7A012B06D17B681B6856
:101C500043F010027B681A6005E07B681B6823F084
:101C600010027B681A603B689B7A012B06D17B6867
:101C70001B6843F008027B681A6005E07B681B68FC
:101C800023F008027B681A603B68DB7A012B06D1DF
:101C90007B681B6843F004027B681A6005E07B6880
:101CA0001B6823F004027B681A603B689B789A07E4
:101CB0003B68DB781B061A433B681B791B041A43FD
:101CC0003B685B791B051A433B681B88013B1A4341
:101CD0007B68DA617B681B6823F001027B681A600D
:101CE0000023BB6002E0BB680133BB607B685B68BC
:101CF00003F00103002B04D0BA684FF6FF739A4239
:101D0000F1D17B685B6803F00103002B02D0002354
:101D1000FB7301E00123FB73FB7B18461437BD46C0
:101D20005DF8047B704700BF80B485B000AF786079
:101D30000023FB607B689B7A012202FA03F3FB60BD
:101D40004FF4C843C4F200034FF4C842C4F2000287
:101D5000D2F8002242F00102C3F800224FF4C84337
:101D6000C4F200034FF4C842C4F20002D2F81C12BD
:101D7000FA68D2430A40C3F81C227B681B7B002B05
:101D80002DD14FF4C843C4F200034FF4C842C4F24B
:101D90000002D2F80C12FA68D2430A40C3F80C22AF
:101DA0004FF4C843C4F200037A68927A7968C9880C
:101DB0000804796849880143483243F832104FF4E7
:101DC000C842C4F200027B689B7A7968898808045B
:101DD0007968098801434833DB00134459607B6804
:101DE0001B7B012B2CD14FF4C843C4F200034FF4EA
:101DF000C842C4F20002D2F80C12FA680A43C3F8CF
:101E00000C224FF4C843C4F200037A68927A7968CE
:101E100009880804796849880143483243F8321038
:101E20004FF4C842C4F200027B689B7A79688988C3
:101E300008047968C98801434833DB0013445960BA
:101E40007B68DB7A002B0FD14FF4C843C4F2000348
:101E50004FF4C842C4F20002D2F80412FA68D24326
:101E60000A40C3F804220DE04FF4C843C4F2000353
:101E70004FF4C842C4F20002D2F80412FA680A43CE
:101E8000C3F804227B681B89002B0ED14FF4C84392
:101E9000C4F200034FF4C842C4F20002D2F8141294
:101EA000FA68D2430A40C3F814227B681B89012BCD
:101EB0000DD14FF4C843C4F200034FF4C842C4F23A
:101EC0000002D2F81412FA680A43C3F814227B689D
:101ED0005B7B012B0DD14FF4C843C4F200034FF4D8
:101EE000C842C4F20002D2F81C12FA680A43C3F8CE
:101EF0001C224FF4C843C4F200034FF4C842C4F29A
:101F00000002D2F8002222F00102C3F800221437A6
:101F1000BD465DF8047B704780B483B000AF786045
:101F20007B6800229A717B680022DA717B6800224C
:101F30001A727B6800225A727B6800229A727B6850
:101F40000022DA727B6800229A707B680022DA70C5
:101F50007B6803221A717B6802225A717B68012216
:101F60001A800C37BD465DF8047B704780B485B09D
:101F700000AF786039600023FB737B689B6803F0D7
:101F80008063002B02D00023FB7313E07B689B6807
:101F900003F00063002B02D00123FB730AE07B688F
:101FA0009B6803F08053002B02D00223FB7301E0F7
:101FB0000423FB73FB7B042B00F09880FB7BFA7BF4
:101FC0007968183212010A44126802F00102796835
:101FD00018331B010B441A603B681B7A002B13D18A
:101FE000FB7BFA7B7968183212010A4411683A685F
:101FF000126850053A68527A02430A4379681833E6
:102000001B010B441A6015E0FB7BFA7B79681832E0
:1020100012010A4411683A685268D0003A68127A8C
:1020200010433A68527A02430A43796818331B0115
:102030000B441A603B689B7A03F00F03DAB23B68EB
:102040009A72FB7BFA7B7968183212010A44526853
:1020500022F00F02796818331B010B445A60FB7B96
:10206000FA7B7968183212010A4451683A68927A08
:102070000A43796818331B010B445A60FB7B3A68AA
:10208000927B11063A68527B120411433A68127B24
:10209000120211433A68D27A0A4379681B010B4451
:1020A00003F5C4731A60FB7B3A68927C11063A68A8
:1020B000527C120411433A68127C120211433A68AE
:1020C000D27B0A4379681B010B4403F5C4735A6041
:1020D000FB7BFA7B7968183212010A44126842F0DD
:1020E0000102796818331B010B441A60FB7B184608
:1020F0001437BD465DF8047B704700BF80B485B0DF
:1021000000AF78600B46FB700023FB60FB78012B6F
:102110000BD0022B12D0002B18D17B689A680323B6
:10212000C0F200431340FB6013E07B689A684FF4F1
:102130004073C0F600031340FB600AE07B689A68B6
:102140000023C1F203031340FB6002E00023FB60A5
:1021500000BFFB684FF48072C0F60002934229D0A2
:102160004FF48072C0F6000293420CD80122C0F2F4
:10217000004293421BD00322C0F2004293421FD080
:10218000002B11D025E00022C1F20102934214D0AD
:102190000022C1F20302934218D04FF44072C0F6FD
:1021A000000293420FD014E00223FB6014E00023EE
:1021B000FB6011E00023FB600EE00023FB600BE0FE
:1021C0000123FB6008E00123FB6005E00123FB60C5
:1021D00002E00023FB6000BFFB68DBB21846143747
:1021E000BD465DF8047B704780B485B000AFF860F1
:1021F0000B467A60FB72FB7AFA681B331B011344AF
:102200001B68DBB203F00403DAB27B681A727B68E6
:102210001B7A002B09D1FB7AFA681B331B0113448C
:102220001B685A0D7B681A6008E0FB7AFA681B335A
:102230001B0113441B68DA087B685A60FB7AFA6852
:102240001B331B0113441B68DBB203F00203DAB239
:102250007B685A72FB7AFA681B331B0113445B6874
:10226000DBB203F00F03DAB27B689A72FB7AFA688A
:102270001B331B0113445B681B0ADAB27B68DA74F8
:10228000FB7AFA681B01134403F5DC731B68DAB2AE
:102290007B68DA72FB7AFA681B01134403F5DC737E
:1022A0001B681B0ADAB27B681A73FB7AFA681B0197
:1022B000134403F5DC731B681B0CDAB27B685A739A
:1022C000FB7AFA681B01134403F5DC731B681B0ED1
:1022D000DAB27B689A73FB7AFA681B01134403F540
:1022E000DC735B68DAB27B68DA73FB7AFA681B012D
:1022F000134403F5DC735B681B0ADAB27B681A745B
:10230000FB7AFA681B01134403F5DC735B681B0C52
:10231000DAB27B685A74FB7AFA681B01134403F53E
:10232000DC735B681B0EDAB27B689A74FB7A002B55
:1023300006D1FB68DB6843F02002FB68DA6005E049
:10234000FB681B6943F02002FB681A611437BD4625
:102350005DF8047B704700BF80B485B000AFF860C3
:10236000B9601346FB71FB79002B06D0FB685A69F4
:10237000BB681A43FB685A6106E0FB685A69BB6890
:10238000DB431A40FB685A611437BD465DF8047B95
:10239000704700BF80B584B000AF7860396000231B
:1023A000FB737B685A693B681340002B00F0B580D3
:1023B0003B68402B65D0402B0FD8042B3DD0042B1D
:1023C00004D8012B24D0022B2ED0A2E0102B46D013
:1023D000202B4DD0082B39D09BE0B3F5006F00F0D7
:1023E0008680B3F5006F09D8B3F5007F6DD0B3F5E3
:1023F000806F73D0B3F5807F5ED08AE0B3F5803F05
:1024000048D0B3F5003F4ED0B3F5004F78D080E010
:102410007B689B68184640F20111C0F2010100F090
:1024200083F80346FB7377E07B68DB68184603217B
:1024300000F07AF80346FB736EE07B68DB681846B1
:10244000082100F071F80346FB7365E07B68DB68E8
:102450001846102100F068F80346FB735CE07B68C7
:102460001B691846032100F05FF80346FB7353E035
:102470007B681B691846082100F056F80346FB7379
:102480004AE07B681B691846102100F04DF80346AE
:10249000FB7341E07B685B681846082100F044F854
:1024A0000346FB7338E07B685B681846102100F038
:1024B0003BF80346FB732FE07B689B6918460121BC
:1024C00000F032F80346FB7326E07B689B691846F0
:1024D000022100F029F80346FB731DE07B689B692D
:1024E0001846042100F020F80346FB7314E07B68D3
:1024F0009B691846702100F017F80346FB730BE048
:102500007B685B681846042100F00EF80346FB73F5
:1025100002E00023FB7300BF01E00023FB73FB7BA1
:1025200018461037BD4680BD80B485B000AF7860D6
:1025300039600023FB737A683B681340002B02D09C
:102540000123FB7301E00023FB73FB7B1846143768
:10255000BD465DF8047B704780B400AF40F2306345
:10256000C2F20003D3E90023501C43F1000140F202
:102570003063C2F20003C3E90001BD465DF8047B8D
:10258000704700BF80B500AF00F010F802460B4660
:10259000104619464FF47A724FF000030BF0C8FD55
:1025A00002460B461046194680BD00BF80B400AFFE
:1025B00040F23063C2F20003D3E900230A2101FB99
:1025C00003F0002101FB02F101440A20A2FB0023D9
:1025D00019440B4610461946BD465DF8047B70470A
:1025E00080B500AF4CF2AC50C3F2277005F094F800
:1025F00080BD00BF80B584B000AFC7E900010023F3
:10260000FB60FFF7BFFF02460B461346FB6000BFAF
:10261000FFF7B8FFFB681A464FEAE273821A61EBD4
:102620000303D7E90001904271EB030CF0DA103795
:10263000BD4680BD80B58AB002AFF8607A600A46B8
:10264000FA723B8107F114031846FFF765FCFB683B
:10265000012B0BD14FF4C840C4F20000FFF76EFA13
:102660004FF00070012104F08DFA0DE0FB68022BA1
:102670000AD14FF4D040C4F20000FFF75FFA4FF0E8
:102680008060012104F07EFA3B8900220092022042
:1026900079681A460123FEF7D1FCBB8D0022009217
:1026A0000220B96A1A460123FEF7C8FCFB68012B19
:1026B00014D13B89184607F017FF0346786819467E
:1026C000092205F0E3F9BB8D184607F00DFF03461C
:1026D000B86A1946092205F0D9F916E0FB68022B01
:1026E00013D13B89184607F0FFFE03467868194668
:1026F000092205F0CBF9BB8D184607F0F5FE03461D
:10270000B86A1946092205F0C1F90123BB760023F6
:10271000FB7600233B7700237B770023BB770023E6
:10272000FB77FB7ABB750023FB7505233B760623FD
:102730007B760323BB82FB68012B09D107F11403CD
:102740004FF4C840C4F200001946FFF71BFA0BE033
:10275000FB68022B08D107F114034FF4D040C4F2F8
:1027600000001946FFF70EFA4FF4E06007F094FFFF
:10277000FB68012B0BD1142007F0A0FE4FF4C840DA
:10278000C4F2000002210122FFF7E6FD0DE0FB6824
:10279000022B0AD1402007F091FE4FF4D040C4F242
:1027A000000002210122FFF7D7FD2037BD4680BD82
:1027B00080B586B000AF7860F9703A80BB700023B6
:1027C000FB820023FB820EE0FB8ADBB2BB7400239A
:1027D0003B8200237B7507F108031846FFF7A4FA34
:1027E000FB8A0133FB82B7F916300D2BECDD7B68D9
:1027F000DBB2BB7400233B8201237B75FB78002B8B
:1028000002D10023FB7404E0FB78012B01D10123EA
:10281000FB7400233B75B7F900305B019AB2BB78BB
:102820001B019BB213439BB29BB27B81B7F9203053
:102830005B019AB297F824301B019BB213439BB201
:102840009BB2FB81B7F928305B019AB297F82C3024
:102850001B019BB213439BB29BB23B81B7F9303053
:102860005B019AB297F834301B019BB213439BB2C1
:102870009BB2BB8107F108031846FFF755FA1837DA
:10288000BD4680BD80B582B000AF78604FF4C840CF
:10289000C4F200007968FFF769FB00BF4FF4C8403D
:1028A000C4F200000021FFF729FC0346012BF5D1FB
:1028B0000837BD4680BD00BF80B582B000AF43F28F
:1028C000F073C0F602037B6040F20003C2F2000323
:1028D0003B6007E03B681A1D3A607A68111D796019
:1028E00012681A603A6840F2F853C2F200039A4242
:1028F000F0D3084808494FF000028842B8BF40F8BA
:10290000042BFADB04F0DEF903F068FF0837BD465C
:1029100080BD0000F8050020E836002080B400AF3C
:10292000FEE700BF80B584B000AF786007F1080310
:102930007868194606F04EF93B7A03F01F03012B25
:102940000AD0022B0FD0002B14D107F108037868AE
:10295000194605F039FD16E007F1080378681946B5
:1029600005F082FD0FE007F108037868194605F0CD
:10297000AFFD08E03B7A23F07F03DBB278681946AD
:1029800007F0CEFF00BF002318461037BD4680BDBC
:1029900080B584B000AF78600B46FB70FB78002BED
:1029A00045D17B6803F55C73FB607B6893F811315C
:1029B000032B4FD1FB68DA69FB689B689A4221D9E7
:1029C000FB68DA69FB689B68D21AFB68DA617B688E
:1029D000DB78012B06D1FB68DA68FB689B681A4438
:1029E000FB68DA60FB68DA68FB689968FB68DB699A
:1029F000994238BF0B469BB2786811461A4608F0D8
:102A000007FE27E07B68D3F8E0351B69002B0AD06E
:102A10007B6893F81231032B05D17B68D3F8E0353E
:102A20001B6978689847786808F006FE12E07B68B2
:102A3000D3F8E0359B69002B0CD07B6893F81231FA
:102A4000032B07D17B68D3F8E0359B69FA78786867
:102A500011469847002318461037BD4680BD00BF79
:102A600080B584B000AF78600B46FB70FB78002B1C
:102A700060D17B6803F58C73FB607B6893F8113140
:102A8000022B6AD1FB68DA69FB689B689A421CD901
:102A9000FB68DA69FB689B68D21AFB68DA617B68BD
:102AA000DB78012B06D1FB68DA68FB689B681A4467
:102AB000FB68DA60FB68DA68FB68DB699BB2786800
:102AC00011461A4608F090FD47E0FB681B6AFA6859
:102AD0009268B3FBF2F102FB01F29B1A002B14D1B6
:102AE000FB681A6AFB689B689A420ED3FB681A6AF5
:102AF000FB685B6A9A4208D278680021002208F0DD
:102B000073FDFB6800225A6227E07B68D3F8E0354A
:102B1000DB68002B0AD07B6893F81231032B05D1B8
:102B20007B68D3F8E035DB6878689847786808F008
:102B30009BFD12E07B68D3F8E0355B69002B0CD07D
:102B40007B6893F81231032B07D17B68D3F8E0350B
:102B50005B69FA7878681146984700231846103761
:102B6000BD4680BD80B582B000AF78607868002136
:102B70004022002307F00AFE7868802140220023CB
:102B800007F004FE7B68012283F812217B68D3F8EA
:102B9000E4355B687A6892781046984700231846B7
:102BA0000837BD4680BD00BF80B582B000AF7860F9
:102BB0007B68D3F8E4351B6998477B68032283F868
:102BC0001221002318460837BD4680BD80B582B06B
:102BD00000AF78607B68042283F812217B68D3F809
:102BE000E435DB689847002318460837BD4680BDAA
:102BF00080B582B000AF78607B68D3F8E035DB69E0
:102C0000002B05D07B68D3F8E035DB6978689847FE
:102C1000002318460837BD4680BD00BF80B582B08E
:102C200000AF78600B46FB707B68D3F8E0351B681B
:102C3000FA787868114698477B68D3F8E4359B6842
:102C40009847002318460837BD4680BD80B582B03E
:102C500000AF78600B46FB707B68D3F8E0355B68AB
:102C6000FA78786811469847002318460837BD4619
:102C700080BD00BF80B582B000AF78607B68D3F8BC
:102C8000E0351B6A78689847002318460837BD4628
:102C900080BD00BF80B582B000AF78607B68D3F89C
:102CA000E0355B6A78689847002318460837BD46C8
:102CB00080BD00BF80B582B000AF78607B68064AF7
:102CC0001A607B680433184603F0B8FC7B6818462A
:102CD0000837BD4680BD00BF3805020880B582B008
:102CE00000AF786039607B681846FFF7E3FF7B68C8
:102CF000074A1A607B683A68C3F818217B6800228B
:102D0000C3F814217B6818460837BD4680BD00BF54
:102D10002803020880B582B000AF78600B46FB70D4
:102D20007B681A1DFB781046194603F09BFC03468E
:102D3000002B14BF00230123DBB2002B0AD0FB7849
:102D40000D2B13D17B68D3F814315A1C7B68C3F860
:102D500014210BE07B68D3F81431002B06D1FB78EB
:102D60000D2B03D17B680122C3F814210837BD461F
:102D700080BD00BF80B582B000AF78607B6804334F
:102D8000184603F0A1FC0346002B14BF00230123C7
:102D9000DBB218460837BD4680BD00BF80B483B0A3
:102DA00000AF78607B68D3F8143118460C37BD4605
:102DB0005DF8047B704700BF80B582B000AF7860DB
:102DC0007B680433184603F095FC03461846083721
:102DD000BD4680BD90B585B000AF786039607B6836
:102DE0000433184603F070FC0346002B0CBF00238D
:102DF0000123DBB2002B08D03B6800221A707B68ED
:102E00000022C3F81421002354E00023FB604DE0AE
:102E1000FB683A68D4187B680433184603F06AFCF0
:102E200003462370FB683A6813441B780D2B02D0CD
:102E3000FB68FE2B1FDDFB683A68134400221A7002
:102E40007B680433184603F03FFC0346002B0CBF9D
:102E500000230123DBB2002B04D07B680022C3F8DF
:102E6000142106E07B68D3F814315A1E7B68C3F83E
:102E70001421FB681EE07B680433184603F024FC31
:102E80000346002B0CBF00230123DBB2002B0AD02A
:102E9000FB683A68134400221A707B680022C3F86A
:102EA0001421FB6806E0FB680133FB60FB68FF2B25
:102EB000AEDD002318461437BD4690BD80B582B004
:102EC00000AF78607B689B68012B06D17B685B68EC
:102ED0001846FFF763FF034600E000231846083753
:102EE000BD4680BD80B582B000AF786039603B6878
:102EF00000221A707B689B68012B07D17B685B6896
:102F000018463968FFF766FF034600E000231846BD
:102F10000837BD4680BD00BF80B582B000AF786085
:102F20007B689B68012B06D17B685B681846FFF7BE
:102F300021FF034600E0002318460837BD4680BD48
:102F400080B582B000AF78607B689B68012B06D1AA
:102F50007B685B681846FFF72FFF034600E00023FD
:102F600018460837BD4680BD80B584B000AF786094
:102F700039600023FB600DE07B681B6804331B682D
:102F8000FA6839680A441278786811469847FB68ED
:102F90000133FB60FB683A6813441B78002BEBD1CC
:102FA0001037BD4680BD00BF90B587B002AFF86056
:102FB000B9607A603B60FB6802229A60FB681B681C
:102FC0001C683B680093F868B9687A683B6AA04758
:102FD000034618461437BD4690BD00BF90B587B074
:102FE00002AFF860B9607A603B60FB6801229A60CA
:102FF0004FF48E7014F03EFF04462046F968FFF748
:103000006DFEFB685C60FB681B681C68FB685B68A6
:103010007A680092F868B9681A463B68A047034688
:1030200018461437BD4690BD80B582B000AF7860B9
:103030007B681B681B687868984703461846083702
:10304000BD4680BD80B582B000AF78607B681B68EC
:1030500004331B6878689847034618460837BD460E
:1030600080BD00BF80B584B000AFF860B9607A6001
:10307000FB681B681B68F868B9687A68984703465C
:1030800018461037BD4680BD80B582B000AF78606D
:1030900039607B681B6804331B6878683968984717
:1030A0000837BD4680BD00BF80B582B000AF7860F4
:1030B0007B681B6808331B68786898470346184686
:1030C0000837BD4680BD00BF80B483B000AF7860D4
:1030D00040F6FF7318460C37BD465DF8047B704719
:1030E000A0F10800F0E700BF80B483B000AF7860C3
:1030F00043F23333C4F2530318460C37BD465DF830
:10310000047B7047A0F10800EEE700BF80B483B0F5
:1031100000AF786040F6FF7318460C37BD465DF887
:10312000047B7047A0F10800F0E700BF80B483B0D3
:1031300000AF786043F23333C4F2530318460C37C0
:10314000BD465DF8047B7047A0F10800EEE700BFC4
:1031500080B483B000AF786040F6FF7318460C3738
:10316000BD465DF8047B7047A0F10800F0E700BFA2
:1031700080B483B000AF786043F23333C4F25303BA
:1031800018460C37BD465DF8047B7047A0F1080077
:10319000EEE700BF80B483B000AF786040F6FF7305
:1031A00018460C37BD465DF8047B7047A0F1080057
:1031B000F0E700BF80B483B000AF786043F23333F0
:1031C000C4F2530318460C37BD465DF8047B7047C4
:1031D000A0F10800EEE700BF80B483B000AF7860D4
:1031E00040F6FF7318460C37BD465DF8047B704708
:1031F000A0F10800F0E700BF80B483B000AF7860B2
:1032000043F23333C4F2530318460C37BD465DF81E
:10321000047B7047A0F10800EEE700BF80B582B0E4
:1032200000AF78604FF44060C4F202004FF4805168
:1032300004F0F6FB034618460837BD4680BD00BFC4
:1032400080B582B000AF786039603B68002B08D150
:103250004FF44060C4F202004FF4805104F008FCC7
:1032600007E04FF44060C4F202004FF4805104F0D4
:10327000F1FB0837BD4680BD80B582B000AF7860F5
:103280004FF44060C4F202004FF4805104F0AEFBF2
:10329000034618460837BD4680BD00BF80B584B0E0
:1032A00002AF78600023009300204FF44061C4F225
:1032B00002014FF480520023FDF7C0FE00231846A0
:1032C0000837BD4680BD00BF80B584B002AF7860CE
:1032D0000023009301204FF44061C4F202014FF437
:1032E00080520023FDF7AAFE002318460837BD468A
:1032F00080BD00BF80B584B002AF7860002300932A
:1033000000204FF44061C4F202014FF480520123C7
:10331000FDF794FE002318460837BD4680BD00BF68
:1033200080B584B002AF78600023009300204FF492
:103330004061C4F202014FF480520223FDF77EFE89
:10334000002318460837BD4680BD00BF80B582B057
:1033500000AF78604FF48050C4F202004FF4004197
:1033600004F05EFB034618460837BD4680BD00BF2B
:1033700080B582B000AF786039603B68002B08D11F
:103380004FF48050C4F202004FF4004104F070FB8F
:1033900007E04FF48050C4F202004FF4004104F003
:1033A00059FB0837BD4680BD80B582B000AF78605C
:1033B0004FF48050C4F202004FF4004104F016FBB9
:1033C000034618460837BD4680BD00BF80B584B0AF
:1033D00002AF78600023009300204FF48051C4F2C4
:1033E00002014FF400420023FDF728FE0123184696
:1033F0000837BD4680BD00BF80B584B002AF78609D
:103400000023009301204FF48051C4F202014FF4D5
:1034100000420023FDF712FE002318460837BD4680
:1034200080BD00BF80B584B002AF786000230093F8
:1034300000204FF48051C4F202014FF400420123F6
:10344000FDF7FCFD012318460837BD4680BD00BFCF
:1034500080B584B002AF78600023009300204FF461
:103460008051C4F202014FF400420223FDF7E6FD51
:10347000002318460837BD4680BD00BF80B582B026
:1034800000AF78604FF48060C4F202004FF48041D6
:1034900004F0C6FA034618460837BD4680BD00BF93
:1034A00080B582B000AF786039603B68002B08D1EE
:1034B0004FF48060C4F202004FF4804104F0D8FA67
:1034C00007E04FF48060C4F202004FF4804104F042
:1034D000C1FA0837BD4680BD80B582B000AF7860C4
:1034E0004FF48060C4F202004FF4804104F07EFA91
:1034F000034618460837BD4680BD00BF80B584B07E
:1035000002AF78600023009300204FF48061C4F282
:1035100002014FF480420023FDF790FD002318467E
:103520000837BD4680BD00BF80B584B002AF78606B
:103530000023009301204FF48061C4F202014FF494
:1035400080420023FDF77AFD002318460837BD4668
:1035500080BD00BF80B584B002AF786000230093C7
:1035600000204FF48061C4F202014FF48042012335
:10357000FDF764FD002318460837BD4680BD00BF37
:1035800080B584B002AF78600023009300204FF430
:103590008061C4F202014FF480420223FDF74EFD28
:1035A000002318460837BD4680BD00BF80B582B0F5
:1035B00000AF78604FF48060C4F202004FF4004125
:1035C00004F02EFA034618460837BD4680BD00BFFA
:1035D00080B582B000AF786039603B68002B08D1BD
:1035E0004FF48060C4F202004FF4004104F040FA4E
:1035F00007E04FF48060C4F202004FF4004104F091
:1036000029FA0837BD4680BD80B582B000AF78602A
:103610004FF48060C4F202004FF4004104F0E6F978
:10362000034618460837BD4680BD00BF80B584B04C
:1036300002AF78600023009300204FF48061C4F251
:1036400002014FF400420023FDF7F8FC0023184666
:103650000837BD4680BD00BF80B584B002AF78603A
:103660000023009301204FF48061C4F202014FF463
:1036700000420023FDF7E2FC002318460837BD4650
:1036800080BD00BF80B584B002AF78600023009396
:1036900000204FF48061C4F202014FF40042012384
:1036A000FDF7CCFC002318460837BD4680BD00BF9F
:1036B00080B584B002AF78600023009300204FF4FF
:1036C0008061C4F202014FF400420223FDF7B6FC10
:1036D000002318460837BD4680BD00BF80B582B0C4
:1036E00000AF78600020C4F202004FF4004104F003
:1036F00097F9034618460837BD4680BD80B582B0AD
:1037000000AF786039603B68002B07D10020C4F21D
:1037100002004FF4004104F0ABF906E00020C4F2CF
:1037200002004FF4004104F095F90837BD4680BD12
:1037300080B582B000AF78600020C4F202004FF480
:10374000004104F053F9034618460837BD4680BDD2
:1037500080B584B002AF7860002300930020002180
:10376000C4F202014FF400420023FDF767FC00237E
:1037700018460837BD4680BD80B483B000AF78607E
:10378000012318460C37BD465DF8047B704700BF27
:1037900080B584B002AF7860002300930020002140
:1037A000C4F202014FF400420123FDF747FC00235D
:1037B00018460837BD4680BD80B584B002AF78603A
:1037C0000023009300200021C4F202014FF40042C4
:1037D0000223FDF733FC002318460837BD4680BDA1
:1037E00080B582B000AF78604FF48060C4F2020010
:1037F0004FF4005104F014F9034618460837BD464B
:1038000080BD00BF80B582B000AF786039603B6892
:10381000002B08D14FF48060C4F202004FF4005135
:1038200004F026F907E04FF48060C4F202004FF480
:10383000005104F00FF90837BD4680BD80B582B055
:1038400000AF78604FF48060C4F202004FF4005182
:1038500004F0CCF8034618460837BD4680BD00BFCB
:1038600080B584B002AF78600023009300204FF44D
:103870008061C4F202014FF400520023FDF7DEFB29
:10388000002318460837BD4680BD00BF80B483B012
:1038900000AF7860012318460C37BD465DF8047B05
:1038A000704700BF80B584B002AF786000230093FA
:1038B00000204FF48061C4F202014FF40052012352
:1038C000FDF7BCFB002318460837BD4680BD00BF8E
:1038D00080B584B002AF78600023009300204FF4DD
:1038E0008061C4F202014FF400520223FDF7A6FBEF
:1038F000002318460837BD4680BD00BF80B582B0A2
:1039000000AF78604FF44060C4F202004FF40061F1
:1039100004F086F8034618460837BD4680BD00BF50
:1039200080B582B000AF786039603B68002B08D169
:103930004FF44060C4F202004FF4006104F098F8C4
:1039400007E04FF44060C4F202004FF4006104F05D
:1039500081F80837BD4680BD80B582B000AF786081
:103960004FF44060C4F202004FF4006104F03EF8EE
:10397000034618460837BD4680BD00BF80B584B0F9
:1039800002AF78600023009300204FF44061C4F23E
:1039900002014FF400620023FDF750FB002318469C
:1039A0000837BD4680BD00BF80B483B000AF7860EB
:1039B000012318460C37BD465DF8047B704700BFF5
:1039C00080B584B002AF78600023009300204FF4EC
:1039D0004061C4F202014FF400620123FDF72EFBA7
:1039E000002318460837BD4680BD00BF80B584B0AF
:1039F00002AF78600023009300204FF44061C4F2CE
:103A000002014FF400620223FDF718FB0023184661
:103A10000837BD4680BD00BF80B582B000AF78607A
:103A20004FF44060C4F202004FF4806103F0F8FFED
:103A3000034618460837BD4680BD00BF80B582B03A
:103A400000AF786039603B68002B08D14FF44060CC
:103A5000C4F202004FF4806104F00AF807E04FF46A
:103A60004060C4F202004FF4806103F0F3FF0837B6
:103A7000BD4680BD80B582B000AF78604FF4406035
:103A8000C4F202004FF4806103F0B0FF0346184611
:103A90000837BD4680BD00BF80B584B002AF7860F6
:103AA0000023009300204FF44061C4F202014FF460
:103AB00080620023FDF7C2FA002318460837BD468E
:103AC00080BD00BF80B483B000AF7860012318468A
:103AD0000C37BD465DF8047B704700BF80B584B0ED
:103AE00002AF78600023009300204FF44061C4F2DD
:103AF00002014FF480620123FDF7A0FA002318466B
:103B00000837BD4680BD00BF80B584B002AF786085
:103B10000023009300204FF44061C4F202014FF4EF
:103B200080620223FDF78AFA002318460837BD4653
:103B300080BD00BF80B582B000AF78604FF4806078
:103B4000C4F20200022103F06BFF03461846083757
:103B5000BD4680BD80B582B000AF786039603B68FB
:103B6000002B07D14FF48060C4F20200022103F061
:103B70007FFF06E04FF48060C4F20200022103F0F0
:103B800069FF0837BD4680BD80B582B000AF786060
:103B90004FF48060C4F20200022103F027FF0346C5
:103BA00018460837BD4680BD80B584B002AF786046
:103BB0000023009300204FF48061C4F2020102222E
:103BC0000023FDF73BFA002318460837BD4680BDA9
:103BD00080B584B002AF78600023009301204FF4D9
:103BE0008061C4F2020102220023FDF727FA0023BC
:103BF00018460837BD4680BD80B584B002AF7860F6
:103C00000023009300204FF48061C4F202010222DD
:103C10000123FDF713FA002318460837BD4680BD7F
:103C200080B584B002AF78600023009300204FF489
:103C30008061C4F2020102220223FDF7FFF9002392
:103C400018460837BD4680BD80B582B000AF7860A9
:103C50000020C4F20200102103F0E2FE03461846E1
:103C60000837BD4680BD00BF80B582B000AF786028
:103C700039603B68002B06D10020C4F202001021FD
:103C800003F0F6FE05E00020C4F20200102103F06C
:103C9000E1FE0837BD4680BD80B582B000AF7860D8
:103CA0000020C4F20200102103F0A0FE03461846D3
:103CB0000837BD4680BD00BF80B584B002AF7860D4
:103CC0000023009300200021C4F2020110220023EF
:103CD000FDF7B4F9002318460837BD4680BD00BF84
:103CE00080B584B002AF78600023009301200021EA
:103CF000C4F2020110220023FDF7A0F900231846A8
:103D00000837BD4680BD00BF80B584B002AF786083
:103D10000023009300200021C4F20201102201239D
:103D2000FDF78CF9002318460837BD4680BD00BF5B
:103D300080B584B002AF786000230093002000219A
:103D4000C4F2020110220223FDF778F9002318467D
:103D50000837BD4680BD00BF80B582B000AF786037
:103D60004FF40060C4F20200012103F059FE034643
:103D700018460837BD4680BD80B582B000AF786078
:103D800039603B68002B07D14FF40060C4F2020099
:103D9000012103F06DFE06E04FF40060C4F2020062
:103DA000012103F057FE0837BD4680BD80B582B0C3
:103DB00000AF78604FF40060C4F20200012103F00C
:103DC00015FE034618460837BD4680BD80B584B051
:103DD00002AF78600023009300204FF40061C4F22A
:103DE000020101220023FDF729F9002318460837B4
:103DF000BD4680BD80B584B002AF786000230093DB
:103E000001204FF40061C4F2020101220023FDF7FA
:103E100015F9002318460837BD4680BD80B584B02B
:103E200002AF78600023009300204FF40061C4F2D9
:103E3000020101220123FDF701F90023184608378A
:103E4000BD4680BD80B584B002AF7860002300938A
:103E500000204FF40061C4F2020101220223FDF7A9
:103E6000EDF8002318460837BD4680BD80B582B006
:103E700000AF78604FF48050C4F202004FF48051DC
:103E800003F0CEFD034618460837BD4680BD00BF8F
:103E900080B582B000AF786039603B68002B08D1F4
:103EA0004FF48050C4F202004FF4805103F0E0FD63
:103EB00007E04FF48050C4F202004FF4805103F049
:103EC000C9FD0837BD4680BD80B582B000AF7860BF
:103ED0004FF48050C4F202004FF4805103F086FD8D
:103EE000034618460837BD4680BD00BF80B584B084
:103EF00002AF78600023009300204FF48051C4F299
:103F000002014FF480520023FDF798F80023184671
:103F10000837BD4680BD00BF80B584B002AF786071
:103F20000023009301204FF48051C4F202014FF4AA
:103F300080520023FDF782F8002318460837BD465B
:103F400080BD00BF80B584B002AF786000230093CD
:103F500000204FF48051C4F202014FF4805201233B
:103F6000FDF76CF8002318460837BD4680BD00BF3A
:103F700080B584B002AF78600023009300204FF436
:103F80008051C4F202014FF480520223FDF756F82B
:103F9000002318460837BD4680BD00BF80B582B0FB
:103FA00000AF78600020C4F20200202103F038FD49
:103FB000034618460837BD4680BD00BF80B582B0B5
:103FC00000AF786039603B68002B06D10020C4F256
:103FD0000200202103F04CFD05E00020C4F20200A5
:103FE000202103F037FD0837BD4680BD80B582B083
:103FF00000AF78600020C4F20200202103F0F6FC3C
:10400000034618460837BD4680BD00BF80B584B062
:1040100002AF78600023009300200021C4F2020167
:1040200020220023FDF70AF8002318460837BD4672
:1040300080BD00BF80B584B002AF786000230093DC
:1040400001200021C4F2020120220023FCF7F6FF28
:10405000002318460837BD4680BD00BF80B584B038
:1040600002AF78600023009300200021C4F2020117
:1040700020220123FCF7E2FF002318460837BD4643
:1040800080BD00BF80B584B002AF7860002300938C
:1040900000200021C4F2020120220223FCF7CEFFFF
:1040A000002318460837BD4680BD00BF80B582B0EA
:1040B00000AF78604FF48060C4F20200042103F086
:1040C000AFFC034618460837BD4680BD80B582B0B8
:1040D00000AF786039603B68002B07D14FF48060F7
:1040E000C4F20200042103F0C3FC06E04FF4806038
:1040F000C4F20200042103F0ADFC0837BD4680BDC8
:1041000080B582B000AF78604FF48060C4F20200E6
:10411000042103F06BFC034618460837BD4680BDFA
:1041200080B584B002AF78600023009300204FF484
:104130008061C4F2020104220023FCF77FFF002308
:1041400018460837BD4680BD80B584B002AF7860A0
:104150000023009301204FF48061C4F20201042285
:104160000023FCF76BFF002318460837BD4680BDCF
:1041700080B584B002AF78600023009300204FF434
:104180008061C4F2020104220123FCF757FF0023DF
:1041900018460837BD4680BD80B584B002AF786050
:1041A0000023009300204FF48061C4F20201042236
:1041B0000223FCF743FF002318460837BD4680BDA5
:1041C00080B582B000AF78604FF48050C4F2020036
:1041D000802103F025FC034618460837BD4680BD04
:1041E00080B582B000AF786039603B68002B07D1A2
:1041F0004FF48050C4F20200802103F039FC06E045
:104200004FF48050C4F20200802103F023FC0837F1
:10421000BD4680BD80B582B000AF78604FF480505D
:10422000C4F20200802103F0E1FB03461846083780
:10423000BD4680BD80B584B002AF78600023009396
:1042400000204FF48051C4F2020180220023FCF7C9
:10425000F5FE002318460837BD4680BD80B584B002
:1042600002AF78600023009301204FF48051C4F224
:10427000020180220023FCF7E1FE002318460837E4
:10428000BD4680BD80B584B002AF78600023009346
:1042900000204FF48051C4F2020180220123FCF778
:1042A000CDFE002318460837BD4680BD80B584B0DA
:1042B00002AF78600023009300204FF48051C4F2D5
:1042C000020180220223FCF7B9FE002318460837BA
:1042D000BD4680BD80B582B000AF78604FF480509D
:1042E000C4F202004FF4806103F09AFB03461846C3
:1042F0000837BD4680BD00BF80B582B000AF786092
:1043000039603B68002B08D14FF48050C4F20200A2
:104310004FF4806103F0ACFB07E04FF48050C4F22F
:1043200002004FF4806103F095FB0837BD4680BD65
:1043300080B582B000AF78604FF48050C4F20200C4
:104340004FF4806103F052FB034618460837BD4620
:1043500080BD00BF80B584B002AF786000230093B9
:1043600000204FF48051C4F202014FF48062002318
:10437000FCF764FE002318460837BD4680BD00BF29
:1043800080B584B002AF78600023009301204FF421
:104390008051C4F202014FF480620023FCF74EFE0C
:1043A000002318460837BD4680BD00BF80B584B0E5
:1043B00002AF78600023009300204FF48051C4F2D4
:1043C00002014FF480620123FCF738FE00231846F7
:1043D0000837BD4680BD00BF80B584B002AF7860AD
:1043E0000023009300204FF48051C4F202014FF4E7
:1043F00080620223FCF722FE002318460837BD46E0
:1044000080BD00BF80B582B000AF78604FF480609F
:10441000C4F20200012103F003FB034618460837EB
:10442000BD4680BD80B582B000AF786039603B6822
:10443000002B07D14FF48060C4F20200012103F089
:1044400017FB06E04FF48060C4F20200012103F084
:1044500001FB0837BD4680BD80B582B000AF7860F3
:104460004FF48060C4F20200012103F0BFFA03465A
:1044700018460837BD4680BD80B584B002AF78606D
:104480000023009300204FF48061C4F20201012256
:104490000023FCF7D3FD002318460837BD4680BD36
:1044A00080B584B002AF78600023009301204FF400
:1044B0008061C4F2020101220023FCF7BFFD00234A
:1044C00018460837BD4680BD80B584B002AF78601D
:1044D0000023009300204FF48061C4F20201012206
:1044E0000123FCF7ABFD002318460837BD4680BD0D
:1044F00080B584B002AF78600023009300204FF4B1
:104500008061C4F2020101220223FCF797FD00231F
:1045100018460837BD4680BD80B582B000AF7860D0
:104520004FF48050C4F20200102103F079FA0346E0
:1045300018460837BD4680BD80B582B000AF7860B0
:1045400039603B68002B07D14FF48050C4F2020061
:10455000102103F08DFA06E04FF48050C4F20200FF
:10456000102103F077FA0837BD4680BD80B582B0D0
:1045700000AF78604FF48050C4F20200102103F0C5
:1045800035FA034618460837BD4680BD80B584B06D
:1045900002AF78600023009300204FF48051C4F2F2
:1045A000020110220023FCF749FD002318460837BA
:1045B000BD4680BD80B584B002AF78600023009313
:1045C00001204FF48051C4F2020110220023FCF7B5
:1045D00035FD002318460837BD4680BD80B584B040
:1045E00002AF78600023009300204FF48051C4F2A2
:1045F000020110220123FCF721FD00231846083791
:10460000BD4680BD80B584B002AF786000230093C2
:1046100000204FF48051C4F2020110220223FCF763
:104620000DFD002318460837BD4680BD80B582B019
:1046300000AF78604FF48050C4F20200042103F010
:10464000EFF9034618460837BD4680BD80B582B0F5
:1046500000AF786039603B68002B07D14FF4805081
:10466000C4F20200042103F003FA06E04FF4805084
:10467000C4F20200042103F0EDF90837BD4680BD05
:1046800080B582B000AF78604FF48050C4F2020071
:10469000042103F0ABF9034618460837BD4680BD38
:1046A00080B584B002AF78600023009300204FF4FF
:1046B0008051C4F2020104220023FCF7BFFC002356
:1046C00018460837BD4680BD80B584B002AF78601B
:1046D0000023009301204FF48051C4F20201042210
:1046E0000023FCF7ABFC002318460837BD4680BD0D
:1046F00080B584B002AF78600023009300204FF4AF
:104700008051C4F2020104220123FCF797FC00232C
:1047100018460837BD4680BD80B584B002AF7860CA
:104720000023009300204FF48051C4F202010422C0
:104730000223FCF783FC002318460837BD4680BDE2
:1047400080B582B000AF78604FF48050C4F20200B0
:104750004FF4807103F064F9034618460837BD46EC
:1047600080BD00BF80B582B000AF786039603B6823
:10477000002B08D14FF48050C4F202004FF4807136
:1047800003F076F907E04FF48050C4F202004FF4D2
:10479000807103F05FF90837BD4680BD80B582B0F7
:1047A00000AF78604FF48050C4F202004FF4807183
:1047B00003F01CF9034618460837BD4680BD00BF0C
:1047C00080B584B002AF78600023009300204FF4DE
:1047D0008051C4F202014FF480720023FCF72EFCDA
:1047E000002318460837BD4680BD00BF80B584B0A1
:1047F00002AF78600023009301204FF48051C4F28F
:1048000002014FF480720023FCF718FC00231846C5
:104810000837BD4680BD00BF80B584B002AF786068
:104820000023009300204FF48051C4F202014FF4A2
:1048300080720123FCF702FC002318460837BD46AE
:1048400080BD00BF80B584B002AF786000230093C4
:1048500000204FF48051C4F202014FF48072022311
:10486000FCF7ECFB002318460837BD4680BD00BFAF
:1048700080B582B000AF78604FF48050C4F202007F
:10488000082103F0CDF8034618460837BD4680BD21
:1048900080B582B000AF786039603B68002B07D1EB
:1048A0004FF48050C4F20200082103F0E1F806E062
:1048B0004FF48050C4F20200082103F0CBF808370F
:1048C000BD4680BD80B582B000AF78604FF48050A7
:1048D000C4F20200082103F089F80346184608379D
:1048E000BD4680BD80B584B002AF786000230093E0
:1048F00000204FF48051C4F2020108220023FCF78B
:104900009DFB002318460837BD4680BD80B584B0A6
:1049100002AF78600023009301204FF48051C4F26D
:10492000020108220023FCF789FB00231846083700
:10493000BD4680BD80B584B002AF7860002300938F
:1049400000204FF48051C4F2020108220123FCF739
:1049500075FB002318460837BD4680BD80B584B07E
:1049600002AF78600023009300204FF48051C4F21E
:10497000020108220223FCF761FB002318460837D6
:10498000BD4680BD80B582B000AF78604FF4006056
:10499000C4F20200202103F043F80346184608370A
:1049A000BD4680BD80B582B000AF786039603B689D
:1049B000002B07D14FF40060C4F20200202103F065
:1049C00057F806E04FF40060C4F20200202103F023
:1049D00041F80837BD4680BD80B582B000AF786031
:1049E0004FF40060C4F20200202102F0FFFF0346F2
:1049F00018460837BD4680BD80B584B002AF7860E8
:104A00000023009300204FF40061C4F20201202231
:104A10000023FCF713FB002318460837BD4680BD72
:104A200080B584B002AF78607B680222DA60002330
:104A3000009301204FF40061C4F202012022002300
:104A4000FCF7FCFA002318460837BD4680BD00BFBE
:104A500080B584B002AF78600023009300204FF44B
:104A60000061C4F2020120220123FCF7E7FA0023CF
:104A700018460837BD4680BD80B584B002AF786067
:104A80000023009300204FF40061C4F202012022B1
:104A90000223FCF7D3FA002318460837BD4680BD31
:104AA00080B582B000AF78604FF40060C4F20200BD
:104AB000022102F0B5FF034618460837BD4680BD07
:104AC00080B582B000AF786039603B68002B07D1B9
:104AD0004FF40060C4F20200022102F0C9FF06E0B8
:104AE0004FF40060C4F20200022102F0B3FF083765
:104AF000BD4680BD80B582B000AF78604FF40060E5
:104B0000C4F20200022102F071FF03461846083782
:104B1000BD4680BD80B584B002AF786000230093AD
:104B200000204FF40061C4F2020102220023FCF7CE
:104B300085FA002318460837BD4680BD80B584B08D
:104B400002AF78607B680222DA60002300930120C4
:104B50004FF40061C4F2020102220023FCF76EFA56
:104B6000002318460837BD4680BD00BF80B584B01D
:104B700002AF78600023009300204FF40061C4F27C
:104B8000020102220123FCF759FA002318460837D4
:104B9000BD4680BD80B584B002AF7860002300932D
:104BA00000204FF40061C4F2020102220223FCF74C
:104BB00045FA002318460837BD4680BD80B582B04F
:104BC00000AF78604FF40060C4F20200042102F0EC
:104BD00027FF034618460837BD4680BD80B582B022
:104BE00000AF786039603B68002B07D14FF400605C
:104BF000C4F20200042102F03BFF06E04FF4006023
:104C0000C4F20200042102F025FF0837BD4680BD32
:104C100080B582B000AF78604FF40060C4F202004B
:104C2000042102F0E3FE034618460837BD4680BD66
:104C300080B584B002AF78600023009300204FF469
:104C40000061C4F2020104220023FCF7F7F90023FB
:104C500018460837BD4680BD80B584B002AF786085
:104C60007B680222DA600023009301204FF4006188
:104C7000C4F2020104220023FCF7E0F900231846E5
:104C80000837BD4680BD00BF80B584B002AF7860F4
:104C90000023009300204FF40061C4F202010422BB
:104CA0000123FCF7CBF9002318460837BD4680BD29
:104CB00080B584B002AF78600023009300204FF4E9
:104CC0000061C4F2020104220223FCF7B7F90023B9
:104CD00018460837BD4680BD80B582B000AF786009
:104CE0004FF40060C4F20200082102F099FE03466E
:104CF00018460837BD4680BD80B582B000AF7860E9
:104D000039603B68002B07D14FF40060C4F2020009
:104D1000082102F0ADFE06E04FF40060C4F202008C
:104D2000082102F097FE0837BD4680BD80B582B0ED
:104D300000AF78604FF40060C4F20200082102F076
:104D400055FE034618460837BD4680BD80B584B081
:104D500002AF78600023009300204FF40061C4F29A
:104D6000020108220023FCF769F9002318460837DE
:104D7000BD4680BD80B584B002AF78607B680222FA
:104D8000DA600023009301204FF40061C4F20201B5
:104D900008220023FCF752F9002318460837BD46C5
:104DA00080BD00BF80B584B002AF7860002300935F
:104DB00000204FF40061C4F2020108220123FCF735
:104DC0003DF9002318460837BD4680BD80B584B044
:104DD00002AF78600023009300204FF40061C4F21A
:104DE000020108220223FCF729F90023184608379C
:104DF000BD4680BD80B582B000AF78604FF40060E2
:104E0000C4F20200102102F00BFE034618460837D8
:104E1000BD4680BD80B582B000AF786039603B6828
:104E2000002B07D14FF40060C4F20200102102F001
:104E30001FFE06E04FF40060C4F20200102102F0F1
:104E400009FE0837BD4680BD80B582B000AF7860EE
:104E50004FF40060C4F20200102102F0C7FD0346C7
:104E600018460837BD4680BD80B584B002AF786073
:104E70000023009300204FF40061C4F202011022CD
:104E80000023FCF7DBF8002318460837BD4680BD39
:104E900080B584B002AF78607B680222DA600023BC
:104EA000009301204FF40061C4F20201102200239C
:104EB000FCF7C4F8002318460837BD4680BD00BF84
:104EC00080B584B002AF78600023009300204FF4D7
:104ED0000061C4F2020110220123FCF7AFF80023A5
:104EE00018460837BD4680BD80B584B002AF7860F3
:104EF0000023009300204FF40061C4F2020110224D
:104F00000223FCF79BF8002318460837BD4680BDF6
:104F100080B582B000AF78604FF48050C4F20200D8
:104F20004FF4006102F07CFD034618460837BD4689
:104F300080BD00BF80B582B000AF786039603B684B
:104F4000002B08D14FF48050C4F202004FF40061EE
:104F500002F08EFD07E04FF48050C4F202004FF4DF
:104F6000006102F077FD0837BD4680BD80B582B094
:104F700000AF78604FF48050C4F202004FF400613B
:104F800002F034FD034618460837BD4680BD00BF19
:104F900080B584B002AF78600023009300204FF406
:104FA0008051C4F202014FF400620023FCF746F87E
:104FB000002318460837BD4680BD00BF80B584B0C9
:104FC00002AF78607B680222DA6000230093012040
:104FD0004FF48051C4F202014FF400620023FCF749
:104FE0002DF8002318460837BD4680BD80B584B033
:104FF00002AF78600023009300204FF48051C4F288
:1050000002014FF400620123FCF718F80023184650
:105010000837BD4680BD00BF80B584B002AF786060
:105020000023009300204FF48051C4F202014FF49A
:1050300000620223FCF702F8002318460837BD4639
:1050400080BD00BF80B582B000AF78604FF4805063
:10505000C4F20200402102F0E3FC03461846083780
:10506000BD4680BD80B582B000AF786039603B68D6
:10507000002B07D14FF48050C4F20200402102F00F
:10508000F7FC06E04FF48050C4F20200402102F029
:10509000E1FC0837BD4680BD80B582B000AF7860C6
:1050A0004FF48050C4F20200402102F09FFC0346FE
:1050B00018460837BD4680BD80B584B002AF786021
:1050C0000023009300204FF48051C4F202014022DB
:1050D0000023FBF7B3FF002318460837BD4680BD09
:1050E00080B584B002AF78607B680222DA6000236A
:1050F000009301204FF48051C4F2020140220023AA
:10510000FBF79CFF002318460837BD4680BD00BF53
:1051100080B584B002AF78600023009300204FF484
:105120008051C4F2020140220123FBF787FF0023D4
:1051300018460837BD4680BD80B584B002AF7860A0
:105140000023009300204FF48051C4F2020140225A
:105150000223FBF773FF002318460837BD4680BDC6
:1051600080B582B000AF78604FF48050C4F2020086
:10517000202102F055FC034618460837BD4680BD85
:1051800080B582B000AF786039603B68002B07D1F2
:105190004FF48050C4F20200202102F069FC06E0C6
:1051A0004FF48050C4F20200202102F053FC083773
:1051B000BD4680BD80B582B000AF78604FF48050AE
:1051C000C4F20200202102F011FC03461846083701
:1051D000BD4680BD80B584B002AF786000230093E7
:1051E00000204FF48051C4F2020120220023FBF77B
:1051F00025FF002318460837BD4680BD80B584B022
:1052000002AF78607B680222DA60002300930120FD
:105210004FF48051C4F2020120220023FBF70EFF5D
:10522000002318460837BD4680BD00BF80B584B056
:1052300002AF78600023009300204FF48051C4F245
:10524000020120220123FBF7F9FE0023184608374C
:10525000BD4680BD80B584B002AF78600023009366
:1052600000204FF48051C4F2020120220223FBF7F8
:10527000E5FE002318460837BD4680BD80B582B0E4
:1052800000AF78604FF48050C4F202004FF4007118
:1052900002F0C6FB034618460837BD4680BD00BF76
:1052A00080B582B000AF786039603B68002B08D1D0
:1052B0004FF48050C4F202004FF4007102F0D8FBAA
:1052C00007E04FF48050C4F202004FF4007102F086
:1052D000C1FB0837BD4680BD80B582B000AF7860A5
:1052E0004FF48050C4F202004FF4007102F07EFBD4
:1052F000034618460837BD4680BD00BF80B584B060
:1053000002AF78600023009300204FF48051C4F274
:1053100002014FF400720023FBF790FE00231846B1
:105320000837BD4680BD00BF80B584B002AF78604D
:105330007B680222DA600023009301204FF4805141
:10534000C4F202014FF400720023FBF777FE002342
:1053500018460837BD4680BD80B584B002AF78607E
:105360000023009300204FF48051C4F202014FF457
:1053700000720123FBF762FE002318460837BD4682
:1053800080BD00BF80B584B002AF78600023009379
:1053900000204FF48051C4F202014FF40072022346
:1053A000FBF74CFE002318460837BD4680BD00BF02
:1053B00080B582B000AF78604FF48050C4F2020034
:1053C0004FF4804102F02CFB034618460837BD46D7
:1053D00080BD00BF80B582B000AF786039603B68A7
:1053E000002B08D14FF48050C4F202004FF48041EA
:1053F00002F03EFB07E04FF48050C4F202004FF48D
:10540000804102F027FB0837BD4680BD80B582B0E1
:1054100000AF78604FF48050C4F202004FF4804136
:1054200002F0E4FA034618460837BD4680BD00BFC7
:1054300080B584B002AF78600023009300204FF461
:105440008051C4F202014FF480420023FBF7F6FDC5
:10545000002318460837BD4680BD00BF80B584B024
:1054600002AF78607B680222DA600023009301209B
:105470004FF48051C4F202014FF480420023FBF745
:10548000DDFD002318460837BD4680BD80B584B0D9
:1054900002AF78600023009300204FF48051C4F2E3
:1054A00002014FF480420123FBF7C8FD0023184698
:1054B0000837BD4680BD00BF80B584B002AF7860BC
:1054C0000023009300204FF48051C4F202014FF4F6
:1054D00080420223FBF7B2FD002318460837BD4681
:1054E00080BD00BF80B582B000AF78604FF48050BF
:1054F000C4F202004FF4005102F092FA034618463B
:105500000837BD4680BD00BF80B582B000AF78606F
:1055100039603B68002B08D14FF48050C4F2020080
:105520004FF4005102F0A4FA07E04FF48050C4F2A7
:1055300002004FF4005102F08DFA0837BD4680BDDD
:1055400080B582B000AF78604FF48050C4F20200A2
:105550004FF4005102F04AFA034618460837BD4698
:1055600080BD00BF80B584B002AF78600023009397
:1055700000204FF48051C4F202014FF40052002386
:10558000FBF75CFD002318460837BD4680BD00BF11
:1055900080B584B002AF78607B680222DA600023B5
:1055A000009301204FF48051C4F202014FF40052E5
:1055B0000023FBF743FD002318460837BD4680BD96
:1055C00080B584B002AF78600023009300204FF4D0
:1055D0008051C4F202014FF400520123FBF72EFD6B
:1055E000002318460837BD4680BD00BF80B584B093
:1055F00002AF78600023009300204FF48051C4F282
:1056000002014FF400520223FBF718FD0023184655
:105610000837BD4680BD00BF80B582B000AF78605E
:105620007B680122DA604FF40060C4F2020020219E
:1056300001F04CFE002318460837BD4680BD00BF70
:10564000A0F10800FFF7E8BF90B583B000AF786025
:105650004FF40060C4F20200202101F053FF044621
:105660007B681B6848331B68786898470346184670
:1056700008F074FB03462046194608F077FC034601
:1056800018460C37BD4690BDA0F10800FFF7DCBFFF
:1056900080B582B000AF78607B680122DA604FF499
:1056A0000060C4F20200022101F010FE002318463F
:1056B0000837BD4680BD00BFA0F10800FFF7E8BF76
:1056C00090B583B000AF78604FF40060C4F2020080
:1056D000022101F017FF04467B681B6848331B68F2
:1056E000786898470346184608F038FB034620467A
:1056F000194608F03BFC034618460C37BD4690BDE2
:10570000A0F10800FFF7DCBF80B582B000AF786081
:105710007B680122DA604FF40060C4F202000421C9
:1057200001F0D4FD002318460837BD4680BD00BFF8
:10573000A0F10800FFF7E8BF90B583B000AF786034
:105740004FF40060C4F20200042101F0DBFE0446C5
:105750007B681B6848331B6878689847034618467F
:1057600008F0FCFA03462046194608F0FFFB034602
:1057700018460C37BD4690BDA0F10800FFF7DCBF0E
:1057800080B582B000AF78607B680122DA604FF4A8
:105790000060C4F20200082101F098FD00231846C1
:1057A0000837BD4680BD00BFA0F10800FFF7E8BF85
:1057B00090B583B000AF78604FF40060C4F202008F
:1057C000082101F09FFE04467B681B6848331B6874
:1057D000786898470346184608F0C0FA0346204602
:1057E000194608F0C3FB034618460C37BD4690BD6A
:1057F000A0F10800FFF7DCBF80B582B000AF786091
:105800007B680122DA604FF40060C4F202001021CC
:1058100001F05CFD002318460837BD4680BD00BF7F
:10582000A0F10800FFF7E8BF90B583B000AF786043
:105830004FF40060C4F20200102101F063FE044640
:105840007B681B6848331B6878689847034618468E
:1058500008F084FA03462046194608F087FB034601
:1058600018460C37BD4690BDA0F10800FFF7DCBF1D
:1058700080B582B000AF78604FF40060C4F20000E1
:105880004FF44061C4F202014FF44052FBF782FE34
:10589000002318460837BD4680BD00BF80B582B0E2
:1058A00000AF78607B681B7A002B08D04FF4006053
:1058B000C4F20000FBF7FEFE03465B4206E04FF435
:1058C0000060C4F20000FBF7F5FE034618460837F7
:1058D000BD4680BD80B582B000AF78604FF4806077
:1058E000C4F200000021C4F20201C022FBF752FE04
:1058F000002318460837BD4680BD00BF80B582B082
:1059000000AF78607B681B7A002B08D04FF4806072
:10591000C4F20000FBF7CEFE03465B4206E04FF404
:105920008060C4F20000FBF7C5FE03461846083746
:10593000BD4680BD80B582B000AF78604FF4406056
:10594000C4F200000021C4F202010322FBF722FE90
:10595000002318460837BD4680BD00BF80B582B021
:1059600000AF78607B681B7A002B08D04FF4406052
:10597000C4F20000FBF79EFE03465B4206E04FF4D4
:105980004060C4F20000FBF795FE03461846083756
:10599000BD4680BD80B586B000AFF860B9607A6062
:1059A000FB680122DA60B86808F07CFB034600203F
:1059B000C4F201004FF48051C4F202014FF40062BE
:1059C000FAF7DCFC03467B610020C4F201000221EF
:1059D0007A68FAF73DFC7B6918461837BD4680BDEA
:1059E000A0F10800FFF7D6BF80B582B000AF7860A5
:1059F00039600020C4F2010002213A68FAF728FC5D
:105A00000837BD4680BD00BFA0F10800FFF7ECBF1E
:105A100080B582B000AF78600020C4F2010002219E
:105A2000FAF778FC034618460837BD4680BD00BF2C
:105A3000A0F10800FFF7ECBF80B586B000AFF860BA
:105A4000B9607A60FB680122DA60B86808F02AFB66
:105A500003464FF48040C4F201004FF48051C4F279
:105A600002014022FAF78AFC03467B614FF4804032
:105A7000C4F2010002217A68FAF7EAFB7B69184652
:105A80001837BD4680BD00BFA0F10800FFF7D4BFA6
:105A900080B582B000AF786039604FF48040C4F2C6
:105AA000010002213A68FAF7D3FB0837BD4680BDF2
:105AB000A0F10800FFF7ECBF80B582B000AF7860BE
:105AC0004FF48040C4F201000221FAF723FC0346A0
:105AD00018460837BD4680BDA0F10800FFF7ECBFAF
