:020000040800F2
:10000000A89601201D2E000899840008B9840008D4
:10001000D9840008F9840008198500080000000050
:10002000000000000000000000000000398500080A
:10003000598500080000000079850008BD2A0008E5
:10004000812E0008812E0008812E0008812E0008D4
:10005000812E0008812E0008812E0008812E0008C4
:10006000812E0008812E0008812E0008812E0008B4
:10007000812E0008812E0008812E0008812E0008A4
:10008000812E0008812E0008812E0008812E000894
:100090006D6B0008812E0008812E0008812E00085B
:1000A000812E0008C9160008812E0008812E000844
:1000B0002D1700088D170008F9170008812E000879
:1000C000812E00080D720008812E0008812E000884
:1000D000812E0008812E0008A96500085D660008D1
:1000E000812E0008812E0008311D00083D190008EE
:1000F000D1180008812E0008812E0008812E0008EA
:10010000812E0008D987000865180008812E000894
:10011000812E0008812E0008812E0008812E000803
:10012000812E0008812E0008812E0008E587000836
:10013000812E0008812E0008812E0008812E0008E3
:10014000812E0008812E0008812E00081D1D000848
:10015000812E0008812E0008812E0008812E0008C3
:10016000812E0008812E0008812E0008812E0008B3
:10017000812E0008812E0008812E0008812E0008A3
:10018000812E0008812E000808B540F2F450074B7C
:10019000C2F200001B1A062B00D808BD40F2000373
:1001A000C0F20003002BF8D09847F6E7F7050020CF
:1001B00008B540F2F45040F2F453C2F20000C2F22B
:1001C00000031B1A9B1003EBD373591000D108BD19
:1001D00040F20002C0F20002002AF8D09047F6E791
:1001E00010B540F2F854C2F20004237873B9FFF757
:1001F000CBFF40F20003C0F200032BB143F20C30FE
:10020000C0F60200AFF300800123237010BD00BFD1
:1002100008B540F20003C0F200034BB143F20C30CA
:1002200040F2FC51C0F60200C2F20001AFF30080C0
:1002300040F2F050C2F2000003682BB140F200031C
:10024000C0F2000303B19847BDE80840B0E700BF23
:1002500080B584B000AFF8600B467A60FB72FB7A21
:10026000013B032B52D801A252F823F07D02000873
:10027000A1020008C5020008E9020008FB68DB6A69
:1002800018460EF03BF90346184679680EF08EF9D1
:10029000034618460EF000FB0246FB685A6336E040
:1002A000FB68DB6A18460EF029F9034618467968A0
:1002B0000EF07CF9034618460EF0EEFA0246FB6893
:1002C0009A6324E0FB68DB6A18460EF017F90346D0
:1002D000184679680EF06AF9034618460EF0DCFA03
:1002E0000246FB68DA6312E0FB68DB6A18460EF030
:1002F00005F90346184679680EF058F90346184682
:100300000EF0CAFA0246FB681A6400E000BF10371C
:10031000BD4680BD80B582B000AF78600B46FB70F3
:10032000FB78012B06D17B685B6B18460EF0E6F874
:1003300003461FE0FB78022B06D17B689B6B1846B7
:100340000EF0DCF8034615E0FB78032B06D17B6842
:10035000DB6B18460EF0D2F803460BE0FB78042B5B
:1003600006D17B681B6C18460EF0C8F8034601E006
:100370004FF0000318460837BD4680BD90B5ADB0BC
:1003800002AFF860B9603B601346FB800023C7F8FA
:10039000A4300023C7F8A0300023C7F89C30012305
:1003A000C7F898300023A7F8963008F0A7FB07F1AC
:1003B0004403184607F080FAFB68B3F1804F06D378
:1003C000FA684FF4A053C4F200039A420DD9FA68B8
:1003D00041F2FF73C4F200039A4217D9FA684FF44E
:1003E0000053C4F200039A4210D8FA6C4FF46053E1
:1003F000C4F20203D3F88C301B0E03F00103013367
:1004000003FB02F35B00C7F8A4300FE03A6D4FF432
:100410006053C4F20203D3F88C301B0E03F00103C7
:10042000013303FB02F35B00C7F8A4303B68002BE9
:100430000DDDD7F8A42048F21F53C5F2EB1383FB60
:1004400002135911D317CA1A3B689A4201DA0123E1
:10045000F4E01FE0D7F8A0300133C7F8A030D7F898
:10046000A420D7F8A03092FBF3F23B6892FBF3F3A1
:10047000C7F89C30D7F89C30B3F5803F02DA0023F0
:10048000C7F89830D7F8A0204FF6FE739A4201DDE6
:100490000123D3E0D7F89830002BDBD1D7F8A42084
:1004A000D7F8A03092FBF3F2D7F89C3092FBF3F32D
:1004B0003B60F8680AF06AFDFB8800220092022087
:1004C000B9681A46002300F0B9FDD7F89C30013B0B
:1004D000FB63D7F8A0309BB2013B9BB23B87002364
:1004E000A7F8403000237B87002387F8423007F1CC
:1004F0003803F86819460BF0C3FC6023BB84002363
:100500003B860123FB8404233B8508237B864FF431
:100510008073BB864FF40073FB8607F12403F868F1
:1005200019460BF091FDF86800210BF07DFF07F1F3
:100530002403F86819460BF001FEF86800210BF05F
:100540008FFF07F12403F86819460BF07FFEF86867
:1005500000210BF0A3FF07F12403F86819460BF004
:10056000FBFEF86800210BF0B5FFFA680023C4F227
:1005700001039A4206D0FA684FF48063C4F2010383
:100580009A4211D107F1140318460BF0E9FF4FF41A
:1005900080433B8407F11403F86819460BF0B8FF59
:1005A000F86801210BF0FAFFFA8807F154031046AE
:1005B00019460AF059FB0023A7F8963025E0B7F852
:1005C00096305B0007F1A802134433F8543C012B2A
:1005D00016D1B7F8963010335B0007F1A8010B4431
:1005E00033F8523C18460AF0E5FE03461C46F8680C
:1005F0000AF056FF0346B86821461A4608F0F0F99B
:10060000B7F896300133A7F89630B7F896300F2B2D
:10061000D5D9FB6800225A63FB6800229A63FB6805
:100620000022DA63FB6800221A64F86801210BF0EB
:10063000CBFCF86801210BF0E7FC00231846AC372F
:10064000BD4690BD80B489B000AFF860B960FA7162
:10065000BB800023FB76FB68DB78002B23D10023D3
:100660007B610023FB61BB880333DA1C002BB8BF1E
:1006700013469B107B61FB79FA6832339B0013446D
:100680009B683B610023FB6109E0BB681A683B691A
:100690001A60FB690133FB61BB680433BB60FA6914
:1006A0007B699A42F1D3FB7E18462437BD465DF83C
:1006B000047B704780B489B000AFF860B96013461E
:1006C000FB800023FB61FB880333DA1C002BB8BFDF
:1006D00013469B10BB61FB68D3F8D0307B610023CD
:1006E000FB6109E07B691A68BB681A60FB6901332A
:1006F000FB61BB680433BB60FA69BB699A42F1D302
:10070000BB6818462437BD465DF8047B704700BFC0
:1007100080B586B000AF786039600023FB74002399
:100720007B610023FB60FB6843F02003FB603B68B8
:10073000DBB203F01F03DAB2FB6862F38A13FB60DB
:100740007B68DB68FA681A617B68DB681B69FB60A1
:100750007B6901337B617A694FF45463C0F2030310
:100760009A4200D905E0FB68C3F34013DBB2012BCA
:10077000EAD0032008F0ACFDFB7C18461837BD46D4
:1007800080BD00BF80B483B000AF78607B68DB6859
:100790005B6903F0010318460C37BD465DF8047B26
:1007A000704700BF80B582B000AF78607868FFF70F
:1007B000E9FF0346012B0CBF00230123DBB21846DF
:1007C0000837BD4680BD00BF80B485B000AF7860FB
:1007D0000023FB607B68DB685B69FB607B68DB6830
:1007E0009B69FA681340FB60FB6818461437BD46E6
:1007F0005DF8047B704700BF80B485B000AF7860BF
:100800000023FB737B681B699B68BB603B7AC3F367
:100810004103DBB2022B09D0032B04D0012B02D001
:100820000323FB7305E00223FB7302E00123FB7348
:1008300000BFFB7B18461437BD465DF8047B70474C
:1008400080B487B000AF78600023FB750023BB60E5
:100850007B681B699B683B617B689B691B68FB60CD
:100860003B7CC3F34103DBB2022B04D0BB896FF3A3
:100870000A03BB8105E0BB89032262F30A03BB8143
:1008800000BF7B689B69FA681A607B7A43F00103BA
:100890007B727B681B697A6812695168BA68D243B7
:1008A0001140BA680A435A60FB7D18461C37BD46A2
:1008B0005DF8047B704700BF80B487B000AF7860FC
:1008C00039600023FB740023FB600023BB603B689E
:1008D0005B78012B0FD13B681B787A6804339B004F
:1008E00013449B687B613B681B78012202FA03F387
:1008F0009BB23B810EE03B681B787A6814339B0007
:1009000013445B687B613B681B78012202FA03F3A6
:100910009BB27B817B691B68FB607B7BC3F3C0134D
:10092000DBB2002B27D13B689B689BB2C3F30A0361
:100930009AB2BB8962F30A03BB813B68DB7803F0A0
:100940000303DAB2BB7B62F38303BB733B68DB88D0
:10095000DBB203F00F03DAB2FB8962F38913FB8188
:10096000FB7B43F01003FB737B7B43F080037B73C3
:10097000FA687B691A607B681B697A681269D169B9
:10098000BA680A43DA61FB7C18461C37BD465DF83D
:10099000047B704780B588B000AF78603960002371
:1009A000FB770023BB6100237B6100233B613B6835
:1009B0005B78012B40F0AB803B681B787A6804338E
:1009C0009B0013449B681B687B613B681B787A68BB
:1009D00004339B0013449B681B693B613B685B6964
:1009E000002B09D13B696FF312033B617B8A012223
:1009F00062F3CC037B8222E03B685B69C3F31202A3
:100A00003B6962F312033B613B685A693B689B6830
:100A100013445A1E3B689B68B2FBF3F39BB2C3F3CB
:100A200009039AB27B8A62F3CC037B823B68DB7852
:100A3000012B04D1FB7C012262F34613FB743B685B
:100A40001B787A6804339B0013449B683A691A61E7
:100A50007B68DB78012B0AD13B681B787A6804330A
:100A60009B0013449B683A6812695A6115E03B6821
:100A7000DB78012B11D03B685B69002B0DD03B6804
:100A80001B78012202FA03F3BB617B681B697A6859
:100A90001269516BBA690A435A633B68DB78012BD0
:100AA00014D17B681B699B68FB60FB68C3F30D2353
:100AB0009BB203F00103002B04D1FB7D43F0200324
:100AC000FB7503E0FB7D43F01003FB75FB7D43F0FA
:100AD0000403FB75FB7D43F08003FB753B681B78CB
:100AE0007A6804339B0013449B687A691A603B68F8
:100AF000DB78012B40F088803B68D9683B681A7826
:100B00003B685B699BB27868FFF79CFD7CE03B68C3
:100B10001B787A6814339B0013445B681B687B6105
:100B20003B681B787A6814339B0013445B681B692D
:100B30003B613B685B69002B0DD13B689B68C3F34D
:100B400012023B6962F312033B617B8A012262F36A
:100B5000CC037B821FE03B685A693B689B68134467
:100B60005A1E3B689B68B2FBF3F39BB2C3F30903C5
:100B70009AB27B8A62F3CC037B827B8AC3F3C9037C
:100B80009BB23A68926802FB03F3C3F312023B691B
:100B900062F312033B613B681B787A6814339B0055
:100BA00013445B683A691A617B68DB78012B09D1D1
:100BB0003B681B787A6814339B0013445B683A687F
:100BC00012695A613B68DB78012B0CD13B685B7979
:100BD000002B04D0FB7D43F02003FB7503E0FB7D7D
:100BE00043F01003FB75FB7D43F00403FB75FB7DB5
:100BF00043F08003FB753B681B787A6814339B00D5
:100C000013445B687A691A60FB7F18462037BD463B
:100C100080BD00BF80B489B000AF78603960002328
:100C2000FB770023BB6100233B610023BB603B6873
:100C30005B78012B6FD17B689B697B617B691B684B
:100C40003B617B691B69BB603B685B69002B09D119
:100C50003B7A6FF306033B72BB7A012262F3C40353
:100C6000BB7223E03B685A693B689B689A420ED985
:100C70003B689A683B685A613B689B68DBB203F04B
:100C80007F03DAB23B7A62F306033B7209E03B680A
:100C90005B69DBB203F07F03DAB23B7A62F30603EF
:100CA0003B72BB7A012262F3C403BB72BA687B69F0
:100CB0001A617B68DB78012B09D13B681B787A6865
:100CC00004339B0013449B683A6812695A61FB7CA9
:100CD00043F00403FB74FB7C43F08003FB743A692C
:100CE0007B691A607B68DB78002B75D13B685B6998
:100CF000002B71D03B681B78012202FA03F3BA691A
:100D00001343BB617B681B697A681269516BBA69CE
:100D10000A435A6360E03B681B787A6814339B008F
:100D200013445B681B683B613B681B787A6814332B
:100D30009B0013445B681B69BB603B685B69002BCD
:100D40000FD13B689B68DBB203F07F03DAB23B7ADA
:100D500062F306033B72BB7A012262F3C403BB72E7
:100D600012E03B689A683B685A613B689B68DBB25B
:100D700003F07F03DAB23B7A62F306033B72BB7A7D
:100D8000012262F3C403BB723B681B787A68143398
:100D90009B0013445B68BA681A617B68DB78012B9F
:100DA00009D13B681B787A6814339B0013445B6855
:100DB0003A6812695A61FB7C43F00403FB74FB7CC4
:100DC00043F08003FB743B681B787A6814339B0004
:100DD00013445B683A691A60FB7F18462437BD46A6
:100DE0005DF8047B704700BF80B487B000AF7860C7
:100DF00039600023FB750023FB603B685B78012BA7
:100E00001CD13B681B787A6804339B0013449B68B1
:100E10003B613B691B68FB60FB7BC3F3C013DBB228
:100E2000002B03D0FB7B43F04003FB73BB7B43F001
:100E30002003BB73FA683B691A6011E03B681B78BA
:100E40007A6814339B0013445B683B613B691B6801
:100E5000FB60BB7B43F02003BB73FA683B691A60FD
:100E6000FB7D18461C37BD465DF8047B704700BF0C
:100E700080B487B000AF786039600023FB74002332
:100E8000FB603B685B78012B08D13B681B787A6874
:100E900004339B0013449B687B6107E03B681B782D
:100EA0007A6814339B0013445B687B617B691B6821
:100EB000FB60BB7B6FF34513BB733B68DB78032B95
:100EC00003D03B68DB78022B03D1FB7B43F010039C
:100ED000FB73FA687B691A60FB7C18461C37BD46B9
:100EE0005DF8047B704700BF80B485B000AF7860C8
:100EF0007B681B699B69FB607B681B69DB69FA681F
:100F00001340FB60FB681B0C18461437BD465DF8A8
:100F1000047B704780B485B000AF78600B46FB70EF
:100F2000FB787A6814339B0013445B689B68FB6012
:100F30007B681B695B69FA681340FB60FB681846B5
:100F40001437BD465DF8047B704700BF80B485B0A0
:100F500000AF78607B681B699B69FB607B681B69DD
:100F6000DB69FA681340FB60FB689BB218461437D4
:100F7000BD465DF8047B704780B487B000AF7860F1
:100F800000233B61FB7C43F0C003FB74BB7C01226C
:100F900062F3C403BB743B7C182262F306033B7408
:100FA0007B685B6D3A691A617B68DB78012B16D12F
:100FB0000023FB607B685B6D7A6802F5B9625A6159
:100FC0007B685B6D1B68FB60FB7B43F08003FB73FE
:100FD0004FF08023FB607B685B6DFA681A601C37FA
:100FE000BD465DF8047B704780B485B000AF786083
:100FF0007B689B7A002B1BD07B681B699B68FB601E
:101000003B7BC3F30003DBB2012B11D17B6803F5FB
:1010100086731B68BB603B7A6FF341033B723B7A7C
:101020006FF300033B727B68D3F80C31BA681A6027
:101030001437BD465DF8047B704700BF80B584B0AF
:1010400000AF39600146F971BA80BB713A6800237C
:10105000C4F202039A4204D10120012106F000FDEE
:101060002EE03A684FF48063C4F202039A4204D13E
:101070000220012106F0F4FC22E03A684FF40063FC
:10108000C4F202039A4204D10420012106F0E8FCD4
:1010900016E03A684FF44063C4F202039A4204D166
:1010A0000820012106F0DCFC0AE03A684FF4805386
:1010B000C4F202039A4203D11020012106F0D0FCB1
:1010C00007F10803184607F021FCBB88BB60FB79D9
:1010D0003B733B7EBB73BB79FB7303237B7307F1CD
:1010E00008033868194607F083FBFB79012B04D10C
:1010F000BB883868194607F065FC1037BD4680BDCF
:1011000080B483B000AF78600B46FB70FB78002B97
:101110000CD04FF43053C4F201034FF43052C4F2F8
:101120000102D16B7A680A43DA630CE04FF4305362
:10113000C4F201034FF43052C4F20102D16B7A6859
:10114000D2430A40DA630C37BD465DF8047B704732
:1011500080B485B000AF78600023FB734FF4305348
:10116000C4F201035A6B7B681340002B02D00123A9
:10117000FB7301E00023FB73FB7B18461437BD466D
:101180005DF8047B704700BF80B483B000AF786027
:101190004FF43053C4F201037A689A630C37BD46AA
:1011A0005DF8047B704700BF80B483B000AF786007
:1011B00039607B683A685A60002318460C37BD4690
:1011C0005DF8047B704700BF80B483B000AF7860E7
:1011D0007B68044A1A607B6818460C37BD465DF888
:1011E000047B7047D00C020880B483B000AF7860F5
:1011F00039600C37BD465DF8047B704780B582B01E
:1012000000AF78607B68064A1A607B680433184632
:1012100000F046FA7B6818460837BD4680BD00BF1F
:10122000880D020880B584B000AF786039607B68B3
:101230001846FFF7C9FF7B681C331846FFF7DEFF2F
:101240007B68144A1A607B68134ADA617B68012262
:10125000C3F830217B683A68C3F82C210023FB6077
:1012600010E07A68FB684C339B00134400225A60FC
:101270007A68FB6850339B00134400225A60FB6875
:101280000133FB60FB68032BEBDD7B6818461037EE
:10129000BD4680BDE8F90108F4F90108B0B582B097
:1012A00000AF78607B68D3F83031002B3BD17B688E
:1012B0004FF00002C4F2F0129A604FF00000C4F246
:1012C000873000F0C1FE02467B681A617B684FF0F0
:1012D0007F52DA607B6843F23332C4F213025A6100
:1012E0007B685B681B680C331C687B685D687B6887
:1012F0009B6818464FF00001C4F27A410DF00AFADB
:1013000003464FF07E5019460DF004FA0346284676
:1013100019464FF00002A0474FF4FA704FF0000159
:1013200001F01AFC22E07B68D3F83031012B1DD18B
:101330007B68D3F82C311B6828331C687B68D3F892
:101340002C3118464FF4E1314FF480624FF4805352
:10135000A04701F0C9FB02460B46796801F5AC7164
:10136000C1E900237B680022C3F8602100231846EE
:101370000837BD46B0BD00BF80B584B000AFF8608F
:10138000B9607A60FB68BA68C3F86021F868796868
:1013900000F03EF90246F968BB684C339B000B44F1
:1013A0005A601037BD4680BD80B487B000AFF8608A
:1013B000B9601346FB7100237B61FA79BB6843F087
:1013C00080031340002B08D040F21463C2F20003E4
:1013D000BA68002143F822105FE040F21463C2F2C1
:1013E0000003BA6853F82230022B56DC40F2146333
:1013F000C2F20003BA6853F8220040F22462C2F23B
:101400000002B9680B465B000B4403441344FA79AD
:101410001A7040F21463C2F20003BA6853F8223023
:10142000022B3AD140F22462C2F20002B9680B46A4
:101430005B000B44134401331B78D80140F2246253
:10144000C2F20002B9680B465B000B44134402333E
:101450001B7803437B61FA68BB684C339B001344E1
:101460005A687B699A4209D140F23063C2F20003A4
:10147000BA6853F822207B699A4206D1FA68BB68A1
:1014800050339B0013447A695A6040F23063C2F2D1
:101490000003BA68796943F8221040F21463C2F27B
:1014A0000003BA6853F82230591C40F21463C2F2A8
:1014B0000003BA6843F822101C37BD465DF8047B70
:1014C000704700BF90B587B000AF78607B68D3F8F5
:1014D0003031002B0CD17B685B681B6810331B68B4
:1014E0007A6851687A6892690846114698478CE094
:1014F0007B68D3F83031012B40F0878000233B61BB
:101500000023BB810023BB7301F0EEFA02460B46B9
:10151000104619467B6803F5AC73D3E90023821AA1
:1015200061EB0303002B08BF052A34BF002301230E
:10153000DBB2002B69D001F0D7FA02460B4679687E
:1015400001F5AC71C1E900237B68D3F860317A689A
:101550004C339B0013445B683B617B68D3F860317C
:10156000DBB263F07F03DBB2DBB23B733B69DB11C1
:10157000DBB203F07F03DBB27B733B69DBB203F0CA
:101580007F03DBB2BB7300237B6113E07B68D3F87E
:101590002C311B6804331B687A68D2F82C1107F1D0
:1015A0000C007A69024412780846114698477B6914
:1015B00001337B617B69022BE8DD13E07B68D3F8A4
:1015C00060417B68D3F82C311B6814331B687A6840
:1015D000D2F82C21104698470346786821461A46CF
:1015E000FFF7E2FE7B68D3F82C311B6810331B68D1
:1015F0007A68D2F82C21104698470346002B0CBF7E
:1016000000230123DBB2002BD8D11C37BD4690BD8F
:10161000B0B582B000AF786039604FF00000C4F21E
:10162000073000F011FD034618460CF02BFB024674
:101630000B464FF000004FF48041C4F2AF010CF0B4
:101640009FFC02460B4614461D4638680CF01AFBF8
:1016500002460B46204629460CF068FB02460B4624
:10166000104619460CF0FCFD034618460CF0F8FA3B
:1016700002460B461046194607A3D3E900230CF097
:10168000A3F902460B46104619460CF0E9FD034645
:1016900018460837BD46B0BD00000000004CBD40F4
:1016A00080B483B000AF78607B680022C3F8042167
:1016B0007B680022C3F808217B6818460C37BD46BA
:1016C0005DF8047B704700BF80B500AF0023C4F213
:1016D00001031B889BB21B099BB2002B0BD040F26D
:1016E0004063C2F200031B685A1E40F24063C2F21C
:1016F00000031A6013E00023C4F201031B889BB2AD
:101700001B099BB2002B0AD140F24063C2F20003D6
:101710001B685A1C40F24063C2F200031A600020AA
:10172000C4F2010001210AF083FF80BD80B500AF43
:101730004FF080431B889BB21B099BB2002B0BD040
:1017400040F24463C2F200031B685A1E40F2446335
:10175000C2F200031A6012E04FF080431B889BB274
:101760001B099BB2002B0AD140F24463C2F2000372
:101770001B685A1C40F24463C2F200031A604FF027
:10178000804001210AF054FF80BD00BF80B500AF4A
:101790004FF48063C4F200031B889BB21B099BB209
:1017A000002B0BD040F24863C2F200031B685A1EA4
:1017B00040F24863C2F200031A6014E04FF4806301
:1017C000C4F200031B889BB21B099BB2002B0AD1F9
:1017D00040F24863C2F200031B685A1C40F248639F
:1017E000C2F200031A604FF48060C4F200000121CD
:1017F0000AF01EFF80BD00BF80B500AF4FF400634C
:10180000C4F200031B889BB21B099BB2002B0BD0B8
:1018100040F24C63C2F200031B685A1E40F24C6354
:10182000C2F200031A6014E04FF40063C4F2000334
:101830001B889BB21B099BB2002B0AD140F24C6360
:10184000C2F200031B685A1C40F24C63C2F2000350
:101850001A604FF40060C4F2000001210AF0E8FEB3
:1018600080BD00BF80B500AF4FF44063C4F20003F9
:101870001B889BB21B099BB2002B0BD040F250631C
:10188000C2F200031B685A1E40F25063C2F200030A
:101890001A6014E04FF44063C4F200031B889BB24B
:1018A0001B099BB2002B0AD140F25063C2F2000325
:1018B0001B685A1C40F25063C2F200031A604FF4D6
:1018C0004060C4F2000001210AF0B2FE80BD00BFFA
:1018D00080B500AF4FF48063C4F201031B889BB254
:1018E0001B099BB2002B0BD040F25463C2F20003E1
:1018F0001B685A1E40F25463C2F200031A6014E0DF
:101900004FF48063C4F201031B889BB21B099BB296
:10191000002B0AD140F25463C2F200031B685A1C28
:1019200040F25463C2F200031A604FF48060C4F2C4
:10193000010001210AF07CFE80BD00BF80B500AF30
:101940004FF4C053C4F200031B889BB21B099BB227
:10195000002B0BD040F25863C2F200031B685A1EE2
:1019600040F25863C2F200031A6014E04FF4C0530F
:10197000C4F200031B889BB21B099BB2002B0AD147
:1019800040F25863C2F200031B685A1C40F25863CD
:10199000C2F200031A604FF4C050C4F200000121EB
:1019A0000AF046FE80BD00BF80B500AF0020C4F243
:1019B00001000AF0FDFA024640F24063C2F2000361
:1019C0001B681B041344184680BD00BF80B500AFE0
:1019D0004FF080400AF0ECFA024640F24463C2F253
:1019E00000031B681B041344184680BD80B500AF7C
:1019F0004FF48060C4F200000AF0DAFA024640F2C6
:101A00004863C2F200031B681B041344184680BDE0
:101A100080B500AF4FF40060C4F200000AF0C8FACD
:101A2000024640F24C63C2F200031B681B041344DD
:101A3000184680BD80B500AF4FF44060C4F200008E
:101A40000AF0B6FA024640F25063C2F200031B6885
:101A50001B041344184680BD80B500AF4FF480606E
:101A6000C4F201000AF0A4FA024640F25463C2F242
:101A700000031B681B041344184680BD80B500AFEB
:101A80004FF4C050C4F200000AF092FA024640F24D
:101A90005863C2F200031B681B041344184680BD40
:101AA00090B59DB002AFF860B9601346FB8000238B
:101AB000A7F866300023A7F86430F86809F066FAE2
:101AC000FB88002200920220B9681A460123FFF722
:101AD000B5FAFA8807F120031046194609F0C4F850
:101AE0000023A7F8663025E0B7F866305B0007F101
:101AF00068010B4433F8483C012B16D1B7F8663027
:101B000010335B0007F16802134433F8463C184673
:101B100009F050FC03461C46F86809F0C1FC034676
:101B2000B86821461A4606F05BFFB7F86630013305
:101B3000A7F86630B7F866300F2BD5D940F24003CE
:101B4000C2F200031A684DF62913C6F24263A3FBE2
:101B500002135B0E9BB2013BA7F864304FF6FE7395
:101B6000BB610023BB820023BB830023FB8207F100
:101B70001403F86819460AF083F9B7F86430F86876
:101B8000194601220AF0F2F9F86803210022002325
:101B90000AF05EFDF868012101220AF025FDF868CF
:101BA00001210AF031FAF86809F0A2F90346184653
:101BB00009F0EAFB00F056F86C37BD4690BD00BF57
:101BC00080B582B000AF78607A680023C4F2010368
:101BD0009A4203D1FFF7E8FE03463FE07B68B3F18A
:101BE000804F03D1FFF7F2FE034637E07A684FF4E7
:101BF0008063C4F200039A4203D1FFF7F7FE034665
:101C00002CE07A684FF40063C4F200039A4203D1D7
:101C1000FFF7FEFE034621E07A684FF44063C4F20A
:101C200000039A4203D1FFF705FF034616E07A68E6
:101C30004FF48063C4F201039A4203D1FFF70CFF13
:101C400003460BE07A684FF4C053C4F200039A4293
:101C500003D1FFF713FF034600E0002318460837BF
:101C6000BD4680BD80B500AF40F24063C2F20003C4
:101C700000221A6040F24463C2F2000300221A609C
:101C800040F24863C2F2000300221A6040F24C6343
:101C9000C2F2000300221A6040F25063C2F2000355
:101CA00000221A6040F25463C2F2000300221A605C
:101CB00040F25863C2F2000300221A600020C4F20E
:101CC000010000210AF066F94FF0804000210AF07F
:101CD00061F94FF48060C4F2000000210AF05AF963
:101CE0004FF40060C4F2000000210AF053F94FF4F1
:101CF0004060C4F2000000210AF04CF94FF480600B
:101D0000C4F2010000210AF045F94FF4C050C4F2BA
:101D1000000000210AF03EF980BD00BF80B500AF91
:101D200045F2B400C2F2000007F068FF80BD00BFBA
:101D300080B500AF45F2B403C2F200039B7A002BDA
:101D400013D04EF61053CEF200034EF61052CEF2E0
:101D50000002126822F006021A6006F087FE45F2C1
:101D6000B400C2F20000FFF73FF94FF4802008F002
:101D70006BFF80BD80B58AB000AF7860396000230A
:101D80007B6200233B620023FB610023BB617B6815
:101D90001B8A9BB27B627B6A23F440537B623B6865
:101DA000DB887A6A13437B627B6A9AB27B681A8209
:101DB0007B689B899BB27B627B6A23F4B05323F0E0
:101DC0000C037B623B689A883B681B8913439AB279
:101DD0003B685B8913439BB27A6A13437B627B6ADD
:101DE0009AB27B689A817B689B8A9BB27B627B6A92
:101DF00023F440737B623B689B897A6A13437B625E
:101E00007B6A9AB27B689A8207F10803184605F04C
:101E100053FD7A684FF48053C4F201039A4206D00E
:101E20007A684FF4A053C4F201039A4202D17B694D
:101E30003B6201E03B693B627B689B899BB29BB242
:101E40001BB2002B0CDA3A6A13469B0013449A002B
:101E50001A443B681B685B00B2FBF3F3FB610BE0C9
:101E60003A6A13469B0013449A001A443B681B6865
:101E70009B00B2FBF3F3FB61FA6948F21F53C5F212
:101E8000EB13A3FB02135B091B017B627B6A1B093B
:101E9000642202FB03F3FA69D31ABB617B689B8956
:101EA0009BB29BB21BB2002B10DABB69DB0003F1C3
:101EB000320248F21F53C5F2EB13A3FB02135B0976
:101EC00003F007037A6A13437B620FE0BB691B01CF
:101ED00003F1320248F21F53C5F2EB13A3FB0213C6
:101EE0005B0903F00F037A6A13437B627B6A9AB241
:101EF0007B681A812837BD4680BD00BF80B483B09F
:101F000000AF78600B46FB70FB78002B08D07B6835
:101F10009B899BB243F400539AB27B689A8107E095
:101F20007B689B899BB223F400539AB27B689A81A9
:101F30000C37BD465DF8047B704700BF80B483B0AA
:101F400000AF78600B467B807B88C3F308039AB2AE
:101F50007B689A800C37BD465DF8047B704700BFF4
:101F600080B483B000AF78607B689B889BB2C3F37A
:101F700008039BB218460C37BD465DF8047B7047DA
:101F800080B487B000AF786013460A467A807B70D1
:101F900000233B610023FB600023BB6000237B61C7
:101FA0007B687B617B88DBB25B09DBB23B617B8852
:101FB00003F01F03FB60FB68012202FA03F3BB601E
:101FC0003B69012B03D17B690C337B6109E03B69E1
:101FD000022B03D17B6910337B6102E07B691433F0
:101FE0007B617B78002B06D07B697A691168BA68BF
:101FF0000A431A6006E07B697A691168BA68D243BD
:102000000A401A601C37BD465DF8047B704700BF6C
:1020100080B485B000AF78600B467B800023FB73F3
:102020007B681B889AB27B8813409BB2002B02D03E
:102030000123FB7301E00023FB73FB7B184614377D
:10204000BD465DF8047B704780B582B000AF786014
:1020500078680BF017FE02460B46104619460EA391
:10206000D3E900230BF062FE02460B4610461946E8
:102070004FF000024FF40043C4F276030BF080FFF0
:1020800002460B46104619460CF032F90346184634
:102090000837BD4680BD00BF182D4454FB211940B0
:1020A00080B582B000AF78607A684FF4C843C4F25C
:1020B00000039A420AD14FF00070012105F048FD5B
:1020C0004FF00070002105F043FD09E04FF0806003
:1020D000012105F03DFD4FF08060002105F038FD45
:1020E0000837BD4680BD00BF80B485B000AF7860C2
:1020F00039600023FB730023BB607B681B6823F0FF
:1021000002027B681A607B681B6843F001027B68EF
:102110001A6002E0BB680133BB607B685B6803F058
:102120000103002B04D1BA684FF6FF739A42F1D134
:102130007B685B6803F00103002B02D10023FB7373
:102140009CE03B689B79012B06D17B681B6843F0C0
:1021500080027B681A6005E07B681B6823F08002C0
:102160007B681A603B68DB79012B06D17B681B68B2
:1021700043F040027B681A6005E07B681B6823F02F
:1021800040027B681A603B681B7A012B06D17B6892
:102190001B6843F020027B681A6005E07B681B68BF
:1021A00023F020027B681A603B685B7A012B06D122
:1021B0007B681B6843F010027B681A6005E07B684F
:1021C0001B6823F010027B681A603B689B7A012B26
:1021D00006D17B681B6843F008027B681A6005E043
:1021E0007B681B6823F008027B681A603B68DB7A17
:1021F000012B06D17B681B6843F004027B681A60E0
:1022000005E07B681B6823F004027B681A603B686A
:102210009B789A073B68DB781B061A433B681B795F
:102220001B041A433B685B791B051A433B681B88F8
:10223000013B1A437B68DA617B681B6823F001026B
:102240007B681A600023BB6002E0BB680133BB609F
:102250007B685B6803F00103002B04D0BA684FF67B
:10226000FF739A42F1D17B685B6803F00103002B96
:1022700002D00023FB7301E00123FB73FB7B1846B4
:102280001437BD465DF8047B704700BF80B485B04D
:1022900000AF78600023FB607B689B7A012202FA22
:1022A00003F3FB604FF4C843C4F200034FF4C84289
:1022B000C4F20002D2F8002242F00102C3F8002268
:1022C0004FF4C843C4F200034FF4C842C4F2000202
:1022D000D2F81C12FA68D2430A40C3F81C227B6869
:1022E0001B7B002B2DD14FF4C843C4F200034FF4E5
:1022F000C842C4F20002D2F80C12FA68D2430A4073
:10230000C3F80C224FF4C843C4F200037A68927AEF
:102310007968C9880804796849880143483243F8D4
:1023200032104FF4C842C4F200027B689B7A79688D
:10233000898808047968098801434833DB0013441D
:1023400059607B681B7B012B2CD14FF4C843C4F22E
:1023500000034FF4C842C4F20002D2F80C12FA682B
:102360000A43C3F80C224FF4C843C4F200037A684E
:10237000927A796809880804796849880143483263
:1023800043F832104FF4C842C4F200027B689B7AD3
:102390007968898808047968C98801434833DB0073
:1023A000134459607B68DB7A002B0FD14FF4C8438C
:1023B000C4F200034FF4C842C4F20002D2F804127F
:1023C000FA68D2430A40C3F804220DE04FF4C84330
:1023D000C4F200034FF4C842C4F20002D2F804125F
:1023E000FA680A43C3F804227B681B89002B0ED1CC
:1023F0004FF4C843C4F200034FF4C842C4F20002D1
:10240000D2F81412FA68D2430A40C3F814227B6847
:102410001B89012B0DD14FF4C843C4F200034FF4C4
:10242000C842C4F20002D2F81412FA680A43C3F890
:1024300014227B685B7B012B0DD14FF4C843C4F29F
:1024400000034FF4C842C4F20002D2F81C12FA682A
:102450000A43C3F81C224FF4C843C4F200034FF4EC
:10246000C842C4F20002D2F8002222F00102C3F8EE
:1024700000221437BD465DF8047B704780B483B0FA
:1024800000AF78607B6800229A717B680022DA7165
:102490007B6800221A727B6800225A727B680022D5
:1024A0009A727B680022DA727B6800229A707B68DD
:1024B0000022DA707B6803221A717B6802225A714B
:1024C0007B6801221A800C37BD465DF8047B70479B
:1024D00080B485B000AF786039600023FB737B68FF
:1024E0009B6803F08063002B02D00023FB7313E092
:1024F0007B689B6803F00063002B02D00123FB7311
:102500000AE07B689B6803F08053002B02D0022313
:10251000FB7301E00423FB73FB7B042B00F098802A
:10252000FB7BFA7B7968183212010A44126802F0C8
:102530000102796818331B010B441A603B681B7A4F
:10254000002B13D1FB7BFA7B7968183212010A4405
:1025500011683A68126850053A68527A02430A4391
:10256000796818331B010B441A6015E0FB7BFA7B7A
:102570007968183212010A4411683A685268D0002A
:102580003A68127A10433A68527A02430A437968E9
:1025900018331B010B441A603B689B7A03F00F034E
:1025A000DAB23B689A72FB7BFA7B796818321201C7
:1025B0000A44526822F00F02796818331B010B4459
:1025C0005A60FB7BFA7B7968183212010A44516821
:1025D0003A68927A0A43796818331B010B445A60AF
:1025E000FB7B3A68927B11063A68527B12041143D6
:1025F0003A68127B120211433A68D27A0A43796828
:102600001B010B4403F5C4731A60FB7B3A68927C90
:1026100011063A68527C120411433A68127C120285
:1026200011433A68D27B0A4379681B010B4403F5D6
:10263000C4735A60FB7BFA7B7968183212010A4432
:10264000126842F00102796818331B010B441A60CA
:10265000FB7B18461437BD465DF8047B704700BF0E
:1026600080B485B000AF78600B46FB700023FB6040
:10267000FB78012B0BD0022B12D0002B18D17B68DA
:102680009A680323C0F200431340FB6013E07B68A9
:102690009A684FF44073C0F600031340FB600AE0F1
:1026A0007B689A680023C1F203031340FB6002E0D9
:1026B0000023FB6000BFFB684FF48072C0F600028D
:1026C000934229D04FF48072C0F6000293420CD896
:1026D0000122C0F2004293421BD00322C0F200420A
:1026E00093421FD0002B11D025E00022C1F201023D
:1026F000934214D00022C1F20302934218D04FF447
:102700004072C0F6000293420FD014E00223FB6037
:1027100014E00023FB6011E00023FB600EE00023C7
:10272000FB600BE00123FB6008E00123FB6005E098
:102730000123FB6002E00023FB6000BFFB68DBB20B
:1027400018461437BD465DF8047B704780B485B0E9
:1027500000AFF8600B467A60FB72FB7AFA681B33B5
:102760001B0113441B68DBB203F00403DAB27B687D
:102770001A727B681B7A002B09D1FB7AFA681B332B
:102780001B0113441B685A0D7B681A6008E0FB7A32
:10279000FA681B331B0113441B68DA087B685A6014
:1027A000FB7AFA681B331B0113441B68DBB203F08E
:1027B0000203DAB27B685A72FB7AFA681B331B0198
:1027C00013445B68DBB203F00F03DAB27B689A72E2
:1027D000FB7AFA681B331B0113445B681B0ADAB2ED
:1027E0007B68DA74FB7AFA681B01134403F5DC7327
:1027F0001B68DAB27B68DA72FB7AFA681B01134451
:1028000003F5DC731B681B0ADAB27B681A73FB7A68
:10281000FA681B01134403F5DC731B681B0CDAB266
:102820007B685A73FB7AFA681B01134403F5DC7367
:102830001B681B0EDAB27B689A73FB7AFA681B017D
:10284000134403F5DC735B68DAB27B68DA73FB7AF6
:10285000FA681B01134403F5DC735B681B0ADAB2E8
:102860007B681A74FB7AFA681B01134403F5DC7366
:102870005B681B0CDAB27B685A74FB7AFA681B013E
:10288000134403F5DC735B681B0EDAB27B689A7441
:10289000FB7A002B06D1FB68DB6843F02002FB6863
:1028A000DA6005E0FB681B6943F02002FB681A61EF
:1028B0001437BD465DF8047B704700BF80B485B017
:1028C00000AFF860B9601346FB71FB79002B06D0AE
:1028D000FB685A69BB681A43FB685A6106E0FB68EB
:1028E0005A69BB68DB431A40FB685A611437BD461E
:1028F0005DF8047B704700BF80B584B000AF78609E
:1029000039600023FB737B685A693B681340002BD6
:1029100000F0B5803B68402B65D0402B0FD8042BCE
:102920003DD0042B04D8012B24D0022B2ED0A2E0C2
:10293000102B46D0202B4DD0082B39D09BE0B3F57F
:10294000006F00F08680B3F5006F09D8B3F5007F03
:102950006DD0B3F5806F73D0B3F5807F5ED08AE021
:10296000B3F5803F48D0B3F5003F4ED0B3F5004FEC
:1029700078D080E07B689B68184640F20111C0F275
:10298000010100F083F80346FB7377E07B68DB68A6
:102990001846032100F07AF80346FB736EE07B686B
:1029A000DB681846082100F071F80346FB7365E008
:1029B0007B68DB681846102100F068F80346FB735B
:1029C0005CE07B681B691846032100F05FF8034652
:1029D000FB7353E07B681B691846082100F056F82A
:1029E0000346FB734AE07B681B691846102100F020
:1029F0004DF80346FB7341E07B685B68184608218D
:102A000000F044F80346FB7338E07B685B681846C7
:102A1000102100F03BF80346FB732FE07B689B69B5
:102A20001846012100F032F80346FB7326E07B686C
:102A30009B691846022100F029F80346FB731DE04C
:102A40007B689B691846042100F020F80346FB735D
:102A500014E07B689B691846702100F017F8034664
:102A6000FB730BE07B685B681846042100F00EF8EE
:102A70000346FB7302E00023FB7300BF01E0002369
:102A8000FB73FB7B18461037BD4680BD80B485B014
:102A900000AF786039600023FB737A683B681340AD
:102AA000002B02D00123FB7301E00023FB73FB7BAF
:102AB00018461437BD465DF8047B704780B400AFFC
:102AC00040F26063C2F20003D3E90023501C43F1DB
:102AD000000140F26063C2F20003C3E90001BD4699
:102AE0005DF8047B704700BF80B500AF00F010F8C0
:102AF00002460B46104619464FF47A724FF0000317
:102B00000BF0EAFE02460B461046194680BD00BF98
:102B100080B400AF40F26063C2F20003D3E9002347
:102B20000A2101FB03F0002101FB02F101440A200C
:102B3000A2FB002319440B4610461946BD465DF81A
:102B4000047B704780B500AF4CF2AC50C3F22770E5
:102B500005F078FD80BD00BF80B584B000AFC7E947
:102B600000010023FB60FFF7BFFF02460B46134640
:102B7000FB6000BFFFF7B8FFFB681A464FEAE2733D
:102B8000821A61EB0303D7E90001904271EB030C59
:102B9000F0DA1037BD4680BD80B58AB002AFF8606C
:102BA0007A600A46FA723B8107F114031846FFF770
:102BB00065FCFB68012B0BD14FF4C840C4F2000048
:102BC000FFF76EFA4FF00070012104F071FF0DE085
:102BD000FB68022B0AD14FF4D040C4F20000FFF78B
:102BE0005FFA4FF08060012104F062FF3B89002210
:102BF0000092022079681A460123FEF71FFABB8D66
:102C0000002200920220B96A1A460123FEF716FA42
:102C1000FB68012B14D13B89184608F0CBFB034617
:102C200078681946092205F0DBFEBB8D184608F0CE
:102C3000C1FB0346B86A1946092205F0D1FE16E029
:102C4000FB68022B13D13B89184608F0B3FB0346FF
:102C500078681946092205F0C3FEBB8D184608F0B6
:102C6000A9FB0346B86A1946092205F0B9FE0123FB
:102C7000BB760023FB7600233B7700237B77002382
:102C8000BB770023FB77FB7ABB750023FB7505231D
:102C90003B7606237B760323BB82FB68012B09D19D
:102CA00007F114034FF4C840C4F200001946FFF7BF
:102CB0001BFA0BE0FB68022B08D107F114034FF459
:102CC000D040C4F200001946FFF70EFA4FF4E0605E
:102CD00008F048FCFB68012B0BD1142008F054FBD2
:102CE0004FF4C840C4F2000002210122FFF7E6FDC4
:102CF0000DE0FB68022B0AD1402008F045FB4FF4A1
:102D0000D040C4F2000002210122FFF7D7FD203796
:102D1000BD4680BD80B586B000AF7860F9703A805E
:102D2000BB700023FB820023FB820EE0FB8ADBB238
:102D3000BB7400233B8200237B7507F10803184610
:102D4000FFF7A4FAFB8A0133FB82B7F916300D2B8B
:102D5000ECDD7B68DBB2BB7400233B8201237B7517
:102D6000FB78002B02D10023FB7404E0FB78012BDD
:102D700001D10123FB7400233B75B7F900305B01DF
:102D80009AB2BB781B019BB213439BB29BB27B816F
:102D9000B7F920305B019AB297F824301B019BB23F
:102DA00013439BB29BB2FB81B7F928305B019AB207
:102DB00097F82C301B019BB213439BB29BB23B8113
:102DC000B7F930305B019AB297F834301B019BB2EF
:102DD00013439BB29BB2BB8107F108031846FFF770
:102DE00055FA1837BD4680BD80B582B000AF786017
:102DF0004FF4C840C4F200007968FFF769FB00BFD8
:102E00004FF4C840C4F200000021FFF729FC03463C
:102E1000012BF5D10837BD4680BD00BF80B582B01B
:102E200000AF44F24413C0F602037B6040F200039B
:102E3000C2F200033B6007E03B681A1D3A607A6803
:102E4000111D796012681A603A6840F2F453C2F2B8
:102E500000039A42F0D3084808494FF00002884224
:102E6000B8BF40F8042BFADB04F0C2FE04F01CFCEF
:102E70000837BD4680BD0000F8050020A856002098
:102E800080B400AFFEE700BF80B584B000AF7860CB
:102E900007F108037868194606F046FE3B7A03F00E
:102EA0001F03012B0AD0022B0FD0002B14D107F1E6
:102EB00008037868194606F031FA16E007F10803AE
:102EC0007868194606F07AFA0FE007F10803786887
:102ED000194606F0A7FA08E03B7A23F07F03DBB23D
:102EE0007868194608F082FC00BF002318461037A6
:102EF000BD4680BD80B584B000AF78600B46FB70E6
:102F0000FB78002B45D17B6803F55C73FB607B6825
:102F100093F81131032B4FD1FB68DA69FB689B688A
:102F20009A4221D9FB68DA69FB689B68D21AFB6870
:102F3000DA617B68DB78012B06D1FB68DA68FB6815
:102F40009B681A44FB68DA60FB68DA68FB6899687A
:102F5000FB68DB69994238BF0B469BB27868114623
:102F60001A4608F0D9FE27E07B68D3F8E0351B69E4
:102F7000002B0AD07B6893F81231032B05D17B68B4
:102F8000D3F8E0351B6978689847786808F0D8FE70
:102F900012E07B68D3F8E0359B69002B0CD07B688E
:102FA00093F81231032B07D17B68D3F8E0359B6986
:102FB000FA78786811469847002318461037BD46BE
:102FC00080BD00BF80B584B000AF78600B46FB7059
:102FD000FB78002B60D17B6803F58C73FB607B680A
:102FE00093F81131022B6AD1FB68DA69FB689B68A0
:102FF0009A421CD9FB68DA69FB689B68D21AFB68A5
:10300000DA617B68DB78012B06D1FB68DA68FB6844
:103010009B681A44FB68DA60FB68DA68FB68DB6966
:103020009BB2786811461A4608F062FE47E0FB68DA
:103030001B6AFA689268B3FBF2F102FB01F29B1A79
:10304000002B14D1FB681A6AFB689B689A420ED366
:10305000FB681A6AFB685B6A9A4208D278680021AA
:10306000002208F045FEFB6800225A6227E07B68D8
:10307000D3F8E035DB68002B0AD07B6893F8123177
:10308000032B05D17B68D3F8E035DB687868984777
:10309000786808F06DFE12E07B68D3F8E0355B6974
:1030A000002B0CD07B6893F81231032B07D17B687F
:1030B000D3F8E0355B69FA787868114698470023C1
:1030C00018461037BD4680BD80B582B000AF78602D
:1030D000786800214022002308F0BEFA7868802139
:1030E0004022002308F0B8FA7B68012283F81221FD
:1030F0007B68D3F8E4355B687A6892781046984725
:10310000002318460837BD4680BD00BF80B582B099
:1031100000AF78607B68D3F8E4351B6998477B681B
:10312000032283F81221002318460837BD4680BDCC
:1031300080B582B000AF78607B68042283F81221EA
:103140007B68D3F8E435DB689847002318460837D6
:10315000BD4680BD80B582B000AF78607B68D3F893
:10316000E035DB69002B05D07B68D3F8E035DB69FF
:1031700078689847002318460837BD4680BD00BFD1
:1031800080B582B000AF78600B46FB707B68D3F8E7
:10319000E0351B68FA787868114698477B68D3F861
:1031A000E4359B689847002318460837BD4680BD24
:1031B00080B582B000AF78600B46FB707B68D3F8B7
:1031C000E0355B68FA78786811469847002318461E
:1031D0000837BD4680BD00BF80B582B000AF7860C3
:1031E0007B68D3F8E0351B6A786898470023184657
:1031F0000837BD4680BD00BF80B582B000AF7860A3
:103200007B68D3F8E0355B6A7868984700231846F6
:103210000837BD4680BD00BF80B582B000AF786082
:1032200039607B681846FDF7E9FF7B68074A1A603A
:103230007B683A68C3F818217B680022C3F8142120
:103240007B6818460837BD4680BD00BF580B020892
:1032500080B582B000AF78600B46FB707B681A1DAA
:10326000FB781046194603F0D7FF0346002B14BF26
:1032700000230123DBB2002B0AD0FB780D2B13D1E6
:103280007B68D3F814315A1C7B68C3F814210BE017
:103290007B68D3F81431002B06D1FB780D2B03D1BA
:1032A0007B680122C3F814210837BD4680BD00BFEA
:1032B00080B582B000AF78607B680433184603F0B5
:1032C000DDFF0346002B14BF00230123DBB21846A9
:1032D0000837BD4680BD00BF80B483B000AF7860C2
:1032E0007B68D3F8143118460C37BD465DF8047B73
:1032F000704700BF80B582B000AF78607B68043350
:10330000184603F0D1FF034618460837BD4680BD76
:1033100090B585B000AF786039607B68043318469B
:1033200003F0ACFF0346002B0CBF00230123DBB2EC
:10333000002B08D03B6800221A707B680022C3F87B
:103340001421002354E00023FB604DE0FB683A6841
:10335000D4187B680433184603F0A6FF0346237095
:10336000FB683A6813441B780D2B02D0FB68FE2BD8
:103370001FDDFB683A68134400221A707B6804332F
:10338000184603F07BFF0346002B0CBF00230123EC
:10339000DBB2002B04D07B680022C3F8142106E0C6
:1033A0007B68D3F814315A1E7B68C3F81421FB687C
:1033B0001EE07B680433184603F060FF0346002BD1
:1033C0000CBF00230123DBB2002B0AD0FB683A6854
:1033D000134400221A707B680022C3F81421FB6892
:1033E00006E0FB680133FB60FB68FF2BAEDD0023CA
:1033F00018461437BD4690BD80B582B000AF7860E6
:103400007B689B68012B06D17B685B681846FFF7D9
:1034100063FF034600E0002318460837BD4680BD21
:1034200080B582B000AF786039603B6800221A70C6
:103430007B689B68012B07D17B685B6818463968FD
:10344000FFF766FF034600E0002318460837BD4635
:1034500080BD00BF80B582B000AF78607B689B689C
:10346000012B06D17B685B681846FFF721FF0346F6
:1034700000E0002318460837BD4680BD80B582B005
:1034800000AF78607B689B68012B06D17B685B6826
:103490001846FFF72FFF034600E0002318460837C1
:1034A000BD4680BD80B584B000AF78603960002330
:1034B000FB600DE07B681B6804331B68FA683968A1
:1034C0000A441278786811469847FB680133FB601C
:1034D000FB683A6813441B78002BEBD11037BD46CC
:1034E00080BD00BF90B587B002AFF860B9607A6068
:1034F0003B60FB6802229A60FB681B681C683B68A3
:103500000093F868B9687A683B6AA0470346184692
:103510001437BD4690BD00BF90B587B002AFF860CC
:10352000B9607A603B60FB6801229A604FF48E704C
:1035300015F074F804462046F968FFF76DFEFB6845
:103540005C60FB681B681C68FB685B687A680092BB
:10355000F868B9681A463B68A0470346184614370E
:10356000BD4690BD80B582B000AF78607B681B68B7
:103570001B6878689847034618460837BD4680BDE3
:1035800080B582B000AF78607B681B6804331B682D
:1035900078689847034618460837BD4680BD00BF87
:1035A00080B584B000AFF860B9607A60FB681B68D2
:1035B0001B68F868B9687A68984703461846103758
:1035C000BD4680BD80B582B000AF786039607B6851
:1035D0001B6804331B687868396898470837BD460C
:1035E00080BD00BF80B582B000AF78607B681B688B
:1035F00008331B6878689847034618460837BD4665
:1036000080BD00BF80B483B000AF786040F6FF7328
:1036100018460C37BD465DF8047B7047A0F10800E2
:10362000F0E700BF80B483B000AF786043F233337B
:10363000C4F2530318460C37BD465DF8047B70474F
:10364000A0F10800EEE700BF80B483B000AF78605F
:1036500040F6FF7318460C37BD465DF8047B704793
:10366000A0F10800F0E700BF80B483B000AF78603D
:1036700043F23333C4F2530318460C37BD465DF8AA
:10368000047B7047A0F10800EEE700BF80B483B070
:1036900000AF786040F6FF7318460C37BD465DF802
:1036A000047B7047A0F10800F0E700BF80B483B04E
:1036B00000AF786043F23333C4F2530318460C373B
:1036C000BD465DF8047B7047A0F10800EEE700BF3F
:1036D00080B483B000AF786040F6FF7318460C37B3
:1036E000BD465DF8047B7047A0F10800F0E700BF1D
:1036F00080B483B000AF786043F23333C4F2530335
:1037000018460C37BD465DF8047B7047A0F10800F1
:10371000EEE700BF80B483B000AF786040F6FF737F
:1037200018460C37BD465DF8047B7047A0F10800D1
:10373000F0E700BF80B483B000AF786043F233336A
:10374000C4F2530318460C37BD465DF8047B70473E
:10375000A0F10800EEE700BF80B582B000AF78604E
:103760004FF44060C4F202004FF4805105F002F9BA
:10377000034618460837BD4680BD00BF80B582B0FD
:1037800000AF786039603B68002B08D14FF440608F
:10379000C4F202004FF4805105F014F907E04FF431
:1037A0004060C4F202004FF4805105F0FDF8083784
:1037B000BD4680BD80B582B000AF78604FF44060F8
:1037C000C4F202004FF4805105F0BAF803461846DF
:1037D0000837BD4680BD00BF80B584B002AF7860B9
:1037E0000023009300204FF44061C4F202014FF423
:1037F00080520023FDF722FC002318460837BD46FF
:1038000080BD00BF80B584B002AF78600023009314
:1038100001204FF44061C4F202014FF480520023B2
:10382000FDF70CFC002318460837BD4680BD00BFDD
:1038300080B584B002AF78600023009300204FF47D
:103840004061C4F202014FF480520123FDF7F6FB00
:10385000002318460837BD4680BD00BF80B584B040
:1038600002AF78600023009300204FF44061C4F25F
:1038700002014FF480520223FDF7E0FB00231846BB
:103880000837BD4680BD00BF80B582B000AF78600C
:103890004FF48050C4F202004FF4004105F06AF882
:1038A000034618460837BD4680BD00BF80B582B0CC
:1038B00000AF786039603B68002B08D14FF480502E
:1038C000C4F202004FF4004105F07CF807E04FF429
:1038D0008050C4F202004FF4004105F065F808374B
:1038E000BD4680BD80B582B000AF78604FF4805097
:1038F000C4F202004FF4004105F022F803461846D6
:103900000837BD4680BD00BF80B584B002AF786087
:103910000023009300204FF48051C4F202014FF4C1
:1039200000420023FDF78AFB012318460837BD46F5
:1039300080BD00BF80B584B002AF786000230093E3
:1039400001204FF48051C4F202014FF400420023E1
:10395000FDF774FB002318460837BD4680BD00BF45
:1039600080B584B002AF78600023009300204FF44C
:103970008051C4F202014FF400420123FDF75EFBC7
:10398000012318460837BD4680BD00BF80B584B00E
:1039900002AF78600023009300204FF48051C4F2FE
:1039A00002014FF400420223FDF748FB00231846B2
:1039B0000837BD4680BD00BF80B582B000AF7860DB
:1039C0004FF48060C4F202004FF4804104F0D2FF53
:1039D000034618460837BD4680BD00BF80B582B09B
:1039E00000AF786039603B68002B08D14FF48060ED
:1039F000C4F202004FF4804104F0E4FF07E04FF40A
:103A00008060C4F202004FF4804104F0CDFF08371B
:103A1000BD4680BD80B582B000AF78604FF4806055
:103A2000C4F202004FF4804104F08AFF03461846B6
:103A30000837BD4680BD00BF80B584B002AF786056
:103A40000023009300204FF48061C4F202014FF480
:103A500080420023FDF7F2FA002318460837BD46DE
:103A600080BD00BF80B584B002AF786000230093B2
:103A700001204FF48061C4F202014FF48042002320
:103A8000FDF7DCFA002318460837BD4680BD00BFAD
:103A900080B584B002AF78600023009300204FF41B
:103AA0008061C4F202014FF480420123FDF7C6FA9F
:103AB000002318460837BD4680BD00BF80B584B0DE
:103AC00002AF78600023009300204FF48061C4F2BD
:103AD00002014FF480420223FDF7B0FA002318469A
:103AE0000837BD4680BD00BF80B582B000AF7860AA
:103AF0004FF48060C4F202004FF4004104F03AFF3A
:103B0000034618460837BD4680BD00BF80B582B069
:103B100000AF786039603B68002B08D14FF48060BB
:103B2000C4F202004FF4004104F04CFF07E04FF4F0
:103B30008060C4F202004FF4004104F035FF083702
:103B4000BD4680BD80B582B000AF78604FF4806024
:103B5000C4F202004FF4004104F0F2FE034618469E
:103B60000837BD4680BD00BF80B584B002AF786025
:103B70000023009300204FF48061C4F202014FF44F
:103B800000420023FDF75AFA002318460837BD46C5
:103B900080BD00BF80B584B002AF78600023009381
:103BA00001204FF48061C4F202014FF4004200236F
:103BB000FDF744FA002318460837BD4680BD00BF14
:103BC00080B584B002AF78600023009300204FF4EA
:103BD0008061C4F202014FF400420123FDF72EFA86
:103BE000002318460837BD4680BD00BF80B584B0AD
:103BF00002AF78600023009300204FF48061C4F28C
:103C000002014FF400420223FDF718FA0023184680
:103C10000837BD4680BD00BF80B582B000AF786078
:103C20000020C4F202004FF4004104F0A3FE03465A
:103C300018460837BD4680BD80B582B000AF7860B9
:103C400039603B68002B07D10020C4F202004FF41A
:103C5000004104F0B7FE06E00020C4F202004FF479
:103C6000004104F0A1FE0837BD4680BD80B582B09A
:103C700000AF78600020C4F202004FF4004104F06D
:103C80005FFE034618460837BD4680BD80B584B048
:103C900002AF78600023009300200021C4F20201EB
:103CA0004FF400420023FDF7C9F9002318460837F6
:103CB000BD4680BD80B483B000AF78600123184654
:103CC0000C37BD465DF8047B704700BF80B584B0FB
:103CD00002AF78600023009300200021C4F20201AB
:103CE0004FF400420123FDF7A9F9002318460837D5
:103CF000BD4680BD80B584B002AF786000230093DC
:103D000000200021C4F202014FF400420223FDF71B
:103D100095F9002318460837BD4680BD80B582B0AE
:103D200000AF78604FF48060C4F202004FF400519D
:103D300004F020FE034618460837BD4680BD00BF8C
:103D400080B582B000AF786039603B68002B08D145
:103D50004FF48060C4F202004FF4005104F032FED0
:103D600007E04FF48060C4F202004FF4005104F009
:103D70001BFE0837BD4680BD80B582B000AF7860BD
:103D80004FF48060C4F202004FF4005104F0D8FDFB
:103D9000034618460837BD4680BD00BF80B584B0D5
:103DA00002AF78600023009300204FF48061C4F2DA
:103DB00002014FF400520023FDF740F9002318469A
:103DC0000837BD4680BD00BF80B483B000AF7860C7
:103DD000012318460C37BD465DF8047B704700BFD1
:103DE00080B584B002AF78600023009300204FF4C8
:103DF0008061C4F202014FF400520123FDF71EF965
:103E0000002318460837BD4680BD00BF80B584B08A
:103E100002AF78600023009300204FF48061C4F269
:103E200002014FF400520223FDF708F9002318465F
:103E30000837BD4680BD00BF80B582B000AF786056
:103E40004FF44060C4F202004FF4006104F092FDB0
:103E5000034618460837BD4680BD00BF80B582B016
:103E600000AF786039603B68002B08D14FF44060A8
:103E7000C4F202004FF4006104F0A4FD07E04FF427
:103E80004060C4F202004FF4006104F08DFD083779
:103E9000BD4680BD80B582B000AF78604FF4406011
:103EA000C4F202004FF4006104F04AFD03461846D4
:103EB0000837BD4680BD00BF80B584B002AF7860D2
:103EC0000023009300204FF44061C4F202014FF43C
:103ED00000620023FDF7B2F8002318460837BD46FC
:103EE00080BD00BF80B483B000AF78600123184666
:103EF0000C37BD465DF8047B704700BF80B584B0C9
:103F000002AF78600023009300204FF44061C4F2B8
:103F100002014FF400620123FDF790F800231846D8
:103F20000837BD4680BD00BF80B584B002AF786061
:103F30000023009300204FF44061C4F202014FF4CB
:103F400000620223FDF77AF8002318460837BD46C1
:103F500080BD00BF80B582B000AF78604FF4406094
:103F6000C4F202004FF4806104F004FD03461846D9
:103F70000837BD4680BD00BF80B582B000AF786015
:103F800039603B68002B08D14FF44060C4F2020056
:103F90004FF4806104F016FD07E04FF44060C4F276
:103FA00002004FF4806104F0FFFC0837BD4680BD7D
:103FB00080B582B000AF78604FF44060C4F2020078
:103FC0004FF4806104F0BCFC034618460837BD4638
:103FD00080BD00BF80B584B002AF7860002300933D
:103FE00000204FF44061C4F202014FF480620023CC
:103FF000FDF724F8002318460837BD4680BD00BFF2
:1040000080B483B000AF7860012318460C37BD46FA
:104010005DF8047B704700BF80B584B002AF786064
:104020000023009300204FF44061C4F202014FF4DA
:1040300080620123FDF702F8002318460837BD46C9
:1040400080BD00BF80B584B002AF786000230093CC
:1040500000204FF44061C4F202014FF48062022359
:10406000FCF7ECFF002318460837BD4680BD00BFB3
:1040700080B582B000AF78604FF48060C4F2020077
:10408000022104F077FC034618460837BD4680BD80
:1040900080B582B000AF786039603B68002B07D1F3
:1040A0004FF48060C4F20200022104F08BFC06E0B1
:1040B0004FF48060C4F20200022104F075FC08375E
:1040C000BD4680BD80B582B000AF78604FF480609F
:1040D000C4F20200022104F033FC034618460837FC
:1040E000BD4680BD80B584B002AF786000230093E8
:1040F00000204FF48061C4F2020102220023FCF789
:104100009DFF002318460837BD4680BD80B584B0AA
:1041100002AF78600023009301204FF48061C4F265
:10412000020102220023FCF789FF0023184608370A
:10413000BD4680BD80B584B002AF78600023009397
:1041400000204FF48061C4F2020102220123FCF737
:1041500075FF002318460837BD4680BD80B584B082
:1041600002AF78600023009300204FF48061C4F216
:10417000020102220223FCF761FF002318460837E0
:10418000BD4680BD80B582B000AF78600020C4F22B
:104190000200102104F0EEFB034618460837BD4626
:1041A00080BD00BF80B582B000AF786039603B68E9
:1041B000002B06D10020C4F20200102104F002FC02
:1041C00005E00020C4F20200102104F0EDFB0837E6
:1041D000BD4680BD80B582B000AF78600020C4F2DB
:1041E0000200102104F0ACFB034618460837BD4618
:1041F00080BD00BF80B584B002AF7860002300931B
:1042000000200021C4F2020110220023FCF716FF57
:10421000002318460837BD4680BD00BF80B584B076
:1042200002AF78600023009301200021C4F2020154
:1042300010220023FCF702FF002318460837BD4672
:1042400080BD00BF80B584B002AF786000230093CA
:1042500000200021C4F2020110220123FCF7EEFE2F
:10426000002318460837BD4680BD00BF80B584B026
:1042700002AF78600023009300200021C4F2020105
:1042800010220223FCF7DAFE002318460837BD4649
:1042900080BD00BF80B582B000AF78604FF4006091
:1042A000C4F20200012104F065FB034618460837FA
:1042B000BD4680BD80B582B000AF786039603B6894
:1042C000002B07D14FF40060C4F20200012104F07A
:1042D00079FB06E04FF40060C4F20200012104F013
:1042E00063FB0837BD4680BD80B582B000AF786003
:1042F0004FF40060C4F20200012104F021FB0346E8
:1043000018460837BD4680BD80B584B002AF7860DE
:104310000023009300204FF40061C4F20201012247
:104320000023FCF78BFE002318460837BD4680BDEE
:1043300080B584B002AF78600023009301204FF471
:104340000061C4F2020101220023FCF777FE002382
:1043500018460837BD4680BD80B584B002AF78608E
:104360000023009300204FF40061C4F202010122F7
:104370000123FCF763FE002318460837BD4680BDC5
:1043800080B584B002AF78600023009300204FF422
:104390000061C4F2020101220223FCF74FFE002358
:1043A00018460837BD4680BD80B582B000AF786042
:1043B0004FF48050C4F202004FF4805104F0DAFA56
:1043C000034618460837BD4680BD00BF80B582B0A1
:1043D00000AF786039603B68002B08D14FF4805003
:1043E000C4F202004FF4805104F0ECFA07E04FF4FD
:1043F0008050C4F202004FF4805104F0D5FA08371F
:10440000BD4680BD80B582B000AF78604FF480506B
:10441000C4F202004FF4805104F092FA03461846A9
:104420000837BD4680BD00BF80B584B002AF78605C
:104430000023009300204FF48051C4F202014FF496
:1044400080520023FCF7FAFD002318460837BD46CA
:1044500080BD00BF80B584B002AF786000230093B8
:1044600001204FF48051C4F202014FF48052002326
:10447000FCF7E4FD002318460837BD4680BD00BFA9
:1044800080B584B002AF78600023009300204FF421
:104490008051C4F202014FF480520123FCF7CEFD9B
:1044A000002318460837BD4680BD00BF80B584B0E4
:1044B00002AF78600023009300204FF48051C4F2D3
:1044C00002014FF480520223FCF7B8FD0023184686
:1044D0000837BD4680BD00BF80B582B000AF7860B0
:1044E0000020C4F20200202104F044FA03461846DA
:1044F0000837BD4680BD00BF80B582B000AF786090
:1045000039603B68002B06D10020C4F20200202154
:1045100004F058FA05E00020C4F20200202104F063
:1045200043FA0837BD4680BD80B582B000AF7860E1
:104530000020C4F20200202104F002FA03461846CB
:104540000837BD4680BD00BF80B584B002AF78603B
:104550000023009300200021C4F202012022002346
:10456000FCF76CFD002318460837BD4680BD00BF30
:1045700080B584B002AF7860002300930120002151
:10458000C4F2020120220023FCF758FD0023184644
:104590000837BD4680BD00BF80B584B002AF7860EB
:1045A0000023009300200021C4F2020120220123F5
:1045B000FCF744FD002318460837BD4680BD00BF08
:1045C00080B584B002AF7860002300930020002102
:1045D000C4F2020120220223FCF730FD002318461A
:1045E0000837BD4680BD00BF80B582B000AF78609F
:1045F0004FF48060C4F20200042104F0BBF90346CA
:1046000018460837BD4680BD80B582B000AF7860DF
:1046100039603B68002B07D14FF48060C4F2020080
:10462000042104F0CFF906E04FF48060C4F20200E8
:10463000042104F0B9F90837BD4680BD80B582B0C9
:1046400000AF78604FF48060C4F20200042104F0EF
:1046500077F9034618460837BD4680BD80B584B05B
:1046600002AF78600023009300204FF48061C4F211
:10467000020104220023FCF7E1FC0023184608375E
:10468000BD4680BD80B584B002AF78600023009342
:1046900001204FF48061C4F2020104220023FCF7E0
:1046A000CDFC002318460837BD4680BD80B584B0D8
:1046B00002AF78600023009300204FF48061C4F2C1
:1046C000020104220123FCF7B9FC00231846083735
:1046D000BD4680BD80B584B002AF786000230093F2
:1046E00000204FF48061C4F2020104220223FCF78F
:1046F000A5FC002318460837BD4680BD80B582B0B2
:1047000000AF78604FF48050C4F20200802104F0C2
:1047100031F9034618460837BD4680BD80B582B0E2
:1047200000AF786039603B68002B07D14FF48050B0
:10473000C4F20200802104F045F906E04FF48050F5
:10474000C4F20200802104F02FF90837BD4680BD75
:1047500080B582B000AF78604FF48050C4F20200A0
:10476000802104F0EDF8034618460837BD4680BDA9
:1047700080B584B002AF78600023009300204FF42E
:104780008051C4F2020180220023FCF757FC002371
:1047900018460837BD4680BD80B584B002AF78604A
:1047A0000023009301204FF48051C4F202018022C3
:1047B0000023FCF743FC002318460837BD4680BDA4
:1047C00080B584B002AF78600023009300204FF4DE
:1047D0008051C4F2020180220123FCF72FFC002348
:1047E00018460837BD4680BD80B584B002AF7860FA
:1047F0000023009300204FF48051C4F20201802274
:104800000223FCF71BFC002318460837BD4680BD79
:1048100080B582B000AF78604FF48050C4F20200DF
:104820004FF4806104F0A6F8034618460837BD46E9
:1048300080BD00BF80B582B000AF786039603B6852
:10484000002B08D14FF48050C4F202004FF4806175
:1048500004F0B8F807E04FF48050C4F202004FF4BF
:10486000806104F0A1F80837BD4680BD80B582B0F4
:1048700000AF78604FF48050C4F202004FF48061C2
:1048800004F05EF8034618460837BD4680BD00BFF9
:1048900080B584B002AF78600023009300204FF40D
:1048A0008051C4F202014FF480620023FCF7C6FB82
:1048B000002318460837BD4680BD00BF80B584B0D0
:1048C00002AF78600023009301204FF48051C4F2BE
:1048D00002014FF480620023FCF7B0FB002318466E
:1048E0000837BD4680BD00BF80B584B002AF786098
:1048F0000023009300204FF48051C4F202014FF4D2
:1049000080620123FCF79AFB002318460837BD4656
:1049100080BD00BF80B584B002AF786000230093F3
:1049200000204FF48051C4F202014FF48062022350
:10493000FCF784FB002318460837BD4680BD00BF46
:1049400080B582B000AF78604FF48060C4F202009E
:10495000012104F00FF8034618460837BD4680BD14
:1049600080B582B000AF786039603B68002B07D11A
:104970004FF48060C4F20200012104F023F806E045
:104980004FF48060C4F20200012104F00DF80837F2
:10499000BD4680BD80B582B000AF78604FF48060C6
:1049A000C4F20200012103F0CBFF0346184608378A
:1049B000BD4680BD80B584B002AF7860002300930F
:1049C00000204FF48061C4F2020101220023FCF7B1
:1049D00035FB002318460837BD4680BD80B584B03E
:1049E00002AF78600023009301204FF48061C4F28D
:1049F000020101220023FCF721FB0023184608379F
:104A0000BD4680BD80B584B002AF786000230093BE
:104A100000204FF48061C4F2020101220123FCF75F
:104A20000DFB002318460837BD4680BD80B584B015
:104A300002AF78600023009300204FF48061C4F23D
:104A4000020101220223FCF7F9FA00231846083775
:104A5000BD4680BD80B582B000AF78604FF4805015
:104A6000C4F20200102103F085FF03461846083700
:104A7000BD4680BD80B582B000AF786039603B68CC
:104A8000002B07D14FF48050C4F20200102103F034
:104A900099FF06E04FF48050C4F20200102103F0A9
:104AA00083FF0837BD4680BD80B582B000AF786017
:104AB0004FF48050C4F20200102103F041FF03467E
:104AC00018460837BD4680BD80B584B002AF786017
:104AD0000023009300204FF48051C4F20201102201
:104AE0000023FCF7ABFA002318460837BD4680BD0B
:104AF00080B584B002AF78600023009301204FF4AA
:104B00008051C4F2020110220023FCF797FA00231F
:104B100018460837BD4680BD80B584B002AF7860C6
:104B20000023009300204FF48051C4F202011022B0
:104B30000123FCF783FA002318460837BD4680BDE1
:104B400080B584B002AF78600023009300204FF45A
:104B50008051C4F2020110220223FCF76FFA0023F5
:104B600018460837BD4680BD80B582B000AF78607A
:104B70004FF48050C4F20200042103F0FBFE034610
:104B800018460837BD4680BD80B582B000AF78605A
:104B900039603B68002B07D14FF48050C4F202000B
:104BA000042103F00FFF06E04FF48050C4F202002E
:104BB000042103F0F9FE0837BD4680BD80B582B000
:104BC00000AF78604FF48050C4F20200042103F07B
:104BD000B7FE034618460837BD4680BD80B584B091
:104BE00002AF78600023009300204FF48051C4F29C
:104BF000020104220023FCF721FA0023184608379B
:104C0000BD4680BD80B584B002AF786000230093BC
:104C100001204FF48051C4F2020104220023FCF76A
:104C20000DFA002318460837BD4680BD80B584B014
:104C300002AF78600023009300204FF48051C4F24B
:104C4000020104220123FCF7F9F900231846083772
:104C5000BD4680BD80B584B002AF7860002300936C
:104C600000204FF48051C4F2020104220223FCF719
:104C7000E5F9002318460837BD4680BD80B582B0EF
:104C800000AF78604FF48050C4F202004FF480719E
:104C900003F070FE034618460837BD4680BD00BFCE
:104CA00080B582B000AF786039603B68002B08D1D6
:104CB0004FF48050C4F202004FF4807103F082FE82
:104CC00007E04FF48050C4F202004FF4807103F00B
:104CD0006BFE0837BD4680BD80B582B000AF7860FE
:104CE0004FF48050C4F202004FF4807103F028FEAC
:104CF000034618460837BD4680BD00BF80B584B066
:104D000002AF78600023009300204FF48051C4F27A
:104D100002014FF480720023FCF790F9002318463B
:104D20000837BD4680BD00BF80B584B002AF786053
:104D30000023009301204FF48051C4F202014FF48C
:104D400080720023FCF77AF9002318460837BD4625
:104D500080BD00BF80B584B002AF786000230093AF
:104D600000204FF48051C4F202014FF480720123FD
:104D7000FCF764F9002318460837BD4680BD00BF24
:104D800080B584B002AF78600023009300204FF418
:104D90008051C4F202014FF480720223FCF74EF9F5
:104DA000002318460837BD4680BD00BF80B582B0DD
:104DB00000AF78604FF48050C4F20200082103F085
:104DC000D9FD034618460837BD4680BD80B582B080
:104DD00000AF786039603B68002B07D14FF48050FA
:104DE000C4F20200082103F0EDFD06E04FF480500C
:104DF000C4F20200082103F0D7FD0837BD4680BD8C
:104E000080B582B000AF78604FF48050C4F20200E9
:104E1000082103F095FD034618460837BD4680BDBE
:104E200080B584B002AF78600023009300204FF477
:104E30008051C4F2020108220023FCF7FFF800238E
:104E400018460837BD4680BD80B584B002AF786093
:104E50000023009301204FF48051C4F20201082284
:104E60000023FCF7EBF8002318460837BD4680BD49
:104E700080B584B002AF78600023009300204FF427
:104E80008051C4F2020108220123FCF7D7F8002365
:104E900018460837BD4680BD80B584B002AF786043
:104EA0000023009300204FF48051C4F20201082235
:104EB0000223FCF7C3F8002318460837BD4680BD1F
:104EC00080B582B000AF78604FF40060C4F2020099
:104ED000202103F04FFD034618460837BD4680BD2C
:104EE00080B582B000AF786039603B68002B07D195
:104EF0004FF40060C4F20200202103F063FD06E0DD
:104F00004FF40060C4F20200202103F04DFD083789
:104F1000BD4680BD80B582B000AF78604FF40060C0
:104F2000C4F20200202103F00BFD034618460837A7
:104F3000BD4680BD80B584B002AF78600023009389
:104F400000204FF40061C4F2020120220023FCF78C
:104F500075F8002318460837BD4680BD80B584B07B
:104F600002AF78607B680222DA60002300930120A0
:104F70004FF40061C4F2020120220023FCF75EF826
:104F8000002318460837BD4680BD00BF80B584B0F9
:104F900002AF78600023009300204FF40061C4F258
:104FA000020120220123FCF749F8002318460837A4
:104FB000BD4680BD80B584B002AF78600023009309
:104FC00000204FF40061C4F2020120220223FCF70A
:104FD00035F8002318460837BD4680BD80B582B03D
:104FE00000AF78604FF40060C4F20200022103F0C9
:104FF000C1FC034618460837BD4680BD80B582B067
:1050000000AF786039603B68002B07D14FF4006037
:10501000C4F20200022103F0D5FC06E04FF4006068
:10502000C4F20200022103F0BFFC0837BD4680BD78
:1050300080B582B000AF78604FF40060C4F2020027
:10504000022103F07DFC034618460837BD4680BDAB
:1050500080B584B002AF78600023009300204FF445
:105060000061C4F2020102220023FBF7E7FF0023E4
:1050700018460837BD4680BD80B584B002AF786061
:105080007B680222DA600023009301204FF4006164
:10509000C4F2020102220023FBF7D0FF00231846CE
:1050A0000837BD4680BD00BF80B584B002AF7860D0
:1050B0000023009300204FF40061C4F20201022299
:1050C0000123FBF7BBFF002318460837BD4680BD10
:1050D00080B584B002AF78600023009300204FF4C5
:1050E0000061C4F2020102220223FBF7A7FF0023A2
:1050F00018460837BD4680BD80B582B000AF7860E5
:105100004FF40060C4F20200042103F033FC0346B4
:1051100018460837BD4680BD80B582B000AF7860C4
:1051200039603B68002B07D14FF40060C4F20200E5
:10513000042103F047FC06E04FF40060C4F20200D3
:10514000042103F031FC0837BD4680BD80B582B034
:1051500000AF78604FF40060C4F20200042103F055
:10516000EFFB034618460837BD4680BD80B584B0C6
:1051700002AF78600023009300204FF40061C4F276
:10518000020104220023FBF759FF002318460837C9
:10519000BD4680BD80B584B002AF78607B680222D6
:1051A000DA600023009301204FF40061C4F2020191
:1051B00004220023FBF742FF002318460837BD46B0
:1051C00080BD00BF80B584B002AF7860002300933B
:1051D00000204FF40061C4F2020104220123FBF716
:1051E0002DFF002318460837BD4680BD80B584B02A
:1051F00002AF78600023009300204FF40061C4F2F6
:10520000020104220223FBF719FF00231846083786
:10521000BD4680BD80B582B000AF78604FF40060BD
:10522000C4F20200082103F0A5FB03461846083724
:10523000BD4680BD80B582B000AF786039603B6804
:10524000002B07D14FF40060C4F20200082103F0E4
:10525000B9FB06E04FF40060C4F20200082103F03D
:10526000A3FB0837BD4680BD80B582B000AF786033
:105270004FF40060C4F20200082103F061FB034612
:1052800018460837BD4680BD80B584B002AF78604F
:105290000023009300204FF40061C4F202010822B1
:1052A0000023FBF7CBFE002318460837BD4680BD20
:1052B00080B584B002AF78607B680222DA60002398
:1052C000009301204FF40061C4F202010822002380
:1052D000FBF7B4FE002318460837BD4680BD00BF6B
:1052E00080B584B002AF78600023009300204FF4B3
:1052F0000061C4F2020108220123FBF79FFE002394
:1053000018460837BD4680BD80B584B002AF7860CE
:105310000023009300204FF40061C4F20201082230
:105320000223FBF78BFE002318460837BD4680BDDD
:1053300080B582B000AF78604FF40060C4F2020024
:10534000102103F017FB034618460837BD4680BD01
:1053500080B582B000AF786039603B68002B07D120
:105360004FF40060C4F20200102103F02BFB06E0B2
:105370004FF40060C4F20200102103F015FB08375F
:10538000BD4680BD80B582B000AF78604FF400604C
:10539000C4F20200102103F0D3FA0346184608377E
:1053A000BD4680BD80B584B002AF78600023009315
:1053B00000204FF40061C4F2020110220023FBF729
:1053C0003DFE002318460837BD4680BD80B584B039
:1053D00002AF78607B680222DA600023009301202C
:1053E0004FF40061C4F2020110220023FBF726FEF5
:1053F000002318460837BD4680BD00BF80B584B085
:1054000002AF78600023009300204FF40061C4F2E3
:10541000020110220123FBF711FE00231846083772
:10542000BD4680BD80B584B002AF78600023009394
:1054300000204FF40061C4F2020110220223FBF7A6
:10544000FDFD002318460837BD4680BD80B582B0FB
:1054500000AF78604FF48050C4F202004FF4006156
:1054600003F088FA034618460837BD4680BD00BFE2
:1054700080B582B000AF786039603B68002B08D1FE
:105480004FF48050C4F202004FF4006103F09AFA26
:1054900007E04FF48050C4F202004FF4006103F0C3
:1054A00083FA0837BD4680BD80B582B000AF786012
:1054B0004FF48050C4F202004FF4006103F040FA50
:1054C000034618460837BD4680BD00BF80B584B08E
:1054D00002AF78600023009300204FF48051C4F2A3
:1054E00002014FF400620023FBF7A8FD00231846D9
:1054F0000837BD4680BD00BF80B584B002AF78607C
:105500007B680222DA600023009301204FF480516F
:10551000C4F202014FF400620023FBF78FFD002369
:1055200018460837BD4680BD80B584B002AF7860AC
:105530000023009300204FF48051C4F202014FF485
:1055400000620123FBF77AFD002318460837BD46A9
:1055500080BD00BF80B584B002AF786000230093A7
:1055600000204FF48051C4F202014FF40062022384
:10557000FBF764FD002318460837BD4680BD00BF19
:1055800080B582B000AF78604FF48050C4F2020062
:10559000402103F0EFF9034618460837BD4680BDA9
:1055A00080B582B000AF786039603B68002B07D1CE
:1055B0004FF48050C4F20200402103F003FA06E0E9
:1055C0004FF48050C4F20200402103F0EDF9083797
:1055D000BD4680BD80B582B000AF78604FF480508A
:1055E000C4F20200402103F0ABF903461846083725
:1055F000BD4680BD80B584B002AF786000230093C3
:1056000000204FF48051C4F2020140220023FBF736
:1056100015FD002318460837BD4680BD80B584B00F
:1056200002AF78607B680222DA60002300930120D9
:105630004FF48051C4F2020140220023FBF7FEFC2C
:10564000002318460837BD4680BD00BF80B584B032
:1056500002AF78600023009300204FF48051C4F221
:10566000020140220123FBF7E9FC0023184608371A
:10567000BD4680BD80B584B002AF78600023009342
:1056800000204FF48051C4F2020140220223FBF7B4
:10569000D5FC002318460837BD4680BD80B582B0D2
:1056A00000AF78604FF48050C4F20200202103F074
:1056B00061F9034618460837BD4680BD80B582B003
:1056C00000AF786039603B68002B07D14FF4805001
:1056D000C4F20200202103F075F906E04FF4805077
:1056E000C4F20200202103F05FF90837BD4680BDF7
:1056F00080B582B000AF78604FF48050C4F20200F1
:10570000202103F01DF9034618460837BD4680BD29
:1057100080B584B002AF78600023009300204FF47E
:105720008051C4F2020120220023FBF787FC0023F2
:1057300018460837BD4680BD80B584B002AF78609A
:105740007B680222DA600023009301204FF480512D
:10575000C4F2020120220023FBF770FC002318464C
:105760000837BD4680BD00BF80B584B002AF786009
:105770000023009300204FF48051C4F20201202244
:105780000123FBF75BFC002318460837BD4680BDAC
:1057900080B584B002AF78600023009300204FF4FE
:1057A0008051C4F2020120220223FBF747FC0023B0
:1057B00018460837BD4680BD80B582B000AF78601E
:1057C0004FF48050C4F202004FF4007103F0D2F89D
:1057D000034618460837BD4680BD00BF80B582B07D
:1057E00000AF786039603B68002B08D14FF48050DF
:1057F000C4F202004FF4007103F0E4F807E04FF444
:105800008050C4F202004FF4007103F0CDF8083765
:10581000BD4680BD80B582B000AF78604FF4805047
:10582000C4F202004FF4007103F08AF803461846F0
:105830000837BD4680BD00BF80B584B002AF786038
:105840000023009300204FF48051C4F202014FF472
:1058500000720023FBF7F2FB002318460837BD4611
:1058600080BD00BF80B584B002AF78607B68022243
:10587000DA600023009301204FF48051C4F202014A
:105880004FF400720023FBF7D9FB002318460837BA
:10589000BD4680BD80B584B002AF78600023009320
:1058A00000204FF48051C4F202014FF40072012332
:1058B000FBF7C4FB002318460837BD4680BD00BF78
:1058C00080B584B002AF78600023009300204FF4CD
:1058D0008051C4F202014FF400720223FBF7AEFBC9
:1058E000002318460837BD4680BD00BF80B582B092
:1058F00000AF78604FF48050C4F202004FF4804152
:1059000003F038F8034618460837BD4680BD00BF8F
:1059100080B582B000AF786039603B68002B08D159
:105920004FF48050C4F202004FF4804103F04AF873
:1059300007E04FF48050C4F202004FF4804103F0BE
:1059400033F80837BD4680BD80B582B000AF7860BF
:105950004FF48050C4F202004FF4804102F0F0FF97
:10596000034618460837BD4680BD00BF80B584B0E9
:1059700002AF78600023009300204FF48051C4F2FE
:1059800002014FF480420023FBF758FB0023184626
:105990000837BD4680BD00BF80B584B002AF7860D7
:1059A0007B680222DA600023009301204FF48051CB
:1059B000C4F202014FF480420023FBF73FFB0023B7
:1059C00018460837BD4680BD80B584B002AF786008
:1059D0000023009300204FF48051C4F202014FF4E1
:1059E00080420123FBF72AFB002318460837BD46F7
:1059F00080BD00BF80B584B002AF78600023009303
:105A000000204FF48051C4F202014FF4804202237F
:105A1000FBF714FB002318460837BD4680BD00BFC6
:105A200080B582B000AF78604FF48050C4F20200BD
:105A30004FF4005102F09EFF034618460837BD465A
:105A400080BD00BF80B582B000AF786039603B6830
:105A5000002B08D14FF48050C4F202004FF40051E3
:105A600002F0B0FF07E04FF48050C4F202004FF4A0
:105A7000005102F099FF0837BD4680BD80B582B065
:105A800000AF78604FF48050C4F202004FF4005130
:105A900002F056FF034618460837BD4680BD00BFDA
:105AA00080B584B002AF78600023009300204FF4EB
:105AB0008051C4F202014FF400520023FBF7BEFAFA
:105AC000002318460837BD4680BD00BF80B584B0AE
:105AD00002AF78607B680222DA6000230093012025
