:020000040800F2
:100000006076012039290008C5830008E5830008CF
:1000100005840008258400084584000800000000CD
:1000200000000000000000000000000065840008DF
:100030008584000800000000A5840008D925000878
:100040009D2900089D2900089D2900089D29000878
:100050009D2900089D2900089D2900089D29000868
:100060009D2900089D2900089D2900089D29000858
:100070009D2900089D2900089D2900089D29000848
:100080009D2900089D2900089D2900089D29000838
:10009000256800089D2900089D2900089D29000861
:1000A0009D2900083D1200089D2900089D2900088F
:1000B000A1120008011300086D1300089D29000813
:1000C0009D290008056F00089D2900089D2900084A
:1000D0009D2900089D290008616200081563000839
:1000E0009D2900089D290008A5180008B1140008E2
:1000F000451400089D2900089D2900089D29000835
:100100009D290008DD860008D91300089D290008F4
:100110009D2900089D2900089D2900089D290008A7
:100120009D2900089D2900089D290008E9860008EE
:100130009D2900089D2900089D2900089D29000887
:100140009D2900089D2900089D2900089118000894
:100150009D2900089D2900089D2900089D29000867
:100160009D2900089D2900089D2900089D29000857
:100170009D2900089D2900089D2900089D29000847
:100180009D2900089D29000808B540F2F450074B4E
:10019000C2F200001B1A062B00D808BD40F2000373
:1001A000C0F20003002BF8D09847F6E7F7050020CF
:1001B00008B540F2F45040F2F453C2F20000C2F22B
:1001C00000031B1A9B1003EBD373591000D108BD19
:1001D00040F20002C0F20002002AF8D09047F6E791
:1001E00010B540F2F854C2F20004237873B9FFF757
:1001F000CBFF40F20003C0F200032BB143F2F41036
:10020000C0F60200AFF300800123237010BD00BFD1
:1002100008B540F20003C0F200034BB143F2F41002
:1002200040F2FC51C0F60200C2F20001AFF30080C0
:1002300040F2F050C2F2000003682BB140F200031C
:10024000C0F2000303B19847BDE80840B0E700BF23
:1002500080B584B000AFF8600B467A60FB72FB7A21
:10026000013B032B52D801A252F823F07D02000873
:10027000A1020008C5020008E9020008FB68DB6A69
:1002800018460EF06BF80346184679680EF0BEF873
:10029000034618460EF030FA0246FB685A6336E011
:1002A000FB68DB6A18460EF059F803461846796871
:1002B0000EF0ACF8034618460EF01EFA0246FB6834
:1002C0009A6324E0FB68DB6A18460EF047F80346A1
:1002D000184679680EF09AF8034618460EF00CFAA4
:1002E0000246FB68DA6312E0FB68DB6A18460EF030
:1002F00035F80346184679680EF088F80346184624
:100300000EF0FAF90246FB681A6400E000BF1037ED
:10031000BD4680BD80B582B000AF78600B46FB70F3
:10032000FB78012B06D17B685B6B18460EF016F844
:1003300003461FE0FB78022B06D17B689B6B1846B7
:100340000EF00CF8034615E0FB78032B06D17B6812
:10035000DB6B18460EF002F803460BE0FB78042B2B
:1003600006D17B681B6C18460DF0F8FF034601E0D0
:100370004FF0000318460837BD4680BD90B5ADB0BC
:1003800002AFF860B9603B601346FB800023C7F8FA
:10039000A4300023C7F8A0300023C7F89C30012305
:1003A000C7F898300023A7F8963008F029FB07F12A
:1003B0004403184607F0BCF8FB68B3F1804F06D33E
:1003C000FA684FF4A053C4F200039A420DD9FA68B8
:1003D00041F2FF73C4F200039A4217D9FA684FF44E
:1003E0000053C4F200039A4210D8FA6C4FF46053E1
:1003F000C4F20203D3F88C301B0E03F00103013367
:1004000003FB02F35B00C7F8A4300FE03A6D4FF432
:100410006053C4F20203D3F88C301B0E03F00103C7
:10042000013303FB02F35B00C7F8A4303B68002BE9
:100430000DDDD7F8A42048F21F53C5F2EB1383FB60
:1004400002135911D317CA1A3B689A4201DA0123E1
:10045000F4E01FE0D7F8A0300133C7F8A030D7F898
:10046000A420D7F8A03092FBF3F23B6892FBF3F3A1
:10047000C7F89C30D7F89C30B3F5803F02DA0023F0
:10048000C7F89830D7F8A0204FF6FE739A4201DDE6
:100490000123D3E0D7F89830002BDBD1D7F8A42084
:1004A000D7F8A03092FBF3F2D7F89C3092FBF3F32D
:1004B0003B60F8680AF0ECFCFB8800220092022006
:1004C000B9681A46002300F0B9FDD7F89C30013B0B
:1004D000FB63D7F8A0309BB2013B9BB23B87002364
:1004E000A7F8403000237B87002387F8423007F1CC
:1004F0003803F86819460BF045FC6023BB840023E1
:100500003B860123FB8404233B8508237B864FF431
:100510008073BB864FF40073FB8607F12403F868F1
:1005200019460BF013FDF86800210BF0FFFE07F1F0
:100530002403F86819460BF083FDF86800210BF0DE
:1005400011FF07F12403F86819460BF001FEF86863
:1005500000210BF025FF07F12403F86819460BF082
:100560007DFEF86800210BF037FFFA680023C4F223
:1005700001039A4206D0FA684FF48063C4F2010383
:100580009A4211D107F1140318460BF06BFF4FF498
:1005900080433B8407F11403F86819460BF03AFFD7
:1005A000F86801210BF07CFFFA8807F1540310462C
:1005B00019460AF0DBFA0023A7F8963025E0B7F8D1
:1005C00096305B0007F1A802134433F8543C012B2A
:1005D00016D1B7F8963010335B0007F1A8010B4431
:1005E00033F8523C18460AF067FE03461C46F8688A
:1005F0000AF0D8FE0346B86821461A4608F072F998
:10060000B7F896300133A7F89630B7F896300F2B2D
:10061000D5D9FB6800225A63FB6800229A63FB6805
:100620000022DA63FB6800221A64F86801210BF0EB
:100630004DFCF86801210BF069FC00231846AC372B
:10064000BD4690BD80B489B000AFF860B960FA7162
:10065000BB800023FB76FB68DB78002B23D10023D3
:100660007B610023FB61BB880333DA1C002BB8BF1E
:1006700013469B107B61FB79FA6832339B0013446D
:100680009B683B610023FB6109E0BB681A683B691A
:100690001A60FB690133FB61BB680433BB60FA6914
:1006A0007B699A42F1D3FB7E18462437BD465DF83C
:1006B000047B704780B489B000AFF860B96013461E
:1006C000FB800023FB61FB880333DA1C002BB8BFDF
:1006D00013469B10BB61FB68D3F8D0307B610023CD
:1006E000FB6109E07B691A68BB681A60FB6901332A
:1006F000FB61BB680433BB60FA69BB699A42F1D302
:10070000BB6818462437BD465DF8047B704700BFC0
:1007100080B586B000AF786039600023FB74002399
:100720007B610023FB60FB6843F02003FB603B68B8
:10073000DBB203F01F03DAB2FB6862F38A13FB60DB
:100740007B68DB68FA681A617B68DB681B69FB60A1
:100750007B6901337B617A694FF45463C0F2030310
:100760009A4200D905E0FB68C3F34013DBB2012BCA
:10077000EAD0032008F02EFDFB7C18461837BD4652
:1007800080BD00BF80B483B000AF78607B68DB6859
:100790005B6903F0010318460C37BD465DF8047B26
:1007A000704700BF80B582B000AF78607868FFF70F
:1007B000E9FF0346012B0CBF00230123DBB21846DF
:1007C0000837BD4680BD00BF80B485B000AF7860FB
:1007D0000023FB607B68DB685B69FB607B68DB6830
:1007E0009B69FA681340FB60FB6818461437BD46E6
:1007F0005DF8047B704700BF80B485B000AF7860BF
:100800000023FB737B681B699B68BB603B7AC3F367
:100810004103DBB2022B09D0032B04D0012B02D001
:100820000323FB7305E00223FB7302E00123FB7348
:1008300000BFFB7B18461437BD465DF8047B70474C
:1008400080B487B000AF78600023FB750023BB60E5
:100850007B681B699B683B617B689B691B68FB60CD
:100860003B7CC3F34103DBB2022B04D0BB896FF3A3
:100870000A03BB8105E0BB89032262F30A03BB8143
:1008800000BF7B689B69FA681A607B7A43F00103BA
:100890007B727B681B697A6812695168BA68D243B7
:1008A0001140BA680A435A60FB7D18461C37BD46A2
:1008B0005DF8047B704700BF80B487B000AF7860FC
:1008C00039600023FB740023FB600023BB603B689E
:1008D0005B78012B0FD13B681B787A6804339B004F
:1008E00013449B687B613B681B78012202FA03F387
:1008F0009BB23B810EE03B681B787A6814339B0007
:1009000013445B687B613B681B78012202FA03F3A6
:100910009BB27B817B691B68FB607B7BC3F3C0134D
:10092000DBB2002B27D13B689B689BB2C3F30A0361
:100930009AB2BB8962F30A03BB813B68DB7803F0A0
:100940000303DAB2BB7B62F38303BB733B68DB88D0
:10095000DBB203F00F03DAB2FB8962F38913FB8188
:10096000FB7B43F01003FB737B7B43F080037B73C3
:10097000FA687B691A607B681B697A681269D169B9
:10098000BA680A43DA61FB7C18461C37BD465DF83D
:10099000047B704780B588B000AF78603960002371
:1009A000FB770023BB6100237B6100233B613B6835
:1009B0005B78012B40F0AB803B681B787A6804338E
:1009C0009B0013449B681B687B613B681B787A68BB
:1009D00004339B0013449B681B693B613B685B6964
:1009E000002B09D13B696FF312033B617B8A012223
:1009F00062F3CC037B8222E03B685B69C3F31202A3
:100A00003B6962F312033B613B685A693B689B6830
:100A100013445A1E3B689B68B2FBF3F39BB2C3F3CB
:100A200009039AB27B8A62F3CC037B823B68DB7852
:100A3000012B04D1FB7C012262F34613FB743B685B
:100A40001B787A6804339B0013449B683A691A61E7
:100A50007B68DB78012B0AD13B681B787A6804330A
:100A60009B0013449B683A6812695A6115E03B6821
:100A7000DB78012B11D03B685B69002B0DD03B6804
:100A80001B78012202FA03F3BB617B681B697A6859
:100A90001269516BBA690A435A633B68DB78012BD0
:100AA00014D17B681B699B68FB60FB68C3F30D2353
:100AB0009BB203F00103002B04D1FB7D43F0200324
:100AC000FB7503E0FB7D43F01003FB75FB7D43F0FA
:100AD0000403FB75FB7D43F08003FB753B681B78CB
:100AE0007A6804339B0013449B687A691A603B68F8
:100AF000DB78012B40F088803B68D9683B681A7826
:100B00003B685B699BB27868FFF79CFD7CE03B68C3
:100B10001B787A6814339B0013445B681B687B6105
:100B20003B681B787A6814339B0013445B681B692D
:100B30003B613B685B69002B0DD13B689B68C3F34D
:100B400012023B6962F312033B617B8A012262F36A
:100B5000CC037B821FE03B685A693B689B68134467
:100B60005A1E3B689B68B2FBF3F39BB2C3F30903C5
:100B70009AB27B8A62F3CC037B827B8AC3F3C9037C
:100B80009BB23A68926802FB03F3C3F312023B691B
:100B900062F312033B613B681B787A6814339B0055
:100BA00013445B683A691A617B68DB78012B09D1D1
:100BB0003B681B787A6814339B0013445B683A687F
:100BC00012695A613B68DB78012B0CD13B685B7979
:100BD000002B04D0FB7D43F02003FB7503E0FB7D7D
:100BE00043F01003FB75FB7D43F00403FB75FB7DB5
:100BF00043F08003FB753B681B787A6814339B00D5
:100C000013445B687A691A60FB7F18462037BD463B
:100C100080BD00BF80B489B000AF78603960002328
:100C2000FB770023BB6100233B610023BB603B6873
:100C30005B78012B6FD17B689B697B617B691B684B
:100C40003B617B691B69BB603B685B69002B09D119
:100C50003B7A6FF306033B72BB7A012262F3C40353
:100C6000BB7223E03B685A693B689B689A420ED985
:100C70003B689A683B685A613B689B68DBB203F04B
:100C80007F03DAB23B7A62F306033B7209E03B680A
:100C90005B69DBB203F07F03DAB23B7A62F30603EF
:100CA0003B72BB7A012262F3C403BB72BA687B69F0
:100CB0001A617B68DB78012B09D13B681B787A6865
:100CC00004339B0013449B683A6812695A61FB7CA9
:100CD00043F00403FB74FB7C43F08003FB743A692C
:100CE0007B691A607B68DB78002B75D13B685B6998
:100CF000002B71D03B681B78012202FA03F3BA691A
:100D00001343BB617B681B697A681269516BBA69CE
:100D10000A435A6360E03B681B787A6814339B008F
:100D200013445B681B683B613B681B787A6814332B
:100D30009B0013445B681B69BB603B685B69002BCD
:100D40000FD13B689B68DBB203F07F03DAB23B7ADA
:100D500062F306033B72BB7A012262F3C403BB72E7
:100D600012E03B689A683B685A613B689B68DBB25B
:100D700003F07F03DAB23B7A62F306033B72BB7A7D
:100D8000012262F3C403BB723B681B787A68143398
:100D90009B0013445B68BA681A617B68DB78012B9F
:100DA00009D13B681B787A6814339B0013445B6855
:100DB0003A6812695A61FB7C43F00403FB74FB7CC4
:100DC00043F08003FB743B681B787A6814339B0004
:100DD00013445B683A691A60FB7F18462437BD46A6
:100DE0005DF8047B704700BF80B487B000AF7860C7
:100DF00039600023FB750023FB603B685B78012BA7
:100E00001CD13B681B787A6804339B0013449B68B1
:100E10003B613B691B68FB60FB7BC3F3C013DBB228
:100E2000002B03D0FB7B43F04003FB73BB7B43F001
:100E30002003BB73FA683B691A6011E03B681B78BA
:100E40007A6814339B0013445B683B613B691B6801
:100E5000FB60BB7B43F02003BB73FA683B691A60FD
:100E6000FB7D18461C37BD465DF8047B704700BF0C
:100E700080B487B000AF786039600023FB74002332
:100E8000FB603B685B78012B08D13B681B787A6874
:100E900004339B0013449B687B6107E03B681B782D
:100EA0007A6814339B0013445B687B617B691B6821
:100EB000FB60BB7B6FF34513BB733B68DB78032B95
:100EC00003D03B68DB78022B03D1FB7B43F010039C
:100ED000FB73FA687B691A60FB7C18461C37BD46B9
:100EE0005DF8047B704700BF80B485B000AF7860C8
:100EF0007B681B699B69FB607B681B69DB69FA681F
:100F00001340FB60FB681B0C18461437BD465DF8A8
:100F1000047B704780B485B000AF78600B46FB70EF
:100F2000FB787A6814339B0013445B689B68FB6012
:100F30007B681B695B69FA681340FB60FB681846B5
:100F40001437BD465DF8047B704700BF80B485B0A0
:100F500000AF78607B681B699B69FB607B681B69DD
:100F6000DB69FA681340FB60FB689BB218461437D4
:100F7000BD465DF8047B704780B487B000AF7860F1
:100F800000233B61FB7C43F0C003FB74BB7C01226C
:100F900062F3C403BB743B7C182262F306033B7408
:100FA0007B685B6D3A691A617B68DB78012B16D12F
:100FB0000023FB607B685B6D7A6802F5B9625A6159
:100FC0007B685B6D1B68FB60FB7B43F08003FB73FE
:100FD0004FF08023FB607B685B6DFA681A601C37FA
:100FE000BD465DF8047B704780B485B000AF786083
:100FF0007B689B7A002B1BD07B681B699B68FB601E
:101000003B7BC3F30003DBB2012B11D17B6803F5FB
:1010100086731B68BB603B7A6FF341033B723B7A7C
:101020006FF300033B727B68D3F80C31BA681A6027
:101030001437BD465DF8047B704700BF80B584B0AF
:1010400000AF39600146F971BA80BB713A6800237C
:10105000C4F202039A4204D10120012106F03CFBB4
:101060002EE03A684FF48063C4F202039A4204D13E
:101070000220012106F030FB22E03A684FF40063C1
:10108000C4F202039A4204D10420012106F024FB99
:1010900016E03A684FF44063C4F202039A4204D166
:1010A0000820012106F018FB0AE03A684FF480534B
:1010B000C4F202039A4203D11020012106F00CFB76
:1010C00007F10803184607F0A3FBBB88BB60FB7958
:1010D0003B733B7EBB73BB79FB7303237B7307F1CD
:1010E00008033868194607F005FBFB79012B04D18A
:1010F000BB883868194607F0E7FB1037BD4680BD4E
:1011000080B483B000AF78600B46FB70FB78002B97
:101110000CD04FF43053C4F201034FF43052C4F2F8
:101120000102D16B7A680A43DA630CE04FF4305362
:10113000C4F201034FF43052C4F20102D16B7A6859
:10114000D2430A40DA630C37BD465DF8047B704732
:1011500080B485B000AF78600023FB734FF4305348
:10116000C4F201035A6B7B681340002B02D00123A9
:10117000FB7301E00023FB73FB7B18461437BD466D
:101180005DF8047B704700BF80B483B000AF786027
:101190004FF43053C4F201037A689A630C37BD46AA
:1011A0005DF8047B704700BF80B483B000AF786007
:1011B00039607B683A685A60002318460C37BD4690
:1011C0005DF8047B704700BF80B582B000AF7860E7
:1011D0007B685B681B681B687A6852681046984792
:1011E000034618460837BD4680BD00BF90B587B09E
:1011F00002AFF8607A600A46FA72BB72FB685B68FD
:101200001B6804331C68FB685968FA7ABB7A97F844
:1012100020000090084611467A68A0470346184609
:101220001437BD4690BD00BF80B483B000AF786076
:1012300039600C37BD465DF8047B704780B500AF60
:101240000023C4F201031B889BB21B099BB2002B35
:101250000BD040F21463C2F200031B685A1E40F226
:101260001463C2F200031A6013E00023C4F2010306
:101270001B889BB21B099BB2002B0AD140F214635E
:10128000C2F200031B685A1C40F21463C2F200034E
:101290001A600020C4F2010001210BF04BF980BD5F
:1012A00080B500AF4FF080431B889BB21B099BB2F7
:1012B000002B0BD040F21863C2F200031B685A1EC9
:1012C00040F21863C2F200031A6012E04FF080434C
:1012D0001B889BB21B099BB2002B0AD140F21863FA
:1012E000C2F200031B685A1C40F21863C2F20003EA
:1012F0001A604FF0804001210BF01CF980BD00BF47
:1013000080B500AF4FF48063C4F200031B889BB22A
:101310001B099BB2002B0BD040F21C63C2F20003EE
:101320001B685A1E40F21C63C2F200031A6014E0EC
:101330004FF48063C4F200031B889BB21B099BB26D
:10134000002B0AD140F21C63C2F200031B685A1C36
:1013500040F21C63C2F200031A604FF48060C4F2D2
:10136000000001210BF0E6F880BD00BF80B500AFA2
:101370004FF40063C4F200031B889BB21B099BB2AD
:10138000002B0BD040F22063C2F200031B685A1EF0
:1013900040F22063C2F200031A6014E04FF40063CD
:1013A000C4F200031B889BB21B099BB2002B0AD11D
:1013B00040F22063C2F200031B685A1C40F2206313
:1013C000C2F200031A604FF40060C4F20000012171
:1013D0000BF0B0F880BD00BF80B500AF4FF44063A4
:1013E000C4F200031B889BB21B099BB2002B0BD0DD
:1013F00040F22463C2F200031B685A1E40F22463C9
:10140000C2F200031A6014E04FF44063C4F2000318
:101410001B889BB21B099BB2002B0AD140F22463AC
:10142000C2F200031B685A1C40F22463C2F200039C
:101430001A604FF44060C4F2000001210BF07AF80A
:1014400080BD00BF80B500AF4FF48063C4F20103DC
:101450001B889BB21B099BB2002B0BD040F2286368
:10146000C2F200031B685A1E40F22863C2F2000356
:101470001A6014E04FF48063C4F201031B889BB22E
:101480001B099BB2002B0AD140F22863C2F2000371
:101490001B685A1C40F22863C2F200031A604FF422
:1014A0008060C4F2010001210BF044F880BD00BF50
:1014B00080B500AF4FF4C053C4F200031B889BB249
:1014C0001B099BB2002B0BD040F22C63C2F200032D
:1014D0001B685A1E40F22C63C2F200031A6014E02B
:1014E0004FF4C053C4F200031B889BB21B099BB28C
:1014F000002B0AD140F22C63C2F200031B685A1C75
:1015000040F22C63C2F200031A604FF4C050C4F2E0
:10151000000001210BF00EF880BD00BF80B500AFC8
:101520000020C4F201000AF0C5FC024640F2146338
:10153000C2F200031B681B041344184680BD00BFA1
:1015400080B500AF4FF080400AF0B4FC024640F294
:101550001863C2F200031B681B041344184680BDC5
:1015600080B500AF4FF48060C4F200000AF0A2FC26
:10157000024640F21C63C2F200031B681B041344C2
:10158000184680BD80B500AF4FF40060C4F2000083
:101590000AF090FC024640F22063C2F200031B688E
:1015A0001B041344184680BD80B500AF4FF4406063
:1015B000C4F200000AF07EFC024640F22463C2F24C
:1015C00000031B681B041344184680BD80B500AFA0
:1015D0004FF48060C4F201000AF06CFC024640F255
:1015E0002863C2F200031B681B041344184680BD25
:1015F00080B500AF4FF4C050C4F200000AF05AFCAE
:10160000024640F22C63C2F200031B681B04134421
:10161000184680BD90B59DB002AFF860B960134622
:10162000FB800023A7F866300023A7F86430F86831
:1016300009F02EFCFB88002200920220B9681A46AD
:101640000123FFF7FBFCFA8807F120031046194637
:1016500009F08CFA0023A7F8663025E0B7F8663069
:101660005B0007F168010B4433F8483C012B16D1AD
:10167000B7F8663010335B0007F16802134433F8A3
:10168000463C184609F018FE03461C46F86809F067
:1016900089FE0346B86821461A4607F023F9B7F8D1
:1016A00066300133A7F86630B7F866300F2BD5D90E
:1016B00040F24003C2F200031A684DF62913C6F245
:1016C0004263A3FB02135B0E9BB2013BA7F864309D
:1016D0004FF6FE73BB610023BB820023BB83002354
:1016E000FB8207F11403F86819460AF04BFBB7F8C0
:1016F0006430F868194601220AF0BAFBF868032141
:10170000002200230AF026FFF868012101220AF0D6
:10171000EDFEF86801210AF0F9FBF86809F06AFBB0
:101720000346184609F0B2FD00F056F86C37BD4686
:1017300090BD00BF80B582B000AF78607A680023AA
:10174000C4F201039A4203D1FFF7E8FE03463FE0EB
:101750007B68B3F1804F03D1FFF7F2FE034637E019
:101760007A684FF48063C4F200039A4203D1FFF712
:10177000F7FE03462CE07A684FF40063C4F20003DE
:101780009A4203D1FFF7FEFE034621E07A684FF448
:101790004063C4F200039A4203D1FFF705FF0346FA
:1017A00016E07A684FF48063C4F201039A4203D1D1
:1017B000FFF70CFF03460BE07A684FF4C053C4F206
:1017C00000039A4203D1FFF713FF034600E0002312
:1017D00018460837BD4680BD80B500AF40F214639F
:1017E000C2F2000300221A6040F21863C2F2000342
:1017F00000221A6040F21C63C2F2000300221A6049
:1018000040F22063C2F2000300221A6040F2246317
:10181000C2F2000300221A6040F22863C2F2000301
:1018200000221A6040F22C63C2F2000300221A6008
:101830000020C4F2010000210AF02EFB4FF080408E
:1018400000210AF029FB4FF48060C4F2000000215F
:101850000AF022FB4FF40060C4F2000000210AF0FD
:101860001BFB4FF44060C4F2000000210AF014FB9F
:101870004FF48060C4F2010000210AF00DFB4FF428
:10188000C050C4F2000000210AF006FB80BD00BF7A
:1018900080B500AF43F26C00C2F2000008F030F9EE
:1018A00080BD00BF80B500AF43F26C03C2F20003FD
:1018B0009B7A002B13D04EF61053CEF200034EF657
:1018C0001052CEF20002126822F006021A6007F0EF
:1018D0004FF843F26C00C2F20000FFF785FB4FF4B3
:1018E000802009F033F980BD80B58AB000AF786000
:1018F000396000237B6200233B620023FB610023ED
:10190000BB617B681B8A9BB27B627B6A23F440537A
:101910007B623B68DB887A6A13437B627B6A9AB29C
:101920007B681A827B689B899BB27B627B6A23F40B
:10193000B05323F00C037B623B689A883B681B8999
:1019400013439AB23B685B8913439BB27A6A134391
:101950007B627B6A9AB27B689A817B689B8A9BB226
:101960007B627B6A23F440737B623B689B897A6A63
:1019700013437B627B6A9AB27B689A8207F1080301
:10198000184605F0D5FD7A684FF48053C4F2010380
:101990009A4206D07A684FF4A053C4F201039A42E7
:1019A00002D17B693B6201E03B693B627B689B89BA
:1019B0009BB29BB21BB2002B0CDA3A6A13469B0017
:1019C00013449A001A443B681B685B00B2FBF3F3B4
:1019D000FB610BE03A6A13469B0013449A001A44D9
:1019E0003B681B689B00B2FBF3F3FB61FA6948F2AA
:1019F0001F53C5F2EB13A3FB02135B091B017B62B0
:101A00007B6A1B09642202FB03F3FA69D31ABB61E8
:101A10007B689B899BB29BB21BB2002B10DABB691F
:101A2000DB0003F1320248F21F53C5F2EB13A3FBB4
:101A300002135B0903F007037A6A13437B620FE02A
:101A4000BB691B0103F1320248F21F53C5F2EB13CD
:101A5000A3FB02135B0903F00F037A6A13437B6253
:101A60007B6A9AB27B681A812837BD4680BD00BF69
:101A700080B483B000AF78600B46FB70FB78002B1E
:101A800008D07B689B899BB243F400539AB27B6871
:101A90009A8107E07B689B899BB223F400539AB23A
:101AA0007B689A810C37BD465DF8047B704700BFA8
:101AB00080B483B000AF78600B467B807B88C3F333
:101AC00008039AB27B689A800C37BD465DF8047BA8
:101AD000704700BF80B483B000AF78607B689B889C
:101AE0009BB2C3F308039BB218460C37BD465DF8A2
:101AF000047B704780B487B000AF786013460A4615
:101B00007A807B7000233B610023FB600023BB6075
:101B100000237B617B687B617B88DBB25B09DBB286
:101B20003B617B8803F01F03FB60FB68012202FA24
:101B300003F3BB603B69012B03D17B690C337B61F1
:101B400009E03B69022B03D17B6910337B6102E022
:101B50007B6914337B617B78002B06D07B697A69C3
:101B60001168BA680A431A6006E07B697A691168ED
:101B7000BA68D2430A401A601C37BD465DF8047B40
:101B8000704700BF80B485B000AF78600B467B80A3
:101B90000023FB737B681B889AB27B8813409BB23F
:101BA000002B02D00123FB7301E00023FB73FB7BBE
:101BB00018461437BD465DF8047B704780B582B087
:101BC00000AF78607A684FF4C843C4F200039A42C9
:101BD0000AD14FF00070012105F0F6FD4FF00070C2
:101BE000002105F0F1FD09E04FF08060012105F0D2
:101BF000EBFD4FF08060002105F0E6FD0837BD46A3
:101C000080BD00BF80B485B000AF7860396000232C
:101C1000FB730023BB607B681B6823F002027B68B8
:101C20001A607B681B6843F001027B681A6002E05F
:101C3000BB680133BB607B685B6803F00103002B6A
:101C400004D1BA684FF6FF739A42F1D17B685B68A2
:101C500003F00103002B02D10023FB739CE03B68DF
:101C60009B79012B06D17B681B6843F080027B685F
:101C70001A6005E07B681B6823F080027B681A60AD
:101C80003B68DB79012B06D17B681B6843F040027F
:101C90007B681A6005E07B681B6823F040027B6864
:101CA0001A603B681B7A012B06D17B681B6843F0E6
:101CB00020027B681A6005E07B681B6823F0200225
:101CC0007B681A603B685B7A012B06D17B681B68D6
:101CD00043F010027B681A6005E07B681B6823F004
:101CE00010027B681A603B689B7A012B06D17B68E7
:101CF0001B6843F008027B681A6005E07B681B687C
:101D000023F008027B681A603B68DB7A012B06D15E
:101D10007B681B6843F004027B681A6005E07B68FF
:101D20001B6823F004027B681A603B689B789A0763
:101D30003B68DB781B061A433B681B791B041A437C
:101D40003B685B791B051A433B681B88013B1A43C0
:101D50007B68DA617B681B6823F001027B681A608C
:101D60000023BB6002E0BB680133BB607B685B683B
:101D700003F00103002B04D0BA684FF6FF739A42B8
:101D8000F1D17B685B6803F00103002B02D00023D4
:101D9000FB7301E00123FB73FB7B18461437BD4640
:101DA0005DF8047B704700BF80B485B000AF7860F9
:101DB0000023FB607B689B7A012202FA03F3FB603D
:101DC0004FF4C843C4F200034FF4C842C4F2000207
:101DD000D2F8002242F00102C3F800224FF4C843B7
:101DE000C4F200034FF4C842C4F20002D2F81C123D
:101DF000FA68D2430A40C3F81C227B681B7B002B85
:101E00002DD14FF4C843C4F200034FF4C842C4F2CA
:101E10000002D2F80C12FA68D2430A40C3F80C222E
:101E20004FF4C843C4F200037A68927A7968C9888B
:101E30000804796849880143483243F832104FF466
:101E4000C842C4F200027B689B7A796889880804DA
:101E50007968098801434833DB00134459607B6883
:101E60001B7B012B2CD14FF4C843C4F200034FF469
:101E7000C842C4F20002D2F80C12FA680A43C3F84E
:101E80000C224FF4C843C4F200037A68927A79684E
:101E900009880804796849880143483243F83210B8
:101EA0004FF4C842C4F200027B689B7A7968898843
:101EB00008047968C98801434833DB00134459603A
:101EC0007B68DB7A002B0FD14FF4C843C4F20003C8
:101ED0004FF4C842C4F20002D2F80412FA68D243A6
:101EE0000A40C3F804220DE04FF4C843C4F20003D3
:101EF0004FF4C842C4F20002D2F80412FA680A434E
:101F0000C3F804227B681B89002B0ED14FF4C84311
:101F1000C4F200034FF4C842C4F20002D2F8141213
:101F2000FA68D2430A40C3F814227B681B89012B4C
:101F30000DD14FF4C843C4F200034FF4C842C4F2B9
:101F40000002D2F81412FA680A43C3F814227B681C
:101F50005B7B012B0DD14FF4C843C4F200034FF457
:101F6000C842C4F20002D2F81C12FA680A43C3F84D
:101F70001C224FF4C843C4F200034FF4C842C4F219
:101F80000002D2F8002222F00102C3F80022143726
:101F9000BD465DF8047B704780B483B000AF7860C5
:101FA0007B6800229A717B680022DA717B680022CC
:101FB0001A727B6800225A727B6800229A727B68D0
:101FC0000022DA727B6800229A707B680022DA7045
:101FD0007B6803221A717B6802225A717B68012296
:101FE0001A800C37BD465DF8047B704780B485B01D
:101FF00000AF786039600023FB737B689B6803F057
:102000008063002B02D00023FB7313E07B689B6886
:1020100003F00063002B02D00123FB730AE07B680E
:102020009B6803F08053002B02D00223FB7301E076
:102030000423FB73FB7B042B00F09880FB7BFA7B73
:102040007968183212010A44126802F001027968B4
:1020500018331B010B441A603B681B7A002B13D109
:10206000FB7BFA7B7968183212010A4411683A68DE
:10207000126850053A68527A02430A437968183365
:102080001B010B441A6015E0FB7BFA7B7968183260
:1020900012010A4411683A685268D0003A68127A0C
:1020A00010433A68527A02430A43796818331B0195
:1020B0000B441A603B689B7A03F00F03DAB23B686B
:1020C0009A72FB7BFA7B7968183212010A445268D3
:1020D00022F00F02796818331B010B445A60FB7B16
:1020E000FA7B7968183212010A4451683A68927A88
:1020F0000A43796818331B010B445A60FB7B3A682A
:10210000927B11063A68527B120411433A68127BA3
:10211000120211433A68D27A0A4379681B010B44D0
:1021200003F5C4731A60FB7B3A68927C11063A6827
:10213000527C120411433A68127C120211433A682D
:10214000D27B0A4379681B010B4403F5C4735A60C0
:10215000FB7BFA7B7968183212010A44126842F05C
:102160000102796818331B010B441A60FB7B184687
:102170001437BD465DF8047B704700BF80B485B05E
:1021800000AF78600B46FB700023FB60FB78012BEF
:102190000BD0022B12D0002B18D17B689A68032336
:1021A000C0F200431340FB6013E07B689A684FF471
:1021B0004073C0F600031340FB600AE07B689A6836
:1021C0000023C1F203031340FB6002E00023FB6025
:1021D00000BFFB684FF48072C0F60002934229D022
:1021E0004FF48072C0F6000293420CD80122C0F274
:1021F000004293421BD00322C0F2004293421FD000
:10220000002B11D025E00022C1F20102934214D02C
:102210000022C1F20302934218D04FF44072C0F67C
:10222000000293420FD014E00223FB6014E000236D
:10223000FB6011E00023FB600EE00023FB600BE07D
:102240000123FB6008E00123FB6005E00123FB6044
:1022500002E00023FB6000BFFB68DBB218461437C6
:10226000BD465DF8047B704780B485B000AFF86070
:102270000B467A60FB72FB7AFA681B331B0113442E
:102280001B68DBB203F00403DAB27B681A727B6866
:102290001B7A002B09D1FB7AFA681B331B0113440C
:1022A0001B685A0D7B681A6008E0FB7AFA681B33DA
:1022B0001B0113441B68DA087B685A60FB7AFA68D2
:1022C0001B331B0113441B68DBB203F00203DAB2B9
:1022D0007B685A72FB7AFA681B331B0113445B68F4
:1022E000DBB203F00F03DAB27B689A72FB7AFA680A
:1022F0001B331B0113445B681B0ADAB27B68DA7478
:10230000FB7AFA681B01134403F5DC731B68DAB22D
:102310007B68DA72FB7AFA681B01134403F5DC73FD
:102320001B681B0ADAB27B681A73FB7AFA681B0116
:10233000134403F5DC731B681B0CDAB27B685A7319
:10234000FB7AFA681B01134403F5DC731B681B0E50
:10235000DAB27B689A73FB7AFA681B01134403F5BF
:10236000DC735B68DAB27B68DA73FB7AFA681B01AC
:10237000134403F5DC735B681B0ADAB27B681A74DA
:10238000FB7AFA681B01134403F5DC735B681B0CD2
:10239000DAB27B685A74FB7AFA681B01134403F5BE
:1023A000DC735B681B0EDAB27B689A74FB7A002BD5
:1023B00006D1FB68DB6843F02002FB68DA6005E0C9
:1023C000FB681B6943F02002FB681A611437BD46A5
:1023D0005DF8047B704700BF80B485B000AFF86043
:1023E000B9601346FB71FB79002B06D0FB685A6974
:1023F000BB681A43FB685A6106E0FB685A69BB6810
:10240000DB431A40FB685A611437BD465DF8047B14
:10241000704700BF80B584B000AF7860396000239A
:10242000FB737B685A693B681340002B00F0B58052
:102430003B68402B65D0402B0FD8042B3DD0042B9C
:1024400004D8012B24D0022B2ED0A2E0102B46D092
:10245000202B4DD0082B39D09BE0B3F5006F00F056
:102460008680B3F5006F09D8B3F5007F6DD0B3F562
:10247000806F73D0B3F5807F5ED08AE0B3F5803F84
:1024800048D0B3F5003F4ED0B3F5004F78D080E090
:102490007B689B68184640F20111C0F2010100F010
:1024A00083F80346FB7377E07B68DB6818460321FB
:1024B00000F07AF80346FB736EE07B68DB68184631
:1024C000082100F071F80346FB7365E07B68DB6868
:1024D0001846102100F068F80346FB735CE07B6847
:1024E0001B691846032100F05FF80346FB7353E0B5
:1024F0007B681B691846082100F056F80346FB73F9
:102500004AE07B681B691846102100F04DF803462D
:10251000FB7341E07B685B681846082100F044F8D3
:102520000346FB7338E07B685B681846102100F0B7
:102530003BF80346FB732FE07B689B69184601213B
:1025400000F032F80346FB7326E07B689B6918466F
:10255000022100F029F80346FB731DE07B689B69AC
:102560001846042100F020F80346FB7314E07B6852
:102570009B691846702100F017F80346FB730BE0C7
:102580007B685B681846042100F00EF80346FB7375
:1025900002E00023FB7300BF01E00023FB73FB7B21
:1025A00018461037BD4680BD80B485B000AF786056
:1025B00039600023FB737A683B681340002B02D01C
:1025C0000123FB7301E00023FB73FB7B18461437E8
:1025D000BD465DF8047B704780B400AF40F23063C5
:1025E000C2F20003D3E90023501C43F1000140F282
:1025F0003063C2F20003C3E90001BD465DF8047B0D
:10260000704700BF80B500AF00F010F802460B46DF
:10261000104619464FF47A724FF000030CF08CF814
:1026200002460B461046194680BD00BF80B400AF7D
:1026300040F23063C2F20003D3E900230A2101FB18
:1026400003F0002101FB02F101440A20A2FB002358
:1026500019440B4610461946BD465DF8047B704789
:1026600080B500AF4CF2AC50C3F2277005F080FF8C
:1026700080BD00BF80B584B000AFC7E90001002372
:10268000FB60FFF7BFFF02460B461346FB6000BF2F
:10269000FFF7B8FFFB681A464FEAE273821A61EB54
:1026A0000303D7E90001904271EB030CF0DA103715
:1026B000BD4680BD80B58AB002AFF8607A600A4638
:1026C000FA723B8107F114031846FFF765FCFB68BB
:1026D000012B0BD14FF4C840C4F20000FFF76EFA93
:1026E0004FF00070012105F01FF80DE0FB68022B90
:1026F0000AD14FF4D040C4F20000FFF75FFA4FF068
:102700008060012105F010F83B8900220092022030
:1027100079681A460123FEF791FCBB8D00220092D6
:102720000220B96A1A460123FEF788FCFB68012BD8
:1027300014D13B89184608F0BFFD03467868194656
:10274000092206F0CFF8BB8D184608F0B5FD034608
:10275000B86A1946092206F0C5F816E0FB68022B94
:1027600013D13B89184608F0A7FD0346786819463F
:10277000092206F0B7F8BB8D184608F09DFD034608
:10278000B86A1946092206F0ADF80123BB7600238A
:10279000FB7600233B7700237B770023BB77002366
:1027A000FB77FB7ABB750023FB7505233B7606237D
:1027B0007B760323BB82FB68012B09D107F114034D
:1027C0004FF4C840C4F200001946FFF71BFA0BE0B3
:1027D000FB68022B08D107F114034FF4D040C4F278
:1027E00000001946FFF70EFA4FF4E06008F03CFED7
:1027F000FB68012B0BD1142008F048FD4FF4C840B2
:10280000C4F2000002210122FFF7E6FD0DE0FB68A3
:10281000022B0AD1402008F039FD4FF4D040C4F219
:10282000000002210122FFF7D7FD2037BD4680BD01
:1028300080B586B000AF7860F9703A80BB70002335
:10284000FB820023FB820EE0FB8ADBB2BB74002319
:102850003B8200237B7507F108031846FFF7A4FAB3
:10286000FB8A0133FB82B7F916300D2BECDD7B6858
:10287000DBB2BB7400233B8201237B75FB78002B0A
:1028800002D10023FB7404E0FB78012B01D101236A
:10289000FB7400233B75B7F900305B019AB2BB783B
:1028A0001B019BB213439BB29BB27B81B7F92030D3
:1028B0005B019AB297F824301B019BB213439BB281
:1028C0009BB2FB81B7F928305B019AB297F82C30A4
:1028D0001B019BB213439BB29BB23B81B7F93030D3
:1028E0005B019AB297F834301B019BB213439BB241
:1028F0009BB2BB8107F108031846FFF755FA18375A
:10290000BD4680BD80B582B000AF78604FF4C8404E
:10291000C4F200007968FFF769FB00BF4FF4C840BC
:10292000C4F200000021FFF729FC0346012BF5D17A
:102930000837BD4680BD00BF80B582B000AF44F20D
:102940006C03C0F602037B6040F20003C2F2000396
:102950003B6007E03B681A1D3A607A68111D796098
:1029600012681A603A6840F2F453C2F200039A42C5
:10297000F0D3084808494FF000028842B8BF40F839
:10298000042BFADB04F070FF04F0CCFC0837BD46E2
:1029900080BD0000F80500206036002080B400AF44
:1029A000FEE700BF80B483B000AF786039600023D9
:1029B00018460C37BD465DF8047B704780B582B081
:1029C00000AF786039607B681B6808331B687868E3
:1029D00039689847034618460837BD4680BD00BF92
:1029E00080B483B000AF786039607B681B7B1A4687
:1029F0003B689A4214BF00230123DBB218460C3710
:102A0000BD465DF8047B704780B483B000AF78604A
:102A10007B68044A1A607B6818460C37BD465DF82F
:102A2000047B704778F8010880B582B000AF786009
:102A300039607B681846FFF7E7FF7B68104A1A6029
:102A40007B6855221A737B6854225A737B68002274
:102A50001A627B6838681946FFF7B0FF7B6800226E
:102A60001A617B6800225A617B6800229A617B6848
:102A70000022DA617B6818460837BD4680BD00BF7A
:102A800050F8010880B582B000AF7860FFF7BAFD5A
:102A900002460B467B689A607B681846FEF794FBFB
:102AA000034618460837BD4680BD00BF80B582B0DA
:102AB00000AF786039604FF64000C0F601000DF0BD
:102AC000B5FB3B681B781A023B6801331B781A433D
:102AD0007B681A613B6802331B781A023B68033338
:102AE0001B781A437B685A613B6804331B781A02CF
:102AF0003B6805331B781A437B689A613B68063351
:102B00001B781A023B6807331B781A437B68DA612B
:102B10000837BD4680BD00BF80B584B000AF786087
:102B200007F108037868194606F080FF3B7A03F046
:102B30001F03012B0AD0022B0FD0002B14D107F159
:102B400008037868194606F06BFB16E007F10803E6
:102B50007868194606F0B4FB0FE007F108037868BF
:102B6000194606F0E1FB08E03B7A23F07F03DBB275
:102B70007868194608F0BCFD00BF002318461037DE
:102B8000BD4680BD80B584B000AF78600B46FB7059
:102B9000FB78002B45D17B6803F55C73FB607B6899
:102BA00093F81131032B4FD1FB68DA69FB689B68FE
:102BB0009A4221D9FB68DA69FB689B68D21AFB68E4
:102BC000DA617B68DB78012B06D1FB68DA68FB6889
:102BD0009B681A44FB68DA60FB68DA68FB689968EE
:102BE000FB68DB69994238BF0B469BB27868114697
:102BF0001A4609F013F827E07B68D3F8E0351B6923
:102C0000002B0AD07B6893F81231032B05D17B6827
:102C1000D3F8E0351B6978689847786809F012F8AE
:102C200012E07B68D3F8E0359B69002B0CD07B6801
:102C300093F81231032B07D17B68D3F8E0359B69F9
:102C4000FA78786811469847002318461037BD4631
:102C500080BD00BF80B584B000AF78600B46FB70CC
:102C6000FB78002B60D17B6803F58C73FB607B687D
:102C700093F81131022B6AD1FB68DA69FB689B6813
:102C80009A421CD9FB68DA69FB689B68D21AFB6818
:102C9000DA617B68DB78012B06D1FB68DA68FB68B8
:102CA0009B681A44FB68DA60FB68DA68FB68DB69DA
:102CB0009BB2786811461A4608F09CFF47E0FB6813
:102CC0001B6AFA689268B3FBF2F102FB01F29B1AED
:102CD000002B14D1FB681A6AFB689B689A420ED3DA
:102CE000FB681A6AFB685B6A9A4208D2786800211E
:102CF000002208F07FFFFB6800225A6227E07B6811
:102D0000D3F8E035DB68002B0AD07B6893F81231EA
:102D1000032B05D17B68D3F8E035DB6878689847EA
:102D2000786808F0A7FF12E07B68D3F8E0355B69AC
:102D3000002B0CD07B6893F81231032B07D17B68F2
:102D4000D3F8E0355B69FA78786811469847002334
:102D500018461037BD4680BD80B582B000AF7860A0
:102D6000786800214022002308F0F8FB7868802171
:102D70004022002308F0F2FB7B68012283F8122135
:102D80007B68D3F8E4355B687A6892781046984798
:102D9000002318460837BD4680BD00BF80B582B00D
:102DA00000AF78607B68D3F8E4351B6998477B688F
:102DB000032283F81221002318460837BD4680BD40
:102DC00080B582B000AF78607B68042283F812215E
:102DD0007B68D3F8E435DB6898470023184608374A
:102DE000BD4680BD80B582B000AF78607B68D3F807
:102DF000E035DB69002B05D07B68D3F8E035DB6973
:102E000078689847002318460837BD4680BD00BF44
:102E100080B582B000AF78600B46FB707B68D3F85A
:102E2000E0351B68FA787868114698477B68D3F8D4
:102E3000E4359B689847002318460837BD4680BD97
:102E400080B582B000AF78600B46FB707B68D3F82A
:102E5000E0355B68FA787868114698470023184691
:102E60000837BD4680BD00BF80B582B000AF786036
:102E70007B68D3F8E0351B6A7868984700231846CA
:102E80000837BD4680BD00BF80B582B000AF786016
:102E90007B68D3F8E0355B6A78689847002318466A
:102EA0000837BD4680BD00BF80B582B000AF7860F6
:102EB0007B68064A1A607B680433184604F028F8D9
:102EC0007B6818460837BD4680BD00BF280C020845
:102ED00080B582B000AF786039607B681846FFF734
:102EE000E3FF7B68074A1A607B683A68C3F81821D9
:102EF0007B680022C3F814217B6818460837BD465A
:102F000080BD00BFE009020880B582B000AF7860E4
:102F10000B46FB707B681A1DFB781046194604F0BF
:102F20000BF80346002B14BF00230123DBB2002B58
:102F30000AD0FB780D2B13D17B68D3F814315A1CBF
:102F40007B68C3F814210BE07B68D3F81431002BA5
:102F500006D1FB780D2B03D17B680122C3F8142125
:102F60000837BD4680BD00BF80B582B000AF786035
:102F70007B680433184604F011F80346002B14BF95
:102F800000230123DBB218460837BD4680BD00BFD1
:102F900080B483B000AF78607B68D3F814311846F2
:102FA0000C37BD465DF8047B704700BF80B582B02A
:102FB00000AF78607B680433184604F005F80346D8
:102FC00018460837BD4680BD90B585B000AF786023
:102FD00039607B680433184603F0E0FF0346002B9A
:102FE0000CBF00230123DBB2002B08D03B6800227A
:102FF0001A707B680022C3F81421002354E00023D8
:10300000FB604DE0FB683A68D4187B6804331846CF
:1030100003F0DAFF03462370FB683A6813441B7819
:103020000D2B02D0FB68FE2B1FDDFB683A681344B2
:1030300000221A707B680433184603F0AFFF034682
:10304000002B0CBF00230123DBB2002B04D07B68D4
:103050000022C3F8142106E07B68D3F814315A1E0D
:103060007B68C3F81421FB681EE07B6804331846B4
:1030700003F094FF0346002B0CBF00230123DBB2B7
:10308000002B0AD0FB683A68134400221A707B6850
:103090000022C3F81421FB6806E0FB680133FB60E3
:1030A000FB68FF2BAEDD002318461437BD4690BDEC
:1030B00080B582B000AF78607B689B68012B06D139
:1030C0007B685B681846FFF763FF034600E0002358
:1030D00018460837BD4680BD80B582B000AF786025
:1030E00039603B6800221A707B689B68012B07D10E
:1030F0007B685B6818463968FFF766FF034600E0A7
:10310000002318460837BD4680BD00BF80B582B099
:1031100000AF78607B689B68012B06D17B685B6899
:103120001846FFF721FF034600E000231846083742
:10313000BD4680BD80B582B000AF78607B689B687B
:10314000012B06D17B685B681846FFF72FFF03460B
:1031500000E0002318460837BD4680BD80B584B026
:1031600000AF786039600023FB600DE07B681B686E
:1031700004331B68FA6839680A4412787868114683
:103180009847FB680133FB60FB683A6813441B787F
:10319000002BEBD11037BD4680BD00BF90B587B086
:1031A00002AFF860B9607A603B60FB6802229A6007
:1031B000FB681B681C683B680093F868B9687A680C
:1031C0003B6AA047034618461437BD4690BD00BF72
:1031D00090B587B002AFF860B9607A603B60FB6879
:1031E00001229A604FF48E7015F048F9044620468B
:1031F000F968FFF76DFEFB685C60FB681B681C6884
:10320000FB685B687A680092F868B9681A463B68A0
:10321000A047034618461437BD4690BD80B582B01E
:1032200000AF78607B681B681B6878689847034626
:1032300018460837BD4680BD80B582B000AF7860C3
:103240007B681B6804331B687868984703461846F8
:103250000837BD4680BD00BF80B584B000AFF860C0
:10326000B9607A60FB681B681B68F868B9687A689F
:103270009847034618461037BD4680BD80B582B0DA
:1032800000AF786039607B681B6804331B6878681E
:10329000396898470837BD4680BD00BF80B582B009
:1032A00000AF78607B681B6808331B6878689847B4
:1032B000034618460837BD4680BD00BF80B483B0C2
:1032C00000AF786040F6FF7318460C37BD465DF8D6
:1032D000047B7047A0F10800F0E700BF80B483B022
:1032E00000AF786043F23333C4F2530318460C370F
:1032F000BD465DF8047B7047A0F10800EEE700BF13
:1033000080B483B000AF786040F6FF7318460C3786
:10331000BD465DF8047B7047A0F10800F0E700BFF0
:1033200080B483B000AF786043F23333C4F2530308
:1033300018460C37BD465DF8047B7047A0F10800C5
:10334000EEE700BF80B483B000AF786040F6FF7353
:1033500018460C37BD465DF8047B7047A0F10800A5
:10336000F0E700BF80B483B000AF786043F233333E
:10337000C4F2530318460C37BD465DF8047B704712
:10338000A0F10800EEE700BF80B483B000AF786022
:1033900040F6FF7318460C37BD465DF8047B704756
:1033A000A0F10800F0E700BF80B483B000AF786000
:1033B00043F23333C4F2530318460C37BD465DF86D
:1033C000047B7047A0F10800EEE700BF80B483B033
:1033D00000AF786040F6FF7318460C37BD465DF8C5
:1033E000047B7047A0F10800F0E700BF80B483B011
:1033F00000AF786043F23333C4F2530318460C37FE
:10340000BD465DF8047B7047A0F10800EEE700BF01
:1034100080B582B000AF78604FF44060C4F2020023
:103420004FF4805105F028FA034618460837BD4688
:1034300080BD00BF80B582B000AF786039603B6866
:10344000002B08D14FF44060C4F202004FF48051C9
:1034500005F03AFA07E04FF44060C4F202004FF47E
:10346000805105F023FA0837BD4680BD80B582B093
:1034700000AF78604FF44060C4F202004FF4805116
:1034800005F0E0F9034618460837BD4680BD00BF89
:1034900080B584B002AF78600023009300204FF421
:1034A0004061C4F202014FF480520023FDF7C6FDD3
:1034B000002318460837BD4680BD00BF80B584B0E4
:1034C00002AF78600023009301204FF44061C4F202
:1034D00002014FF480520023FDF7B0FD002318468F
:1034E0000837BD4680BD00BF80B584B002AF7860AC
:1034F0000023009300204FF44061C4F202014FF416
:1035000080520123FDF79AFD002318460837BD4677
:1035100080BD00BF80B584B002AF78600023009307
:1035200000204FF44061C4F202014FF480520223A4
:10353000FDF784FD002318460837BD4680BD00BF57
:1035400080B582B000AF78604FF48050C4F20200C2
:103550004FF4004105F090F9034618460837BD4680
:1035600080BD00BF80B582B000AF786039603B6835
:10357000002B08D14FF48050C4F202004FF40041F8
:1035800005F0A2F907E04FF48050C4F202004FF4B6
:10359000004105F08BF90837BD4680BD80B582B08B
:1035A00000AF78604FF48050C4F202004FF4004145
:1035B00005F048F9034618460837BD4680BD00BFF0
:1035C00080B584B002AF78600023009300204FF4F0
:1035D0008051C4F202014FF400420023FDF72EFD9A
:1035E000012318460837BD4680BD00BF80B584B0B2
:1035F00002AF78600023009301204FF48051C4F2A1
:1036000002014FF400420023FDF718FD0023184685
:103610000837BD4680BD00BF80B584B002AF78607A
:103620000023009300204FF48051C4F202014FF4B4
:1036300000420123FDF702FD012318460837BD466D
:1036400080BD00BF80B584B002AF786000230093D6
:1036500000204FF48051C4F202014FF400420223D3
:10366000FDF7ECFC002318460837BD4680BD00BFBF
:1036700080B582B000AF78604FF48060C4F2020081
:103680004FF4804105F0F8F8034618460837BD4668
:1036900080BD00BF80B582B000AF786039603B6804
:1036A000002B08D14FF48060C4F202004FF4804137
:1036B00005F00AF907E04FF48060C4F202004FF40D
:1036C000804105F0F3F80837BD4680BD80B582B073
:1036D00000AF78604FF48060C4F202004FF4804184
:1036E00005F0B0F8034618460837BD4680BD00BF58
:1036F00080B584B002AF78600023009300204FF4BF
:103700008061C4F202014FF480420023FDF796FC71
:10371000002318460837BD4680BD00BF80B584B081
:1037200002AF78600023009301204FF48061C4F25F
:1037300002014FF480420023FDF780FC002318466D
:103740000837BD4680BD00BF80B584B002AF786049
:103750000023009300204FF48061C4F202014FF473
:1037600080420123FDF76AFC002318460837BD4656
:1037700080BD00BF80B584B002AF786000230093A5
:1037800000204FF48061C4F202014FF48042022312
:10379000FDF754FC002318460837BD4680BD00BF26
:1037A00080B582B000AF78604FF48060C4F2020050
:1037B0004FF4004105F060F8034618460837BD464F
:1037C00080BD00BF80B582B000AF786039603B68D3
:1037D000002B08D14FF48060C4F202004FF4004186
:1037E00005F072F807E04FF48060C4F202004FF475
:1037F000004105F05BF80837BD4680BD80B582B05A
:1038000000AF78604FF48060C4F202004FF40041D2
:1038100005F018F8034618460837BD4680BD00BFBE
:1038200080B584B002AF78600023009300204FF48D
:103830008061C4F202014FF400420023FDF7FEFB59
:10384000002318460837BD4680BD00BF80B584B050
:1038500002AF78600023009301204FF48061C4F22E
:1038600002014FF400420023FDF7E8FB0023184655
:103870000837BD4680BD00BF80B584B002AF786018
:103880000023009300204FF48061C4F202014FF442
:1038900000420123FDF7D2FB002318460837BD463E
:1038A00080BD00BF80B584B002AF78600023009374
:1038B00000204FF48061C4F202014FF40042022361
:1038C000FDF7BCFB002318460837BD4680BD00BF8E
:1038D00080B582B000AF78600020C4F202004FF4DF
:1038E000004104F0C9FF034618460837BD4680BDB5
:1038F00080B582B000AF786039603B68002B07D19B
:103900000020C4F202004FF4004104F0DDFF06E0A5
:103910000020C4F202004FF4004104F0C7FF083752
:10392000BD4680BD80B582B000AF78600020C4F293
:1039300002004FF4004104F085FF034618460837A3
:10394000BD4680BD80B584B002AF7860002300938F
:1039500000200021C4F202014FF400420023FDF7D1
:103960006DFB002318460837BD4680BD80B483B088
:1039700000AF7860012318460C37BD465DF8047B24
:10398000704700BF80B584B002AF78600023009319
:1039900000200021C4F202014FF400420123FDF790
:1039A0004DFB002318460837BD4680BD80B584B066
:1039B00002AF78600023009300200021C4F20201CE
:1039C0004FF400420223FDF739FB00231846083765
:1039D000BD4680BD80B582B000AF78604FF4806096
:1039E000C4F202004FF4005104F046FF03461846AB
:1039F0000837BD4680BD00BF80B582B000AF78609B
:103A000039603B68002B08D14FF48060C4F202009B
:103A10004FF4005104F058FF07E04FF48060C4F207
:103A200002004FF4005104F041FF0837BD4680BD4D
:103A300080B582B000AF78604FF48060C4F20200BD
:103A40004FF4005104F0FEFE034618460837BD4609
:103A500080BD00BF80B584B002AF786000230093C2
:103A600000204FF48061C4F202014FF400520023A1
:103A7000FDF7E4FA002318460837BD4680BD00BFB5
:103A800080B483B000AF7860012318460C37BD4680
:103A90005DF8047B704700BF80B584B002AF7860EA
:103AA0000023009300204FF48061C4F202014FF420
:103AB00000520123FDF7C2FA002318460837BD461D
:103AC00080BD00BF80B584B002AF78600023009352
:103AD00000204FF48061C4F202014FF4005202232F
:103AE000FDF7ACFA002318460837BD4680BD00BF7D
:103AF00080B582B000AF78604FF44060C4F202003D
:103B00004FF4006104F0B8FE034618460837BD467E
:103B100080BD00BF80B582B000AF786039603B687F
:103B2000002B08D14FF44060C4F202004FF4006152
:103B300004F0CAFE07E04FF44060C4F202004FF404
:103B4000006104F0B3FE0837BD4680BD80B582B089
:103B500000AF78604FF44060C4F202004FF400619F
:103B600004F070FE034618460837BD4680BD00BF0E
:103B700080B584B002AF78600023009300204FF43A
:103B80004061C4F202014FF400620023FDF756FACF
:103B9000002318460837BD4680BD00BF80B483B0FF
:103BA00000AF7860012318460C37BD465DF8047BF2
:103BB000704700BF80B584B002AF786000230093E7
:103BC00000204FF44061C4F202014FF4006201236F
:103BD000FDF734FA002318460837BD4680BD00BF04
:103BE00080B584B002AF78600023009300204FF4CA
:103BF0004061C4F202014FF400620223FDF71EFA95
:103C0000002318460837BD4680BD00BF80B582B08E
:103C100000AF78604FF44060C4F202004FF480615E
:103C200004F02AFE034618460837BD4680BD00BF93
:103C300080B582B000AF786039603B68002B08D156
:103C40004FF44060C4F202004FF4806104F03CFE87
:103C500007E04FF44060C4F202004FF4806104F0CA
:103C600025FE0837BD4680BD80B582B000AF7860C4
:103C70004FF44060C4F202004FF4806104F0E2FDB2
:103C8000034618460837BD4680BD00BF80B584B0E6
:103C900002AF78600023009300204FF44061C4F22B
:103CA00002014FF480620023FDF7C8F90023184693
:103CB0000837BD4680BD00BF80B483B000AF7860D8
:103CC000012318460C37BD465DF8047B704700BFE2
:103CD00080B584B002AF78600023009300204FF4D9
:103CE0004061C4F202014FF480620123FDF7A6F99E
:103CF000002318460837BD4680BD00BF80B584B09C
:103D000002AF78600023009300204FF44061C4F2BA
:103D100002014FF480620223FDF790F90023184658
:103D20000837BD4680BD00BF80B582B000AF786067
:103D30004FF48060C4F20200022104F09DFD0346AE
:103D400018460837BD4680BD80B582B000AF7860A8
:103D500039603B68002B07D14FF48060C4F2020049
:103D6000022104F0B1FD06E04FF48060C4F20200CD
:103D7000022104F09BFD0837BD4680BD80B582B0AE
:103D800000AF78604FF48060C4F20200022104F0BA
:103D900059FD034618460837BD4680BD80B584B03E
:103DA00002AF78600023009300204FF48061C4F2DA
:103DB000020102220023FDF741F9002318460837CB
:103DC000BD4680BD80B584B002AF7860002300930B
:103DD00001204FF48061C4F2020102220023FDF7AA
:103DE0002DF9002318460837BD4680BD80B584B044
:103DF00002AF78600023009300204FF48061C4F28A
:103E0000020102220123FDF719F9002318460837A1
:103E1000BD4680BD80B584B002AF786000230093BA
:103E200000204FF48061C4F2020102220223FDF758
:103E300005F9002318460837BD4680BD80B582B01D
:103E400000AF78600020C4F20200102104F014FDDD
:103E5000034618460837BD4680BD00BF80B582B016
:103E600000AF786039603B68002B06D10020C4F2B7
:103E70000200102104F028FD05E00020C4F2020039
:103E8000102104F013FD0837BD4680BD80B582B017
:103E900000AF78600020C4F20200102104F0D2FCD0
:103EA000034618460837BD4680BD00BF80B584B0C4
:103EB00002AF78600023009300200021C4F20201C9
:103EC00010220023FDF7BAF8002318460837BD4634
:103ED00080BD00BF80B584B002AF7860002300933E
:103EE00001200021C4F2020110220023FDF7A6F8F0
:103EF000002318460837BD4680BD00BF80B584B09A
:103F000002AF78600023009300200021C4F2020178
:103F100010220123FDF792F8002318460837BD460A
:103F200080BD00BF80B584B002AF786000230093ED
:103F300000200021C4F2020110220223FDF77EF8C6
:103F4000002318460837BD4680BD00BF80B582B04B
:103F500000AF78604FF40060C4F20200012104F069
:103F60008BFC034618460837BD4680BD80B582B03D
:103F700000AF786039603B68002B07D14FF40060D8
:103F8000C4F20200012104F09FFC06E04FF400603F
:103F9000C4F20200012104F089FC0837BD4680BD4F
:103FA00080B582B000AF78604FF40060C4F20200C8
:103FB000012104F047FC034618460837BD4680BD82
:103FC00080B584B002AF78600023009300204FF4E6
:103FD0000061C4F2020101220023FDF72FF8002343
:103FE00018460837BD4680BD80B584B002AF786002
:103FF0000023009301204FF40061C4F2020101226A
:104000000023FDF71BF8002318460837BD4680BD86
:1040100080B584B002AF78600023009300204FF495
:104020000061C4F2020101220123FDF707F8002319
:1040300018460837BD4680BD80B584B002AF7860B1
:104040000023009300204FF40061C4F2020101221A
:104050000223FCF7F3FF002318460837BD4680BD56
:1040600080B582B000AF78604FF48050C4F2020097
:104070004FF4805104F000FC034618460837BD4653
:1040800080BD00BF80B582B000AF786039603B680A
:10409000002B08D14FF48050C4F202004FF480513D
:1040A00004F012FC07E04FF48050C4F202004FF419
:1040B000805104F0FBFB0837BD4680BD80B582B05F
:1040C00000AF78604FF48050C4F202004FF480518A
:1040D00004F0B8FB034618460837BD4680BD00BF54
:1040E00080B584B002AF78600023009300204FF4C5
:1040F0008051C4F202014FF480520023FCF79EFF6E
:10410000002318460837BD4680BD00BF80B584B087
:1041100002AF78600023009301204FF48051C4F275
:1041200002014FF480520023FCF788FF0023184659
:104130000837BD4680BD00BF80B584B002AF78604F
:104140000023009300204FF48051C4F202014FF489
:1041500080520123FCF772FF002318460837BD4642
:1041600080BD00BF80B584B002AF786000230093AB
:1041700000204FF48051C4F202014FF48052022318
:10418000FCF75CFF002318460837BD4680BD00BF22
:1041900080B582B000AF78600020C4F20200202118
:1041A00004F06AFB034618460837BD4680BD00BFD1
:1041B00080B582B000AF786039603B68002B06D1D3
:1041C0000020C4F20200202104F07EFB05E0002064
:1041D000C4F20200202104F069FB0837BD4680BD0F
:1041E00080B582B000AF78600020C4F202002021C8
:1041F00004F028FB034618460837BD4680BD00BFC3
:1042000080B584B002AF78600023009300200021C5
:10421000C4F2020120220023FCF710FF00231846FD
:104220000837BD4680BD00BF80B584B002AF78605E
:104230000023009301200021C4F202012022002368
:10424000FCF7FCFE002318460837BD4680BD00BFC2
:1042500080B584B002AF7860002300930020002175
:10426000C4F2020120220123FCF7E8FE00231846D5
:104270000837BD4680BD00BF80B584B002AF78600E
:104280000023009300200021C4F202012022022317
:10429000FCF7D4FE002318460837BD4680BD00BF9A
:1042A00080B582B000AF78604FF48060C4F2020045
:1042B000042104F0E1FA034618460837BD4680BDE4
:1042C00080B582B000AF786039603B68002B07D1C1
:1042D0004FF48060C4F20200042104F0F5FA06E015
:1042E0004FF48060C4F20200042104F0DFFA0837C2
:1042F000BD4680BD80B582B000AF78604FF480606D
:10430000C4F20200042104F09DFA0346184608375F
:10431000BD4680BD80B584B002AF786000230093B5
:1043200000204FF48061C4F2020104220023FCF754
:1043300085FE002318460837BD4680BD80B584B091
:1043400002AF78600023009301204FF48061C4F233
:10435000020104220023FCF771FE002318460837EF
:10436000BD4680BD80B584B002AF78600023009365
:1043700000204FF48061C4F2020104220123FCF703
:104380005DFE002318460837BD4680BD80B584B069
:1043900002AF78600023009300204FF48061C4F2E4
:1043A000020104220223FCF749FE002318460837C5
:1043B000BD4680BD80B582B000AF78604FF48050BC
:1043C000C4F20200802104F057FA03461846083769
:1043D000BD4680BD80B582B000AF786039603B6873
:1043E000002B07D14FF48050C4F20200802104F06A
:1043F0006BFA06E04FF48050C4F20200802104F012
:1044000055FA0837BD4680BD80B582B000AF7860F0
:104410004FF48050C4F20200802104F013FA0346E6
:1044200018460837BD4680BD80B584B002AF7860BD
:104430000023009300204FF48051C4F20201802237
:104440000023FCF7FBFD002318460837BD4680BD5E
:1044500080B584B002AF78600023009301204FF450
:104460008051C4F2020180220023FCF7E7FD002303
:1044700018460837BD4680BD80B584B002AF78606D
:104480000023009300204FF48051C4F202018022E7
:104490000123FCF7D3FD002318460837BD4680BD35
:1044A00080B584B002AF78600023009300204FF401
:1044B0008051C4F2020180220223FCF7BFFD0023D9
:1044C00018460837BD4680BD80B582B000AF786021
:1044D0004FF48050C4F202004FF4806104F0CCF934
:1044E000034618460837BD4680BD00BF80B582B080
:1044F00000AF786039603B68002B08D14FF48050E2
:10450000C4F202004FF4806104F0DEF907E04FF4DA
:104510008050C4F202004FF4806104F0C7F90837FC
:10452000BD4680BD80B582B000AF78604FF480504A
:10453000C4F202004FF4806104F084F90346184687
:104540000837BD4680BD00BF80B584B002AF78603B
:104550000023009300204FF48051C4F202014FF475
:1045600080620023FCF76AFD002318460837BD4629
:1045700080BD00BF80B584B002AF78600023009397
:1045800001204FF48051C4F202014FF480620023F5
:10459000FCF754FD002318460837BD4680BD00BF18
:1045A00080B584B002AF78600023009300204FF400
:1045B0008051C4F202014FF480620123FCF73EFDFA
:1045C000002318460837BD4680BD00BF80B584B0C3
:1045D00002AF78600023009300204FF48051C4F2B2
:1045E00002014FF480620223FCF728FD00231846E5
:1045F0000837BD4680BD00BF80B582B000AF78608F
:104600004FF48060C4F20200012104F035F9034642
:1046100018460837BD4680BD80B582B000AF7860CF
:1046200039603B68002B07D14FF48060C4F2020070
:10463000012104F049F906E04FF48060C4F2020061
:10464000012104F033F90837BD4680BD80B582B042
:1046500000AF78604FF48060C4F20200012104F0E2
:10466000F1F8034618460837BD4680BD80B584B0D2
:1046700002AF78600023009300204FF48061C4F201
:10468000020101220023FCF7D9FC00231846083759
:10469000BD4680BD80B584B002AF78600023009332
:1046A00001204FF48061C4F2020101220023FCF7D3
:1046B000C5FC002318460837BD4680BD80B584B0D0
:1046C00002AF78600023009300204FF48061C4F2B1
:1046D000020101220123FCF7B1FC00231846083730
:1046E000BD4680BD80B584B002AF786000230093E2
:1046F00000204FF48061C4F2020101220223FCF782
:104700009DFC002318460837BD4680BD80B582B0A9
:1047100000AF78604FF48050C4F20200102104F022
:10472000ABF8034618460837BD4680BD80B582B059
:1047300000AF786039603B68002B07D14FF48050A0
:10474000C4F20200102104F0BFF806E04FF48050DC
:10475000C4F20200102104F0A9F80837BD4680BD5C
:1047600080B582B000AF78604FF48050C4F2020090
:10477000102104F067F8034618460837BD4680BD8F
:1047800080B584B002AF78600023009300204FF41E
:104790008051C4F2020110220023FCF74FFC0023D9
:1047A00018460837BD4680BD80B584B002AF78603A
:1047B0000023009301204FF48051C4F20201102223
:1047C0000023FCF73BFC002318460837BD4680BD9C
:1047D00080B584B002AF78600023009300204FF4CE
:1047E0008051C4F2020110220123FCF727FC0023B0
:1047F00018460837BD4680BD80B584B002AF7860EA
:104800000023009300204FF48051C4F202011022D3
:104810000223FCF713FC002318460837BD4680BD71
:1048200080B582B000AF78604FF48050C4F20200CF
:10483000042104F021F8034618460837BD4680BD20
:1048400080B582B000AF786039603B68002B07D13B
:104850004FF48050C4F20200042104F035F806E061
:104860004FF48050C4F20200042104F01FF808370E
:10487000BD4680BD80B582B000AF78604FF48050F7
:10488000C4F20200042103F0DDFF03461846083796
:10489000BD4680BD80B584B002AF78600023009330
:1048A00000204FF48051C4F2020104220023FCF7DF
:1048B000C5FB002318460837BD4680BD80B584B0CF
:1048C00002AF78600023009301204FF48051C4F2BE
:1048D000020104220023FCF7B1FB0023184608372D
:1048E000BD4680BD80B584B002AF786000230093E0
:1048F00000204FF48051C4F2020104220123FCF78E
:104900009DFB002318460837BD4680BD80B584B0A6
:1049100002AF78600023009300204FF48051C4F26E
:10492000020104220223FCF789FB00231846083702
:10493000BD4680BD80B582B000AF78604FF4805036
:10494000C4F202004FF4807103F096FF034618464C
:104950000837BD4680BD00BF80B582B000AF78602B
:1049600039603B68002B08D14FF48050C4F202003C
:104970004FF4807103F0A8FF07E04FF48050C4F2B9
:1049800002004FF4807103F091FF0837BD4680BDEF
:1049900080B582B000AF78604FF48050C4F202005E
:1049A0004FF4807103F04EFF034618460837BD46AA
:1049B00080BD00BF80B584B002AF78600023009353
:1049C00000204FF48051C4F202014FF480720023A2
:1049D000FCF734FB002318460837BD4680BD00BFF6
:1049E00080B584B002AF78600023009301204FF4BB
:1049F0008051C4F202014FF480720023FCF71EFBC9
:104A0000002318460837BD4680BD00BF80B584B07E
:104A100002AF78600023009300204FF48051C4F26D
:104A200002014FF480720123FCF708FB00231846B3
:104A30000837BD4680BD00BF80B584B002AF786046
:104A40000023009300204FF48051C4F202014FF480
:104A500080720223FCF7F2FA002318460837BD469D
:104A600080BD00BF80B582B000AF78604FF4805049
:104A7000C4F20200082103F0FFFE0346184608377F
:104A8000BD4680BD80B582B000AF786039603B68BC
:104A9000002B07D14FF48050C4F20200082103F02C
:104AA00013FF06E04FF48050C4F20200082103F027
:104AB000FDFE0837BD4680BD80B582B000AF78608E
:104AC0004FF48050C4F20200082103F0BBFE0346FD
:104AD00018460837BD4680BD80B584B002AF786007
:104AE0000023009300204FF48051C4F202010822F9
:104AF0000023FCF7A3FA002318460837BD4680BD03
:104B000080B584B002AF78600023009301204FF499
:104B10008051C4F2020108220023FCF78FFA00231F
:104B200018460837BD4680BD80B584B002AF7860B6
:104B30000023009300204FF48051C4F202010822A8
:104B40000123FCF77BFA002318460837BD4680BDD9
:104B500080B584B002AF78600023009300204FF44A
:104B60008051C4F2020108220223FCF767FA0023F5
:104B700018460837BD4680BD80B582B000AF78606A
:104B80004FF40060C4F20200202103F075FE0346DA
:104B900018460837BD4680BD80B582B000AF78604A
:104BA00039603B68002B07D14FF40060C4F202006B
:104BB000202103F089FE06E04FF40060C4F20200F9
:104BC000202103F073FE0837BD4680BD80B582B05A
:104BD00000AF78604FF40060C4F20200202103F0BF
:104BE00031FE034618460837BD4680BD80B584B007
:104BF00002AF78600023009300204FF40061C4F2FC
:104C0000020120220023FCF719FA00231846083776
:104C1000BD4680BD80B584B002AF78607B6802225B
:104C2000DA600023009301204FF40061C4F2020116
:104C300020220023FCF702FA002318460837BD465D
:104C400080BD00BF80B584B002AF786000230093C0
:104C500000204FF40061C4F2020120220123FCF77E
:104C6000EDF9002318460837BD4680BD80B584B0F5
:104C700002AF78600023009300204FF40061C4F27B
:104C8000020120220223FCF7D9F900231846083735
:104C9000BD4680BD80B582B000AF78604FF4006043
:104CA000C4F20200022103F0E7FD0346184608376C
:104CB000BD4680BD80B582B000AF786039603B688A
:104CC000002B07D14FF40060C4F20200022103F070
:104CD000FBFD06E04FF40060C4F20200022103F085
:104CE000E5FD0837BD4680BD80B582B000AF786075
:104CF0004FF40060C4F20200022103F0A3FD03465A
:104D000018460837BD4680BD80B584B002AF7860D4
:104D10000023009300204FF40061C4F2020102223C
:104D20000023FCF78BF9002318460837BD4680BDE9
:104D300080B584B002AF78607B680222DA6000231D
:104D4000009301204FF40061C4F20201022200230B
:104D5000FCF774F9002318460837BD4680BD00BF34
:104D600080B584B002AF78600023009300204FF438
:104D70000061C4F2020102220123FCF75FF9002363
:104D800018460837BD4680BD80B584B002AF786054
:104D90000023009300204FF40061C4F202010222BC
:104DA0000223FCF74BF9002318460837BD4680BDA7
:104DB00080B582B000AF78604FF40060C4F20200AA
:104DC000042103F059FD034618460837BD4680BD4F
:104DD00080B582B000AF786039603B68002B07D1A6
:104DE0004FF40060C4F20200042103F06DFD06E000
:104DF0004FF40060C4F20200042103F057FD0837AD
:104E0000BD4680BD80B582B000AF78604FF40060D1
:104E1000C4F20200042103F015FD034618460837CA
:104E2000BD4680BD80B584B002AF7860002300939A
:104E300000204FF40061C4F2020104220023FCF7B9
:104E4000FDF8002318460837BD4680BD80B584B004
:104E500002AF78607B680222DA60002300930120B1
:104E60004FF40061C4F2020104220023FCF7E6F8CB
:104E7000002318460837BD4680BD00BF80B584B00A
:104E800002AF78600023009300204FF40061C4F269
:104E9000020104220123FCF7D1F800231846083749
:104EA000BD4680BD80B584B002AF7860002300931A
:104EB00000204FF40061C4F2020104220223FCF737
:104EC000BDF8002318460837BD4680BD80B582B0C6
:104ED00000AF78604FF40060C4F20200082103F0D4
:104EE000CBFC034618460837BD4680BD80B582B06E
:104EF00000AF786039603B68002B07D14FF4006049
:104F0000C4F20200082103F0DFFC06E04FF4006069
:104F1000C4F20200082103F0C9FC0837BD4680BD79
:104F200080B582B000AF78604FF40060C4F2020038
:104F3000082103F087FC034618460837BD4680BDAC
:104F400080B584B002AF78600023009300204FF456
:104F50000061C4F2020108220023FCF76FF800236D
:104F600018460837BD4680BD80B584B002AF786072
:104F70007B680222DA600023009301204FF4006175
:104F8000C4F2020108220023FCF758F80023184657
:104F90000837BD4680BD00BF80B584B002AF7860E1
:104FA0000023009300204FF40061C4F202010822A4
:104FB0000123FCF743F8002318460837BD4680BD9F
:104FC00080B584B002AF78600023009300204FF4D6
:104FD0000061C4F2020108220223FCF72FF800232B
:104FE00018460837BD4680BD80B582B000AF7860F6
:104FF0004FF40060C4F20200102103F03DFC0346B0
:1050000018460837BD4680BD80B582B000AF7860D5
:1050100039603B68002B07D14FF40060C4F20200F6
:10502000102103F051FC06E04FF40060C4F20200CE
:10503000102103F03BFC0837BD4680BD80B582B02F
:1050400000AF78604FF40060C4F20200102103F05A
:10505000F9FB034618460837BD4680BD80B584B0CD
:1050600002AF78600023009300204FF40061C4F287
:10507000020110220023FBF7E1FF00231846083746
:10508000BD4680BD80B584B002AF78607B680222E7
:10509000DA600023009301204FF40061C4F20201A2
:1050A00010220023FBF7CAFF002318460837BD462D
:1050B00080BD00BF80B584B002AF7860002300934C
:1050C00000204FF40061C4F2020110220123FBF71B
:1050D000B5FF002318460837BD4680BD80B584B0B3
:1050E00002AF78600023009300204FF40061C4F207
:1050F000020110220223FBF7A1FF00231846083704
:10510000BD4680BD80B582B000AF78604FF480505E
:10511000C4F202004FF4006103F0AEFB03461846F0
:105120000837BD4680BD00BF80B582B000AF786053
:1051300039603B68002B08D14FF48050C4F2020064
:105140004FF4006103F0C0FB07E04FF48050C4F25D
:1051500002004FF4006103F0A9FB0837BD4680BD93
:1051600080B582B000AF78604FF48050C4F2020086
:105170004FF4006103F066FB034618460837BD464E
:1051800080BD00BF80B584B002AF7860002300937B
:1051900000204FF48051C4F202014FF4006200235A
:1051A000FBF74CFF002318460837BD4680BD00BF03
:1051B00080B584B002AF78607B680222DA60002399
:1051C000009301204FF48051C4F202014FF40062B9
:1051D0000023FBF733FF002318460837BD4680BD88
:1051E00080B584B002AF78600023009300204FF4B4
:1051F0008051C4F202014FF400620123FBF71EFF4D
:10520000002318460837BD4680BD00BF80B584B076
:1052100002AF78600023009300204FF48051C4F265
:1052200002014FF400620223FBF708FF0023184637
:105230000837BD4680BD00BF80B582B000AF786042
:105240004FF48050C4F20200402103F015FB0346E6
:1052500018460837BD4680BD80B582B000AF786083
:1052600039603B68002B07D14FF48050C4F2020034
:10527000402103F029FB06E04FF48050C4F2020005
:10528000402103F013FB0837BD4680BD80B582B0D6
:1052900000AF78604FF48050C4F20200402103F068
:1052A000D1FA034618460837BD4680BD80B584B0A4
:1052B00002AF78600023009300204FF48051C4F2C5
:1052C000020140220023FBF7B9FE002318460837ED
:1052D000BD4680BD80B584B002AF78607B68022295
:1052E000DA600023009301204FF48051C4F20201E0
:1052F00040220023FBF7A2FE002318460837BD46D4
:1053000080BD00BF80B584B002AF786000230093F9
:1053100000204FF48051C4F2020140220123FBF728
:105320008DFE002318460837BD4680BD80B584B089
:1053300002AF78600023009300204FF48051C4F244
:10534000020140220223FBF779FE002318460837AA
:10535000BD4680BD80B582B000AF78604FF480500C
:10536000C4F20200202103F087FA034618460837EA
:10537000BD4680BD80B582B000AF786039603B68C3
:10538000002B07D14FF48050C4F20200202103F01B
:105390009BFA06E04FF48050C4F20200202103F093
:1053A00085FA0837BD4680BD80B582B000AF786011
:1053B0004FF48050C4F20200202103F043FA034668
:1053C00018460837BD4680BD80B584B002AF78600E
:1053D0000023009300204FF48051C4F202012022E8
:1053E0000023FBF72BFE002318460837BD4680BD7F
:1053F00080B584B002AF78607B680222DA60002357
:10540000009301204FF48051C4F2020120220023B6
:10541000FBF714FE002318460837BD4680BD00BFC9
:1054200080B584B002AF78600023009300204FF471
:105430008051C4F2020120220123FBF7FFFD00236B
:1054400018460837BD4680BD80B584B002AF78608D
:105450000023009300204FF48051C4F20201202267
:105460000223FBF7EBFD002318460837BD4680BD3D
:1054700080B582B000AF78604FF48050C4F2020073
:105480004FF4007103F0F8F9034618460837BD469B
:1054900080BD00BF80B582B000AF786039603B68E6
:1054A000002B08D14FF48050C4F202004FF4007179
:1054B00003F00AFA07E04FF48050C4F202004FF400
:1054C000007103F0F3F90837BD4680BD80B582B0A6
:1054D00000AF78604FF48050C4F202004FF40071C6
:1054E00003F0B0F9034618460837BD4680BD00BF3B
:1054F00080B584B002AF78600023009300204FF4A1
:105500008051C4F202014FF400720023FBF796FDB4
:10551000002318460837BD4680BD00BF80B584B063
:1055200002AF78607B680222DA60002300930120DA
:105530004FF48051C4F202014FF400720023FBF7D4
:105540007DFD002318460837BD4680BD80B584B078
:1055500002AF78600023009300204FF48051C4F222
:1055600002014FF400720123FBF768FD0023184687
:105570000837BD4680BD00BF80B584B002AF7860FB
:105580000023009300204FF48051C4F202014FF435
:1055900000720223FBF752FD002318460837BD4670
:1055A00080BD00BF80B582B000AF78604FF48050FE
:1055B000C4F202004FF4804103F05EF9034618463E
:1055C0000837BD4680BD00BF80B582B000AF7860AF
:1055D00039603B68002B08D14FF48050C4F20200C0
:1055E0004FF4804103F070F907E04FF48050C4F2AB
:1055F00002004FF4804103F059F90837BD4680BDE1
:1056000080B582B000AF78604FF48050C4F20200E1
:105610004FF4804103F016F9034618460837BD469B
:1056200080BD00BF80B584B002AF786000230093D6
:1056300000204FF48051C4F202014FF48042002355
:10564000FBF7FCFC002318460837BD4680BD00BFB1
:1056500080B584B002AF78607B680222DA600023F4
:10566000009301204FF48051C4F202014FF48042B4
:105670000023FBF7E3FC002318460837BD4680BD36
:1056800080B584B002AF78600023009300204FF40F
:105690008051C4F202014FF480420123FBF7CEFC9B
:1056A000002318460837BD4680BD00BF80B584B0D2
:1056B00002AF78600023009300204FF48051C4F2C1
:1056C00002014FF480420223FBF7B8FC0023184686
:1056D0000837BD4680BD00BF80B582B000AF78609E
:1056E0004FF48050C4F202004FF4005103F0C4F8AC
:1056F000034618460837BD4680BD00BF80B582B05E
:1057000000AF786039603B68002B08D14FF48050BF
:10571000C4F202004FF4005103F0D6F807E04FF452
:105720008050C4F202004FF4005103F0BFF8083774
:10573000BD4680BD80B582B000AF78604FF4805028
:10574000C4F202004FF4005103F07CF803461846FF
:105750000837BD4680BD00BF80B584B002AF786019
:105760000023009300204FF48051C4F202014FF453
:1057700000520023FBF762FC002318460837BD46A1
:1057800080BD00BF80B584B002AF78607B68022224
:10579000DA600023009301204FF48051C4F202012B
:1057A0004FF400520023FBF749FC0023184608374A
:1057B000BD4680BD80B584B002AF78600023009301
:1057C00000204FF48051C4F202014FF40052012333
:1057D000FBF734FC002318460837BD4680BD00BFE8
:1057E00080B584B002AF78600023009300204FF4AE
:1057F0008051C4F202014FF400520223FBF71EFC59
:10580000002318460837BD4680BD00BF80B582B072
:1058100000AF78607B680122DA604FF40060C4F268
:105820000200202102F024FB002318460837BD4661
:1058300080BD00BFA0F10800FFF7E8BF90B583B0BE
:1058400000AF78604FF40060C4F20200202102F043
:105850002BFC04467B681B6848331B6878689847B4
:105860000346184608F07EFD03462046194608F018
:1058700081FE034618460C37BD4690BDA0F10800D6
:10588000FFF7DCBF80B582B000AF78607B68012293
:10589000DA604FF40060C4F20200022102F0E8FA7C
:1058A000002318460837BD4680BD00BFA0F10800A0
:1058B000FFF7E8BF90B583B000AF78604FF40060A9
:1058C000C4F20200022102F0EFFB04467B681B6871
:1058D00048331B68786898470346184608F042FD2D
:1058E00003462046194608F045FE034618460C3785
:1058F000BD4690BDA0F10800FFF7DCBF80B582B0C7
:1059000000AF78607B680122DA604FF40060C4F277
:105910000200042102F0ACFA002318460837BD4605
:1059200080BD00BFA0F10800FFF7E8BF90B583B0CD
:1059300000AF78604FF40060C4F20200042102F06E
:10594000B3FB04467B681B6848331B68786898473C
:105950000346184608F006FD03462046194608F09F
:1059600009FE034618460C37BD4690BDA0F108005D
:10597000FFF7DCBF80B582B000AF78607B680122A2
:10598000DA604FF40060C4F20200082102F070FAFD
:10599000002318460837BD4680BD00BFA0F10800AF
:1059A000FFF7E8BF90B583B000AF78604FF40060B8
:1059B000C4F20200082102F077FB04467B681B68F2
:1059C00048331B68786898470346184608F0CAFCB5
:1059D00003462046194608F0CDFD034618460C370D
:1059E000BD4690BDA0F10800FFF7DCBF80B582B0D6
:1059F00000AF78607B680122DA604FF40060C4F287
:105A00000200102102F034FA002318460837BD4680
:105A100080BD00BFA0F10800FFF7E8BF90B583B0DC
:105A200000AF78604FF40060C4F20200102102F071
:105A30003BFB04467B681B6848331B6878689847C3
:105A40000346184608F08EFC03462046194608F027
:105A500091FD034618460C37BD4690BDA0F10800E5
:105A6000FFF7DCBF80B582B000AF78604FF4006014
:105A7000C4F200004FF44061C4F202014FF44052FE
:105A8000FBF7C8FD002318460837BD4680BD00BFA0
:105A900080B582B000AF78607B681B7A002B08D09D
:105AA0004FF40060C4F20000FBF744FE03465B4283
:105AB00006E04FF40060C4F20000FBF73BFE034633
:105AC00018460837BD4680BD80B582B000AF78600B
:105AD0004FF48060C4F200000021C4F20201C02231
