:020000040800F2
:10000000E0960120D53200089DA50008BDA5000896
:10001000DDA50008FDA500081DA6000800000000E1
:100020000000000000000000000000003DA60008E5
:100030005DA60008000000007DA60008752F0008DE
:1000400039330008393300083933000839330008E0
:1000500039330008393300083933000839330008D0
:1000600039330008393300083933000839330008C0
:1000700039330008393300083933000839330008B0
:1000800039330008393300083933000839330008A0
:1000900099690008393300083933000839330008FA
:1000A000393300084D1A0008393300083933000885
:1000B000B11A0008111B00087D1B00083933000825
:1000C0003933000839700008393300083933000823
:1000D0003933000889650008956500083933000840
:1000E0003933000839330008B5200008C11C000866
:1000F000551C00083933000839330008393300082B
:1001000039330008C9AB0008E91B0008393300087F
:10011000393300083933000839330008393300080F
:10012000393300083933000839330008D5AB0008EB
:1001300039330008393300083933000839330008EF
:10014000393300083933000839330008A12000088A
:1001500039330008393300083933000839330008CF
:1001600039330008393300083933000839330008BF
:1001700039330008393300083933000839330008AF
:10018000393300083933000808B540F2F850074BFE
:10019000C2F200001B1A062B00D808BD40F2000373
:1001A000C0F20003002BF8D09847F6E7FB050020CB
:1001B00008B540F2F85040F2F853C2F20000C2F223
:1001C00000031B1A9B1003EBD373591000D108BD19
:1001D00040F20002C0F20002002AF8D09047F6E791
:1001E00010B540F2F854C2F20004237873B9FFF757
:1001F000CBFF40F20003C0F200032BB148F22060B5
:10020000C0F60200AFF300800123237010BD00BFD1
:1002100008B540F20003C0F200034BB148F2206081
:1002200040F2FC51C0F60200C2F20001AFF30080C0
:1002300040F2F450C2F2000003682BB140F2000318
:10024000C0F2000303B19847BDE80840B0E700BF23
:1002500080B584B000AFF8600B467A60FB72FB7A21
:10026000013B032B52D801A252F823F07D02000873
:10027000A1020008C5020008E9020008FB68DB6A69
:10028000184613F097FC03461846796813F0EAFC09
:100290000346184613F0D2FE0246FB685A6336E066
:1002A000FB68DB6A184613F085FC0346184679683C
:1002B00013F0D8FC0346184613F0C0FE0246FB6854
:1002C0009A6324E0FB68DB6A184613F073FC03466C
:1002D0001846796813F0C6FC0346184613F0AEFEC4
:1002E0000246FB68DA6312E0FB68DB6A184613F02B
:1002F00061FC03461846796813F0B4FC03461846BF
:1003000013F09CFE0246FB681A6400E000BF103741
:10031000BD4680BD80B582B000AF78600B46FB70F3
:10032000FB78012B06D17B685B6B184613F042FC0F
:1003300003461FE0FB78022B06D17B689B6B1846B7
:1003400013F038FC034615E0FB78032B06D17B68DD
:10035000DB6B184613F02EFC03460BE0FB78042BF6
:1003600006D17B681B6C184613F024FC034601E0A1
:100370004FF0000318460837BD4680BD90B5ADB0BC
:1003800002AFF860B9603B601346FB800023C7F8FA
:10039000A4300023C7F8A0300023C7F89C30012305
:1003A000C7F898300023A7F896300BF055FB07F1FB
:1003B0004403184606F092FFFB68B3F1804F06D362
:1003C000FA684FF4A053C4F200039A420DD9FA68B8
:1003D00041F2FF73C4F200039A4217D9FA684FF44E
:1003E0000053C4F200039A4210D8FA6C4FF46053E1
:1003F000C4F20203D3F88C301B0E03F00103013367
:1004000003FB02F35B00C7F8A4300FE03A6D4FF432
:100410006053C4F20203D3F88C301B0E03F00103C7
:10042000013303FB02F35B00C7F8A4303B68002BE9
:100430000DDDD7F8A42048F21F53C5F2EB1383FB60
:1004400002135911D317CA1A3B689A4201DA0123E1
:10045000F4E01FE0D7F8A0300133C7F8A030D7F898
:10046000A420D7F8A03092FBF3F23B6892FBF3F3A1
:10047000C7F89C30D7F89C30B3F5803F02DA0023F0
:10048000C7F89830D7F8A0204FF6FE739A4201DDE6
:100490000123D3E0D7F89830002BDBD1D7F8A42084
:1004A000D7F8A03092FBF3F2D7F89C3092FBF3F32D
:1004B0003B60F8680DF084FEFB8800220092022069
:1004C000B9681A46002300F0CDFED7F89C30013BF6
:1004D000FB63D7F8A0309BB2013B9BB23B87002364
:1004E000A7F8403000237B87002387F8423007F1CC
:1004F0003803F86819460EF0DDFD6023BB84002345
:100500003B860123FB8404233B8508237B864FF431
:100510008073BB864FF40073FB8607F12403F868F1
:1005200019460EF0ABFEF86800210FF097F807F1BE
:100530002403F86819460EF01BFFF86800210FF03D
:10054000A9F807F12403F86819460EF099FFF86836
:1005500000210FF0BDF807F12403F86819460FF0E9
:1005600015F8F86800210FF0CFF8FA680023C4F2FC
:1005700001039A4206D0FA684FF48063C4F2010383
:100580009A4211D107F1140318460FF003F94FF402
:1005900080433B8407F11403F86819460FF0D2F842
:1005A000F86801210FF014F9FA8807F15403104696
:1005B00019460DF073FC0023A7F8963025E0B7F834
:1005C00096305B0007F1A802134433F8543C012B2A
:1005D00016D1B7F8963010335B0007F1A8010B4431
:1005E00033F8523C18460DF0FFFF03461C46F868EE
:1005F0000EF070F80346B86821461A460AF0E8FB88
:10060000B7F896300133A7F89630B7F896300F2B2D
:10061000D5D9FB6800225A63FB6800229A63FB6805
:100620000022DA63FB6800221A64F86801210EF0E8
:10063000E5FDF86801210EF001FE00231846AC37F5
:10064000BD4690BD80B485B000AFF860B9607A60F7
:100650003B60FB68BA681A60FB687A685A60FB689E
:100660003A689A60FB68BA69DA60FB68FA691A61ED
:10067000FB6818461437BD465DF8047B704700BF21
:1006800080B483B000AF7860012318460C37BD46B4
:100690005DF8047B704700BF80B489B000AFF8609C
:1006A000B960FA71BB800023FB76FB68DB78002B16
:1006B00023D100237B610023FB61BB880333DA1C59
:1006C000002BB8BF13469B107B61FB79FA6832336D
:1006D0009B0013449B683B610023FB6109E0BB68FE
:1006E0001A683B691A60FB690133FB61BB6804331C
:1006F000BB60FA697B699A42F1D3FB7E18462437C6
:10070000BD465DF8047B704780B489B000AFF860E7
:10071000B9601346FB800023FB61FB880333DA1CBE
:10072000002BB8BF13469B10BB61FB68D3F8D030D9
:100730007B610023FB6109E07B691A68BB681A6072
:10074000FB690133FB61BB680433BB60FA69BB69B9
:100750009A42F1D3BB6818462437BD465DF8047B46
:10076000704700BF80B586B000AF78603960002365
:10077000FB7400237B610023FB60FB6843F02003D4
:10078000FB603B68DBB203F01F03DAB2FB6862F385
:100790008A13FB607B68DB68FA681A617B68DB6838
:1007A0001B69FB607B6901337B617A694FF4546399
:1007B000C0F203039A4200D905E0FB68C3F340137B
:1007C000DBB2012BEAD003200BF082FEFB7C184643
:1007D0001837BD4680BD00BF80B483B000AF7860DD
:1007E0007B68DB685B6903F0010318460C37BD4684
:1007F0005DF8047B704700BF80B582B000AF7860C1
:100800007868FFF7E9FF0346012B0CBF00230123A3
:10081000DBB218460837BD4680BD00BF80B485B046
:1008200000AF78600023FB607B68DB685B69FB607E
:100830007B68DB689B69FA681340FB60FB681846BD
:100840001437BD465DF8047B704700BF80B485B0A7
:1008500000AF78600023FB737B681B699B68BB60FB
:100860003B7AC3F34103DBB2022B09D0032B04D044
:10087000012B02D00323FB7305E00223FB7302E08C
:100880000123FB7300BFFB7B18461437BD465DF8A0
:10089000047B704780B487B000AF78600023FB759D
:1008A0000023BB607B681B699B683B617B689B691D
:1008B0001B68FB603B7CC3F34103DBB2022B04D01B
:1008C000BB896FF30A03BB8105E0BB89032262F396
:1008D0000A03BB8100BF7B689B69FA681A607B7A58
:1008E00043F001037B727B681B697A681269516867
:1008F000BA68D2431140BA680A435A60FB7D184671
:100900001C37BD465DF8047B704700BF80B487B0DC
:1009100000AF786039600023FB740023FB60002384
:10092000BB603B685B78012B0FD13B681B787A6812
:1009300004339B0013449B687B613B681B78012256
:1009400002FA03F39BB23B810EE03B681B787A68A6
:1009500014339B0013445B687B613B681B78012266
:1009600002FA03F39BB27B817B691B68FB607B7B94
:10097000C3F3C013DBB2002B27D13B689B689BB24B
:10098000C3F30A039AB2BB8962F30A03BB813B68D3
:10099000DB7803F00303DAB2BB7B62F38303BB7340
:1009A0003B68DB88DBB203F00F03DAB2FB8962F34A
:1009B0008913FB81FB7B43F01003FB737B7B43F0CC
:1009C00080037B73FA687B691A607B681B697A68AD
:1009D0001269D169BA680A43DA61FB7C18461C3790
:1009E000BD465DF8047B704780B588B000AF786085
:1009F00039600023FB770023BB6100237B61002368
:100A00003B613B685B78012B40F0AB803B681B7817
:100A10007A6804339B0013449B681B687B613B68C6
:100A20001B787A6804339B0013449B681B693B6105
:100A30003B685B69002B09D13B696FF312033B6193
:100A40007B8A012262F3CC037B8222E03B685B69F4
:100A5000C3F312023B6962F312033B613B685A69BC
:100A60003B689B6813445A1E3B689B68B2FBF3F3D8
:100A70009BB2C3F309039AB27B8A62F3CC037B82F5
:100A80003B68DB78012B04D1FB7C012262F3461327
:100A9000FB743B681B787A6804339B0013449B68A3
:100AA0003A691A617B68DB78012B0AD13B681B78B5
:100AB0007A6804339B0013449B683A6812695A6150
:100AC00015E03B68DB78012B11D03B685B69002B9C
:100AD0000DD03B681B78012202FA03F3BB617B68EF
:100AE0001B697A681269516BBA690A435A633B6899
:100AF000DB78012B14D17B681B699B68FB60FB686A
:100B0000C3F30D239BB203F00103002B04D1FB7D43
:100B100043F02003FB7503E0FB7D43F01003FB75FE
:100B2000FB7D43F00403FB75FB7D43F08003FB7505
:100B30003B681B787A6804339B0013449B687A698E
:100B40001A603B68DB78012B40F088803B68D968ED
:100B50003B681A783B685B699BB27868FFF79CFD3D
:100B60007CE03B681B787A6814339B0013445B6815
:100B70001B687B613B681B787A6814339B001344C5
:100B80005B681B693B613B685B69002B0DD13B686F
:100B90009B68C3F312023B6962F312033B617B8AD9
:100BA000012262F3CC037B821FE03B685A693B68F9
:100BB0009B6813445A1E3B689B68B2FBF3F39BB2DD
:100BC000C3F309039AB27B8A62F3CC037B827B8AEC
:100BD000C3F3C9039BB23A68926802FB03F3C3F301
:100BE00012023B6962F312033B613B681B787A682F
:100BF00014339B0013445B683A691A617B68DB78A5
:100C0000012B09D13B681B787A6814339B0013448D
:100C10005B683A6812695A613B68DB78012B0CD13A
:100C20003B685B79002B04D0FB7D43F02003FB7510
:100C300003E0FB7D43F01003FB75FB7D43F00403F1
:100C4000FB75FB7D43F08003FB753B681B787A687E
:100C500014339B0013445B687A691A60FB7F184663
:100C60002037BD4680BD00BF80B489B000AF78603A
:100C700039600023FB770023BB6100233B61002325
:100C8000BB603B685B78012B6FD17B689B697B61A4
:100C90007B691B683B617B691B69BB603B685B6967
:100CA000002B09D13B7A6FF306033B72BB7A01221A
:100CB00062F3C403BB7223E03B685A693B689B68DC
:100CC0009A420ED93B689A683B685A613B689B68B8
:100CD000DBB203F07F03DAB23B7A62F306033B72C6
:100CE00009E03B685B69DBB203F07F03DAB23B7A71
:100CF00062F306033B72BB7A012262F3C403BB7248
:100D0000BA687B691A617B68DB78012B09D13B6883
:100D10001B787A6804339B0013449B683A68126915
:100D20005A61FB7C43F00403FB74FB7C43F08003BB
:100D3000FB743A697B691A607B68DB78002B75D19C
:100D40003B685B69002B71D03B681B78012202FA7B
:100D500003F3BA691343BB617B681B697A68126944
:100D6000516BBA690A435A6360E03B681B787A6842
:100D700014339B0013445B681B683B613B681B7822
:100D80007A6814339B0013445B681B69BB603B6843
:100D90005B69002B0FD13B689B68DBB203F07F03DC
:100DA000DAB23B7A62F306033B72BB7A012262F34A
:100DB000C403BB7212E03B689A683B685A613B68A7
:100DC0009B68DBB203F07F03DAB23B7A62F306037F
:100DD0003B72BB7A012262F3C403BB723B681B788F
:100DE0007A6814339B0013445B68BA681A617B68A5
:100DF000DB78012B09D13B681B787A6814339B00A0
:100E000013445B683A6812695A61FB7C43F004033F
:100E1000FB74FB7C43F08003FB743B681B787A68AF
:100E200014339B0013445B683A691A60FB7F1846D1
:100E30002437BD465DF8047B704700BF80B487B09F
:100E400000AF786039600023FB750023FB603B68CE
:100E50005B78012B1CD13B681B787A6804339B00BC
:100E600013449B683B613B691B68FB60FB7BC3F3DE
:100E7000C013DBB2002B03D0FB7B43F04003FB73BA
:100E8000BB7B43F02003BB73FA683B691A6011E037
:100E90003B681B787A6814339B0013445B683B61A2
:100EA0003B691B68FB60BB7B43F02003BB73FA68A4
:100EB0003B691A60FB7D18461C37BD465DF8047B14
:100EC000704700BF80B487B000AF786039600023FE
:100ED000FB740023FB603B685B78012B08D13B6807
:100EE0001B787A6804339B0013449B687B6107E09E
:100EF0003B681B787A6814339B0013445B687B6102
:100F00007B691B68FB60BB7B6FF34513BB733B685E
:100F1000DB78032B03D03B68DB78022B03D1FB7B10
:100F200043F01003FB73FA687B691A60FB7C184678
:100F30001C37BD465DF8047B704700BF80B485B0A8
:100F400000AF78607B681B699B69FB607B681B69ED
:100F5000DB69FA681340FB60FB681B0C184614370A
:100F6000BD465DF8047B704780B485B000AF786003
:100F70000B46FB70FB787A6814339B0013445B6864
:100F80009B68FB607B681B695B69FA681340FB60C8
:100F9000FB6818461437BD465DF8047B704700BFF8
:100FA00080B485B000AF78607B681B699B69FB608B
:100FB0007B681B69DB69FA681340FB60FB689BB2C6
:100FC00018461437BD465DF8047B704780B487B07F
:100FD00000AF786000233B61FB7C43F0C003FB74EF
:100FE000BB7C012262F3C403BB743B7C182262F316
:100FF00006033B747B685B6D3A691A617B68DB783A
:10100000012B16D10023FB607B685B6D7A6802F5CB
:10101000B9625A617B685B6D1B68FB60FB7B43F0C8
:101020008003FB734FF08023FB607B685B6DFA6885
:101030001A601C37BD465DF8047B704780B485B0EC
:1010400000AF78607B689B7A002B1BD07B681B69A4
:101050009B68FB603B7BC3F30003DBB2012B11D128
:101060007B6803F586731B68BB603B7A6FF34103B3
:101070003B723B7A6FF300033B727B68D3F80C3111
:10108000BA681A601437BD465DF8047B704700BF2C
:1010900080B582B000AF786039607B683A681A60CA
:1010A0007B6800225A607B6800229A607B6800227D
:1010B000DA607B6800221A617B6800225A617B68D3
:1010C00000229A617B680022DA617B6800221A6242
:1010D0007B6800225A627B68002283F82C2001F092
:1010E0005FFF02460B467B689A627B6818460837AA
:1010F000BD4680BD80B584B000AFF8600B467A6015
:10110000FB72FB68FA7A83F82C20FB687A685A62D3
:10111000FB6893F82C30002B02D0FB6801229A6107
:10112000FB681B681B6828331B68FA681268104646
:101130009847034618461037BD4680BD80B582B03B
:1011400000AF786001F02CFF7B689B6A1A464FF075
:101150000003821A61EB0303052A73F10001B4BF97
:1011600000230123DBB2002B79D001F019FF0246E6
:101170000B467B689A627B681B681B6830331B6870
:101180007A6812681046984702467B685A607B6806
:101190005A687B689B699A4205D07B68DB695A1D57
:1011A0007B68DA6102E07B680022DA617B68DA69D9
:1011B0007B685B6A9A4215DB7B680022DA617B6898
:1011C0009B69002B14BF00230123DBB21A467B6806
:1011D0009A617B689B69002B04D07B68DB685A1C92
:1011E0007B68DA607B689A697B689A607B6893F8B1
:1011F0002C30002B0BD07B689B6803F00103002B85
:1012000014BF00230123DBB21A467B689A607B6817
:101210009B68012B0AD17B681B6A002B06D17B6877
:1012200001221A617B6800225A6114E07B689B6886
:10123000002B0AD17B681B6A012B06D17B68002238
:101240001A617B6801225A6105E07B6800221A61FD
:101250007B6800225A617B689A687B681A6208374B
:10126000BD4680BD80B584B000AF39600146F971DC
:10127000BA80BB713A680023C4F202039A4204D1D7
:101280000120012106F0FEF82EE03A684FF4806359
:10129000C4F202039A4204D10220012106F0F2F8BE
:1012A00022E03A684FF40063C4F202039A4204D188
:1012B0000420012106F0E6F816E03A684FF4406396
:1012C000C4F202039A4204D10820012106F0DAF8A0
:1012D0000AE03A684FF48053C4F202039A4203D101
:1012E0001020012106F0CEF807F10803184609F096
:1012F00005FDBB88BB60FB793B733B7EBB73BB7951
:10130000FB7303237B7307F108033868194609F060
:1013100067FCFB79012B04D1BB883868194609F0BA
:1013200049FD1037BD4680BD80B483B000AF786002
:101330000B46FB70FB78002B0CD04FF43053C4F2FB
:1013400001034FF43052C4F20102D16B7A680A43B0
:10135000DA630CE04FF43053C4F201034FF430521F
:10136000C4F20102D16B7A68D2430A40DA630C37C7
:10137000BD465DF8047B704780B485B000AF7860EF
:101380000023FB734FF43053C4F201035A6B7B68A4
:101390001340002B02D00123FB7301E00023FB73F9
:1013A000FB7B18461437BD465DF8047B704700BFD1
:1013B00080B483B000AF78604FF43053C4F20103BF
:1013C0007A689A630C37BD465DF8047B704700BFAE
:1013D00080B483B000AF786039607B683A685A6047
:1013E000002318460C37BD465DF8047B704700BFEC
:1013F00080B483B000AF786039600C37BD465DF8CB
:10140000047B704780B582B000AF78607B68064A85
:101410001A607B680433184600F008F87B681846A9
:101420000837BD4680BD00BFC861020880B483B0E4
:1014300000AF78607B680022C3F804217B6800223B
:10144000C3F808217B6818460C37BD465DF8047B5D
:10145000704700BF0000000080B584B000AF786026
:101460007B68D3F814217B68D3F82831D31A184647
:1014700011F052FF02460B461046194654A3D3E919
:10148000002311F0AFFF02460B461046194652A347
:10149000D3E9002312F0D0F802460B461046194655
:1014A00012F082FA0346FB60F86811F047FF02462B
:1014B0000B461046194646A3D3E9002312F022FA40
:1014C0000346002B14D0F86811F038FF02460B4693
:1014D0001046194642A3D3E9002311F0CFFD02467E
:1014E0000B461046194612F05FFA0346FB6022E0F5
:1014F000F86811F023FF02460B46104619463AA33E
:10150000D3E9002312F0E0F90346002B13D0F8686A
:1015100011F014FF02460B461046194630A3D3E9DA
:10152000002311F0ADFD02460B461046194612F09D
:101530003BFA0346FB60F8684FF0000112F04EFDE5
:101540000346002B18D040F21463C2F200031B685C
:1015500018464FF0000112F023FD0346002B0BD07C
:101560007B68D3F81831002B06DA7B68D3F8443156
:101570005A1E7B68C3F84421F8684FF0000112F04E
:101580000FFD0346002B18D040F21463C2F2000393
:101590001B6818464FF0000112F020FD0346002B97
:1015A0000BD07B68D3F81831002B06DD7B68D3F8AD
:1015B00044315A1C7B68C3F8442140F21463C2F2E0
:1015C0000003FA681A60FB6818461037BD4680BDF4
:1015D000182D4454FB210940000000000094D14024
:1015E000182D4454FB211940182D4454FB2109C0E7
:1015F00080B48BB000AF78600B46FB707B68D3F88B
:101600003C317A681344FA7883F82C217B6893F88C
:101610002C31AA2B03D17B680122C3F840217B68BF
:10162000D3F84031012B40F003817B68D3F83C3183
:101630005A1C7B68C3F83C217B68D3F83C310E2BE5
:1016400040F3F6807B680022C3F83C217B680022CF
:10165000C3F840217B6893F82E311A467B6893F8D3
:101660002F311A447B6893F830311A447B6893F821
:1016700031311A447B6893F832311A447B6893F80D
:1016800033311A447B6893F834311A447B6893F8F9
:1016900035311A447B6893F836311A447B6893F8E5
:1016A00037311A447B6893F838311A447B6893F8D1
:1016B000393113447B617B69DAB27B6893F83A3144
:1016C0009A4240F096807B6893F82F311A467B68E7
:1016D00093F830311B029BB213433B613B69B3F576
:1016E000004F05DA3B695A427B68C3F8142105E0D4
:1016F0003B69C3F580327B68C3F814217B6893F89B
:1017000031311A467B6893F832311B029BB2134386
:10171000FB60FB68B3F5004F05DAFB685A427B6853
:10172000C3F8182105E0FB68C3F580327B68C3F875
:1017300018217B6893F833311A467B6893F834316B
:101740001B029BB213437B627B6A03F40043002BB2
:101750000BD07B6A83F47F4383F0FF037B627B6A59
:1017600001337B627B6A5B427B627B687A6AC3F887
:101770001C217B6893F835311A467B6893F8363123
:101780001B029BB213433B623B6A03F40043002BF2
:101790000BD03B6A83F47F4383F0FF033B623B6AD9
:1017A00001333B623B6A5B423B627B683A6AC3F847
:1017B00020217B6893F837311A467B6893F83831DB
:1017C0001B029BB21343FB61FB6903F40043002B34
:1017D0000BD0FB6983F47F4383F0FF03FB61FB695C
:1017E0000133FB61FB695B42FB617B68FA69C3F80B
:1017F00024217B68D3F84831002B09D07B68D3F8CB
:1018000014217B68C3F828217B680022C3F8482193
:101810000023BB6109E07A68BB69134403F5947344
:1018200000221A71BB690133BB61BB690E2BF2DD6B
:101830002C37BD465DF8047B704700BF80B582B091
:1018400000AF786078684FF0000112F0A9FB034602
:10185000002B04D040F6DB73C4F2490301E04FF0E3
:10186000000318460837BD4680BD00BF90B587B05D
:1018700000AF786039603B681A683B680C335B687E
:101880001046194612F0EEF903461C463B685A68AA
:101890003B680C331B681046194612F0E3F9034607
:1018A0002046194612F0D4F803467B613B689A68DB
:1018B0003B680C335B681046194612F0D3F90346B7
:1018C0001C463B685A683B680C339B6810461946B7
:1018D00012F0C8F903462046194612F0B9F803463B
:1018E000FB60FB681846796912F070FA0346FB60EA
:1018F0003B681A683B680C339B681046194612F027
:10190000B1F903461C463B689A683B680C331B6878
:101910001046194612F0A6F903462046194612F061
:1019200097F803463B613B691846796912F04EFA15
:1019300003463B617B6807F10C0292E8030083E8F1
:10194000030078681C37BD4690BD00BFB0B586B0B7
:1019500000AFF860B9607A603B604FF000037B61D4
:10196000F868796812F074F8034618464FF00001E1
:1019700012F00CFB0346002B0CD0B868396812F04B
:1019800067F8034618464FF0000112F0FFFA0346CD
:10199000002B26D1B868396812F05AF80346184669
:1019A00011F0CCFC04460D46F868796812F050F846
:1019B0000346184611F0C2FC02460B462046294653
:1019C0000EF0EAF902460B461046194611F0ECFFFC
:1019D00003467B6140F25863C2F200037A691A60E1
:1019E00005E040F25863C2F200031B687B617B692B
:1019F00018461837BD46B0BD90B585B000AFF86049
:101A0000B9607A603B60F868796812F021F80346A3
:101A100018464FF080410EF05DFB0446B868396807
:101A200012F016F8034618464FF080410EF052FBB4
:101A300003462046194612F00DF8034618460EF0EC
:101A4000E9FC034618461437BD4690BD80B500AF8B
:101A50000023C4F201031B889BB21B099BB2002B1D
:101A60000BD040F25C63C2F200031B685A1E40F2C6
:101A70005C63C2F200031A6013E00023C4F20103A6
:101A80001B889BB21B099BB2002B0AD140F25C63FE
:101A9000C2F200031B685A1C40F25C63C2F20003EE
:101AA0001A600020C4F2010001210DF0DBFE80BDB0
:101AB00080B500AF4FF080431B889BB21B099BB2DF
:101AC000002B0BD040F26063C2F200031B685A1E69
:101AD00040F26063C2F200031A6012E04FF08043EC
:101AE0001B889BB21B099BB2002B0AD140F260639A
:101AF000C2F200031B685A1C40F26063C2F200038A
:101B00001A604FF0804001210DF0ACFE80BD00BF97
:101B100080B500AF4FF48063C4F200031B889BB212
:101B20001B099BB2002B0BD040F26463C2F200038E
:101B30001B685A1E40F26463C2F200031A6014E08C
:101B40004FF48063C4F200031B889BB21B099BB255
:101B5000002B0AD140F26463C2F200031B685A1CD6
:101B600040F26463C2F200031A604FF48060C4F272
:101B7000000001210DF076FE80BD00BF80B500AFF2
:101B80004FF40063C4F200031B889BB21B099BB295
:101B9000002B0BD040F26863C2F200031B685A1E90
:101BA00040F26863C2F200031A6014E04FF400636D
:101BB000C4F200031B889BB21B099BB2002B0AD105
:101BC00040F26863C2F200031B685A1C40F268636B
:101BD000C2F200031A604FF40060C4F20000012159
:101BE0000DF040FE80BD00BF80B500AF4FF44063F4
:101BF000C4F200031B889BB21B099BB2002B0BD0C5
:101C000040F26C63C2F200031B685A1E40F26C6320
:101C1000C2F200031A6014E04FF44063C4F2000300
:101C20001B889BB21B099BB2002B0AD140F26C634C
:101C3000C2F200031B685A1C40F26C63C2F200033C
:101C40001A604FF44060C4F2000001210DF00AFE5A
:101C500080BD00BF80B500AF4FF48063C4F20103C4
:101C60001B889BB21B099BB2002B0BD040F2706308
:101C7000C2F200031B685A1E40F27063C2F20003F6
:101C80001A6014E04FF48063C4F201031B889BB216
:101C90001B099BB2002B0AD140F27063C2F2000311
:101CA0001B685A1C40F27063C2F200031A604FF4C2
:101CB0008060C4F2010001210DF0D4FD80BD00BFA1
:101CC00080B500AF4FF4C053C4F200031B889BB231
:101CD0001B099BB2002B0BD040F27463C2F20003CD
:101CE0001B685A1E40F27463C2F200031A6014E0CB
:101CF0004FF4C053C4F200031B889BB21B099BB274
:101D0000002B0AD140F27463C2F200031B685A1C14
:101D100040F27463C2F200031A604FF4C050C4F280
:101D2000000001210DF09EFD80BD00BF80B500AF19
:101D30000020C4F201000DF055FA024640F25C6347
:101D4000C2F200031B681B041344184680BD00BF89
:101D500080B500AF4FF080400DF044FA024640F2EB
:101D60006063C2F200031B681B041344184680BD65
:101D700080B500AF4FF48060C4F200000DF032FA7D
:101D8000024640F26463C2F200031B681B04134462
:101D9000184680BD80B500AF4FF40060C4F200006B
:101DA0000DF020FA024640F26863C2F200031B689D
:101DB0001B041344184680BD80B500AF4FF440604B
:101DC000C4F200000DF00EFA024640F26C63C2F25B
:101DD00000031B681B041344184680BD80B500AF88
:101DE0004FF48060C4F201000DF0FCF9024640F2AD
:101DF0007063C2F200031B681B041344184680BDC5
:101E000080B500AF4FF4C050C4F200000DF0EAF905
:101E1000024640F27463C2F200031B681B041344C1
:101E2000184680BD90B59DB002AFF860B96013460A
:101E3000FB800023A7F866300023A7F86430F86819
:101E40000CF0BEF9FB88002200920220B9681A4605
:101E50000123FFF707FAFA8807F120031046194615
:101E60000CF01CF80023A7F8663025E0B7F86630C0
:101E70005B0007F168010B4433F8483C012B16D195
:101E8000B7F8663010335B0007F16802134433F88B
:101E9000463C18460CF0A8FB03461C46F8680CF0BC
:101EA00019FC0346B86821461A4608F091FFB7F8B6
:101EB00066300133A7F86630B7F866300F2BD5D9F6
:101EC00040F24403C2F200031A684DF62913C6F229
:101ED0004263A3FB02135B0E9BB2013BA7F8643085
:101EE0004FF6FE73BB610023BB820023BB8300233C
:101EF000FB8207F11403F86819460DF0DBF8B7F818
:101F00006430F868194601220DF04AF9F868032197
:101F1000002200230DF0B6FCF868012101220DF02B
:101F20007DFCF86801210DF089F9F8680CF0FAF8E9
:101F3000034618460CF042FB00F056F86C37BD46DD
:101F400090BD00BF80B582B000AF78607A68002392
:101F5000C4F201039A4203D1FFF7E8FE03463FE0D3
:101F60007B68B3F1804F03D1FFF7F2FE034637E001
:101F70007A684FF48063C4F200039A4203D1FFF7FA
:101F8000F7FE03462CE07A684FF40063C4F20003C6
:101F90009A4203D1FFF7FEFE034621E07A684FF430
:101FA0004063C4F200039A4203D1FFF705FF0346E2
:101FB00016E07A684FF48063C4F201039A4203D1B9
:101FC000FFF70CFF03460BE07A684FF4C053C4F2EE
:101FD00000039A4203D1FFF713FF034600E00023FA
:101FE00018460837BD4680BD80B500AF40F25C633F
:101FF000C2F2000300221A6040F26063C2F20003E2
:1020000000221A6040F26463C2F2000300221A60E8
:1020100040F26863C2F2000300221A6040F26C636F
:10202000C2F2000300221A6040F27063C2F20003A1
:1020300000221A6040F27463C2F2000300221A60A8
:102040000020C4F2010000210DF0BEF84FF08040E6
:1020500000210DF0B9F84FF48060C4F200000021B7
:102060000DF0B2F84FF40060C4F2000000210DF052
:10207000ABF84FF44060C4F2000000210DF0A4F86A
:102080004FF48060C4F2010000210DF09DF84FF480
:10209000C050C4F2000000210DF096F880BD00BFD2
:1020A00080B500AF45F2EC00C2F200000AF0A6FED7
:1020B00080BD00BF80B500AF45F2EC03C2F2000363
:1020C0009B7A002B13D04EF61053CEF200034EF63F
:1020D0001052CEF20002126822F006021A6009F0D5
:1020E00073FC45F2EC00C2F20000FEF7A7FF4FF4CC
:1020F00080200BF0C3FE80BD80B58AB000AF786051
:10210000396000237B6200233B620023FB610023D4
:10211000BB617B681B8A9BB27B627B6A23F4405362
:102120007B623B68DB887A6A13437B627B6A9AB284
:102130007B681A827B689B899BB27B627B6A23F4F3
:10214000B05323F00C037B623B689A883B681B8981
:1021500013439AB23B685B8913439BB27A6A134379
:102160007B627B6A9AB27B689A817B689B8A9BB20E
:102170007B627B6A23F440737B623B689B897A6A4B
:1021800013437B627B6A9AB27B689A8207F10803E9
:10219000184605F0A3F87A684FF48053C4F201039F
:1021A0009A4206D07A684FF4A053C4F201039A42CF
:1021B00002D17B693B6201E03B693B627B689B89A2
:1021C0009BB29BB21BB2002B0CDA3A6A13469B00FF
:1021D00013449A001A443B681B685B00B2FBF3F39C
:1021E000FB610BE03A6A13469B0013449A001A44C1
:1021F0003B681B689B00B2FBF3F3FB61FA6948F292
:102200001F53C5F2EB13A3FB02135B091B017B6297
:102210007B6A1B09642202FB03F3FA69D31ABB61D0
:102220007B689B899BB29BB21BB2002B10DABB6907
:10223000DB0003F1320248F21F53C5F2EB13A3FB9C
:1022400002135B0903F007037A6A13437B620FE012
:10225000BB691B0103F1320248F21F53C5F2EB13B5
:10226000A3FB02135B0903F00F037A6A13437B623B
:102270007B6A9AB27B681A812837BD4680BD00BF51
:1022800080B483B000AF78600B46FB70FB78002B06
:1022900008D07B689B899BB243F400539AB27B6859
:1022A0009A8107E07B689B899BB223F400539AB222
:1022B0007B689A810C37BD465DF8047B704700BF90
:1022C00080B483B000AF78600B467B807B88C3F31B
:1022D00008039AB27B689A800C37BD465DF8047B90
:1022E000704700BF80B483B000AF78607B689B8884
:1022F0009BB2C3F308039BB218460C37BD465DF88A
:10230000047B704780B487B000AF786013460A46FC
:102310007A807B7000233B610023FB600023BB605D
:1023200000237B617B687B617B88DBB25B09DBB26E
:102330003B617B8803F01F03FB60FB68012202FA0C
:1023400003F3BB603B69012B03D17B690C337B61D9
:1023500009E03B69022B03D17B6910337B6102E00A
:102360007B6914337B617B78002B06D07B697A69AB
:102370001168BA680A431A6006E07B697A691168D5
:10238000BA68D2430A401A601C37BD465DF8047B28
:10239000704700BF80B485B000AF78600B467B808B
:1023A0000023FB737B681B889AB27B8813409BB227
:1023B000002B02D00123FB7301E00023FB73FB7BA6
:1023C00018461437BD465DF8047B704700000000D6
:1023D00080B582B000AF7860786810F0AFFF024639
:1023E0000B46104619460EA3D3E9002310F0FAFF5E
:1023F00002460B46104619464FF000024FF40043C8
:10240000C4F2760311F018F902460B46104619463D
:1024100011F0CAFA034618460837BD4680BD00BF12
:10242000182D4454FB21194080B582B000AF78606C
:1024300078684FF00001C4F2B43111F013FC034688
:10244000184610F07BFF02460B461046194608A3BB
:10245000D3E9002311F0F0F802460B461046194666
:1024600011F0A2FA034618460837BD4680BD00BFEA
:10247000182D4454FB21194080B584B000AFF8609A
:10248000B9607A60F868B96811F09EFD0346002BC8
:1024900001D0FB6809E07868B96811F08BFD03464C
:1024A000002B01D07B6800E0BB6818461037BD46A2
:1024B00080BD00BF80B586B000AFF860B9607A60BB
:1024C00000237B6164233B61B868796811F07CFD6F
:1024D0000346002B02D04FF0000338E000237B615D
:1024E0000DE07868B96811F0B3FA0346F868194648
:1024F00011F0B0FA0346FB607B6901337B61F86839
:10250000B96811F04DFD0346002B03D07A693B6991
:102510009A42E6DB00237B610DE07868B96811F030
:1025200097FA0346F868194611F092FA0346FB60E1
:102530007B6901337B617868F96811F031FD0346EE
:10254000002B03D07A693B699A42E6DBFB681846A8
:102550001837BD4680BD00BF80B582B000AF78603F
:102560007A684FF4C843C4F200039A420AD14FF08C
:102570000070012104F0FEFF4FF00070002104F014
:10258000F9FF09E04FF08060012104F0F3FF4FF004
:102590008060002104F0EEFF0837BD4680BD00BF1B
:1025A00080B485B000AF786039600023FB730023EE
:1025B000BB607B681B6823F002027B681A607B6843
:1025C0001B6843F001027B681A6002E0BB680133BC
:1025D000BB607B685B6803F00103002B04D1BA6821
:1025E0004FF6FF739A42F1D17B685B6803F00103F9
:1025F000002B02D10023FB739CE03B689B79012BED
:1026000006D17B681B6843F080027B681A6005E096
:102610007B681B6823F080027B681A603B68DB796B
:10262000012B06D17B681B6843F040027B681A606F
:1026300005E07B681B6823F040027B681A603B68FA
:102640001B7A012B06D17B681B6843F020027B6854
:102650001A6005E07B681B6823F020027B681A6023
:102660003B685B7A012B06D17B681B6843F0100244
:102670007B681A6005E07B681B6823F010027B68AA
:102680001A603B689B7A012B06D17B681B6843F07C
:1026900008027B681A6005E07B681B6823F008026B
:1026A0007B681A603B68DB7A012B06D17B681B686C
:1026B00043F004027B681A6005E07B681B6823F026
:1026C00004027B681A603B689B789A073B68DB785A
:1026D0001B061A433B681B791B041A433B685B7952
:1026E0001B051A433B681B88013B1A437B68DA6170
:1026F0007B681B6823F001027B681A600023BB60C3
:1027000002E0BB680133BB607B685B6803F00103D8
:10271000002B04D0BA684FF6FF739A42F1D17B6860
:102720005B6803F00103002B02D00023FB7301E080
:102730000123FB73FB7B18461437BD465DF8047B11
:10274000704700BF80B485B000AF78600023FB60A5
:102750007B689B7A012202FA03F3FB604FF4C843C3
:10276000C4F200034FF4C842C4F20002D2F80022BF
:1027700042F00102C3F800224FF4C843C4F2000340
:102780004FF4C842C4F20002D2F81C12FA68D243D5
:102790000A40C3F81C227B681B7B002B2DD14FF411
:1027A000C843C4F200034FF4C842C4F20002D2F896
:1027B0000C12FA68D2430A40C3F80C224FF4C84303
:1027C000C4F200037A68927A7968C9880804796843
:1027D00049880143483243F832104FF4C842C4F2EA
:1027E00000027B689B7A796889880804796809887F
:1027F00001434833DB00134459607B681B7B012B8A
:102800002CD14FF4C843C4F200034FF4C842C4F2C1
:102810000002D2F80C12FA680A43C3F80C224FF4F3
:10282000C843C4F200037A68927A79680988080478
:10283000796849880143483243F832104FF4C8425E
:10284000C4F200027B689B7A7968898808047968F9
:10285000C98801434833DB00134459607B68DB7A45
:10286000002B0FD14FF4C843C4F200034FF4C84209
:10287000C4F20002D2F80412FA68D2430A40C3F844
:1028800004220DE04FF4C843C4F200034FF4C842E1
:10289000C4F20002D2F80412FA680A43C3F8042210
:1028A0007B681B89002B0ED14FF4C843C4F2000390
:1028B0004FF4C842C4F20002D2F81412FA68D243AC
:1028C0000A40C3F814227B681B89012B0DD14FF4F9
:1028D000C843C4F200034FF4C842C4F20002D2F865
:1028E0001412FA680A43C3F814227B685B7B012B3D
:1028F0000DD14FF4C843C4F200034FF4C842C4F2F0
:102900000002D2F81C12FA680A43C3F81C224FF4E2
:10291000C843C4F200034FF4C842C4F20002D2F824
:10292000002222F00102C3F800221437BD465DF8F0
:10293000047B704780B483B000AF78607B6800226E
:102940009A717B680022DA717B6800221A727B68B8
:1029500000225A727B6800229A727B680022DA7227
:102960007B6800229A707B680022DA707B68032201
:102970001A717B6802225A717B6801221A800C3717
:10298000BD465DF8047B704780B485B000AF7860C9
:1029900039600023FB737B689B6803F08063002B26
:1029A00002D00023FB7313E07B689B6803F0006395
:1029B000002B02D00123FB730AE07B689B6803F0C5
:1029C0008053002B02D00223FB7301E00423FB732E
:1029D000FB7B042B00F09880FB7BFA7B7968183234
:1029E00012010A44126802F00102796818331B01CF
:1029F0000B441A603B681B7A002B13D1FB7BFA7BDC
:102A00007968183212010A4411683A681268500550
:102A10003A68527A02430A43796818331B010B441F
:102A20001A6015E0FB7BFA7B7968183212010A44C0
:102A300011683A685268D0003A68127A10433A68CE
:102A4000527A02430A43796818331B010B441A6017
:102A50003B689B7A03F00F03DAB23B689A72FB7B08
:102A6000FA7B7968183212010A44526822F00F0288
:102A7000796818331B010B445A60FB7BFA7B796839
:102A8000183212010A4451683A68927A0A43796806
:102A900018331B010B445A60FB7B3A68927B11068A
:102AA0003A68527B120411433A68127B12021143B6
:102AB0003A68D27A0A4379681B010B4403F5C47360
:102AC0001A60FB7B3A68927C11063A68527C1204C9
:102AD00011433A68127C120211433A68D27B0A43CE
:102AE00079681B010B4403F5C4735A60FB7BFA7BC6
:102AF0007968183212010A44126842F001027968BA
:102B000018331B010B441A60FB7B18461437BD4673
:102B10005DF8047B704700BF80B485B000AF78607B
:102B20000B46FB700023FB60FB78012B0BD0022BC4
:102B300012D0002B18D17B689A680323C0F200439F
:102B40001340FB6013E07B689A684FF44073C0F653
:102B500000031340FB600AE07B689A680023C1F21F
:102B600003031340FB6002E00023FB6000BFFB682F
:102B70004FF48072C0F60002934229D04FF4807265
:102B8000C0F6000293420CD80122C0F200429342E8
:102B90001BD00322C0F2004293421FD0002B11D061
:102BA00025E00022C1F20102934214D00022C1F2BA
:102BB0000302934218D04FF44072C0F600029342D1
:102BC0000FD014E00223FB6014E00023FB6011E04F
:102BD0000023FB600EE00023FB600BE00123FB60A1
:102BE00008E00123FB6005E00123FB6002E0002315
:102BF000FB6000BFFB68DBB218461437BD465DF8CA
:102C0000047B704780B485B000AFF8600B467A60F3
:102C1000FB72FB7AFA681B331B0113441B68DBB29F
:102C200003F00403DAB27B681A727B681B7A002B0C
:102C300009D1FB7AFA681B331B0113441B685A0D38
:102C40007B681A6008E0FB7AFA681B331B011344A7
:102C50001B68DA087B685A60FB7AFA681B331B0131
:102C600013441B68DBB203F00203DAB27B685A72CA
:102C7000FB7AFA681B331B0113445B68DBB203F079
:102C80000F03DAB27B689A72FB7AFA681B331B0176
:102C900013445B681B0ADAB27B68DA74FB7AFA6861
:102CA0001B01134403F5DC731B68DAB27B68DA722C
:102CB000FB7AFA681B01134403F5DC731B681B0ADB
:102CC000DAB27B681A73FB7AFA681B01134403F5C6
:102CD000DC731B681B0CDAB27B685A73FB7AFA68E8
:102CE0001B01134403F5DC731B681B0EDAB27B680F
:102CF0009A73FB7AFA681B01134403F5DC735B6873
:102D0000DAB27B68DA73FB7AFA681B01134403F5C5
:102D1000DC735B681B0ADAB27B681A74FB7AFA68A8
:102D20001B01134403F5DC735B681B0CDAB27B6890
:102D30005A74FB7AFA681B01134403F5DC735B6871
:102D40001B0EDAB27B689A74FB7A002B06D1FB6803
:102D5000DB6843F02002FB68DA6005E0FB681B6972
:102D600043F02002FB681A611437BD465DF8047B0E
:102D7000704700BF80B485B000AFF860B9601346FB
:102D8000FB71FB79002B06D0FB685A69BB681A43BC
:102D9000FB685A6106E0FB685A69BB68DB431A406E
:102DA000FB685A611437BD465DF8047B704700BF6D
:102DB00080B584B000AF786039600023FB737B6816
:102DC0005A693B681340002B00F0B5803B68402BEC
:102DD00065D0402B0FD8042B3DD0042B04D8012BF9
:102DE00024D0022B2ED0A2E0102B46D0202B4DD089
:102DF000082B39D09BE0B3F5006F00F08680B3F567
:102E0000006F09D8B3F5007F6DD0B3F5806F73D034
:102E1000B3F5807F5ED08AE0B3F5803F48D0B3F54C
:102E2000003F4ED0B3F5004F78D080E07B689B68C0
:102E3000184640F20111C0F2010100F083F8034688
:102E4000FB7377E07B68DB681846032100F07AF8B3
:102E50000346FB736EE07B68DB681846082100F0D0
:102E600071F80346FB7365E07B68DB681846102148
:102E700000F068F80346FB735CE07B681B6918464A
:102E8000032100F05FF80346FB7353E07B681B6986
:102E90001846082100F056F80346FB734AE07B68A9
:102EA0001B691846102100F04DF80346FB7341E002
:102EB0007B685B681846082100F044F80346FB7302
:102EC00038E07B685B681846102100F03BF8034649
:102ED000FB732FE07B689B691846012100F032F8F4
:102EE0000346FB7326E07B689B691846022100F0CD
:102EF00029F80346FB731DE07B689B691846042193
:102F000000F020F80346FB7314E07B689B691846C9
:102F1000702100F017F80346FB730BE07B685B68D9
:102F20001846042100F00EF80346FB7302E000236C
:102F3000FB7300BF01E00023FB73FB7B18461037D7
:102F4000BD4680BD80B485B000AF78603960002395
:102F5000FB737A683B681340002B02D00123FB739C
:102F600001E00023FB73FB7B18461437BD465DF878
:102F7000047B704780B400AF40F27863C2F2000374
:102F8000D3E90023501C43F1000140F27863C2F200
:102F90000003C3E90001BD465DF8047B704700BF34
:102FA00080B500AF00F010F802460B4610461946F7
:102FB0004FF47A724FF0000311F060F802460B46AE
:102FC0001046194680BD00BF80B400AF40F2786360
:102FD000C2F20003D3E900230A2101FB03F0002120
:102FE00001FB02F101440A20A2FB002319440B4615
:102FF00010461946BD465DF8047B704780B500AFAA
:103000004CF2AC50C3F2277007F09EFB80BD00BFAE
:1030100080B584B000AFC7E900010023FB60FFF773
:10302000BFFF02460B461346FB6000BFFFF7B8FF29
:10303000FB681A464FEAE273821A61EB0303D7E991
:103040000001904271EB030CF0DA1037BD4680BDF1
:1030500080B58AB002AFF8607A600A46FA723B81A6
:1030600007F114031846FFF765FCFB68012B0BD131
:103070004FF4C840C4F20000FFF76EFA4FF0007042
:10308000012104F027FA0DE0FB68022B0AD14FF46E
:10309000D040C4F20000FFF75FFA4FF080600121DA
:1030A00004F018FA3B8900220092022079681A463F
:1030B0000123FEF7D7F8BB8D002200920220B96AE7
:1030C0001A460123FEF7CEF8FB68012B14D13B8989
:1030D00018460BF089FA034678681946092207F06A
:1030E00077FEBB8D18460BF07FFA0346B86A194687
:1030F000092207F06DFE16E0FB68022B13D13B8915
:1031000018460BF071FA034678681946092207F051
:103110005FFEBB8D18460BF067FA0346B86A194686
:10312000092207F055FE0123BB760023FB7600231E
:103130003B7700237B770023BB770023FB77FB7A69
:10314000BB750023FB7505233B7606237B760323A3
:10315000BB82FB68012B09D107F114034FF4C8406F
:10316000C4F200001946FFF71BFA0BE0FB68022BC4
:1031700008D107F114034FF4D040C4F200001946FF
:10318000FFF70EFA4FF4E0600BF006FBFB68012B33
:103190000BD114200BF012FA4FF4C840C4F2000017
:1031A00002210122FFF7E6FD0DE0FB68022B0AD1A8
:1031B00040200BF003FA4FF4D040C4F2000002218B
:1031C0000122FFF7D7FD2037BD4680BD80B586B010
:1031D00000AF7860F9703A80BB700023FB82002357
:1031E000FB820EE0FB8ADBB2BB7400233B82002330
:1031F0007B7507F108031846FFF7A4FAFB8A013331
:10320000FB82B7F916300D2BECDD7B68DBB2BB74AB
:1032100000233B8201237B75FB78002B02D1002326
:10322000FB7404E0FB78012B01D10123FB74002324
:103230003B75B7F900305B019AB2BB781B019BB2BA
:1032400013439BB29BB27B81B7F920305B019AB2EA
:1032500097F824301B019BB213439BB29BB2FB81B6
:10326000B7F928305B019AB297F82C301B019BB25A
:1032700013439BB29BB23B81B7F930305B019AB2EA
:1032800097F834301B019BB213439BB29BB2BB81B6
:1032900007F108031846FFF755FA1837BD4680BDF9
:1032A00080B582B000AF78604FF4C840C4F200002F
:1032B0007968FFF769FB00BF4FF4C840C4F2000013
:1032C0000021FFF729FC0346012BF5D10837BD4645
:1032D00080BD00BF80B582B000AF49F2E823C0F6E0
:1032E00002037B6040F20003C2F200033B6007E090
:1032F0003B681A1D3A607A68111D796012681A607D
:103300003A6840F2F853C2F200039A42F0D30848F8
:1033100008494FF000028842B8BF40F8042BFADB9E
:1033200004F078F900F070FC0837BD4680BD00005D
:10333000F8050020E056002080B400AFFEE700BF93
:1033400080B584B000AF786007F10803786819464B
:1033500009F0EAFC3B7A03F01F03012B0AD0022B91
:103360000FD0002B14D107F108037868194609F033
:10337000D5F816E007F108037868194609F01EF938
:103380000FE007F108037868194609F04BF908E0E7
:103390003B7A23F07F03DBB2786819460BF040FBE1
:1033A00000BF002318461037BD4680BD80B584B0ED
:1033B00000AF78600B46FB70FB78002B45D17B6833
:1033C00003F55C73FB607B6893F81131032B4FD1DD
:1033D000FB68DA69FB689B689A4221D9FB68DA6965
:1033E000FB689B68D21AFB68DA617B68DB78012B8B
:1033F00006D1FB68DA68FB689B681A44FB68DA60F0
:10340000FB68DA68FB689968FB68DB69994238BF3A
:103410000B469BB2786811461A460BF097FD27E0E1
:103420007B68D3F8E0351B69002B0AD07B6893F8E2
:103430001231032B05D17B68D3F8E0351B6978681E
:10344000984778680BF096FD12E07B68D3F8E0357A
:103450009B69002B0CD07B6893F81231032B07D1AA
:103460007B68D3F8E0359B69FA787868114698470D
:10347000002318461037BD4680BD00BF80B584B01C
:1034800000AF78600B46FB70FB78002B60D17B6847
:1034900003F58C73FB607B6893F81131022B6AD1C2
:1034A000FB68DA69FB689B689A421CD9FB68DA6999
:1034B000FB689B68D21AFB68DA617B68DB78012BBA
:1034C00006D1FB68DA68FB689B681A44FB68DA601F
:1034D000FB68DA68FB68DB699BB2786811461A46BC
:1034E0000BF020FD47E0FB681B6AFA689268B3FBAB
:1034F000F2F102FB01F29B1A002B14D1FB681A6A4D
:10350000FB689B689A420ED3FB681A6AFB685B6A89
:103510009A4208D27868002100220BF003FDFB6874
:1035200000225A6227E07B68D3F8E035DB68002B85
:103530000AD07B6893F81231032B05D17B68D3F84E
:10354000E035DB687868984778680BF02BFD12E06F
:103550007B68D3F8E0355B69002B0CD07B6893F86F
:103560001231032B07D17B68D3F8E0355B69FA7819
:10357000786811469847002318461037BD4680BD2D
:1035800080B582B000AF78607868002140220023C7
:103590000BF07CF978688021402200230BF076F94B
:1035A0007B68012283F812217B68D3F8E4355B68DD
:1035B0007A68927810469847002318460837BD4627
:1035C00080BD00BF80B582B000AF78607B68D3F863
:1035D000E4351B6998477B68032283F81221002396
:1035E00018460837BD4680BD80B582B000AF786010
:1035F0007B68042283F812217B68D3F8E435DB680A
:103600009847002318460837BD4680BD80B582B074
:1036100000AF78607B68D3F8E035DB69002B05D01C
:103620007B68D3F8E035DB69786898470023184653
:103630000837BD4680BD00BF80B582B000AF78605E
:103640000B46FB707B68D3F8E0351B68FA78786826
:10365000114698477B68D3F8E4359B689847002368
:1036600018460837BD4680BD80B582B000AF78608F
:103670000B46FB707B68D3F8E0355B68FA787868B6
:1036800011469847002318460837BD4680BD00BF45
:1036900080B582B000AF78607B68D3F8E0351B6AF4
:1036A00078689847002318460837BD4680BD00BF9C
:1036B00080B582B000AF78607B68D3F8E0355B6A94
:1036C00078689847002318460837BD4680BD00BF7C
:1036D00080B582B000AF786039607B681846FDF72E
:1036E00091FE7B68074A1A607B683A68C3F8182124
:1036F0007B680022C3F814217B6818460837BD4652
:1037000080BD00BF1852020880B582B000AF78605B
:103710000B46FB707B681A1DFB781046194600F0BB
:10372000B9FB0346002B14BF00230123DBB2002B9F
:103730000AD0FB780D2B13D17B68D3F814315A1CB7
:103740007B68C3F814210BE07B68D3F81431002B9D
:1037500006D1FB780D2B03D17B680122C3F814211D
:103760000837BD4680BD00BF90B587B002AFF86096
:10377000B9607A603B60FB6801229A604FF48E70FA
:103780001AF01CFB04462046F968FFF7A1FFFB680E
:103790005C60FB681B681C68FB685B687A68009269
:1037A000F868B9681A463B68A047034618461437BC
:1037B000BD4690BD80B584B000AFF860B9607A6056
:1037C000FB681B681B68F868B9687A689847034605
:1037D00018461037BD4680BD80B582B000AF786016
:1037E00039607B681B6804331B68786839689847C0
:1037F0000837BD4680BD00BF80B582B000AF78609D
:103800007B681B6808331B6878689847034618462E
:103810000837BD4680BD00BF80B483B000AF78607C
:103820007B68094A1A607B6801225A607B68002223
:103830001A727B684FF07E52DA607B6818460C374C
:10384000BD465DF8047B7047E851020880B582B040
:1038500000AF786039607B681846FDF7D3FD7B6860
:10386000154A1A607B680022C3F814217B68002285
:10387000C3F83C217B680022C3F840217B6800220A
:10388000C3F848217B680022C3F844217B680022EA
:10389000C3F81C217B680022C3F820217B6800222A
:1038A000C3F824217B683A68C3F84C217B6818462A
:1038B0000837BD4680BD00BF8851020880B582B080
:1038C00000AF78607B681B681B6878689847034680
:1038D00018460837BD4680BD80B582B000AF78601D
:1038E0007B681B6804331B68786898470346184652
:1038F0000837BD4680BD00BF80B483B000AF78609C
:103900007B68044A1A607B6818460C37BD465DF830
:10391000047B70473061020880B483B000AF7860E8
:103920007B68044A1A607B6818460C37BD465DF810
:10393000047B7047C851020880B582B000AF786040
:103940007B681846FFF7D8FF7B6808331846FFF7F7
:10395000E3FF7B68064A1A607B68064A9A607B68C8
:103960000022DA607B6818460837BD4680BD00BF7C
:10397000A8590208005A020880B582B000AF7860EA
:103980007B681846FFF7B8FF7B6808331846FFF7D7
:10399000C3FF7B68064A1A607B68064A9A607B68A8
:1039A0000022DA607B6818460837BD4680BD00BF3C
:1039B000305902088859020880B582B000AF78609B
:1039C0007B681846FFF798FF7B6808331846FFF7B7
:1039D000A3FF7B68064A1A607B68064A9A607B6888
:1039E0000022DA607B6818460837BD4680BD00BFFC
:1039F000B85802081059020880B582B000AF78604C
:103A00007B681846FFF778FF7B6808331846FFF796
:103A100083FF7B68064A1A607B68064A9A607B6867
:103A20000022DA607B6818460837BD4680BD00BFBB
:103A3000405802089858020880B582B000AF7860FC
:103A40007B681846FFF758FF7B6808331846FFF776
:103A500063FF7B68064A1A607B68064A9A607B6847
:103A60000022DA607B6818460837BD4680BD00BF7B
:103A7000C85702082058020880B483B000AF7860AD
:103A80007B68044A1A607B6818460C37BD465DF8AF
:103A9000047B7047F851020880B582B000AF7860AF
:103AA0007B681846FFF728FF7B6808331846FFF746
:103AB000E3FF7B68064A1A607B68064A9A607B6867
:103AC0000022DA607B6818460837BD4680BD00BF1B
:103AD00080540208D454020880B582B000AF7860E8
:103AE0007B681846FFF708FF7B68034A1A607B680B
:103AF00018460837BD4680BD985A020880B582B086
:103B000000AF78607B681846FFF7F6FE7B68034AD3
:103B10001A607B6818460837BD4680BDE05A020827
:103B200080B582B000AF78607B681846FFF7E4FE8E
:103B30007B68034A1A607B6818460837BD4680BD1B
:103B4000005C020880B582B000AF78607B681846E0
:103B5000FFF7D2FE7B6808331846FFF78DFF7B68BE
:103B6000044A1A607B68044A9A607B6818460837E2
:103B7000BD4680BD205A0208745A020880B483B042
:103B800000AF78607B68044A1A607B6818460C377F
:103B9000BD465DF8047B70479061020880B582B035
:103BA00000AF78607B681846FFF7E8FF7B68034A40
:103BB0001A607B6818460837BD4680BDB0530208BE
:103BC00080B582B000AF78607B681846FFF724FEAE
:103BD0007B68034A1A607B6818460837BD4680BD7B
:103BE000E853020880B582B000AF78607B68184661
:103BF000FFF7C4FF7B68034A1A607B6818460837E2
:103C0000BD4680BD7853020890B5ADF2AC5D04AFFF
:103C100007F5AE631846FFF73FFF3A4607F5AE6378
:103C200008331046194606F0B3FD07F5AC63184695
:103C3000FFF782FE07F5AA631846FFF79DFE07F51A
:103C4000A8631846FFF7B8FE07F5A6631846FFF706
:103C5000D3FE07F5A4631846FFF7EEFE07F20C50FB
:103C600007F5AC6303F1080107F5AA6303F1080245
:103C700007F5A863083307F5A6640834009407F530
:103C8000A46408340194FCF7DDFC07F204531846E1
:103C9000FFF722FF07F1280207F2045310461946E6
:103CA000FDF7F6F907F2FC431846FFF727FF07F187
:103CB000580207F2FC4310461946FDF7E9F907F1EF
:103CC0002803184601213222FDF714FA07F15803A0
:103CD000184601213222FDF70DFA07F2F443184687
:103CE000FFF71EFF07F59D6207F2F44310461946E1
:103CF00006F08EF907F59D63184606F09FF907F563
:103D00009B631846FFF71EFF07F59B63184609F0F3
:103D1000D5FD07F59D631846C82106F0CFF907F2D7
:103D2000CC431846FFF73AFF07F2CC4318464FF44E
:103D3000E13100220823FFF717FD07F2BC431846C4
:103D4000FFF73EFF07F1880207F2BC431046194611
:103D50004FF47A7208F06AFA07F596631846FFF78F
:103D600041FF07F5BC7207F5966310461946FFF749
:103D70006DFD07F1D00107F1880207F5BC73084615
:103D800011461A4607F0C2F807F1D003184607F0AB
:103D900033F907F5327007F20C5107F59B6207F112
:103DA000280307F1580400943C46019407F1D0041D
:103DB000029403F035FD07F53273184603F006FE52
:103DC0000023C7F8943509E007F59B63184609F00E
:103DD0001FFED7F894350133C7F89435D7F89425EA
:103DE00048F29F63C0F201039A42EDD907F59B6345
:103DF000184609F01BFE002387F88F354FF00003AB
:103E0000C7F88835FFF7CCF802460B461346C7F8CB
:103E10009035FFF7C5F802460B4607F5B061C1E9DA
:103E2000002307F59D63184606F01AF907F1D00341
:103E3000184607F0A9F907F53273184604F064FD37
:103E4000FFF7AEF8D7F890351A464FF00003821A04
:103E500061EB0303642A73F10001B4BF0023012363
:103E6000DBB2002B14D0FFF79BF802460B4613463B
:103E7000C7F8903507F53273184605F0F7FD07F2DD
:103E8000CC43184645F2B811C0F602010AF02AFFE9
:103E9000C7E700BF80B485B000AF78600B46FB7009
:103EA0007B68D3F808315A1C47F68173C7F68073D4
:103EB00083FB0213D911D317C91A0B461B020B44FB
:103EC000D31AFB607B68D3F80421FB689A4201D1C6
:103ED00001230AE07B68D3F808317A68F978D15475
:103EE0007B68FA68C3F80821002318461437BD46DA
:103EF0005DF8047B704700BF80B582B000AF78608A
:103F00007B680433184603F09DF80346002B14BF6A
:103F100000230123DBB218460837BD4680BD00BF31
:103F200080B483B000AF78607B68D3F81431184652
:103F30000C37BD465DF8047B704700BF80B582B08A
:103F400000AF78607B680433184603F091F80346AD
:103F500018460837BD4680BD90B585B000AF786083
:103F600039607B680433184603F06CF80346002B75
:103F70000CBF00230123DBB2002B08D03B680022DA
:103F80001A707B680022C3F81421002354E0002338
:103F9000FB604DE0FB683A68D4187B680433184630
:103FA00003F066F803462370FB683A6813441B78F5
:103FB0000D2B02D0FB68FE2B1FDDFB683A68134413
:103FC00000221A707B680433184603F03BF803465E
:103FD000002B0CBF00230123DBB2002B04D07B6835
:103FE0000022C3F8142106E07B68D3F814315A1E6E
:103FF0007B68C3F81421FB681EE07B680433184615
:1040000003F020F80346002B0CBF00230123DBB292
:10401000002B0AD0FB683A68134400221A707B68B0
:104020000022C3F81421FB6806E0FB680133FB6043
:10403000FB68FF2BAEDD002318461437BD4690BD4C
:1040400080B582B000AF78607B689B68012B06D199
:104050007B685B681846FFF763FF034600E00023B8
:1040600018460837BD4680BD80B582B000AF786085
:1040700039603B6800221A707B689B68012B07D16E
:104080007B685B6818463968FFF766FF034600E007
:10409000002318460837BD4680BD00BF80B582B0FA
:1040A00000AF78607B689B68012B06D17B685B68FA
:1040B0001846FFF721FF034600E0002318460837A3
:1040C000BD4680BD80B582B000AF78607B689B68DC
:1040D000012B06D17B685B681846FFF72FFF03466C
:1040E00000E0002318460837BD4680BD80B584B087
:1040F00000AF786039600023FB600DE07B681B68CF
:1041000004331B68FA6839680A44127878681146E3
:104110009847FB680133FB60FB683A6813441B78DF
:10412000002BEBD11037BD4680BD00BF90B587B0E6
:1041300002AFF860B9607A603B60FB6802229A6067
:10414000FB681B681C683B680093F868B9687A686C
:104150003B6AA047034618461437BD4690BD00BFD2
:1041600080B483B000AF786040F6FF7318460C3718
:10417000BD465DF8047B7047A0F10800F0E700BF82
:1041800080B483B000AF786043F23333C4F253039A
:1041900018460C37BD465DF8047B7047A0F1080057
:1041A000EEE700BF80B483B000AF786040F6FF73E5
:1041B00018460C37BD465DF8047B7047A0F1080037
:1041C000F0E700BF80B483B000AF786043F23333D0
:1041D000C4F2530318460C37BD465DF8047B7047A4
:1041E000A0F10800EEE700BF80B483B000AF7860B4
:1041F00040F6FF7318460C37BD465DF8047B7047E8
:10420000A0F10800F0E700BF80B483B000AF786091
:1042100043F23333C4F2530318460C37BD465DF8FE
:10422000047B7047A0F10800EEE700BF80B483B0C4
:1042300000AF786040F6FF7318460C37BD465DF856
:10424000047B7047A0F10800F0E700BF80B483B0A2
:1042500000AF786043F23333C4F2530318460C378F
:10426000BD465DF8047B7047A0F10800EEE700BF93
:1042700080B483B000AF786040F6FF7318460C3707
:10428000BD465DF8047B7047A0F10800F0E700BF71
:1042900080B483B000AF786043F23333C4F2530389
:1042A00018460C37BD465DF8047B7047A0F1080046
:1042B000EEE700BF80B483B000AF786040F6FF73D4
:1042C00018460C37BD465DF8047B7047A0F1080026
:1042D000F0E700BF80B483B000AF786043F23333BF
:1042E000C4F2530318460C37BD465DF8047B704793
:1042F000A0F10800EEE700BF80B483B000AF7860A3
:1043000040F6FF7318460C37BD465DF8047B7047D6
:10431000A0F10800F0E700BF80B483B000AF786080
:1043200043F23333C4F2530318460C37BD465DF8ED
:10433000047B7047A0F10800EEE700BF80B483B0B3
:1043400000AF786040F6FF7318460C37BD465DF845
:10435000047B7047A0F10800F0E700BF80B483B091
:1043600000AF786043F23333C4F2530318460C377E
:10437000BD465DF8047B7047A0F10800EEE700BF82
:1043800080B483B000AF786040F6FF7318460C37F6
:10439000BD465DF8047B7047A0F10800F0E700BF60
:1043A00080B483B000AF786043F23333C4F2530378
:1043B00018460C37BD465DF8047B7047A0F1080035
:1043C000EEE700BF80B483B000AF786040F6FF73C3
:1043D00018460C37BD465DF8047B7047A0F1080015
:1043E000F0E700BF80B483B000AF786043F23333AE
:1043F000C4F2530318460C37BD465DF8047B704782
:10440000A0F10800EEE700BF80B483B000AF786091
:1044100040F6FF7318460C37BD465DF8047B7047C5
:10442000A0F10800F0E700BF80B483B000AF78606F
:1044300043F23333C4F2530318460C37BD465DF8DC
:10444000047B7047A0F10800EEE700BF80B582B0A2
:1044500000AF78604FF44060C4F202004FF4805126
:1044600006F080FC034618460837BD4680BD00BFF5
:1044700080B582B000AF786039603B68002B08D10E
:104480004FF44060C4F202004FF4805106F092FCF9
:1044900007E04FF44060C4F202004FF4805106F090
:1044A0007BFC0837BD4680BD80B582B000AF786028
:1044B0004FF44060C4F202004FF4805106F038FC23
:1044C000034618460837BD4680BD00BF80B584B09E
:1044D00002AF78600023009300204FF44061C4F2E3
:1044E00002014FF480520023FCF7BCFE0023184663
:1044F0000837BD4680BD00BF80B584B002AF78608C
:104500000023009301204FF44061C4F202014FF4F4
:1045100080520023FCF7A6FE002318460837BD464C
:1045200080BD00BF80B584B002AF786000230093E7
:1045300000204FF44061C4F202014FF48052012385
:10454000FCF790FE002318460837BD4680BD00BF2B
:1045500080B584B002AF78600023009300204FF450
:104560004061C4F202014FF480520223FCF77AFE4C
:10457000002318460837BD4680BD00BF80B582B015
:1045800000AF78604FF44060C4F202004FF4804105
:1045900006F0E8FB034618460837BD4680BD00BF5D
:1045A00080B582B000AF786039603B68002B08D1DD
:1045B0004FF44060C4F202004FF4804106F0FAFB71
:1045C00007E04FF44060C4F202004FF4804106F06F
:1045D000E3FB0837BD4680BD80B582B000AF786090
:1045E0004FF44060C4F202004FF4804106F0A0FB9B
:1045F000034618460837BD4680BD00BF80B584B06D
:1046000002AF78600023009300204FF44061C4F2B1
:1046100002014FF480420023FCF724FE01231846D8
:104620000837BD4680BD00BF80B584B002AF78605A
:104630000023009301204FF44061C4F202014FF4C3
:1046400080420023FCF70EFE002318460837BD46C3
:1046500080BD00BF80B584B002AF786000230093B6
:1046600000204FF44061C4F202014FF48042012364
:10467000FCF7F8FD012318460837BD4680BD00BF92
:1046800080B584B002AF78600023009300204FF41F
:104690004061C4F202014FF480420223FCF7E2FDC4
:1046A000002318460837BD4680BD00BF80B582B0E4
:1046B00000AF78604FF44060C4F202004FF4005144
:1046C00006F050FB034618460837BD4680BD00BFC4
:1046D00080B582B000AF786039603B68002B08D1AC
:1046E0004FF44060C4F202004FF4005106F062FB48
:1046F00007E04FF44060C4F202004FF4005106F0AE
:104700004BFB0837BD4680BD80B582B000AF7860F6
:104710004FF44060C4F202004FF4005106F008FB71
:10472000034618460837BD4680BD00BF80B584B03B
:1047300002AF78600023009300204FF44061C4F280
:1047400002014FF400520023FCF78CFD00231846B1
:104750000837BD4680BD00BF80B584B002AF786029
:104760000023009301204FF44061C4F202014FF492
:1047700000520023FCF776FD002318460837BD469B
:1047800080BD00BF80B584B002AF78600023009385
:1047900000204FF44061C4F202014FF400520123A3
:1047A000FCF760FD002318460837BD4680BD00BFFA
:1047B00080B584B002AF78600023009300204FF4EE
:1047C0004061C4F202014FF400520223FCF74AFD9B
:1047D000002318460837BD4680BD00BF80B582B0B3
:1047E00000AF78604FF44060C4F202004FF4004123
:1047F00006F0B8FA034618460837BD4680BD00BF2C
:1048000080B582B000AF786039603B68002B08D17A
:104810004FF44060C4F202004FF4004106F0CAFABF
:1048200007E04FF44060C4F202004FF4004106F08C
:10483000B3FA0837BD4680BD80B582B000AF78605E
:104840004FF44060C4F202004FF4004106F070FAE9
:10485000034618460837BD4680BD00BF80B584B00A
:1048600002AF78600023009300204FF44061C4F24F
:1048700002014FF400420023FCF7F4FC0023184629
:104880000837BD4680BD00BF80B584B002AF7860F8
:104890000023009301204FF44061C4F202014FF461
:1048A00000420023FCF7DEFC002318460837BD4613
:1048B00080BD00BF80B584B002AF78600023009354
:1048C00000204FF44061C4F202014FF40042012382
:1048D000FCF7C8FC002318460837BD4680BD00BF62
:1048E00080B584B002AF78600023009300204FF4BD
:1048F0004061C4F202014FF400420223FCF7B2FC13
:10490000002318460837BD4680BD00BF80B582B081
:1049100000AF78604FF48050C4F20200802106F0AE
:1049200021FA034618460837BD4680BD80B582B0DF
:1049300000AF786039603B68002B07D14FF480509E
:10494000C4F20200802106F035FA06E04FF48050F0
:10495000C4F20200802106F01FFA0837BD4680BD70
:1049600080B582B000AF78604FF48050C4F202008E
:10497000802106F0DDF9034618460837BD4680BDA4
:1049800080B584B002AF78600023009300204FF41C
:104990008051C4F2020180220023FCF763FC002353
:1049A00018460837BD4680BD80B483B000AF78603C
:1049B000012318460C37BD465DF8047B704700BFE5
:1049C00080B584B002AF78600023009300204FF4DC
:1049D0008051C4F2020180220123FCF743FC002332
:1049E00018460837BD4680BD80B584B002AF7860F8
:1049F0000023009300204FF48051C4F20201802272
:104A00000223FCF72FFC002318460837BD4680BD63
:104A100080B582B000AF78604FF48050C4F20200DD
:104A20004FF4005106F09EF9034618460837BD467C
:104A300080BD00BF80B582B000AF786039603B6850
:104A4000002B08D14FF48050C4F202004FF4005103
:104A500006F0B0F907E04FF48050C4F202004FF4C2
:104A6000005106F099F90837BD4680BD80B582B087
:104A700000AF78604FF48050C4F202004FF4005150
:104A800006F056F9034618460837BD4680BD00BFFC
:104A900080B584B002AF78600023009300204FF40B
:104AA0008051C4F202014FF400520023FCF7DAFBFC
:104AB000002318460837BD4680BD00BF80B483B0D0
:104AC00000AF7860012318460C37BD465DF8047BC3
:104AD000704700BF80B584B002AF786000230093B8
:104AE00000204FF48051C4F202014FF40052012320
:104AF000FCF7B8FB002318460837BD4680BD00BF51
:104B000080B584B002AF78600023009300204FF49A
:104B10008051C4F202014FF400520223FCF7A2FBC1
:104B2000002318460837BD4680BD00BF80B582B05F
:104B300000AF78600020C4F20200402106F012F9B4
:104B4000034618460837BD4680BD00BF80B582B019
:104B500000AF786039603B68002B06D10020C4F2BA
:104B60000200402106F026F905E00020C4F2020010
:104B7000402106F011F90837BD4680BD80B483B0EE
:104B800000AF7860002318460C37BD465DF8047B03
:104B9000704700BF80B483B000AF7860012318462F
:104BA0000C37BD465DF8047B704700BF80B584B00C
:104BB00002AF78600023009301200021C4F20201BB
:104BC00040220023FCF74EFB002318460837BD4661
:104BD00080BD00BF80B483B000AF78600123184669
:104BE0000C37BD465DF8047B704700BF80B483B0CE
:104BF00000AF7860012318460C37BD465DF8047B92
:104C0000704700BF80B582B000AF78604FF400609D
:104C1000C4F20200012106F0A5F803461846083741
:104C2000BD4680BD80B582B000AF786039603B681A
:104C3000002B07D14FF40060C4F20200012106F0FE
:104C4000B9F806E04FF40060C4F20200012106F05A
:104C5000A3F80837BD4680BD80B582B000AF78604C
:104C60004FF40060C4F20200012106F061F803462F
:104C700018460837BD4680BD80B584B002AF786065
:104C80000023009300204FF40061C4F202010122CE
:104C90000023FCF7E7FA002318460837BD4680BD1D
:104CA00080B584B002AF78607B680222DA600023AE
:104CB000009301204FF40061C4F20201012200239D
:104CC000FCF7D0FA002318460837BD4680BD00BF68
:104CD00080B584B002AF78600023009300204FF4C9
:104CE0000061C4F2020101220123FCF7BBFA002398
:104CF00018460837BD4680BD80B584B002AF7860E5
:104D00000023009300204FF40061C4F2020101224D
:104D10000223FCF7A7FA002318460837BD4680BDDA
:104D200080B582B000AF78604FF40060C4F202003A
:104D3000022106F017F8034618460837BD4680BD25
:104D400080B582B000AF786039603B68002B07D136
:104D50004FF40060C4F20200022106F02BF806E0D6
:104D60004FF40060C4F20200022106F015F8083783
:104D7000BD4680BD80B582B000AF78604FF4006062
:104D8000C4F20200022105F0D3FF0346184608379B
:104D9000BD4680BD80B584B002AF7860002300932B
:104DA00000204FF40061C4F2020102220023FCF74C
:104DB00059FA002318460837BD4680BD80B584B037
:104DC00002AF78607B680222DA6000230093012042
:104DD0004FF40061C4F2020102220023FCF742FA00
:104DE000002318460837BD4680BD00BF80B584B09B
:104DF00002AF78600023009300204FF40061C4F2FA
:104E0000020102220123FCF72DFA0023184608377D
:104E1000BD4680BD80B584B002AF786000230093AA
:104E200000204FF40061C4F2020102220223FCF7C9
:104E300019FA002318460837BD4680BD80B582B0F8
:104E400000AF78604FF40060C4F20200042105F066
:104E500089FF034618460837BD4680BD80B582B03D
:104E600000AF786039603B68002B07D14FF40060D9
:104E7000C4F20200042105F09DFF06E04FF400603B
:104E8000C4F20200042105F087FF0837BD4680BD4B
:104E900080B582B000AF78604FF40060C4F20200C9
:104EA000042105F045FF034618460837BD4680BD7E
:104EB00080B584B002AF78600023009300204FF4E7
:104EC0000061C4F2020104220023FCF7CBF90023A5
:104ED00018460837BD4680BD80B584B002AF786003
:104EE0007B680222DA600023009301204FF4006106
:104EF000C4F2020104220023FCF7B4F9002318468F
:104F00000837BD4680BD00BF80B584B002AF786071
:104F10000023009300204FF40061C4F20201042238
:104F20000123FCF79FF9002318460837BD4680BDD2
:104F300080B584B002AF78600023009300204FF466
:104F40000061C4F2020104220223FCF78BF9002362
:104F500018460837BD4680BD80B582B000AF786086
:104F60004FF40060C4F20200082105F0FBFE034686
:104F700018460837BD4680BD80B582B000AF786066
:104F800039603B68002B07D14FF40060C4F2020087
:104F9000082105F00FFF06E04FF40060C4F20200A4
:104FA000082105F0F9FE0837BD4680BD80B582B006
:104FB00000AF78604FF40060C4F20200082105F0F1
:104FC000B7FE034618460837BD4680BD80B584B09D
:104FD00002AF78600023009300204FF40061C4F218
:104FE000020108220023FCF73DF900231846083788
:104FF000BD4680BD80B584B002AF78607B68022278
:10500000DA600023009301204FF40061C4F2020132
:1050100008220023FCF726F9002318460837BD466E
:1050200080BD00BF80B584B002AF786000230093DC
:1050300000204FF40061C4F2020108220123FCF7B2
:1050400011F9002318460837BD4680BD80B584B0ED
:1050500002AF78600023009300204FF40061C4F297
:10506000020108220223FCF7FDF800231846083746
:10507000BD4680BD80B582B000AF78600020C4F22C
:105080000200012105F06EFE034618460837BD46B2
:1050900080BD00BF80B582B000AF786039603B68EA
:1050A000002B06D10020C4F20200012105F082FE8F
:1050B00005E00020C4F20200012105F06DFE083772
:1050C000BD4680BD80B582B000AF78600020C4F2DC
:1050D0000200012105F02CFE034618460837BD46A4
:1050E00080BD00BF80B584B002AF7860002300931C
:1050F00000200021C4F2020101220023FCF7B2F8D3
:10510000002318460837BD4680BD00BF80B584B077
:1051100002AF78607B680222DA60002300930120EE
:105120000021C4F2020101220023FCF79BF80023B6
:1051300018460837BD4680BD80B584B002AF7860A0
:105140000023009300200021C4F202010122012368
:10515000FCF788F8002318460837BD4680BD00BF1D
:1051600080B584B002AF7860002300930020002156
:10517000C4F2020101220223FCF774F8002318464E
:105180000837BD4680BD00BF80B582B000AF7860F3
:105190000020C4F20200022105F0E4FD0346184697
:1051A0000837BD4680BD00BF80B582B000AF7860D3
:1051B00039603B68002B06D10020C4F202000221B6
:1051C00005F0F8FD05E00020C4F20200022105F020
:1051D000E3FD0837BD4680BD80B582B000AF786082
:1051E0000020C4F20200022105F0A2FD0346184689
:1051F0000837BD4680BD00BF80B584B002AF78607F
:105200000023009300200021C4F2020102220023A7
:10521000FCF728F8002318460837BD4680BD00BFBC
:1052200080B584B002AF78607B680222DA60002328
:10523000009301200021C4F2020102220023FCF7A6
:1052400011F8002318460837BD4680BD80B584B0EC
:1052500002AF78600023009300200021C4F2020115
:1052600002220123FBF7FEFF002318460837BD4644
:1052700080BD00BF80B584B002AF7860002300938A
:1052800000200021C4F2020102220223FBF7EAFF00
:10529000002318460837BD4680BD00BF80B582B0E8
:1052A00000AF78600020C4F20200042105F05AFD2E
:1052B000034618460837BD4680BD00BF80B582B0A2
:1052C00000AF786039603B68002B06D10020C4F243
:1052D0000200042105F06EFD05E00020C4F202008A
:1052E000042105F059FD0837BD4680BD80B582B068
:1052F00000AF78600020C4F20200042105F018FD20
:10530000034618460837BD4680BD00BF80B584B04F
:1053100002AF78600023009300200021C4F2020154
:1053200004220023FBF79EFF002318460837BD46E2
:1053300080BD00BF80B584B002AF78607B68022278
:10534000DA600023009301200021C4F2020104224C
:105350000023FBF787FF002318460837BD4680BDB2
:1053600080B584B002AF7860002300930020002154
:10537000C4F2020104220123FBF774FF0023184644
:105380000837BD4680BD00BF80B584B002AF7860ED
:105390000023009300200021C4F202010422022312
:1053A000FBF760FF002318460837BD4680BD00BFED
:1053B00080B582B000AF78600020C4F202000821FE
:1053C00005F0D0FC034618460837BD4680BD00BF37
:1053D00080B582B000AF786039603B68002B06D1A1
:1053E0000020C4F20200082105F0E4FC05E00020E2
:1053F000C4F20200082105F0CFFC0837BD4680BD8D
:1054000080B582B000AF78600020C4F202000821AD
:1054100005F08EFC034618460837BD4680BD00BF28
:1054200080B584B002AF7860002300930020002193
:10543000C4F2020108220023FBF714FF00231846E0
:105440000837BD4680BD00BF80B584B002AF78602C
:105450007B680222DA600023009301200021C4F25D
:10546000020108220023FBF7FDFE0023184608373F
:10547000BD4680BD80B584B002AF78600023009344
:1054800000200021C4F2020108220123FBF7EAFEFA
:10549000002318460837BD4680BD00BF80B584B0E4
:1054A00002AF78600023009300200021C4F20201C3
:1054B00008220223FBF7D6FE002318460837BD4614
:1054C00080BD00BF80B582B000AF78600020C4F21C
:1054D0000200102105F046FC034618460837BD4679
:1054E00080BD00BF80B582B000AF786039603B6896
:1054F000002B06D10020C4F20200102105F05AFC56
:1055000005E00020C4F20200102105F045FC083738
:10551000BD4680BD80B582B000AF78600020C4F287
:105520000200102105F004FC034618460837BD466A
:1055300080BD00BF80B584B002AF786000230093C7
:1055400000200021C4F2020110220023FBF78AFE92
:10555000002318460837BD4680BD00BF80B584B023
:1055600002AF78607B680222DA600023009301209A
:105570000021C4F2020110220023FBF773FE002376
:1055800018460837BD4680BD80B584B002AF78604C
:105590000023009300200021C4F202011022012305
:1055A000FBF760FE002318460837BD4680BD00BFEC
:1055B00080B584B002AF7860002300930020002102
:1055C000C4F2020110220223FBF74CFE002318460E
:1055D0000837BD4680BD00BF80B582B000AF78609F
:1055E0000020C4F20200202105F0BCFB034618464F
:1055F0000837BD4680BD00BF80B582B000AF78607F
:1056000039603B68002B06D10020C4F20200202143
:1056100005F0D0FB05E00020C4F20200202105F0D7
:10562000BBFB0837BD4680BD80B582B000AF786057
:105630000020C4F20200202105F07AFB0346184640
:105640000837BD4680BD00BF80B584B002AF78602A
:105650000023009300200021C4F202012022002335
:10566000FBF700FE002318460837BD4680BD00BF8B
:1056700080B584B002AF78607B680222DA600023D4
:10568000009301200021C4F2020120220023FBF735
:10569000E9FD002318460837BD4680BD80B584B0BB
:1056A00002AF78600023009300200021C4F20201C1
:1056B00020220123FBF7D6FD002318460837BD46FC
:1056C00080BD00BF80B584B002AF78600023009336
:1056D00000200021C4F2020120220223FBF7C2FDB8
:1056E000002318460837BD4680BD00BF80B582B094
:1056F00000AF78604FF48060C4F20200022105F030
:1057000031FB034618460837BD4680BD80B582B0E0
:1057100000AF786039603B68002B07D14FF48060A0
:10572000C4F20200022105F045FB06E04FF4806060
:10573000C4F20200022105F02FFB0837BD4680BDF0
:1057400080B582B000AF78604FF48060C4F2020090
:10575000022105F0EDFA034618460837BD4680BD24
:1057600080B584B002AF78600023009300204FF42E
:105770008061C4F2020102220023FBF773FD0023C3
:1057800018460837BD4680BD80B584B002AF78604A
:105790007B680222DA600023009301204FF48061CD
:1057A000C4F2020102220023FBF75CFD002318462D
:1057B0000837BD4680BD00BF80B584B002AF7860B9
:1057C0000023009300204FF48061C4F20201022202
:1057D0000123FBF747FD002318460837BD4680BD6F
:1057E00080B584B002AF78600023009300204FF4AE
:1057F0008061C4F2020102220223FBF733FD002381
:1058000018460837BD4680BD80B582B000AF7860CD
:105810000020C4F202004FF4007105F0A3FA034621
:1058200018460837BD4680BD80B582B000AF7860AD
:1058300039603B68002B07D10020C4F202004FF40E
:10584000007105F0B7FA06E00020C4F202004FF440
:10585000007105F0A1FA0837BD4680BD80B582B061
:1058600000AF78600020C4F202004FF4007105F030
:105870005FFA034618460837BD4680BD80B584B040
:1058800002AF78600023009300200021C4F20201DF
:105890004FF400720023FBF7E5FC0023184608379D
:1058A000BD4680BD80B584B002AF78607B680222BF
:1058B000DA600023009301200021C4F202014FF4BA
:1058C00000720023FBF7CEFC002318460837BD46C4
:1058D00080BD00BF80B584B002AF78600023009324
:1058E00000200021C4F202014FF400720123FBF7F3
:1058F000B9FC002318460837BD4680BD80B584B08A
:1059000002AF78600023009300200021C4F202015E
:105910004FF400720223FBF7A5FC0023184608375A
:10592000BD4680BD80B582B000AF78600020C4F273
:1059300002004FF4807105F015FA03461846083747
:10594000BD4680BD80B582B000AF786039603B68ED
:10595000002B07D10020C4F202004FF4807105F043
:1059600029FA06E00020C4F202004FF4807105F02D
:1059700013FA0837BD4680BD80B582B000AF7860AD
:105980000020C4F202004FF4807105F0D1F9034603
:1059900018460837BD4680BD80B584B002AF786038
:1059A0000023009300200021C4F202014FF4807212
:1059B0000023FBF757FC002318460837BD4680BD7F
:1059C00080B584B002AF78607B680222DA60002381
:1059D000009301200021C4F202014FF480720023E1
:1059E000FBF740FC002318460837BD4680BD00BFCA
:1059F00080B584B002AF78600023009300200021BE
:105A0000C4F202014FF480720123FBF72BFC002348
:105A100018460837BD4680BD80B584B002AF7860B7
:105A20000023009300200021C4F202014FF4807291
:105A30000223FBF717FC002318460837BD4680BD3C
:105A400080B582B000AF78607B680122DA604FF4E5
:105A50000060C4F20200012104F050FC002318464B
:105A60000837BD4680BD00BFA0F10800FFF7E8BFC2
:105A700090B583B000AF78604FF40060C4F20200CC
:105A8000012104F057FD04467B681B6848331B68FE
:105A900078689847034618460EF090F8034620466B
:105AA00019460EF093F9034618460C37BD4690BDD3
:105AB000A0F10800FFF7DCBF80B582B000AF7860CE
:105AC0007B680122DA604FF40060C4F20200022118
:105AD00004F014FC002318460837BD4680BD00BF03
